:020000040800F2
:1000000048080020B501000825290008551F0008F0
:10001000212900082D0400085129000800000000D3
:100020000000000000000000000000002D29000872
:1000300031040008000000002929000831290008C7
:10004000CF010008CF010008CF010008CF01000850
:10005000CF010008CF010008CF010008CF01000840
:10006000CF010008CF010008CF010008CF01000830
:10007000CF010008CF010008CF010008CF01000820
:10008000CF010008CF010008CF010008CF01000810
:10009000CF010008CF010008CF010008CF01000800
:1000A000CF010008CF010008CF010008CF010008F0
:1000B00039290008CF010008CF010008CF0100084E
:1000C000CF010008CF010008CF010008CF010008D0
:1000D000CF010008CF010008CF010008CF010008C0
:1000E000CF010008CF010008CF01000800F002F89E
:1000F00000F050F814A696E8000CB244B344DA4578
:1001000001D100F047F8BAE80F000FA696E83000DA
:10011000A5EB040504EB0607AAEB0704A7F101070A
:100120004FEA15154FEA3414A4F10104AC4201D38F
:1001300000F030F813F0010F18BFFB1A43F0010371
:1001400000F001F8DBE7184724570000445700008F
:10015000103A24BF78C878C1FAD8520724BF30C8F3
:1001600030C144BF04680C60704700007047000055
:100170000023002400250026103A28BF78C1FBD8B0
:10018000520728BF30C148BF0B6070471FB51FBD65
:1001900010B510BD00F014F91146FFF7F7FF03F09A
:1001A0006DF900F032F903B4FFF7F2FF03BC00F081
:1001B00035F900000948804709480047FEE7FEE797
:1001C000FEE7FEE7FEE7FEE7FEE7FEE7FEE7FEE707
:1001D00004480549054A064B7047000035290008C8
:1001E000ED000008480200204808002048040020D4
:1001F0004804002053EA020C23D010B54C1084EAC6
:10020000530404D54042C1F1000138BF491E1B42CE
:1002100004D55242C3F1000338BF5B1E00F053F80F
:1002200014F0804F04D04042C1F1000138BF491E94
:1002300014F0004F04D05242C3F1000338BF5B1EDC
:1002400010BD13B540424FF0000070EB0104B8BF81
:10025000012001F0004100281CBF6FF000414FF069
:10026000FF30AFF300801CBD40EA010310B59B07CF
:100270000FD1042A0DD310C808C9121F9C42F8D010
:1002800020BA19BA884201D9012010BD4FF0FF30C1
:1002900010BD1AB1D30703D0521C07E0002010BDD7
:1002A00010F8013B11F8014B1B1B07D110F8013B63
:1002B00011F8014B1B1B01D1921EF1D1184610BD44
:1002C00070477047704753EA020C00F069802DE9CF
:1002D000F04B4FF00006002B1FBFB3FA83F503FA73
:1002E00005F424FA05F65E4012BF1643B2FA82F511
:1002F00002FA05F4C5F120051EBF22FA05FC44EA06
:100300000C04203556EA044C4FEA144418BF641C10
:100310004FF000084FF00009904271EB030C39D305
:10032000002919BFB1FA81F701FA07F6B0FA80F790
:1003300000FA07F6C7F120071EBF20FA07FC46EABD
:100340000C062037B6FBF4FCA7EB0507103F07F0BF
:100350001F0BCBF120062CFA06F60CFA0BFB44BF60
:10036000B3460026202FA4BF5E464FF0000B5BEA89
:10037000060C08BF4FF0010B19EB0B0948EB060800
:10038000ABFB027C06FB02CC0BFB03CCC01B71EB6E
:100390000C01C1E70B46024641464846BDE8F08BDA
:1003A00013B5084318BF4FF0FF300146AFF300808C
:1003B000BDE81C4070470000004870474000002026
:1003C0007546FFF7F9FFAE4605006946534620F033
:1003D0000700854618B020B5FFF7FAFEBDE82040BB
:1003E0004FF000064FF000074FF000084FF0000BF1
:1003F000AC46ACE8C009ACE8C009ACE8C009ACE860
:10040000C00921F007018D46704710B50446AFF3CF
:1004100000802046BDE81040FFF7C5BE0149182006
:10042000ABBEFEE72600020070470000FEE70000BA
:1004300070470000EFF3108072B600BFFEE70000C7
:10044000B0B5044600F026F9054640F20000C2F2BD
:1004500000000078611C18BF044400BF00F01AF9C6
:10046000401BA042FAD3B0BD2DE9F04F82B00E6818
:10047000002E00F0FD8041F20042C4F2010204238C
:1004800040F2004E904208BF03234FF6FF7CC4F2B7
:10049000010E009300240123C1F2100C4FF0000A5A
:1004A0004FF0000944E000BF012704F00C030F22C5
:1004B0009A402BEA020207FA03F34FEA9A051A431D
:1004C00046F825204E6840F20C45F202DEF808207E
:1004D00054BF22EA080242EA0802C4F20105CEF83B
:1004E00008202A68B30254BF22EA080242EA08023E
:1004F0002A60B303DEF8042054BF22EA080242EA6D
:100500000802F303CEF80420DEF800204FF00103C8
:1005100054BF22EA080242EA0802CEF800200E6820
:100520000AF1010A36FA0AF204F1040400F0A0808C
:1005300003FA0AFB16EA0B08F1D04E68664511DC97
:10054000122E55D8DFE806F0340A44485454545467
:100550005454545454545454544C5000D1F80C90A6
:1005600046E000BF4FF6FF72C1F2210296420FDC57
:100570000022C1F2110296421AD00022C1F21202E8
:10058000964215D00022C1F22102964210D02FE0EF
:100590000022C1F2220296420AD00022C1F23102A8
:1005A000964205D00022C1F23202964220D100BF0D
:1005B0008A684AB1012A14BFC0F814B0C0F810B05C
:1005C0004FF0080914E000BF4FF0040910E000BF2D
:1005D000CA6802F108090BE04FF0000908E000BF0B
:1005E000CA6802F1040903E0CA6802F10C0900BFFD
:1005F00022460646B8F5807F24BF203A0436376885
:100600000F25954027EA050509FA02F22A433260D0
:10061000CA79D2067FF583AF41F21803C4F2020310
:100620001A68AEF57E7642F001021A601A6802F08E
:1006300001020192019A2AF0030256F802B040F634
:100640000002C4F20102904210D040F60042C4F20F
:10065000010290423FF428AF41F20002C4F20102CD
:10066000009F904208BF02271FE700BF00271CE73A
:1006700002B0BDE8F08F0000C26802EA01039143B6
:1006800041EA034101617047002A08BF0904016182
:100690007047000040F24020C2F20000006870473E
:1006A000002804BF01207047F0B581B0044690F8DF
:1006B0003D0028B9002084F83C00204600F0FEFAF6
:1006C000242084F83D002068016821F001010160C8
:1006D000016841F400410160016821F400410160BA
:1006E00000F0E2FC636848F2A16CC0F2010C40F635
:1006F0000011C0F23D0163453CBF48F28041C0F2A9
:100700001E01884202D2012001B0F0BD4DF6836186
:10071000C4F21B31A0FB01122168970CD1F804E050
:100720004FF496762EF03F0545EA92454D607743AB
:1007300048F638160D6AC0F24106A7FB067625F08A
:100740003F07634538BF960C721C3A430A62CA6978
:1007500048F2A0664CF6FF77C0F20106B34222EAE7
:1007600007020BD801385B00B0FBF3F001306FF3E8
:100770001F30042898BF04201BE000BFA768013881
:1007800057B119277B43B0FBF3F001306FF31F30F3
:1007900070B100F5804007E003EB4303B0FBF3F0DA
:1007A00001306FF31F3018B100F5004001E000BFC9
:1007B00001201043C8610868D4E9072320F0C00075
:1007C000104318430860886848F2FF3204F10C07B0
:1007D00090438CCF18431043A6698860C86820F006
:1007E000FF0038433043C860086840F001000860EB
:1007F00000202021206484F83D10206384F83E000E
:1008000001B0F0BD2DE9F04F85B0044600209946B7
:1008100016460F460490FFF73DFF94F83D1020293F
:1008200027D10546206800BF816989071CD5FFF7DD
:1008300031FF411B20681A29F6D381698907F3D556
:1008400000202021206384F83D1084F83E00206CB5
:1008500004F13C0A40F020002064022000218AF8C4
:10086000001005B0BDE8F08FA2461AF83C1F012920
:1008700004D1022005B0BDE8F08F00BF01228AF844
:1008800000200368DDE90F180E9ADB0703D1036827
:1008900043F001030360036823F400630360222034
:1008A00084F83D00402084F83E000020206462620D
:1008B0006185608D394620850020CFF6FF70E062AB
:1008C000204632464B46CDE9008501F045FB18B184
:1008D000012005B0BDE8F08F208D022810D001283E
:1008E00024D0002838D1002003902068416903916A
:1008F000816903910399016841F40071016037E057
:100900002068016841F400610160EFF3108072B665
:100910000020039020684169039181690391039944
:10092000016821F48061016062B621E020680168FD
:1009300021F480610160EFF3108072B60020039013
:10094000206841690391816903910399016841F429
:100950000071016062B60BE02068016841F48061BB
:10096000016000210391416903918069039003981C
:10097000208D002800F0D480042740F208094BF2B3
:10098000895BC0F20107C2F20009C1F2F84B2326CD
:1009900017E000BF204641462A4601F07BFD0028B3
:1009A00096D12068616A00690870606A218D013003
:1009B0006062481E2085618D01396185010400F067
:1009C000AF8080B2032867D8022800F08980012810
:1009D000E0D02046394600224346009501F008FC4D
:1009E00000287FF475AF2068016821F48061016000
:1009F000EFF3108072B62068616A00690870606A5F
:100A0000218D0130013960622185618D0139618557
:100A1000D9F80010C908A1FB0B12110A7143049107
:100A20000499013904910499002900F08580216816
:100A30004A6952071ED40499013904910499002986
:100A400000F07A8021684A69520713D40499013969
:100A50000491049900296FD021684A69520709D48A
:100A60000499013904910499002965D021684A69E3
:100A70005207D5D50A6842F400720A60096901700C
:100A8000606A218D01306062481E2085608D0138CA
:100A9000608562B685E700BF204641462A4601F0E0
:100AA000F9FC00287FF414AF2068616A00690870BF
:100AB000606A2268411C208D616201382085638D47
:100AC000013B638553695B077FF578AF80B20328EC
:100AD00003D1106820F480601060106964E700BFE3
:100AE0002046394600224346009501F081FB00284C
:100AF0007FF4EEAEEFF3108072B62068616A026890
:100B000042F40072026000690870606A218D013051
:100B10006062481E2085608D0138608562B640E7BE
:100B2000202084F83D00002084F83E0000218AF84F
:100B3000001005B0BDE8F08F00202021206384F86C
:100B40003D1084F83E00206C40F02000206462B626
:100B5000012000218AF8001005B0BDE8F08F0000E8
:100B60002DE9F04383B0994616460F460446FFF739
:100B700091FD94F83D10202924D10546206800BF3E
:100B8000816989071AD5FFF785FD411B20681A295D
:100B9000F6D381698907F3D500202021206384F8EA
:100BA0003D1084F83E00216C41F02001216484F85E
:100BB0003C00022003B0BDE8F08300BF94F83C1075
:100BC000012903D1022003B0BDE8F083012284F89B
:100BD0003C200368DDE90B180A9ADB0703D10368A0
:100BE00043F001030360036823F4006303602120E2
:100BF00084F83D00402084F83E00002020646262BA
:100C00006185608D394620850020CFF6FF70E06257
:100C1000204632464B46CDE9008501F027FA18B14F
:100C2000012003B0BDE8F083208D98B920464146ED
:100C30002A4601F07FFA88B3206C0428F0D120689E
:100C4000016841F400710160012003B0BDE8F08348
:100C50000004EBD0204641462A4601F063FC002800
:100C6000EAD1616A2268084610F8013B1361238DBE
:100C70006062581E2085678D013F678557697F0731
:100C8000E6D50704E4D048781061881C6062981E9D
:100C90002085618D01396185DAE700BF2068016830
:100CA00041F400710160202084F83D00002084F8A8
:100CB0003E0084F83C0003B0BDE8F08310B586B078
:100CC000006845F60001C4F2000188424FF00001BF
:100CD000CDE90411CDE9021128D045F20041C4F25A
:100CE0000001884246D141F21804C4F2020420688F
:100CF00002A940F008002060206800F00800019080
:100D00000198C0200290122003900320059040F625
:100D10000040C4F20100FFF7A7FB606840F4001038
:100D20006060606800F4001022E000BF41F2180427
:100D3000C4F20204206802A940F008002060206884
:100D400000F00800019001984FF4406002901220DA
:100D500003900320059040F60040C4F20100FFF725
:100D600083FB606840F480006060606800F480008D
:100D70000190019806B010BD40F2000040F2402101
:100D8000C2F20000C2F2000100780A681044086054
:100D90007047000080B542F20000C4F20200016812
:100DA00041F010010160032000F08CF80F2000F0EA
:100DB00005F800F027F8002080BD000070B540F273
:100DC0000006C2F2000640F208013278C2F20001C9
:100DD0004FF47A730968B3FBF2F20446B1FBF2F107
:100DE000084600F089FB0F2C4FF0010508D838B9F0
:100DF0004FF0FF3021460022002500F037F87460E4
:100E0000284670BD82B041F21800C4F202000168A9
:100E1000022241F001010160016801F0010101912C
:100E20000199416841F080514160406800F0805074
:100E3000009000980420C4F20100016862F31A6176
:100E4000016002B070470000002848BF704700F002
:100E50001F01012202FA01F11C2202EAD0004EF227
:100E60000012CEF2000281507047000010B54EF61D
:100E70000C5CCEF2000CDCF80030C3F3022E8EF0D6
:100E80000704042C28BF0424BEF103034FF0FF3EE7
:100E90000EFA04F438BF0023A14399400EFA03F37D
:100EA0009A43114300F00F0200F160430901043A34
:100EB00003F564436244002848BF02F10C03197033
:100EC00010BD00004EF60C51CEF200010A684FF63C
:100ED000FF031A4060F30A2242F0806040F0FD7088
:100EE00008607047002804BF012070472DE9F043D7
:100EF00081B042F20008C4F202080446D8F80000AB
:100F00000D4600F0070088420CD2D8F8000020F00F
:100F100007002843C8F80000D8F8000000F00700D8
:100F2000A8426CD1206841F204098107C4F2020989
:100F300017D5410705D5D9F8001041F4E061C9F88B
:100F40000010010705D5D9F8001041F46051C9F827
:100F50000010D9F80010A26821F0F0011143C9F87F
:100F60000010C00742D1D8F8000000F00700A842E6
:100F70000CD9D8F8000020F007002843C8F800007A
:100F8000D8F8000000F00700A84238D120684107D7
:100F900007D5D9F80010E26821F4E0611143C9F8DF
:100FA0000010000708D5D9F80000216920F460502E
:100FB00040EAC100C9F80000D9F8002002F00C0096
:100FC000082841F20020C0F27A0051D144F60C43C7
:100FD000C2F38341C0F60003595CD2033CD440F60F
:100FE0000010C0F23D00484342E000BF60680228A4
:100FF0000AD001282AD159F8041C890308D40120F9
:1010000001B0BDE8F08300BF59F8041C8901F6D592
:10101000D9F8001021F003010843C9F80000FFF7D8
:1010200039FB064641F28837D9F80000616800F0C4
:101030000C00B0EB810F96D0FFF72CFB801BB84261
:10104000F2D9032001B0BDE8F08300BF59F8041CB9
:101050008907D4D5DCE700BFD9F8002044F60A435D
:10106000C2F34042C0F600039A5C4843B0FBF2F082
:10107000D9F8001044F6F232C1F30311C0F60002B1
:10108000515C40F2080220FA01F140F20400C2F281
:1010900000000068C2F200021160FFF78FFE00201E
:1010A00001B0BDE8F083000040F2080041F2040105
:1010B000C2F20000C4F202010068096844F602426C
:1010C000C1F30221C0F60002515CC8407047000025
:1010D00040F2080041F20401C2F20000C4F2020131
:1010E0000068096844F60242C1F3C221C0F600025A
:1010F000515CC84070470000002804BF01207047C1
:101100002DE9F04182B00446007841F20006C007A4
:10111000C4F202060CD0706800F00C00042840F005
:1011200081803068800303D56068002800F04E811C
:10113000207880071BD5706810F00C0F09D07068FC
:1011400000F00C00082840F08B807068C00300F1AC
:1011500087803068800703D52069012840F03681F8
:101160003068616920F0F80040EAC1003060207802
:10117000000713D4207840072CD4E569002D00F037
:101180002081706800F00C00082840F0AF80012D2D
:1011900040F00C81012002B0BDE8F081A069002878
:1011A00000F08C800020C4F242200121C0F880149D
:1011B000FFF770FA054600BF706A800700F1BA8039
:1011C000FFF768FA401B0228F6D9032002B0BDE8F9
:1011D000F08100BFF0695FEAC00808D4F06940F010
:1011E0008050F061F06900F080500090009847F264
:1011F0000007C4F200073868C0054DD4386840F4D1
:1012000080703860FFF746FA054600BF3868C005B1
:1012100042D4FFF73FFA401B6428F7D9032002B0FD
:10122000BDE8F081706800F00C00082803D17068F8
:10123000C0033FF576AF6068002800F00981B0F583
:10124000A02F00F01D81B0F5803F00F01D813068B7
:1012500020F480303060306820F4802017E100BF37
:101260002069002840F20000C4F2422000F08C8087
:1012700001210160FFF70EFA054600BF30688007C4
:101280003FF56EAFFFF706FA401B0228F6D90320A0
:1012900002B0BDE8F08100BFE068002800F09A804D
:1012A000052800F0B180012800F0B280306A20F0FB
:1012B00001003062306A20F00400ACE00020C4F28B
:1012C00042200021C0F88014FFF7E4F9054600BF72
:1012D000706A80077FF54EAFFFF7DCF9401B0228EC
:1012E000F6D9032002B0BDE8F08100BF0027C4F2A8
:1012F000422700203866FFF7CDF9022D05460DD1B3
:101300003068800140F1D680FFF7C4F9401B022805
:101310004FF00300F4D902B0BDE8F08130688001DD
:101320004FD5FFF7B7F9401B02284FF00300F5D95E
:10133000F1E700BF40F20800C2F20000006844F686
:10134000D351C1F26201A0FB0101480A019000BF24
:1013500000BF0198411E002801913FF40BAF00BF70
:101360000198411E002801913FF404AF00BF01988D
:10137000411E002801913FF4FDAE00BF0198411EBF
:1013800000280191E4D1F5E600210160FFF782F920
:10139000054600BF306880077FF5E9AEFFF77AF9B0
:1013A000401B02284FF00300F4D9B4E77068216AAB
:1013B00000F480328A4209D1616A00F470108842D8
:1013C00004D1002002B0BDE8F08100BF012002B0CE
:1013D000BDE8F081306A20F001003062306A20F010
:1013E00004003062FFF756F9054641F2883700BF26
:1013F000306A800722D5FFF74DF9401BB8424FF005
:101400000300F5D987E700BF306A40F0040030627E
:10141000306A40F001003062FFF73CF9054641F2C6
:10142000883700BF306A800708D4FFF733F9401BC4
:10143000B842F7D9032002B0BDE8F081B8F1000F3F
:101440003FF59BAEF06920F08050F06195E600BF5B
:10145000306820F480303060306820F480203060C4
:10146000FFF718F9054600BF306880037FF560AECE
:10147000FFF710F9401B64284FF00300F4D94AE746
:10148000306840F480203060306840F48030306054
:10149000FFF700F9054600BF306880033FF548AE0E
:1014A000FFF7F8F8401B6428F6D9032002B0BDE826
:1014B000F08100BF206AB0F5803F05D17168A26855
:1014C00021F40031114371607168626A21F4741172
:1014D00011430843706001203866FFF7DBF80446CB
:1014E000306880013FF56DAFFFF7D4F8001B02288C
:1014F0004FF00300F4D90EE7411E0020B0EB116F4E
:101500001CBF012070474EF21002CEF20002516063
:101510004EF62351CEF20001F0230B7007219060AC
:1015200011607047704700007047000090F83C2041
:10153000012A4FF0020236D010B580F83D20026833
:10154000D2F804E0D2F808C00C682EF070032343F0
:1015500040F2FF74C4F20004A24253600ADCB2F10C
:10156000804F13D040F20043C4F200039A420DD0E2
:1015700011E000BF42F60043C4F201039A4205D0D5
:1015800040F60003C4F200039A4204D149682CF0EB
:101590008003194391600121002280F83D1080F8FA
:1015A0003C20BDE81040104670470000002804BFF2
:1015B0000120704710B5044690F83D0028B900207E
:1015C00084F83C00204600F06FF8022084F83D00CB
:1015D000206840F2FF730268C4F2000342F6004C38
:1015E0009842C4F2010C15DCB0F1804F1AD040F2E1
:1015F0000041C4F20001884214D0984218DCB0F1D6
:10160000804F1DD040F20041C4F20001884217D043
:101610001AE000BF604505D040F60001C4F20001A9
:101620008842EAD1A16822F070020A439842E6DDBE
:10163000604505D040F60001C4F20001884203D1A4
:10164000216922F440720A43A36922F08001D4F890
:1016500004E0E268194360450160C262C0F828E016
:1016600002D16169CCF83010012141610269D207D1
:1016700003D0026922F001020261002084F84610C2
:1016800084F83E1084F83F1084F8401084F841102C
:1016900084F8421084F8431084F8441084F845100C
:1016A00084F83D1010BD00000068B0F1804F18BFF5
:1016B000704780B582B041F21C00C4F2020001689C
:1016C000002241F0010101600068002100F00100EA
:1016D000019001981C20FFF7C9FB1C2002B0BDE857
:1016E0008040FFF7B1BB000090F83C20012A4FF08A
:1016F000020200F0C58080B580F83D20D0F800C01F
:101700004FF67772DCF8083023EA0202CCF80820A2
:101710000B684F2B28DC1F2B44DD202B45D0302BB2
:1017200043D0402B40F0AE80D1F804E0C968DCF82B
:101730002030DCF8202022F00102CCF82020DCF858
:10174000182022F0F00242EA011123F00A0242EAD4
:101750000E02CCF81810CCF82020DCF8081041F06C
:10176000470121F0300180E06F2B27DDB3F5005FEA
:1017700048D0B3F5805F7AD0702B40F08380D1E9F8
:1017800001E3C968DCF8082043EA0E0322F47F4233
:1017900043EA01211143CCF80810DCF8081041F0AD
:1017A000770162E00BB1102B6CD1DCF8081021F04E
:1017B0007001194341F0070157E000BF502B35D0AD
:1017C000602B5FD1D1F804E0C968DCF82030DCF888
:1017D000202022F01002CCF82020DCF8182022F47F
:1017E000704242EA013123F0A00242EA0E12CCF824
:1017F0001810CCF82020DCF8081041F0670121F027
:10180000100132E0D1E901E3C968DCF8082043EABD
:101810000E0322F47F4243EA01211143CCF8081061
:10182000DCF8081041F480411FE000BFD1F804E06B
:10183000C968DCF82030DCF8202022F00102CCF866
:101840002020DCF8182022F0F00242EA011123F0F7
:101850000A0242EA0E02CCF81810CCF82020DCF87C
:10186000081041F0570121F02001CCF808100022A7
:10187000012180F83D10002180F83C10BDE8804037
:10188000104670470122F3E77047000070B5044628
:101890000068C5680669B10716D515F0020113D0B6
:1018A0006FF002010161012121778069800703D077
:1018B0002046FFF7E9FF05E0204600F08FF82046BC
:1018C00000F024FA00202077700719D515F00400E5
:1018D00016D020686FF00401016102212177806930
:1018E00010F4407F04D02046FFF7CEFF06E000BF93
:1018F000204600F073F8204600F008FA0020207718
:10190000300717D515F0080014D020686FF00801D3
:10191000016104212177C069800703D02046FFF7C9
:10192000B3FF05E0204600F059F8204600F0EEF93C
:1019300000202077F00619D515F0100016D0206889
:101940006FF01001016108212177C06910F4407F18
:1019500004D02046FFF798FF06E000BF204600F0C5
:101960003DF8204600F0D2F900202077F00718BF9C
:1019700015F0010002D1300609D412E020686FF0A2
:1019800001010161204600F031FA300609D515F059
:10199000800006D020686FF0800101612046FFF7CB
:1019A000C1FD700609D515F0400006D020686FF023
:1019B00040010161204600F01BFAB00658BF70BD1F
:1019C00015F0200008D021686FF0200220460A613F
:1019D000BDE87040FFF7A8BD70BD00007047000073
:1019E00090F83C30012B04BF022070474FEAB2024E
:1019F000032A3DD82DE9F043DFE802F002407CB62F
:101A0000036842F600461D6A1A6AC4F2010622F013
:101A100001021A621A465C6852F818CFB3428E6807
:101A2000D1F800E025F0020545EA06050CD1CE68A4
:101A3000D1E9057824F4407425F00C0526F004065D
:101A40003C43354344EA08042CF0730747EA0E0789
:101A50005C609F614F6809695F631D629F6947F021
:101A600008079F619F6927F004079F61ACE000BFF2
:101A70000121002280F83C2008467047036842F6A6
:101A800000461D6A1A6AC4F2010622F010021A62A8
:101A90001A46D3F804C052F8184FB3428E68D1F8F2
:101AA00000E025F0200545EA06150FD1CE68D1E902
:101AB00005986FF0400725F0C00507EA0616354384
:101AC0002CF4406748EA090647EA860C24F4E64409
:101AD00044EA0E27C3F804C09F614F6809699F63F9
:101AE0001D629F6947F400679F619F6927F48067C3
:101AF0009F6168E0036842F600461D6A1A6AC4F2F4
:101B0000010622F480721A621A46D3F804C052F811
:101B10001CEFB3428E680C6825F4007545EA062573
:101B20000FD1CE68D1E90598360240F2FF4725F47F
:101B30004065BE4335432CF4405748EA090647EA5E
:101B4000061C2EF073072743C3F804C0DF614F68FB
:101B50000969DF631D62DF6947F00807DF61DF693C
:101B600027F00407DF612FE0036842F60047D3F84F
:101B700020C01A6AC4F2010722F480521A621A467F
:101B80005C6852F81C5FD1F800E08E68BB4204D15B
:101B90004F6924F4804444EA87142CF4005747EA40
:101BA000063725F4E64646EA0E265C60DE614E689E
:101BB00009691E641F62DF6947F40067DF61DF693E
:101BC00027F48067DF61090213681943116000215F
:101BD000BDE8F043002280F83C2008467047000032
:101BE000002804BF0120704710B5044690F83D005E
:101BF00028B9002084F83C00204600F06FF802204D
:101C000084F83D00206840F2FF730268C4F20003CC
:101C100042F6004C9842C4F2010C15DCB0F1804F42
:101C20001AD040F20041C4F20001884214D0984218
:101C300018DCB0F1804F1DD040F20041C4F2000129
:101C4000884217D01AE000BF604505D040F6000179
:101C5000C4F200018842EAD1A16822F070020A436E
:101C60009842E6DD604505D040F60001C4F200016F
:101C7000884203D1216922F440720A43A36922F009
:101C80008001D4F804E0E268194360450160C26253
:101C9000C0F828E002D16169CCF83010012141611F
:101CA0000269D20703D0026922F00102026100201A
:101CB00084F8461084F83E1084F83F1084F84010F1
:101CC00084F8411084F8421084F8431084F84410DA
:101CD00084F8451084F83D1010BD0000006840F203
:101CE0000041C4F20001884218BF704781B041F240
:101CF0001C00C4F20200016841F0020101600068AA
:101D000000F002000090009801B07047704700009A
:101D100041B1082910D0042914BF00F1410200F19B
:101D20003F020BE090F83E20012A1CBF01207047C3
:101D3000022280F83E2013E000F140021278012ACE
:101D40001CBF012070470222082907D0042914BFB4
:101D500080F8412080F83F2002E000BF80F840205A
:101D6000006801F01F010122036A8A4023EA020190
:101D70000162036A42F64441C4F201011A43A1F12F
:101D80004403984202620FD040F2FF71C4F2000196
:101D9000884213DCB0F1804F1CD040F20041C4F205
:101DA0000001884216D01AE00A6842F400420A6034
:101DB00040F2FF71C4F200018842EBDD42F60041BF
:101DC000C4F20101884205D040F60001C4F20001CE
:101DD000884204D1816801F00701062903D0016817
:101DE00041F00101016000207047000070470000D1
:101DF00070470000002804BF0120704710B504465A
:101E000090F8410028B9002084F84000204600F0F6
:101E100063F8242084F841002068D4E90212C368E2
:101E200023F40053C360036923F440531A4302614F
:101E3000D4E904231143C268194341F20C639A4365
:101E40001143C1604169A26921F44071114343F615
:101E50000002C4F201029042416103D0FFF724F96D
:101E600002E000BFFFF734F9D4E900231921484309
:101E70009900B0FBF1F048F21F5CC5F2EB1CA0FB2F
:101E80000C314FF69C734909C0F6FF7301FB030048
:101E9000322303EB0010A0FB0C03F02000EA5310E8
:101EA00000EB0110C3F34311084490601069202136
:101EB00020F490401061506920F02A005061D068F1
:101EC00040F40050D0600020606484F8411084F831
:101ED0004210606310BD000070B586B040F600048B
:101EE000C4F20104006804F54051002688420496BB
:101EF00002D006B070BD00BF41F21800C4F202006B
:101F0000016802AD41F480410160016801F4804143
:101F100001910199016841F00401016000682946BE
:101F200000F00400019001984FF40070029002202C
:101F30000390032005902046FEF796FA4FF4806048
:101F4000CDE90206204629460496FEF78DFA06B032
:101F500070BD0000FEE700002DE9F04782B00446A6
:101F600000689A460B9D0A9E0368914643F480627E
:101F7000026002680F4642F48071016020464FF013
:101F8000011100223346009500F032F950B120686B
:101F90000068C00544BF4FF400702064032002B005
:101FA000BDE8F08740F202082068C0F2010807F09F
:101FB000FE0707612046414632462B4600F0FEF9F7
:101FC00020B1012002B0BDE8F08700BF00200190E1
:101FD00020682A4641690191806931460190019843
:101FE000204600F09FFAB0B92068BAF1010F09D07D
:101FF0004FEA19210161204631462A4600F092FA43
:1020000048B920685FFA89F10161204631462A46C5
:1020100000F088FA60B1206C0428D2D120680168F1
:1020200041F400710160012002B0BDE8F08700BFFB
:10203000206800220168334641F480710160204627
:102040004FF00111009500F0D3F800289FD147F020
:10205000010C27682046414632462B46C7F810C07F
:1020600002B0BDE8F04700F0A9B900002DE9F04347
:1020700083B0044600680D4601680A9F0B9E41F438
:10208000807199469046016020464FF00111002270
:102090003B46009600F0ACF850B120680068C005DF
:1020A00044BF4FF400702064032003B0BDE8F08308
:1020B000206805F0FE0101610221C0F20101204605
:1020C0003A46334600F07AF920B1012003B0BDE86A
:1020D000F08300BF002002902068324641690291DF
:1020E0008069394602900298204600F01BFA58B1E8
:1020F000206C0428E9D12068016841F40071016076
:10210000012003B0BDE8F0832068B9F1010F0AD0C7
:102110004FEA1821016120463946324600F002FAA2
:102120000028E5D120685FFA88F10161002003B042
:10213000BDE8F08370B50368044653F8140F4007F8
:1021400011D40E46481C29D086BB00BF1868400534
:1021500027D4FEF79FFA236853F8140F400737D5AA
:1021600018684007F2D5002070BD00BF186840070E
:10217000F9D41868400514D418684007F3D41868D7
:1021800040050ED418684007EDD41868400508D4FF
:10219000186840074FF0000048BF70BD1868400540
:1021A000E4D56FF480601860042012E0154603E067
:1021B00053F8140F4007D6D418684005F1D4FEF741
:1021C00069FA401B2368B042F2D958694007EFD43E
:1021D000202000212022216384F83D2084F83E1035
:1021E000226C10432064012084F83C1070BD000074
:1021F0002DE9F041054600681E46144601F47F02B1
:1022000001338FB242D0DDF81880B2F5803F40F044
:10221000878040693840C01BB0FA80F04009A04276
:1022200040F0C8804EB924E040693840C01BB0FA85
:1022300080F04009A04240F0BD80FEF72BFAA0EBF1
:1022400008012868B142EFD941693940C91BB1FA88
:1022500081F14909A142E7D19BE000BF40693840C4
:10226000C01BB0FA80F04009A0424FF0000040F0DF
:10227000A280FEF70FFA286841693940C91BB1FAFC
:1022800081F14909A142E9D183E000BFB2F5803F65
:1022900024D100BF41693940C91BB1FA81F1490914
:1022A000A14240F0878041693940C91BB1FA81F1F0
:1022B0004909A14240F07E8041693940C91BB1FA09
:1022C00081F14909A14275D141693940C91BB1FA6F
:1022D00081F14909A142DDD06CE000BF816939403C
:1022E000C91BB1FA81F14909A14263D18169394021
:1022F000C91BB1FA81F14909A1425BD18169394019
:10230000C91BB1FA81F14909A14253D18169394010
:10231000C91BB1FA81F14909A142DFD04AE000BFEF
:1023200080693840C01BB0FA80F04009A04241D11A
:1023300046B923E080693840C01BB0FA80F04009FC
:10234000A04237D1FEF7A6F9A0EB08012868B142F8
:10235000F0D981693940C91BB1FA81F14909A1421B
:10236000E8D116E080693840C01BB0FA80F040091F
:10237000A0424FF0000018BFBDE8F081FEF78AF9D7
:10238000286881693940C91BB1FA81F14909A14224
:10239000E8D100202021286385F83D1085F83E0013
:1023A000296C41F02001296485F83C000120BDE83A
:1023B000F08100BF0020BDE8F0810000F0B581B0E1
:1023C000044600681D4643698FB203EA0701B9421B
:1023D00002D1002001B0F0BD4169164601323FD064
:1023E00049053FD4CEB100BFFEF754F9411B206828
:1023F000B14203D941693940B94215D141693940E7
:10240000B942E6D041694905EED52BE04169394032
:10241000B942DED04169490524D4FEF73BF9206872
:1024200041693940B942F1D0202023E04169394067
:10243000B942CED04169490514D441693940B94205
:10244000C7D0416949050DD441693940B942C0D06E
:102450004169490506D441693940B942B9D0416959
:102460004905E3D5016841F4007101606FF48061B2
:102470004161042000212022216384F83D2084F85A
:102480003E10226C1043206484F83C10012001B0FF
:10249000F0BD000070B504460068154650F8143FC2
:1024A0005A063DD40E4629B926E000BF50F8141F45
:1024B000490635D40168C90621D4FEF7EBF8411B63
:1024C0002068B142F2D941694906EFD400202021A9
:1024D000206384F83D1084F83E00206C40F020001A
:1024E00018E000BFFEF7D6F8206850F8141F490620
:1024F000ECD50168490613D40168C906F2D56FF01E
:102500001001016000202021206384F83D1084F830
:102510003E00206C2064002084F83C00012070BD47
:10252000002070BD70B50368044653F8140F000610
:1025300011D40E46481C29D086BB00BF1868400540
:1025400027D4FEF7A7F8236853F8140F000637D5F1
:1025500018680006F2D5002070BD00BF186800069C
:10256000F9D41868400514D418680006F3D4186824
:1025700040050ED418680006EDD41868400508D44C
:10258000186800064FF0000048BF70BD186840058D
:10259000E4D56FF480601860042012E0154603E073
:1025A00053F8140F0006D6D418684005F1D4FEF78E
:1025B00071F8401B2368B042F2D958690006EFD485
:1025C000202000212022216384F83D2084F83E1041
:1025D000226C10432064012084F83C1070BD000080
:1025E00080B582B001A801F08BF818B14FF0FF3030
:1025F00002B080BD782002F005F818B16FF001003C
:1026000002B080BD782000F0B3FF18B16FF0020077
:1026100002B080BD642001F075FF18B16FF00300B7
:1026200002B080BD00F0E8FA20B16FF0040002B003
:1026300080BD00BF00F020FF00F0F4FB20B16FF080
:10264000050002B080BD00BF40F2731000F084F9B5
:1026500020B16FF0060002B080BD00BF642000F022
:1026600039FB18B16FF0070002B080BD02F0A0F88E
:1026700020B16FF0080002B080BD00BF012001F062
:1026800049FE002818BF6FF0090002B080BD0000AD
:10269000B0B584B041F21800C4F20200016840F6FF
:1026A000004441F0200101600168C4F2010401F01E
:1026B0002001009100990168012241F004010160AC
:1026C0000168012501F0040100910099016841F0C1
:1026D0000801016000684FF4804100F0080000909C
:1026E00000982046FDF7D0FF20464FF4004100221D
:1026F000FDF7CAFF4FF44040CDE9000502200390EA
:10270000694620460295FDF7AFFE04B0B0BD00005B
:1027100080B540F2C00045F20041C2F20000C4F2B0
:10272000000148F2A06200234FF4804CC0F2010285
:1027300080E80E00C0E9033CC0E90533C0E9073377
:10274000FDF7AEFF002808BF80BDBDE88040FDF763
:1027500071BE000080B540F2141045F60001C2F2CF
:102760000000C4F2000148F2A06200234FF4804C44
:10277000C0F2010280E80E00C0E9033CC0E9053365
:10278000C0E90733FDF78CFF002808BF80BDBDE816
:102790008040FDF74FBE000080B586B040F2681063
:1027A0000021C2F200004CF24F3C0591CDE903112B
:1027B000CDE900114FF0804240F2CF23C0E9021C66
:1027C00001618021C0E900238161FEF7EFFE00284E
:1027D00018BFFDF72FFE4FF48050029040F26810B2
:1027E000C2F2000002A9FEF77FFF002818BFFDF724
:1027F00021FE40F26810C2F200006946FEF796FE24
:10280000002818BFFDF716FE06B080BDB0B590B029
:1028100040F2B01040F200450021C2F2000040F248
:10282000F313C4F20005CDE90811CDE90611CDE995
:1028300004112422C0E9021301618021C0E9005281
:102840008161FFF7CDF9002818BFFDF7F3FD40F2D5
:10285000B010C2F2000008A9FEF768FE002818BFF9
:10286000FDF7E8FD602001900020CDE90200059011
:1028700040F2B010C2F2000001A90022FFF7B0F848
:10288000002818BFFDF7D6FD40F2B014C2F20004D4
:1028900001A920460422FFF7A3F8002818BFFDF77E
:1028A000C9FD20680021A8420E9101D010B0B0BD32
:1028B00041F21800C4F20200016841F00401016015
:1028C00000680CA900F004000B900B98C0200C903D
:1028D00002200D900F9005F58230FDF7C5FD10B078
:1028E000B0BD000080B540F2F81043F60001C2F21E
:1028F0000000C4F2010100234FF00C0C4FF4E13250
:1029000080E80E00C0E90333C0E905C3C361FFF7E7
:1029100071FA002808BF80BDBDE88040FDF78ABD80
:10292000FEE70000FEE7000070470000704700006F
:10293000FEF722BA7047000080B500F00BF840F2B5
:102940006810C2F20000BDE88040FEF79FBF0000A3
:10295000FEE7000070470000F0B587B004464CF673
:102960000220C0F6E3100DF10605CDF80600682040
:1029700004212A4601F0DAFE14F040014FF0A300D2
:102980006FF03F018DF8060008BF6FF05C016FF03B
:1029900037026FF03D0308BF6FF05C0208BF6FF0B5
:1029A0005C038DF8071014F4C0716FF03B018DF8D3
:1029B00008208DF8093008BF6FF05C016FF033021A
:1029C0006FF0390308BF6FF05C0208BF6FF05C0363
:1029D0008DF80A104AF2A3318DF80B20ADF80D10D6
:1029E0008DF80F0040F6A7200A212A468DF80C30FA
:1029F00001F09CFE2020A60708BF6FF027008DF88D
:102A0000060040F6B62001212A4601F08FFEA006FE
:102A10000CD4C720069048F6B000CCF2C350059005
:102A20004AF6B820CAF6AA200BE000BF5D20069047
:102A300049F6B400C3F20D5005904AF6B820C8F626
:102A4000B350049004AA4FF49760092101F06EFE80
:102A500014F4C07F25D06FF04D016FF0740214F4B0
:102A6000807008BF6FF04F0108BF6FF07F026FF0FA
:102A700049036FF0640508BF6FF04B03002808BFDF
:102A80006FF06F058DF806108DF807200DF1060226
:102A900040F6A22004218DF808308DF8095001F08D
:102AA00045FEE00708D1D8208DF806000DF106029A
:102AB0004FF40B60012150E0F8208DF806000DF175
:102AC00006024FF40B60012101F030FE0720FA21CD
:102AD00000F01CFA3F208DF8100004AA4FF4A470F7
:102AE000012101F023FE00208DF8100004AA40F21D
:102AF0004F10012101F01AFE4FF4A050ADF8100064
:102B000004AA4FF4EF70022101F010FE4FF4C84008
:102B1000ADF8100004AA4FF4ED70022101F006FE9A
:102B200048F60060C9F2F900049004AA4FF4AE70B0
:102B3000042101F0FBFD4FF40060ADF8100004AA81
:102B40004FF4AD70022101F0F1FD4FF40070ADF8CB
:102B5000100004AA4FF4AC70022101F0E7FD6FF001
:102B60002600002E58BF6FF027008DF806000DF1EB
:102B7000060240F23D70012101F0D8FD600752BF0E
:102B80004FF08B304CF2C020CCF2C460049004AA09
:102B900040F69820042101F0C9FD01F0ABF8E006F1
:102BA00052BF4FF0A33042F62000C3F6300004902D
:102BB00004AA40F69E20042101F0B8FD01F09AF825
:102BC00040F2A80744F00800C2F200076506B8808A
:102BD00001F090F8062000EAE57114F4C07F18BFF8
:102BE000063114F0140F18BF1031002E18BF043135
:102BF0000020397007B0F0BD44F62441C0F6000152
:102C000040F6F6304FF48062C82300F041BE000069
:102C100010B584B004460DF1020000F029FD40F229
:102C2000B801BDF802C000BFC2F20001098801F07E
:102C300003024B0754F822204FF00C0348BF5242C6
:102C400003EA51038806E358C1F3811048BF5B4291
:102C500054F82000C90548BF40424FEACC3181FBFF
:102C600002C481FB03E281FB00014FEA9C73800FE9
:102C700043EA840C4FEA9E7340EA810EA00D8DF862
:102C80000400A00B8DF80500A0098DF80600900D3A
:102C90008DF80800900B8DF8090090098DF80A0056
:102CA000880D8DF80C00880B8DF80D00880943EA1B
:102CB00082038DF80E0001AA4FF425700C218DF8C7
:102CC00007C08DF80B308DF80FE001F02FFD04B038
:102CD00010BD000010B586B004464AF6BB70CDF6B4
:102CE000DF7005904FF2AA10CDF6DF7004904FF21E
:102CF000FE20CCF2AB40C82C039017D8E0B2C8211C
:102D0000B1FBF0F0002101388DF804108DF80500BA
:102D100001AA40F21620022101F008FD30B903AAF1
:102D200040F6C1200C2101F001FD18B14FF0FF3039
:102D300006B010BD40F2BC00C2F2000004800020CA
:102D400006B010BDF0B581B040F2B801C2F200018A
:102D50000E880C2306F003014EF2093450F82110BE
:102D600003EA5603C0F2CA24720748BF4942C75853
:102D7000C6F3811381FB041250F82350F0054FEA8B
:102D800091704FEA925148BF6D428DF80010910B3F
:102D900040EA82008DF8011091098DF802108DF83B
:102DA00003006A464FF47470042101F0BFFCE0B9DF
:102DB000B00648BF7F42A7FB0401FA1702FB0411CB
:102DC000800F8A0D40EA81008DF800208A0B890966
:102DD0008DF801208DF802108DF803006A464FF43B
:102DE0007570042101F0A2FC20B14FF0FF3001B05A
:102DF000F0BD00BF85FB0401800F40EA8100010E99
:102E00008DF80010010C8DF80110010A8DF80210E8
:102E10008DF803006A464FF47670042101F086FCB9
:102E200001B0F0BDB0B582B0054644F6EF31C0F652
:102E30000001C5F3C10300F00300CC5C0A5C8DF80F
:102E4000054044F6EC348DF80420C5F38112C0F639
:102E50000004895C205C8DF806108DF80000E05CB1
:102E6000A15C8DF801008DF8021001AA40F2264005
:102E7000032101F05BFC50BB6A4640F22A4003216B
:102E800001F054FC18BB45F23660C0F276000190A8
:102E900044F22660C0F26600690700901CD4A806C0
:102EA00022D4E80505D577208DF8060067208DF837
:102EB000020001AA4FF48860032101F037FC30B909
:102EC0006A4640F23140032101F030FCB0B14FF0CE
:102ED000FF3002B0B0BD00BF37208DF804002720BE
:102EE0008DF80000A806DCD557208DF80500472096
:102EF0008DF80100E805D6D4DBE700BF40F2B8004A
:102F0000C2F200000580002002B0B0BDF0B583B071
:102F10000446B1F5C86F4FF0FF3057D814F00702E0
:102F200054D0084601F082FD0021C4F2483101F07E
:102F300087FC05460DF1070000F07EFB9DF80700B9
:102F4000811EC00740EA5102072A4FF0FF303DD8EA
:102F50000026C4F240664FF08D41DFE802F016050E
:102F6000370B3737371100BF0026C4F2C0564FF079
:102F70008C410AE00026C4F240564FF08B4104E039
:102F80000026C4F2C0464FF08A41284601F062FD97
:102F900007462846314601F05DFD01F013FD064667
:102FA000384601F00FFD010A8DF808108DF8090070
:102FB000300A02A98D1C8DF80A00E0078DF80B601D
:102FC00006D1A00714D4600722D4002003B0F0BDBE
:102FD00002AA4FF4EA70022101F0A8FB38BB4FF4BB
:102FE000927002212A4601F0A1FB00BBE9E700BF75
:102FF00002AA4FF4EC70022101F098FBB8B94FF42B
:10300000947002212A4601F091FB80B9DBE700BFF2
:1030100002AA4FF4EE70022101F088FB38B94FF498
:10302000967002212A4601F081FB0028CDD04FF096
:10303000FF3003B0F0BD00002DE9F04F89B040F241
:10304000100BC2F2000B89468046DBE90001012526
:10305000ADF81850437D022006AC0978CDE9004058
:1030600040F2141016464FF48077C2F200001A4660
:1030700001230297FDF774FD002840F03381C8203A
:10308000FDF7DEF90020DBE900218DF81800097852
:10309000527C40F21410C2F200000123CDE9015726
:1030A0000094FDF75DFD002840F01C81DBE9000184
:1030B0004FF480750978427940F214100127C2F26A
:1030C00000000123CDE900470295FDF749FD0028E6
:1030D00040F00881DBE9000101230978427D40F2DC
:1030E0001410C2F20000CDE901750094FDF738FD1F
:1030F000002840F0F780DBE900014FF48075097883
:10310000827E40F214100127C2F200000123CDE9B3
:1031100000470295FDF724FD002840F0E380DBE93D
:10312000000101230978027940F21410C2F2000074
:10313000CDE901750094FDF713FD002840F0D28021
:103140000C20DBE900218DF818000978127940F293
:1031500014104FF480750127C2F200000123CDE95D
:1031600000470295FDF7FCFC002840F0BB800F20D3
:10317000FDF766F9DBF82800DBE90021407A927858
:103180008DF81800097840F21410C2F200000123F3
:10319000CDE901750094FDF7E3FC002840F0A28022
:1031A000DBF82800DBE90021007A52788DF818005E
:1031B000097840F214104FF480750127C2F2000024
:1031C0000123CDE900470295FDF7CAFC002840F035
:1031D0008980DBF82800DBE90021807A002E18BF07
:1031E00040F0E0008DF818000978927940F2141050
:1031F000C2F200000123CDE901750094FDF7B0FC97
:1032000000286FD136B1DBF82800C07A60F01F00CB
:1032100001E000BF1820DBE900218DF818004FF411
:10322000807001230978D279CDE9013040F2141081
:10323000C2F200000094FDF793FC002852D116B1B1
:10324000C820FDF7FDF84020DBE900218DF81800CB
:103250000978127940F214104FF480750126C2F2F9
:1032600000000123CDE900460295FDF779FCC8BBBB
:103270007820DBE900218DF818000978527940F2B6
:103280001410C2F200000123CDE901650094FDF79E
:1032900067FC38BB3220FDF7D3F80020DBE90021C2
:1032A0008DF81800012009785279CDE9004040F2EC
:1032B00014104FF48075C2F2000001230295FDF74F
:1032C0004FFC78B9DBE900010123027B0220097879
:1032D000CDE9010540F21410C2F200000094FDF7A0
:1032E00091FA28B14FF0FF37384609B0BDE8F08FAA
:1032F000BDF818004AF6AB2100BA000C4843C0F3F1
:10330000C7420021002AC8E90011C8F80810C9E91D
:1033100000110492C9F8081048D0C00C0026C0B2B1
:103320000590DBE900010123427B0C200978019024
:1033300040F21410C2F200004FF48077009402971C
:10334000FDF760FA0028CDD1BDF81800BDF81A10BD
:10335000BDF81C2099E8A80000BA09BA12BA03EB1C
:10336000204005EB214107EB2242C9E90001C9F8E1
:103370000820BDF82220BDF82010D8F80850BDF86C
:103380001E0012BAD8E9003709BA05EB224501360A
:10339000059A00BA07EB214AF1B203EB20409142B3
:1033A000C8E9000AC8F80850BBD303E0D8E9000A0E
:1033B000D8F80850C117090441EA104100048322DB
:1033C00000230027FCF716FF049E00233246FCF77B
:1033D00011FFC8F800004FEAEA70000440EA1A4101
:1033E0004FEA0A4083220023FCF704FF3246002301
:1033F000FCF700FFC8F80400E817000440EA154194
:10340000280483220023FCF7F5FE32460023FCF754
:10341000F1FEC8F80800D9E90005D9F80840C1173D
:10342000490141EAD061400132460023FCF7E2FE47
:10343000C9F80000E817400140EAD561680132464A
:103440000023FCF7D7FEC9F80400E017400140EA6A
:10345000D461600132460023FCF7CCFE4FF480318A
:103460000028C4BF0021CFF6FF710844C9F8080046
:10347000384609B0BDE8F08FAC20704790B0FDF73A
:1034800089FC00240120CDE90B44CDE909440690D4
:103490000A904FF4E0104FF4803102250F9006A8F7
:1034A000CDE90714CDE90D51FDF726FE20B1EFF36C
:1034B000108072B6FEE700BF0F20CDE901054FF482
:1034C0008060CDE9040401A802210394FDF70AFD00
:1034D00020B1EFF3108072B6FEE700BFFFF7D8F817
:1034E000FFF700FAFFF792F9FFF712F9FFF732F949
:1034F000FFF752F940F2B014C2F200042046002156
:10350000FEF706FC20460421FEF702FC40F2A0066E
:10351000C2F20006FFF764F800283060FAD140F6E6
:1035200000454FF4FA70C4F20105FCF789FF40F240
:103530000C07C2F2000700BF1420FCF781FF70687F
:1035400001F040FA323081B2B1F5967F88BF322067
:103550002168388080B24863886328464FF48041F0
:10356000FDF78AF828464FF40041FDF785F8E3E7B8
:10357000F0B585B040F21005C2F2000595F82410B0
:1035800021B10024204605B0F0BD00BFA97A81B367
:1035900000F0FE0739402E7CCC1B287D18BF4FF071
:1035A000FF34002F297408BF002827D0687CC8B9D1
:1035B0000120D5E900218DF812000DF112030978E0
:1035C000527CCDE9003040F214104FF4807CC2F2FE
:1035D00000000123CDF808C0FDF7C2FA10B99DF82C
:1035E00012006874002FCDD000F084FB0028C9D0F1
:1035F0002E744FF0FF34204605B0F0BD0020D5E911
:1036000000218DF8130001200DF113030978527C7D
:10361000CDE9003040F214104FF48077C2F2000080
:1036200001230297FDF79CFA0028ABD19DF8130007
:103630006874204605B0F0BD40F21001C2F20001EE
:103640004A7A032A84BF4FF0FF30704740F20243AA
:10365000D200C1F20803D3400370C97C29B140F6FF
:103660000401C2F21001D140017000207047000037
:1036700040F21001C2F200014A7A032A84BF4FF0DF
:10368000FF30704706A333F81230C97C0FF2180CD4
:103690003CF812200029038018BF028000207047E8
:1036A0000040002000100008002000100008000466
:1036B00040F21001C2F200010A7A032A84BF4FF0DF
:1036C000FF3070470021C4F20331DFE802F0060347
:1036D000091100BF0021C4F283210160002070475E
:1036E00043F23331C4F2032101600020704700BF70
:1036F00043F23331C4F283110160002070470000AF
:103700002DE9F04186B040F21005C2F2000580209C
:10371000D5E900218DF810000978527D40F214108F
:103720004FF48074012704AEC2F200000123CDE9FA
:1037300000670294FDF714FA30B14FF0FF342046D1
:1037400006B0BDE8F08100BF6420FCF779FE4FF0C1
:103750000008D5E900018DF810800978427D40F21B
:103760001410C2F200000123CDE900670294FDF7B6
:10377000F7F900284FF0FF34E1D14FF6FF70182120
:10378000E881FF208DF81610D5E9002128746882A1
:10379000AC600120C5E90588C5F81C80A5F820802B
:1037A000C5F8238085F827800DF116032873097862
:1037B000927985F82200CDE9003040F214104FF4E0
:1037C0008077C2F2000001230297FDF7C9F928B102
:1037D0004FF0FF34204606B0BDE8F0819DF816009A
:1037E000A97AC0082872C1B1687A00218DF8171033
:1037F000F0B1D5E900010DF11703C2790120097874
:10380000CDE9003040F214104FF48077C2F200008E
:1038100001230297FDF7A4F930B14FF0FF342046A1
:1038200006B0BDE8F08100BF9DF81700C0086872BF
:103830002A2000F00FFE28B14FF0FF34204606B0DA
:10384000BDE8F081322000F05DFE28B14FF0FF347A
:10385000204606B0BDE8F0810020FFF789FE28B1C0
:103860004FF0FF34204606B0BDE8F081002000F0A4
:10387000B5FC28B14FF0FF34204606B0BDE8F0811A
:103880000020002400F0BEFE204606B0BDE8F08116
:103890002DE9F04F8DB0064600294FF0FF3000F0C3
:1038A000D18040F21008C2F200080C4698F82510AA
:1038B000002940F0C780002ECDE9033200F09E8041
:1038C0004FF000090DF12205CDE905461FFA89FBED
:1038D000A6EB0B0A98F80A00BAF1100FA8BF4FF038
:1038E000100A002800F0A380D8F804005FFA89F1DC
:1038F0001FFA8AF342895E1899FA89F196424FEAD3
:1039000011410793ADF8321000F29180D8F80020F1
:1039100001780DF13200D27E00900220019040F239
:103920001410C2F2000001234FF480770297FDF7D4
:1039300017F940F21007C2F20007002877D1D7E943
:10394000000104EB0B08027E07980978019040F211
:103950001410C2F2000001234FF48074CDF80080EF
:103960000294FDF7FDF8002861D1B87A00285ED0F6
:1039700078683B4642894FEA1B2196428DF8321007
:103980008DF8339053D81A6801780DF13200D27E49
:1039900000900220019040F21410C2F200000123B6
:1039A0004FF480770297FDF7DBF840F21001C2F286
:1039B0000001E0BBD1E90001079C0978027E40F2DA
:1039C0001410C2F2000001234FF480770095019497
:1039D0000297FCF717FF50BB404629462246FCF7EA
:1039E00043FC98BBD144069E1FFA89F0059C40F227
:1039F0001008B042C2F20008FFF468AF0498D8E99A
:103A0000002140BAADF832004FF480700978527F3F
:103A100002230DF13207029040F21410CDE9007339
:103A2000C2F2000001230124FDF79AF820B14FF003
:103A3000FF300DB0BDE8F08F039888F82540A8F856
:103A4000260000200DB0BDE8F08F00BF6FF0010030
:103A50000DB0BDE8F08F000070B586B0282805D9FC
:103A60004FF0FF34204606B070BD00BF40F2100595
:103A70000446C2F20005002854D095F8230001281E
:103A800028D0A87C95F822103222002808BF3022C6
:103A90008DF8132039B16FF04D01002808BF6FF089
:103AA0004F018DF81310D5E900010DF11303C27D0C
:103AB0004FF480700978029040F2141001260093B0
:103AC000C2F2000001230196FDF74AF8002808BF62
:103AD00085F823602020012C8DF810006ED1A87A83
:103AE00000218DF81110D8B1E87A062106288DF84A
:103AF000141015D0D5E9000105AB827801200978B2
:103B0000CDE9003040F214104FF48076C2F200008C
:103B100001230296FDF724F810B99DF81400E8720D
:103B20000720C0E095F8230050B3A87C95F8221038
:103B30000246002818BF012252008DF8122039B128
:103B40006FF07D01002808BF6FF07F018DF8121023
:103B5000D5E900010DF11203C27D01200978CDE9FC
:103B6000003040F214104FF48076C2F200000123BE
:103B70000296FCF7F5FF002804BF002085F823001B
:103B80004FF4E060D5E90021ADF81000022004AB4D
:103B90000978527DCDE9003040F214104FF4807660
:103BA000C2F2000001230296FCF7DAFF002851D090
:103BB0004FF0FF34204606B070BD00BF052C23D85F
:103BC000A87A01218DF81110E0B1E87A06210628C3
:103BD0008DF8151016D0D5E900010DF11503827886
:103BE00001200978CDE9003040F214104FF48076BE
:103BF000C2F2000001230296FCF7B2FF10B99DF853
:103C00001500E87247204EE0142C29D8A87A02212A
:103C10008DF81110E0B1E87A052105288DF816100D
:103C200016D0D5E900010DF116038278012009783C
:103C3000CDE9003040F214104FF48076C2F200005B
:103C400001230296FCF78CFF10B99DF81600E8726C
:103C5000872028E000242C75204606B070BD00BFE8
:103C6000A87A03218DF81110E0B1E87A0421042824
:103C70008DF8171016D0D5E900010DF117038278E1
:103C800001200978CDE9003040F214104FF480761D
:103C9000C2F2000001230296FCF762FF10B99DF802
:103CA0001700E872C720D5E900218DF811004FF404
:103CB00080700978527D022304AE029040F2141005
:103CC000CDE90063C2F2000001230126FCF748FFA2
:103CD00020B14FF0FF34204606B070BD0820A87216
:103CE000002400202C732E75FFF742FC204606B0FE
:103CF00070BD0000F0B585B040F21004C2F20004BF
:103D0000A07AB0B30020D4E900218DF8130009781F
:103D1000527C40F214104FF4807601270DF1130508
:103D2000C2F200000123CDE900570296FCF718FF0C
:103D3000F8B9D4E9000101230978427940F214105E
:103D4000C2F20000CDE901760095FCF709FF80B9C9
:103D5000D4E90001012302794FF480700978CDE99C
:103D6000013040F21410C2F200000095FCF7F8FE9A
:103D700020B14FF0FF3005B0F0BD00BF94F8240033
:103D8000002855D00C20D4E900218DF813000978C3
:103D9000127940F214104FF480760127C2F200002D
:103DA0000123CDE900570296FCF7DAFE0028E0D1A6
:103DB0003220FCF745FBA07A0123C0076FF01F00FB
:103DC00008BF6FF03F00D4E900218DF81300097897
:103DD000127940F21410C2F20000CDE9017600958C
:103DE000FCF7BEFE0028C4D1607C4FF4807600282A
:103DF00018BF01204000D4E900218DF81300097894
:103E0000527C40F214100127C2F200000123CDE9D8
:103E100000570296FCF7A4FE0028AAD10020D4E99E
:103E200000218DF8130009785279CDE9005757E049
:103E30000420D4E900218DF813000978127940F2AA
:103E400014104FF480760127C2F200000123CDE95F
:103E500000570296FCF784FE00288AD1A07AA17C44
:103E6000C0074FF0600008BF4020002918BF402065
:103E7000D4E900218DF813000978127940F214106A
:103E8000C2F200000123CDE901760095FCF768FE3F
:103E900000287FF46EAF3220FCF7D2FA607C4FF43A
:103EA0008076002818BF0120D4E900218DF8130086
:103EB0000978527C40F214100127C2F2000001235D
:103EC000CDE900570296FCF74BFE00287FF451AF76
:103ED000D4E900010978427904F11000CDE9000726
:103EE00040F21410C2F2000001230296FCF738FEE3
:103EF00000287FF43EAF002005B0F0BD2DE9F04F63
:103F000091B040F21006C2F2000696F824900F46D7
:103F1000B9F1000F044602D0002000F0FBF9307A1E
:103F2000032813D844F61C41C0F6000131F8108074
:103F3000707A03280FD900200990F07A062818D942
:103F40000020CDE90700CDE905002DE04FF0000885
:103F5000707A0328EFD89DA2F37C02EB800297A130
:103F6000002B08BF01EB800210680990F07A062848
:103F7000E6D800F07F00411EB1FA81F149090891AD
:103F80000621C14001F0010107910E21C14001F05D
:103F9000010106911E21C14001F0010105913E2160
:103FA00021FA00F000F001000490B6F80EB096F887
:103FB0000AA0357C204639460022FFF73DF830B193
:103FC0002046394600220027FFF736F870BB0DA8BF
:103FD0000AA90122FFF730F840B10DA80AA9012271
:103FE000FFF72AF810B1002720E000BF706840F208
:103FF00014140178042010AFC2F200044FF4807C46
:10400000CDE9007020460D220123CDF808C0FCF751
:10401000F9FB70680D2201784FF480700097032738
:104020000290204601230197FCF7ECFB4FF6FF704E
:10403000F081FF2030744FF0FF30B0600120B8F500
:104040007A7F307308DAB8F1FA0F0BD0B8F5FA7F3F
:1040500028D1082009E000BF06D0B8F5FA6F21D1B9
:10406000182002E0002000E010208DF84000D6E982
:10407000000110AB827901200978CDE9003040F2CF
:1040800014104FF48074C2F2000001230294FCF774
:1040900067FD18B99DF84000C0083072B07A00285A
:1040A00000F07880099901F0FE000238C90741EA62
:1040B000500007283CD8DFE800F0050D3B153B3BDE
:1040C0003B1D00BF00208DF84000717A814218D15D
:1040D0002EE000BF08208DF840000120717A814257
:1040E0000FD125E010208DF840000220717A814226
:1040F00007D11DE018208DF840000320717A81421D
:1041000016D0D6E9000110ABC27901200978CDE9BB
:10411000003040F214104FF48074C2F2000001230A
:104120000294FCF71DFD18B99DF84000C00870729C
:10413000B07A78B3089808B1012010E0079808B168
:1041400002200CE0069808B1032008E0059808B1A9
:10415000042004E0049800280CBF06200520F17A12
:104160008DF84000814215D0D6E9000110AB82786D
:1041700001200978CDE9003040F214104FF480742A
:10418000C2F2000001230294FCF7EAFC10B99DF88A
:104190004000F072584600F0B5F9504600F032FA8F
:1041A0002846FFF7E5F9B9F1000F02D0012000F031
:1041B000B1F8384611B0BDE8F08F00BF0200000032
:1041C00004000000080000001000000004000000CF
:1041D00008000000100000002000000070B584B04E
:1041E00040F21005C2F20005A97C814202D10020F4
:1041F00004B070BD0446D5E90001012302794FF4F3
:1042000080700978CDE9013040F214100DF10F06ED
:10421000C2F200000096FCF7F5FA002C44D000280A
:104220005FD19DF80F00D5E9002100F0DF008DF887
:104230000F004FF48070012309781279CDE9013025
:1042400040F21410C2F200000096FCF789FC00282E
:1042500047D10320FCF7F4F895F8221095F82320B5
:104260006FF07D00002908BF02208DF80F001AB101
:1042700040F030008DF80F00D5E900014FF4807C4C
:10428000C27D01200978CDE9006040F21410C2F22D
:1042900000000123CDF808C0FCF762FC08BBAC7439
:1042A000002004B070BD00BFD8B99DF80F00A97AF6
:1042B00000F0DF0001F0010140EA4110D5E90021E2
:1042C0008DF80F004FF48070012309781279CDE941
:1042D000013040F21410C2F200000096FCF740FCDE
:1042E00020B14FF0FF3004B070BD00BF0320FCF7D9
:1042F000A7F895F8220095F82310024600281CBF65
:1043000001226FF07F00D20100298DF80F20AFD17C
:10431000B2E70000F0B585B040F21005C2F200052A
:1043200095F82410814200F08D80002854D095F833
:104330002500002800F08A8009B9A87AC8B10020B9
:10434000D5E900218DF8110001200DF11103097844
:10435000527CCDE9003040F214104FF48076C2F266
:10436000000001230296FCF7FBFB10B99DF8110039
:10437000687400200024FFF731FFE88C00F0C2F8D9
:1043800068688DF8104040F214140178012704A8E1
:10439000C2F200044FF48076CDE9000720462322C4
:1043A00001230296FCF7DCFB0220D5E900218DF801
:1043B00012000978527C0DF11200CDE90007204669
:1043C000012385F824700296FCF7CAFBC0BB9DF858
:1043D0001200687434E000BF09B9A87AC8B100209F
:1043E000D5E900218DF8130001200DF113030978A0
:1043F000527CCDE9003040F214104FF48077C2F2C5
:10440000000001230297FCF7ABFB10B99DF81300E5
:104410006874287C69688DF81000012004AA097866
:10442000CDE9002040F214104FF48077C2F2000072
:10443000232201230297FCF793FB002085F8240038
:10444000FFF758FC002005B0F0BD00BF4FF0FF3073
:1044500005B0F0BD10B584B040F21004C2F2000403
:10446000A17A002944D0BC2806D30120E17A8DF836
:104470000F00814227D142E0622807D30220E17A6F
:104480008DF80F0081421ED139E000BF2A2807D3E2
:104490000320E17A8DF80F00814214D12FE000BF94
:1044A000142807D30420E17A8DF80F0081420AD145
:1044B00025E000BF0A2834BF06200520E17A8DF8E8
:1044C0000F0081421BD0D4E900010DF10F03827867
:1044D00001200978CDE9003040F214104FF4807CBF
:1044E000C2F200000123CDF808C0FCF739FB18B177
:1044F0004FF0FF3004B010BD9DF80F00E0720020B7
:1045000004B010BD70B584B040F21005C2F20005D1
:10451000A97A044600294FF0FF3070D095F8241096
:1045200000296CD1287D50B1601E80B2272803D8A5
:104530002046FFF791FA61E00020FFF78DFA4FF473
:104540007A76B4F57A7F28BF3446042C98BF0424C9
:10455000B6FBF4F0D5E9002101388DF80E000120FA
:104560000DF10E0309785278CDE9003040F21410B5
:104570004FF48074C2F2000001230294FCF7F0FAB9
:1045800020B14FF0FF3004B070BD00BF9DF80E00A9
:10459000AA7A411CB6FBF1F1E9817AB3012801D86E
:1045A00001200FE0042801D802200BE00A2801D8DE
:1045B000032007E0182801D8042003E031288CBF2D
:1045C00006200520E97A8DF80F00814216D0D5E942
:1045D00000010DF10F03827801200978CDE9003048
:1045E00040F214104FF48076C2F2000001230296CC
:1045F000FCF7B6FA10B99DF80F00E872002004B07D
:1046000070BD00002DE9F04184B0044610F0700F39
:1046100002D0012004E000BF002C0CBF402000208D
:1046200040F21008C2F200088DF80E00D8E900012F
:104630004FF480760978427D40F2141001270DF185
:104640000E05C2F200000123CDE900570296FCF7E7
:1046500087FA20BB0421A20621EA141104F01002FB
:104660009DF80E0058BF023187EA1212114422074A
:1046700058BF38318DF80E10D8E9002100F0BF0086
:104680000978927D88F80C0040F21410C2F2000004
:104690000123CDE900570296FCF762FA40B10020F1
:1046A00088F80A004FF0FF34204604B0BDE8F081DE
:1046B00014F0F70F2ED098F8230058B398F8120092
:1046C00098F822100246002818BF012252008DF8E7
:1046D0000F2039B16FF07D01002808BF6FF07F0116
:1046E0008DF80F10D8E900010DF10F03C27D0120F4
:1046F0000978CDE9003040F214104FF48077C2F20F
:10470000000001230297FCF72BFA002804BF0020C9
:1047100088F8230088F80A400024322088F81440E2
:10472000FBF78EFE204604B0BDE8F081F0B585B001
:104730000C4601464FF0FF30C2B340F21006C2F201
:1047400000061546B27A8AB370684ABAC9B243897C
:1047500021449942ADF8122012D832680178022023
:104760000DF11203D27ECDE9003040F214104FF467
:104770008077C2F2000001230297FCF7F1F918B12B
:104780004FF0FF3005B0F0BDD6E9000101230978F4
:10479000027E40F21410C2F20000CDE900540297EC
:1047A000FCF7DEF9002818BF4FF0FF3005B0F0BD70
:1047B00070B588B005A802A9FFF7A0FB03283BD17C
:1047C00001A8FEF775FFDDE90506079C00F016F964
:1047D000019D0146284600F03DF900F0F3F80590F0
:1047E000304600F00BF90146284600F033F900F09E
:1047F000E9F80690204600F001F90146284600F04D
:1048000029F900F0DFF8079005A8FEF79BFA0DF1F3
:104810000200FEF72DFF02ABBDF802000ECB4143B4
:10482000029102FB00F15843049002A80391FEF7A5
:10483000EFF9002008B070BD4FF0FF3008B070BD38
:104840004FF47F0C1CEAD0121EBF1CEAD11392EA6F
:104850000C0F93EA0C0F00F0858090EA010F48BF1F
:1048600042F4807240F4000C41F400002CF07F41CF
:1048700020F07F4000B5A2EB030281420FF2081C3A
:10488000ACEB504E9EF800E0C0F100004FEA4E0E37
:1048900000FB0EFC38BF49004FEA2C1C0CFB0EF34A
:1048A0004FEACE1E0EEB635E4FEA112C0EFB0CFCA2
:1048B0004FEAC1214FEA1C5300FB031102F5FA0233
:1048C0004FEA112C0EFB0CFC4FEA01314FEADC4C95
:1048D00000FB0C1142EB2242C14228BF09184CEBED
:1048E00003335DF804EB10EB410143EBC250B2F52A
:1048F0007C0F38BF704729D512F0F00F1CBF00F1B4
:10490000C04000F000407047008182838485868724
:1049100088898B8C8D8E8F919293959697999A9C7E
:104920009D9FA0A2A3A5A7A8AAACAEB0B2B3B5B7ED
:10493000B9BCBEC0C2C5C7C9CCCED1D4D7D9DCDFC3
:10494000E2E6E9ECF0F3F7FAFE0000004FEA400C73
:104950000CF1807CBCF17E4F28BF7047B0F1C040A5
:1049600000F03FB90CEAD11390EA010F48BF42F4BE
:104970008072624538BF634507D213F47F0F16D0AB
:1049800080EA010000F00040704710B500F0E3F845
:10499000097EFC3E00F005B880EA010000F000400E
:1049A000704780EA010000F0004000F01AB912F4EC
:1049B0007F0F04BF0248704780EA010000F011B980
:1049C0000000C07F41000B0ED3F19E0208D950F4C5
:1049D00000034FEA032323FA02F048BF4042704726
:1049E00010B500F0B8F800BF49922480002070474D
:1049F0006FF0004282EA20007047000010F0004192
:104A000048BF4042B0FA80F310FA03F2C3F19D03AD
:104A10000BD051EAC35101EB1220530638BF704747
:104A200000F1010008BF20F001007047B0FA80F3E8
:104A300010FA03F2C3F19D030AD0D90501EB12204D
:104A4000530638BF704700F1010008BF20F0010095
:104A5000704700004FF47F0C1CEAD0121EBF1CEA06
:104A6000D11392EA0C0F93EA0C0F00F0478090EA02
:104A7000010F48BF42F480724FF0004C4CEA002016
:104A80004CEA012102EB0302A0FB0113A2F5000294
:104A9000002918BF43F001035B0028BF4FEA33032E
:104AA00042EB22425FEA132C4CEBC2502EBFBCEB10
:104AB000436FB2F57C0F70474FEA036CBCF1004FB7
:104AC00008BF20F00100B2F57C0F38BF70470BD54E
:104AD00082F0FF0212F5803FC8BF704700F1C0406E
:104AE000D8BF00F00040704700F5000C5FEA4C0CA6
:104AF00048BF7047B0F1C04000F073B80CEAD11362
:104B000090EA010F48BF42F48072624538BF6345A6
:104B100004D280EA010000F00040704710B500F0B8
:104B20001AF800BF8900013E00F007B800F009B88C
:104B30005FEA410C5FEA1C6C08D080EA010000F0DB
:104B400050B85FEA400C5FEA1C6CF6D14FF00040B1
:104B5000A0F5800070470EF1020E2EF0030E5EF8F5
:104B6000044B244204D44FEA4102B2F17F4F11D8E2
:104B70004FEA4003B3F17F4F0CD80ED14FEAD07CFF
:104B80000CEB4C0C0CF1020CB2F17F4F08BF4CEB5C
:104B9000D17C04E04FF0080C01E04FEAD17C0CEB33
:104BA0004C0324FA03F404F00704B4F1040C06D215
:104BB0000EEB840CBDE810404CF0010C6047DFE8C0
:104BC0000CF0070802024FF00040A0F5800010BD75
:104BD0000846420018BFD2F1807288BF00F0004042
:104BE00010BDFF2141EAD050C00570470CC92C4CC4
:104BF000CD6C000000000000000001020304060765
:104C00000809000000000102030401020203040578
:104C1000060708090A0B0C0D0E0F1010FA00F4011C
:104C2000E803D0070000700000000024000000022C
:104C30000003000000650054FFEF0000FA80000B45
:104C400012820001030C30C30E8C8CE914D5400293
:104C500013710F8E3883F8833000F883258EF88324
:104C60003000F883FFFFFFFF0FFEA9D624000400E9
:104C70001A8279A10000003CFFFF00000010000034
:104C800038836FA2003E03304000000002CAE309EF
:104C90003E800000200000000000000040000000F6
:104CA00060000000000C0000000C186E000006926E
:104CB0000A16C0DFFFFF0256FD8CD377FFE1C496D2
:104CC000E0C5BEAA00000000FFFF0B2B0000165736
:104CD000000003594000000000001DFA00026C1D96
:104CE000000000003FFFDFEB003EB3B6000D22786E
:104CF00000002F3C00000000001942B5000039A25E
:104D00000000B365D90E9FC91DCF4C3430000000A0
:104D1000500000003BB67AE80064000000C80000C4
:104D200000000000100000001000FA921000225E47
:104D3000000D229F0001000000320000FF4600002D
:104D400063D400001000000004D6000004CC000072
:104D500004CC0000000010720000004000000000C1
:104D6000000000000006000200050007000000002F
:104D70000064000000000000000000050005006461
:104D800000200000000000000000000000004000C3
:104D90000000030000000032F8980000FF650000EA
:104DA000830F0000FF9BFC000000000000000000DB
:104DB00000000000000000000000000000000000F3
:104DC00000000000000000000000000000000000E3
:104DD0000000100040000000000000060000B26A61
:104DE000000200000001FB830068000000D9FC0005
:104DF0007CF1FF830000000000650000006403E810
:104E000000640028000000250000000016A000003B
:104E10000000100000001000002F0000000001F44E
:104E20000000100000280000FFFF4581FFFFFA721C
:104E30000000000000000000004400050005BAC6A4
:104E4000004778A2000000010000000000000600FA
:104E5000000000140000254D002F706D000005AE0D
:104E6000000C02D000000000000000000000000064
:104E700000000000001B0000000000000000000017
:104E800000000000006400000008000000000000B6
:104E90000000000000000000000000000000000012
:104EA0000000000000000000000000000000000002
:104EB00000000000000000000000000000000000F2
:104EC00000000000000000000000000000000000E2
:104ED00000000000000000000000000000000000D2
:104EE00000000000001B00000000000000000000A7
:104EF000000E000E00000AC700040000000000328F
:104F0000FFFFFF9C00000B2B0000000200000001CF
:104F100000000064FFE50000000000000000000049
:104F2000000000000000000100000000000100007F
:104F300000000000000180000001800000018000EE
:104F4000002426D30000000000000000000600102E
:104F50000096003C0000000000000000000000007F
:104F6000000000000C0A4E68CDCF77095016675933
:104F7000C619CE8200000000000000000000000002
:104F800000000000000000000000000017D78400AF
:104F9000030000000000000000000000C7938F9D88
:104FA0001E1B1C1900000000000000000000000093
:104FB000000000000000000000000000020318854F
:104FC000000040000000000300000003000000009B
:104FD0000000000040000000000000000000000091
:104FE00000000000000000000000000000000000C1
:104FF00000000000000000000000000000000000B1
:105000000000000000000000677DDF7E72902E55DA
:105010004CF6E688000000000000000000000000E0
:1050200000000000D8DCB4B8B0D8B9ABF3F8FAB3DC
:10503000B7BB8E9EAEF132F51BF1B4B8B08097F1DC
:10504000A9DFDFDFAADFDFDFF2AAC5CDC7A90CC960
:105050002C97F1A989264666B28999A92D557DB06C
:10506000B08AA896365676F1BAA3B4B280C0B8A872
:105070009711B28398BAA3F0240844106418B2B907
:10508000B49883F1A329557DBAB5B1A38393F000F9
:105090002850F5B2B6AA839328547CF1B9A3829321
:1050A00061BAA2DADEDFDB819AB9AEF5606870F131
:1050B000DABAA2DFD9BAA2FAB9A38292DB31BAA2D4
:1050C000D9BAA2F8DF85A4D0C1BBAD83C2C5C7B829
:1050D000A2DFDFDFBAA0DFDFDFD8D8F1B8AAB38D57
:1050E000B4980D355DB2B6BAAF8C96198F9FA70EE6
:1050F000161EB49AB8AA872C547CBAA4B08AB6916A
:10510000325676B28494A4C808CDD8B8B4B0F19918
:1051100082A82D557D98A80E161EA22C547C92A410
:10512000F02C5078F184A898C4CDFCD80DDBA8FCF5
:105130002DF3D9BAA6F8DABAA6DED8BAB2B68696F0
:10514000A6D0F3C841DAA6C8F8D8B0B4B882A892FD
:10515000F52C548898F135D9F418D8F1A2D0F8F983
:10516000A884D9C7DFF8F883C5DADF69DF83C1D83F
:10517000F40114F1A8824EA884F311D182F5D992DA
:10518000289788F109F41C1CD884A8F3C0F9D1D958
:105190009782F129F40DD8F3F9F9D1D982F4C20339
:1051A000D8DEDF1AD8F1A2FAF9A88498D9C7DFF8B7
:1051B000F8F883C7DADF69DFF883C3D8F40114F1A4
:1051C00098A8822EA884F311D182F5D9925097889D
:1051D000F109F41CD884A8F3C0F8F9D1D99782F169
:1051E00049F40DD8F3F9F9D1D982F4C403D8DEDF3C
:1051F000D8F1AD8898CCA809F9D98292A8F57CF1AC
:10520000883ACF944A6E98DB6931DAADF2DEF9D88C
:105210008795A8F221D1DAA5F9F417D9F1AE8ED08D
:10522000C0C3AE82C684C3A88595C8A588F2C0F164
:10523000F4010EF18E9EA8C63E56F554F18872F424
:105240000115F19845856EF58E9E0488F142985AB5
:105250008E9E068869F4011CF1981E1108D0F50491
:10526000F11E970202983625DBF9D985A5F3C1DA3C
:1052700085A5F3DFD88595A8F309DAA5FAD8829237
:10528000A8F578F1881A849F26889821DAF41DF30E
:10529000D8879F39D1AFD9DFDFFBF9F40CF3D8FA07
:1052A000D0F8DAF9F9D0DFD9F9D8F40BD8F3879F21
:1052B00039D1AFD9DFDFF41DF3D8FAFCA869F9F9C9
:1052C000AFD0DADEFAD9F88F9FA8F1CCF398DB459E
:1052D000D9AFDFD0F8D8F18F9FA8CAF38809DAAF29
:1052E0008FCBF8D8F2AD978D0CD9A5DFF9BAA6F31C
:1052F000FAF412F2D8950DD1D9BAA6F3FADAA5F2DA
:10530000C1BAA6F3DFD8F1BAB2B68696A6D0CAF370
:1053100049DAA6CBF8D8B0B4B8D8AD84F2C0DFF182
:105320008FCBC3A8B2B68696C8C1CBC3F3B0B4883E
:1053300098A821DB718D9D71859521D9ADF2FAD8A0
:105340008597A828D9F408D8F28D29DAF405D9F27E
:1053500085A4C2F2D8A88D9401D1D9F411F2D887CE
:1053600021D8F40AD8F28498A8C801D1D9F411D868
:10537000F3A4C8BBAFD0F2DEF8F8F8F8F8F8F8F804
:10538000D8F1B8F6B5B9B08A95A3DE3CA3D9F8D860
:105390005CA3D9F8D87CA3D9F8D8F8F9D1A5D9DF7E
:1053A000DAFAD8B18530F7D9DED8F830ADDADED800
:1053B000F2B48C99A32D557DA083DFDFDFB591A0DA
:1053C000F629D9FBD8A0FC29D9FAD8A0D051D9F810
:1053D000D8FC51D9F9D879D9FBD8A0D0FC79D9FA21
:1053E000D8A1F9F9F9F9F9A0DADFDFDFD8A1F8F8E7
:1053F000F8F8F8ACDEF8ADDE8393AC2C547CF1A861
:10540000DFDFDFF69D2CDAA0DFD9FADB2DF8D8A894
:1054100050DAA0D0DED9D0F8F8F8DB55F8D8A87863
:10542000DAA0D0DFD9D0FAF8F8F8F8DB7DF8D89C0C
:10543000A88CF530DB38D9D0DEDFA0D0DEDFD8A8ED
:1054400048DB58D9DFD0DEA0DFD0DED8A868DB701B
:10545000D9DFDFA0DFDFD8F1A888902C547C98A892
:10546000D05C38D1DAF2AE8CDFF9D8B087A8C1C1F0
:10547000B188A8C6F9F9DA36D8A8F9DA36D8A8F981
:10548000DA36D8A8F9DA36D8A8F9DA36D8F78D9D01
:10549000ADF818DAF2AEDFD8F7ADFA30D9A4DEF9FC
:1054A000D8F2AEDEFAF983A7D9C3C5C7F1889BA7A6
:1054B0007AADF7DEDFA4F8849408A797F300AEF284
:1054C0009819A488C6A39488F632DFF28393DB0987
:1054D000D9F2AADFD8D8AEF8F9D1DAF3A4DEA7F171
:1054E000889B7AD8F38494AE19F9DAAAF1DFD8A8A8
:1054F00081C0C3C5C7A39283F628ADDED9F8D8A36F
:1055000050ADD9F8D8A378ADD9F8D8F8F9D1A1DA47
:10551000DEC3C5C7D8A18194F818F2B089ACC3C561
:10552000C7F1D8B8B4B09786A8319B069907AB9756
:1055300028889BF00C201440B0B4B8F0A88A9A28B0
:105540005078B79BA8295179247059446938644828
:1055500031F1BBAB88002C547CF0B38BB8A8042885
:105560005078F1B088B49726A85998BBABB38B029A
:10557000264666B0B8F08A9CA82951798B295179C2
:105580008A2470598B2058718A4469388B39406855
:105590008A6448318B30496088F1AC002C547CF02F
:1055A0008CA804285078F1889726A85998AC8C02CA
:1055B000264666F0899CA829517924705944693897
:1055C000644831A98809205970AB11384069A8197D
:1055D0003148608CA83C415C207C00F1879819869A
:1055E000A86E767EA999882D557DD8B1B5B9A3DF6F
:1055F000DFDFAED0DFAAD0DEF2ABF8F9D9B087C4D6
:10560000AAF1DFDFBBAFDFDFB9D8B1F1A3978E60BE
:10561000DFB084F2C8F8F9D9DED89385F14AB183B6
:10562000A308B5839A0810B79F10D8F1B0BAAEB0EE
:105630008AC2B2B68E9EF1FBD9F41DD8F9D90CF10D
:10564000D8F8F8AD61D9AEFBD8F40CF1D8F8F8ADC4
:1056500019D9AEFBDFD8F416F1D8F8AD8D61D9F4C5
:10566000F4ACF59C9C8DDF2BBAB6AEFAF8F40BD8EF
:10567000F1AED0F8AD51DAAEFAF8F1D8B9B1B6A3BF
:10568000839C08B9B1839AB5AAC0FD3083B79F1037
:10569000B58B93F20202D1ABDADED8F1B080BAABAF
:1056A000C0C3B284C1C3D8B1B9F38BA391B609B456
:1056B000D9ABDEB0879CB9A3DDF1B38B8B8B8B8B21
:1056C000B087A3A3A3A3B28BB69BF2A3A3A3A3A368
:1056D000A3A3A3A3A3F1B087B59AA3F39BA3A3DCD1
:1056E000BAACDFB9A3A3A3A3A3A3A3A3A3A3A3A318
:1056F000A3A3A3A3D8D8D8BBB3B7F1AAF9DAFFD92B
:10570000809AAA28B48098A720B79787A86688F0BF
:105710007951F1902C870CA781976293F071716099
:1057200085940129517990A5F1284C6C870C951826
:105730008578A38390284C6C886CD8F3A28200F201
:1057400010A8921980A2F2D926D8F188A84DD9487C
:10575000D896A83980D93CD89580A839A68698D9FA
:105760002CDA87A72CD8A8899519A980D938D8A868
:105770008939A980DA3CD8A82EA83990D90CD8A8A4
:10578000953198D90CD8A809D9FFD801DAFFD89556
:1057900039A9DA26FFD890A80D8999A810809821F8
:1057A000DA2ED88999A83180DA2ED8A88696318049
:1057B000DA2ED8A8873180DA2ED8A88292F34180D9
:1057C000F1D92ED8A882F31980F1D92ED882ACF362
:1057D000C0A28022F1A62EA72EA92298A829DAAC71
:1057E000DEFFD8A2F22AF1A92E8292A8F23180A679
:1057F00096F1D900AC8C9C0C30ACDED0DEFFD88C9E
:105800009CACD010ACDE8092A2F24C82A8F1CAF21D
:1058100035F19688A6D900D8F1FFD00000047600B3
:105820005401F7FD000175191A0C6A231B1C0000B6
:105830001F207274433B4138393A006B6C376F0656
:10584000246D6E7083000000000800000001001845
:1058500032000500000020410000D242295C0F3ECA
:105860009A99993E3333733F295C0F3E9058000854
:10587000000000204000000050010008D05800083F
:10588000400000200808000070010008000000002F
:10589000010000001000000000127A003200000039
:1058A000265800081A5800080000000000000000F8
:1058B00000000000000000000000000000000000E8
:1058C0000000000000000000445800080000000034
:04000005080000ED02
:00000001FF
