:020000040800F2
:1000000050080020B50100081D2B0008711F0008D2
:10001000192B000849040008492B000800000000C3
:10002000000000000000000000000000252B000878
:100030004D04000800000000212B0008292B0008B7
:10004000CF010008CF010008CF010008CF01000850
:10005000CF010008CF010008CF010008CF01000840
:10006000CF010008CF010008CF010008CF01000830
:10007000CF010008CF010008CF010008CF01000820
:10008000CF010008CF010008CF010008CF01000810
:10009000CF010008CF010008CF010008CF01000800
:1000A000CF010008CF010008CF010008CF010008F0
:1000B000312B0008CF010008CF010008CF01000854
:1000C000CF010008CF010008CF010008CF010008D0
:1000D000CF010008CF010008CF010008CF010008C0
:1000E000CF010008CF010008CF01000800F002F89E
:1000F00000F050F814A696E8000CB244B344DA4578
:1001000001D100F047F8BAE80F000FA696E83000DA
:10011000A5EB040504EB0607AAEB0704A7F101070A
:100120004FEA15154FEA3414A4F10104AC4201D38F
:1001300000F030F813F0010F18BFFB1A43F0010371
:1001400000F001F8DBE71847107200003072000081
:10015000103A24BF78C878C1FAD8520724BF30C8F3
:1001600030C144BF04680C60704700007047000055
:100170000023002400250026103A28BF78C1FBD8B0
:10018000520728BF30C148BF0B6070471FB51FBD65
:1001900010B510BD00F022F91146FFF7F7FF03F08C
:1001A0004FFB00F040F903B4FFF7F2FF03BC00F08F
:1001B00043F900000948804709480047FEE7FEE789
:1001C000FEE7FEE7FEE7FEE7FEE7FEE7FEE7FEE707
:1001D00004480549054A064B704700002D2B0008CE
:1001E000ED000008500200205008002050040020BC
:1001F0005004002053EA020C23D010B54C1084EABE
:10020000530404D54042C1F1000138BF491E1B42CE
:1002100004D55242C3F1000338BF5B1E00F053F80F
:1002200014F0804F04D04042C1F1000138BF491E94
:1002300014F0004F04D05242C3F1000338BF5B1EDC
:1002400010BD13B540424FF0000070EB0104B8BF81
:10025000012001F0004100281CBF6FF000414FF069
:10026000FF30AFF300801CBD40EA010310B59B07CF
:100270000FD1042A0DD310C808C9121F9C42F8D010
:1002800020BA19BA884201D9012010BD4FF0FF30C1
:1002900010BD1AB1D30703D0521C07E0002010BDD7
:1002A00010F8013B11F8014B1B1B07D110F8013B63
:1002B00011F8014B1B1B01D1921EF1D1184610BD44
:1002C00070477047704753EA020C00F069802DE9CF
:1002D000F04B4FF00006002B1FBFB3FA83F503FA73
:1002E00005F424FA05F65E4012BF1643B2FA82F511
:1002F00002FA05F4C5F120051EBF22FA05FC44EA06
:100300000C04203556EA044C4FEA144418BF641C10
:100310004FF000084FF00009904271EB030C39D305
:10032000002919BFB1FA81F701FA07F6B0FA80F790
:1003300000FA07F6C7F120071EBF20FA07FC46EABD
:100340000C062037B6FBF4FCA7EB0507103F07F0BF
:100350001F0BCBF120062CFA06F60CFA0BFB44BF60
:10036000B3460026202FA4BF5E464FF0000B5BEA89
:10037000060C08BF4FF0010B19EB0B0948EB060800
:10038000ABFB027C06FB02CC0BFB03CCC01B71EB6E
:100390000C01C1E70B46024641464846BDE8F08BDA
:1003A00013B5084318BF4FF0FF300146AFF300808C
:1003B000BDE81C40704710B500F008F8006810BD9B
:1003C00010B5044600F002F8046010BD0048704704
:1003D0004000002000487047400000207546FFF7AD
:1003E000F9FFAE4605006946534620F007008546F2
:1003F00018B020B5FFF7ECFEBDE820404FF0000636
:100400004FF000074FF000084FF0000BAC46ACE88F
:10041000C009ACE8C009ACE8C009ACE8C00921F0EB
:1004200007018D46704710B50446AFF300802046A3
:10043000BDE81040FFF7B7BE01491820ABBEFEE78C
:100440002600020070470000FEE700007047000031
:10045000EFF3108072B600BFFEE70000B0B50446AF
:1004600000F026F9054640F20000C2F200000078D4
:10047000611C18BF044400BF00F01AF9401BA042E1
:10048000FAD3B0BD2DE9F04F82B00E68002E00F017
:10049000FD8041F20042C4F20102042340F2004E0A
:1004A000904208BF03234FF6FF7CC4F2010E009375
:1004B00000240123C1F2100C4FF0000A4FF0000994
:1004C00044E000BF012704F00C030F229A402BEAFE
:1004D000020207FA03F34FEA9A051A4346F8252069
:1004E0004E6840F20C45F202DEF8082054BF22EAC2
:1004F000080242EA0802C4F20105CEF808202A6880
:10050000B30254BF22EA080242EA08022A60B30397
:10051000DEF8042054BF22EA080242EA0802F3038C
:10052000CEF80420DEF800204FF0010354BF22EA89
:10053000080242EA0802CEF800200E680AF1010A19
:1005400036FA0AF204F1040400F0A08003FA0AFB70
:1005500016EA0B08F1D04E68664511DC122E55D80C
:10056000DFE806F0340A4448545454545454545464
:1005700054545454544C5000D1F80C9046E000BFF1
:100580004FF6FF72C1F2210296420FDC0022C1F247
:10059000110296421AD00022C1F21202964215D0E0
:1005A0000022C1F22102964210D02FE00022C1F2B7
:1005B000220296420AD00022C1F23102964205D0B0
:1005C0000022C1F23202964220D100BF8A684AB1AD
:1005D000012A14BFC0F814B0C0F810B04FF00809D9
:1005E00014E000BF4FF0040910E000BFCA6802F138
:1005F00008090BE04FF0000908E000BFCA6802F1EB
:10060000040903E0CA6802F10C0900BF224606464D
:10061000B8F5807F24BF203A043637680F2595400F
:1006200027EA050509FA02F22A433260CA79D2069E
:100630007FF583AF41F21803C4F202031A68AEF5E6
:100640007E7642F001021A601A6802F001020192FD
:10065000019A2AF0030256F802B040F60002C4F2F2
:100660000102904210D040F60042C4F201029042D2
:100670003FF428AF41F20002C4F20102009F904211
:1006800008BF02271FE700BF00271CE702B0BDE834
:10069000F08F0000C26802EA0103914341EA03417E
:1006A00001617047002A08BF09040161704700001A
:1006B00040F24820C2F2000000687047002804BFE2
:1006C00001207047F0B581B0044690F83D0028B98C
:1006D000002084F83C00204600F0FEFA242084F834
:1006E0003D002068016821F001010160016841F4CA
:1006F00000410160016821F40041016000F0E2FC6A
:10070000636848F2A16CC0F2010C40F60011C0F21F
:100710003D0163453CBF48F28041C0F21E01884262
:1007200002D2012001B0F0BD4DF68361C4F21B314D
:10073000A0FB01122168970CD1F804E04FF49676E3
:100740002EF03F0545EA92454D60774348F638164E
:100750000D6AC0F24106A7FB067625F03F07634508
:1007600038BF960C721C3A430A62CA6948F2A06606
:100770004CF6FF77C0F20106B34222EA07020BD81B
:1007800001385B00B0FBF3F001306FF31F30042839
:1007900098BF04201BE000BFA768013857B1192794
:1007A0007B43B0FBF3F001306FF31F3070B100F505
:1007B000804007E003EB4303B0FBF3F001306FF33D
:1007C0001F3018B100F5004001E000BF01201043C8
:1007D000C8610868D4E9072320F0C000104318431B
:1007E0000860886848F2FF3204F10C0790438CCF10
:1007F00018431043A6698860C86820F0FF0038439A
:100800003043C860086840F00100086000202021E3
:10081000206484F83D10206384F83E0001B0F0BDF0
:100820002DE9F04F85B004460020994616460F4644
:100830000490FFF73DFF94F83D10202927D105468D
:10084000206800BF816989071CD5FFF731FF411B74
:1008500020681A29F6D381698907F3D50020202161
:10086000206384F83D1084F83E00206C04F13C0ABB
:1008700040F020002064022000218AF8001005B01A
:10088000BDE8F08FA2461AF83C1F012904D10220CE
:1008900005B0BDE8F08F00BF01228AF80020036890
:1008A000DDE90F180E9ADB0703D1036843F001035B
:1008B0000360036823F400630360222084F83D0092
:1008C000402084F83E000020206462626185608DD3
:1008D000394620850020CFF6FF70E0622046324680
:1008E0004B46CDE9008501F045FB18B1012005B06C
:1008F000BDE8F08F208D022810D0012824D00028D8
:1009000038D10020039020684169039181690391E7
:100910000399016841F40071016037E020680168C3
:1009200041F400610160EFF3108072B60020039083
:10093000206841690391816903910399016821F459
:100940008061016062B621E02068016821F4806165
:100950000160EFF3108072B60020039020684169B7
:100960000391816903910399016841F40071016069
:1009700062B60BE02068016841F4806101600021EB
:10098000039141690391806903900398208D0028A9
:1009900000F0D480042740F208094BF2895BC0F2D2
:1009A0000107C2F20009C1F2F84B232617E000BF8D
:1009B000204641462A4601F07BFD002896D120685A
:1009C000616A00690870606A218D01306062481EAA
:1009D0002085618D01396185010400F0AF8080B20E
:1009E000032867D8022800F089800128E0D020463B
:1009F000394600224346009501F008FC00287FF4A8
:100A000075AF2068016821F480610160EFF3108008
:100A100072B62068616A00690870606A218D0130D1
:100A2000013960622185618D01396185D9F8001035
:100A3000C908A1FB0B12110A7143049104990139F1
:100A400004910499002900F0858021684A695207C1
:100A50001ED40499013904910499002900F07A8088
:100A600021684A69520713D4049901390491049901
:100A700000296FD021684A69520709D404990139C5
:100A800004910499002965D021684A695207D5D597
:100A90000A6842F400720A6009690170606A218D77
:100AA00001306062481E2085608D0138608562B625
:100AB00085E700BF204641462A4601F0F9FC0028A0
:100AC0007FF414AF2068616A00690870606A226868
:100AD000411C208D616201382085638D013B638557
:100AE00053695B077FF578AF80B2032803D11068A4
:100AF00020F480601060106964E700BF204639462A
:100B000000224346009501F081FB00287FF4EEAE01
:100B1000EFF3108072B62068616A026842F40072D6
:100B2000026000690870606A218D01306062481EB1
:100B30002085608D0138608562B640E7202084F80A
:100B40003D00002084F83E0000218AF8001005B026
:100B5000BDE8F08F00202021206384F83D1084F848
:100B60003E00206C40F02000206462B6012000218D
:100B70008AF8001005B0BDE8F08F00002DE9F043C1
:100B800083B0994616460F460446FFF791FD94F848
:100B90003D10202924D10546206800BF81698907BE
:100BA0001AD5FFF785FD411B20681A29F6D3816904
:100BB0008907F3D500202021206384F83D1084F8B4
:100BC0003E00216C41F02001216484F83C000220A9
:100BD00003B0BDE8F08300BF94F83C10012903D1B5
:100BE000022003B0BDE8F083012284F83C200368B2
:100BF000DDE90B180A9ADB0703D1036843F0010310
:100C00000360036823F400630360212084F83D003F
:100C1000402084F83E000020206462626185608D7F
:100C2000394620850020CFF6FF70E062204632462C
:100C30004B46CDE9008501F027FA18B1012003B039
:100C4000BDE8F083208D98B9204641462A4601F040
:100C50007FFA88B3206C0428F0D12068016841F441
:100C600000710160012003B0BDE8F0830004EBD007
:100C7000204641462A4601F063FC0028EAD1616A19
:100C80002268084610F8013B1361238D6062581EEC
:100C90002085678D013F678557697F07E6D5070483
:100CA000E4D048781061881C6062981E2085618DB0
:100CB00001396185DAE700BF2068016841F40071FD
:100CC0000160202084F83D00002084F83E0084F874
:100CD0003C0003B0BDE8F08310B586B0006845F66F
:100CE0000001C4F2000188424FF00001CDE9041177
:100CF000CDE9021128D045F20041C4F2000188423A
:100D000046D141F21804C4F20204206802A940F05E
:100D100008002060206800F0080001900198C020C1
:100D20000290122003900320059040F60040C4F288
:100D30000100FFF7A7FB606840F400106060606886
:100D400000F4001022E000BF41F21804C4F20204D3
:100D5000206802A940F008002060206800F0080028
:100D6000019001984FF440600290122003900320FC
:100D7000059040F60040C4F20100FFF783FB606875
:100D800040F480006060606800F480000190019889
:100D900006B010BD40F2000040F24821C2F200004F
:100DA000C2F2000100780A68104408607047000031
:100DB00080B542F20000C4F20200016841F0100167
:100DC0000160032000F08CF80F2000F005F800F01F
:100DD00027F8002080BD000070B540F20006C2F286
:100DE000000640F208013278C2F200014FF47A7333
:100DF0000968B3FBF2F20446B1FBF2F1084600F0D9
:100E000089FB0F2C4FF0010508D838B94FF0FF309F
:100E100021460022002500F037F87460284670BD96
:100E200082B041F21800C4F202000168022241F0CF
:100E300001010160016801F001010191019941681E
:100E400041F080514160406800F08050009000986F
:100E50000420C4F20100016862F31A61016002B06B
:100E600070470000002848BF704700F01F010122B2
:100E700002FA01F11C2202EAD0004EF20012CEF278
:100E8000000281507047000010B54EF60C5CCEF2A7
:100E9000000CDCF80030C3F3022E8EF00704042CA3
:100EA00028BF0424BEF103034FF0FF3E0EFA04F402
:100EB00038BF0023A14399400EFA03F39A4311432C
:100EC00000F00F0200F160430901043A03F56443A6
:100ED0006244002848BF02F10C03197010BD0000E5
:100EE0004EF60C51CEF200010A684FF6FF031A408D
:100EF00060F30A2242F0806040F0FD7008607047A5
:100F0000002804BF012070472DE9F04381B042F270
:100F10000008C4F202080446D8F800000D4600F0AC
:100F2000070088420CD2D8F8000020F007002843C0
:100F3000C8F80000D8F8000000F00700A8426CD103
:100F4000206841F204098107C4F2020917D541075C
:100F500005D5D9F8001041F4E061C9F80010010787
:100F600005D5D9F8001041F46051C9F80010D9F83E
:100F70000010A26821F0F0011143C9F80010C00769
:100F800042D1D8F8000000F00700A8420CD9D8F8E8
:100F9000000020F007002843C8F80000D8F800003F
:100FA00000F00700A84238D12068410707D5D9F8DA
:100FB0000010E26821F4E0611143C9F80010000755
:100FC00008D5D9F80000216920F4605040EAC1003A
:100FD000C9F80000D9F8002002F00C00082841F2FE
:100FE0000020C0F27A0051D146F2F863C2F3834187
:100FF000C0F60003595CD2033CD440F60010C0F2A6
:101000003D00484342E000BF606802280AD0012842
:101010002AD159F8041C890308D4012001B0BDE885
:10102000F08300BF59F8041C8901F6D5D9F80010E7
:1010300021F003010843C9F80000FFF739FB064619
:1010400041F28837D9F80000616800F00C00B0EB7D
:10105000810F96D0FFF72CFB801BB842F2D90320FA
:1010600001B0BDE8F08300BF59F8041C8907D4D54E
:10107000DCE700BFD9F8002046F2F663C2F3404235
:10108000C0F600039A5C4843B0FBF2F0D9F80010B8
:1010900046F2DE62C1F30311C0F60002515C40F279
:1010A000080220FA01F140F20400C2F200000068D8
:1010B000C2F200021160FFF78FFE002001B0BDE810
:1010C000F083000040F2080041F20401C2F2000087
:1010D000C4F202010068096846F2EE62C1F302211F
:1010E000C0F60002515CC8407047000040F20800A2
:1010F00041F20401C2F20000C4F202010068096872
:1011000046F2EE62C1F3C221C0F60002515CC84053
:1011100070470000002804BF012070472DE9F0410E
:1011200082B00446007841F20006C007C4F202060D
:101130000CD0706800F00C00042840F0818030680A
:10114000800303D56068002800F04E812078800776
:101150001BD5706810F00C0F09D0706800F00C00FF
:10116000082840F08B807068C00300F187803068E9
:10117000800703D52069012840F036813068616915
:1011800020F0F80040EAC10030602078000713D456
:10119000207840072CD4E569002D00F0208170688C
:1011A00000F00C00082840F0AF80012D40F00C81C9
:1011B000012002B0BDE8F081A069002800F08C8019
:1011C0000020C4F242200121C0F88014FFF770FA19
:1011D000054600BF706A800700F1BA80FFF768FA21
:1011E000401B0228F6D9032002B0BDE8F08100BF01
:1011F000F0695FEAC00808D4F06940F08050F061FF
:10120000F06900F080500090009847F20007C4F2A7
:1012100000073868C0054DD4386840F480703860E5
:10122000FFF746FA054600BF3868C00542D4FFF70D
:101230003FFA401B6428F7D9032002B0BDE8F081D3
:10124000706800F00C00082803D17068C0033FF5F7
:1012500076AF6068002800F00981B0F5A02F00F09B
:101260001D81B0F5803F00F01D81306820F4803092
:101270003060306820F4802017E100BF206900282A
:1012800040F20000C4F2422000F08C800121016095
:10129000FFF70EFA054600BF306880073FF56EAFD6
:1012A000FFF706FA401B0228F6D9032002B0BDE87A
:1012B000F08100BFE068002800F09A80052800F067
:1012C000B180012800F0B280306A20F00100306265
:1012D000306A20F00400ACE00020C4F2422000217B
:1012E000C0F88014FFF7E4F9054600BF706A800774
:1012F0007FF54EAFFFF7DCF9401B0228F6D903203B
:1013000002B0BDE8F08100BF0027C4F242270020F0
:101310003866FFF7CDF9022D05460DD13068800102
:1013200040F1D680FFF7C4F9401B02284FF00300BC
:10133000F4D902B0BDE8F081306880014FD5FFF7E5
:10134000B7F9401B02284FF00300F5D9F1E700BFC1
:1013500040F20800C2F20000006844F6D351C1F226
:101360006201A0FB0101480A019000BF00BF019883
:10137000411E002801913FF40BAF00BF0198411EB0
:10138000002801913FF404AF00BF0198411E0028DE
:1013900001913FF4FDAE00BF0198411E002801916C
:1013A000E4D1F5E600210160FFF782F9054600BFB0
:1013B000306880077FF5E9AEFFF77AF9401B022815
:1013C0004FF00300F4D9B4E77068216A00F480326A
:1013D0008A4209D1616A00F47010884204D1002069
:1013E00002B0BDE8F08100BF012002B0BDE8F0818D
:1013F000306A20F001003062306A20F00400306270
:10140000FFF756F9054641F2883700BF306A80077A
:1014100022D5FFF74DF9401BB8424FF00300F5D934
:1014200087E700BF306A40F004003062306A40F065
:1014300001003062FFF73CF9054641F2883700BFF2
:10144000306A800708D4FFF733F9401BB842F7D958
:10145000032002B0BDE8F081B8F1000F3FF59BAE6C
:10146000F06920F08050F06195E600BF306820F40C
:1014700080303060306820F480203060FFF718F949
:10148000054600BF306880037FF560AEFFF710F9B6
:10149000401B64284FF00300F4D94AE7306840F459
:1014A00080203060306840F480303060FFF700F911
:1014B000054600BF306880033FF548AEFFF7F8F8F7
:1014C000401B6428F6D9032002B0BDE8F08100BFBC
:1014D000206AB0F5803F05D17168A26821F400311F
:1014E000114371607168626A21F4741111430843F9
:1014F000706001203866FFF7DBF804463068800131
:101500003FF56DAFFFF7D4F8001B02284FF0030042
:10151000F4D90EE7411E0020B0EB116F1CBF012073
:1015200070474EF21002CEF2000251604EF6235187
:10153000CEF20001F0230B7007219060116070471C
:10154000704700007047000090F83C20012A4FF0DF
:10155000020236D010B580F83D200268D2F804E0CF
:10156000D2F808C00C682EF07003234340F2FF74D9
:10157000C4F20004A24253600ADCB2F1804F13D0DF
:1015800040F20043C4F200039A420DD011E000BFC4
:1015900042F60043C4F201039A4205D040F600032C
:1015A000C4F200039A4204D149682CF08003194325
:1015B00091600121002280F83D1080F83C20BDE8B8
:1015C0001040104670470000002804BF01207047FB
:1015D00010B5044690F83D0028B9002084F83C007E
:1015E000204600F06FF8022084F83D00206840F2A9
:1015F000FF730268C4F2000342F6004C9842C4F242
:10160000010C15DCB0F1804F1AD040F20041C4F259
:101610000001884214D0984218DCB0F1804F1DD0F0
:1016200040F20041C4F20001884217D01AE000BF26
:10163000604505D040F60001C4F200018842EAD1BD
:10164000A16822F070020A439842E6DD604505D0A9
:1016500040F60001C4F20001884203D1216922F45E
:1016600040720A43A36922F08001D4F804E0E268E2
:10167000194360450160C262C0F828E002D1616987
:10168000CCF83010012141610269D20703D0026910
:1016900022F001020261002084F8461084F83E1016
:1016A00084F83F1084F8401084F8411084F8421008
:1016B00084F8431084F8441084F8451084F83D10F1
:1016C00010BD00000068B0F1804F18BF704780B5B2
:1016D00082B041F21C00C4F202000168002241F015
:1016E000010101600068002100F0010001900198F3
:1016F0001C20FFF7C9FB1C2002B0BDE88040FFF7AB
:10170000B1BB000090F83C20012A4FF0020200F02B
:10171000C58080B580F83D20D0F800C04FF67772C4
:10172000DCF8083023EA0202CCF808200B684F2BC3
:1017300028DC1F2B44DD202B45D0302B43D0402B01
:1017400040F0AE80D1F804E0C968DCF82030DCF865
:10175000202022F00102CCF82020DCF8182022F012
:10176000F00242EA011123F00A0242EA0E02CCF82A
:101770001810CCF82020DCF8081041F0470121F0C7
:10178000300180E06F2B27DDB3F5005F48D0B3F563
:10179000805F7AD0702B40F08380D1E901E3C96883
:1017A000DCF8082043EA0E0322F47F4243EA0121D9
:1017B0001143CCF80810DCF8081041F0770162E022
:1017C0000BB1102B6CD1DCF8081021F0700119431B
:1017D00041F0070157E000BF502B35D0602B5FD19F
:1017E000D1F804E0C968DCF82030DCF8202022F0D1
:1017F0001002CCF82020DCF8182022F4704242EAD3
:10180000013123F0A00242EA0E12CCF81810CCF8F5
:101810002020DCF8081041F0670121F0100132E0CF
:10182000D1E901E3C968DCF8082043EA0E0322F499
:101830007F4243EA01211143CCF80810DCF808107C
:1018400041F480411FE000BFD1F804E0C968DCF832
:101850002030DCF8202022F00102CCF82020DCF837
:10186000182022F0F00242EA011123F00A0242EAB3
:101870000E02CCF81810CCF82020DCF8081041F04B
:10188000570121F02001CCF808100022012180F836
:101890003D10002180F83C10BDE8804010467047A4
:1018A0000122F3E77047000070B504460068C56880
:1018B0000669B10716D515F0020113D06FF00201C9
:1018C0000161012121778069800703D02046FFF75D
:1018D000E9FF05E0204600F08FF8204600F024FAEA
:1018E00000202077700719D515F0040016D0206865
:1018F0006FF00401016102212177806910F4407FBB
:1019000004D02046FFF7CEFF06E000BF204600F0DF
:1019100073F8204600F008FA00202077300717D52A
:1019200015F0080014D020686FF00801016104214F
:101930002177C069800703D02046FFF7B3FF05E099
:10194000204600F059F8204600F0EEF900202077FC
:10195000F00619D515F0100016D020686FF01001B0
:10196000016108212177C06910F4407F04D020462E
:10197000FFF798FF06E000BF204600F03DF8204644
:1019800000F0D2F900202077F00718BF15F0010011
:1019900002D1300609D412E020686FF00101016124
:1019A000204600F031FA300609D515F0800006D047
:1019B00020686FF0800101612046FFF7C1FD7006CD
:1019C00009D515F0400006D020686FF04001016194
:1019D000204600F01BFAB00658BF70BD15F020007D
:1019E00008D021686FF0200220460A61BDE87040EF
:1019F000FFF7A8BD70BD00007047000090F83C30B4
:101A0000012B04BF022070474FEAB202032A3DD8DF
:101A10002DE9F043DFE802F002407CB6036842F6AD
:101A200000461D6A1A6AC4F2010622F001021A6217
:101A30001A465C6852F818CFB3428E68D1F800E0BD
:101A400025F0020545EA06050CD1CE68D1E90578F6
:101A500024F4407425F00C0526F004063C4335437D
:101A600044EA08042CF0730747EA0E075C609F61A4
:101A70004F6809695F631D629F6947F008079F61AE
:101A80009F6927F004079F61ACE000BF012100229D
:101A900080F83C2008467047036842F600461D6AFD
:101AA0001A6AC4F2010622F010021A621A46D3F82A
:101AB00004C052F8184FB3428E68D1F800E025F008
:101AC000200545EA06150FD1CE68D1E905986FF0DB
:101AD000400725F0C00507EA061635432CF4406799
:101AE00048EA090647EA860C24F4E64444EA0E274D
:101AF000C3F804C09F614F6809699F631D629F69B5
:101B000047F400679F619F6927F480679F6168E0E1
:101B1000036842F600461D6A1A6AC4F2010622F4FE
:101B200080721A621A46D3F804C052F81CEFB3420E
:101B30008E680C6825F4007545EA06250FD1CE683D
:101B4000D1E90598360240F2FF4725F44065BE43CF
:101B500035432CF4405748EA090647EA061C2EF0A4
:101B600073072743C3F804C0DF614F680969DF6367
:101B70001D62DF6947F00807DF61DF6927F00407AE
:101B8000DF612FE0036842F60047D3F820C01A6AED
:101B9000C4F2010722F480521A621A465C6852F8B5
:101BA0001C5FD1F800E08E68BB4204D14F6924F479
:101BB000804444EA87142CF4005747EA063725F49A
:101BC000E64646EA0E265C60DE614E6809691E64E0
:101BD0001F62DF6947F40067DF61DF6927F4806710
:101BE000DF6109021368194311600021BDE8F04369
:101BF000002280F83C20084670470000002804BFFF
:101C00000120704710B5044690F83D0028B9002027
:101C100084F83C00204600F06FF8022084F83D0074
:101C2000206840F2FF730268C4F2000342F6004CE1
:101C30009842C4F2010C15DCB0F1804F1AD040F28A
:101C40000041C4F20001884214D0984218DCB0F17F
:101C5000804F1DD040F20041C4F20001884217D0ED
:101C60001AE000BF604505D040F60001C4F2000153
:101C70008842EAD1A16822F070020A439842E6DD68
:101C8000604505D040F60001C4F20001884203D14E
:101C9000216922F440720A43A36922F08001D4F83A
:101CA00004E0E268194360450160C262C0F828E0C0
:101CB00002D16169CCF83010012141610269D2077B
:101CC00003D0026922F001020261002084F846106C
:101CD00084F83E1084F83F1084F8401084F84110D6
:101CE00084F8421084F8431084F8441084F84510B6
:101CF00084F83D1010BD0000006840F20041C4F2BD
:101D00000001884218BF704781B041F21C00C4F244
:101D10000200016841F002010160006800F0020069
:101D20000090009801B070477047000041B1082949
:101D300010D0042914BF00F1410200F13F020BE072
:101D400090F83E20012A1CBF01207047022280F833
:101D50003E2013E000F140021278012A1CBF01204E
:101D600070470222082907D0042914BF80F84120B7
:101D700080F83F2002E000BF80F84020006801F0BA
:101D80001F010122036A8A4023EA02010162036AF9
:101D900042F64441C4F201011A43A1F144039842BE
:101DA00002620FD040F2FF71C4F20001884213DCDE
:101DB000B0F1804F1CD040F20041C4F200018842D3
:101DC00016D01AE00A6842F400420A6040F2FF713D
:101DD000C4F200018842EBDD42F60041C4F2010189
:101DE000884205D040F60001C4F20001884204D1C7
:101DF000816801F00701062903D0016841F0010163
:101E0000016000207047000070470000704700002C
:101E1000002804BF0120704710B5044690F8410027
:101E200028B9002084F84000204600F063F8242000
:101E300084F841002068D4E90212C36823F40053F7
:101E4000C360036923F440531A430261D4E90423B5
:101E50001143C268194341F20C639A431143C160B4
:101E60004169A26921F44071114343F60002C4F2B2
:101E700001029042416103D0FFF724F902E000BF64
:101E8000FFF734F9D4E90023192148439900B0FB46
:101E9000F1F048F21F5CC5F2EB1CA0FB0C314FF6D1
:101EA0009C734909C0F6FF7301FB0300322303EB67
:101EB0000010A0FB0C03F02000EA531000EB01100F
:101EC000C3F34311084490601069202120F490402E
:101ED0001061506920F02A005061D06840F4005031
:101EE000D0600020606484F8411084F84210606380
:101EF00010BD000070B586B040F60004C4F20104C5
:101F0000006804F5405100268842049602D006B0CD
:101F100070BD00BF41F21800C4F20200016802ADBA
:101F200041F480410160016801F48041019101990F
:101F3000016841F0040101600068294600F00400D6
:101F4000019001984FF4007002900220039003204A
:101F500005902046FEF796FA4FF48060CDE9020620
:101F6000204629460496FEF78DFA06B070BD0000A3
:101F7000FEE700002DE9F04782B0044600689A466B
:101F80000B9D0A9E0368914643F4806202600268DA
:101F90000F4642F48071016020464FF0011100228B
:101FA0003346009500F032F950B120680068C00552
:101FB00044BF4FF400702064032002B0BDE8F087F6
:101FC00040F202082068C0F2010807F0FE0707612E
:101FD0002046414632462B4600F0FEF920B1012052
:101FE00002B0BDE8F08700BF0020019020682A46BB
:101FF000416901918069314601900198204600F0C5
:102000009FFAB0B92068BAF1010F09D04FEA19213F
:102010000161204631462A4600F092FA48B920680C
:102020005FFA89F10161204631462A4600F088FABC
:1020300060B1206C0428D2D12068016841F400719D
:102040000160012002B0BDE8F08700BF20680022D7
:102050000168334641F48071016020464FF0011160
:10206000009500F0D3F800289FD147F0010C2768B5
:102070002046414632462B46C7F810C002B0BDE8A4
:10208000F04700F0A9B900002DE9F04383B0044601
:1020900000680D4601680A9F0B9E41F480719946C5
:1020A0009046016020464FF0011100223B46009609
:1020B00000F0ACF850B120680068C00544BF4FF490
:1020C00000702064032003B0BDE8F083206805F0B1
:1020D000FE0101610221C0F2010120463A46334669
:1020E00000F07AF920B1012003B0BDE8F08300BF11
:1020F0000020029020683246416902918069394689
:1021000002900298204600F01BFA58B1206C042877
:10211000E9D12068016841F400710160012003B039
:10212000BDE8F0832068B9F1010F0AD04FEA182109
:10213000016120463946324600F002FA0028E5D116
:1021400020685FFA88F10161002003B0BDE8F083E8
:1021500070B50368044653F8140F400711D40E46B7
:10216000481C29D086BB00BF1868400527D4FEF75D
:102170009FFA236853F8140F400737D518684007B3
:10218000F2D5002070BD00BF18684007F9D4186868
:10219000400514D418684007F3D4186840050ED4DD
:1021A00018684007EDD41868400508D4186840073F
:1021B0004FF0000048BF70BD18684005E4D56FF4CB
:1021C00080601860042012E0154603E053F8140FF5
:1021D0004007D6D418684005F1D4FEF769FA401BD1
:1021E0002368B042F2D958694007EFD4202000217B
:1021F0002022216384F83D2084F83E10226C104395
:102200002064012084F83C1070BD00002DE9F041ED
:10221000054600681E46144601F47F0201338FB262
:1022200042D0DDF81880B2F5803F40F087804069E9
:102230003840C01BB0FA80F04009A04240F0C8808E
:102240004EB924E040693840C01BB0FA80F0400924
:10225000A04240F0BD80FEF72BFAA0EB08012868F1
:10226000B142EFD941693940C91BB1FA81F149093D
:10227000A142E7D19BE000BF40693840C01BB0FAE3
:1022800080F04009A0424FF0000040F0A280FEF72D
:102290000FFA286841693940C91BB1FA81F149092F
:1022A000A142E9D183E000BFB2F5803F24D100BF55
:1022B00041693940C91BB1FA81F14909A14240F095
:1022C000878041693940C91BB1FA81F14909A142AE
:1022D00040F07E8041693940C91BB1FA81F149095A
:1022E000A14275D141693940C91BB1FA81F149094F
:1022F000A142DDD06CE000BF81693940C91BB1FA51
:1023000081F14909A14263D181693940C91BB1FA00
:1023100081F14909A1425BD181693940C91BB1FAF8
:1023200081F14909A14253D181693940C91BB1FAF0
:1023300081F14909A142DFD04AE000BF80693840FD
:10234000C01BB0FA80F04009A04241D146B923E059
:1023500080693840C01BB0FA80F04009A04237D1F4
:10236000FEF7A6F9A0EB08012868B142F0D981690F
:102370003940C91BB1FA81F14909A142E8D116E0FF
:1023800080693840C01BB0FA80F04009A0424FF08D
:10239000000018BFBDE8F081FEF78AF9286881695E
:1023A0003940C91BB1FA81F14909A142E8D10020A5
:1023B0002021286385F83D1085F83E00296C41F006
:1023C0002001296485F83C000120BDE8F08100BFB0
:1023D0000020BDE8F0810000F0B581B0044600683F
:1023E0001D4643698FB203EA0701B94202D10020BA
:1023F00001B0F0BD4169164601323FD049053FD4D6
:10240000CEB100BFFEF754F9411B2068B14203D999
:1024100041693940B94215D141693940B942E6D0E4
:1024200041694905EED52BE041693940B942DED01A
:102430004169490524D4FEF73BF9206841693940D8
:10244000B942F1D0202023E041693940B942CED0D1
:102450004169490514D441693940B942C7D041693D
:1024600049050DD441693940B942C0D04169490597
:1024700006D441693940B942B9D041694905E3D52B
:10248000016841F4007101606FF4806141610420D2
:1024900000212022216384F83D2084F83E10226C24
:1024A0001043206484F83C10012001B0F0BD00000E
:1024B00070B504460068154650F8143F5A063DD4DE
:1024C0000E4629B926E000BF50F8141F490635D43E
:1024D0000168C90621D4FEF7EBF8411B2068B14220
:1024E000F2D941694906EFD400202021206384F805
:1024F0003D1084F83E00206C40F0200018E000BF42
:10250000FEF7D6F8206850F8141F4906ECD501688C
:10251000490613D40168C906F2D56FF010010160B5
:1025200000202021206384F83D1084F83E00206CB8
:102530002064002084F83C00012070BD002070BDA4
:1025400070B50368044653F8140F000611D40E4604
:10255000481C29D086BB00BF1868400527D4FEF769
:10256000A7F8236853F8140F000637D5186800063B
:10257000F2D5002070BD00BF18680006F9D41868B5
:10258000400514D418680006F3D4186840050ED42A
:1025900018680006EDD41868400508D418680006CD
:1025A0004FF0000048BF70BD18684005E4D56FF4D7
:1025B00080601860042012E0154603E053F8140F01
:1025C0000006D6D418684005F1D4FEF771F8401B18
:1025D0002368B042F2D958690006EFD420200021C8
:1025E0002022216384F83D2084F83E10226C1043A1
:1025F0002064012084F83C1070BD00002DE9F04FEC
:102600008FB014460D4681460DF119070DF11A06DB
:102610000DF136000CA908AA07ABCDE9006700F060
:10262000F3FB28B14FF0FF300FB0BDE8F08F00BFD3
:10263000BDF81A00C00540F1CB80089809AF059499
:10264000D0CF03F0EBFD4FF0425103F013FE804674
:10265000204603F0E3FD4FF0425103F00BFE8346AA
:10266000304603F0DBFD4FF0425103F003FE82469B
:10267000384603F0D3FD4FF0425103F0FBFD07460F
:1026800058464FF0404103F0F5FD044640464146B0
:10269000CDF8108003F082FC51460395804603F08C
:1026A000E9FD06462046394603F0E4FD314603F0D5
:1026B00075FC03F047FC02F0A7FB4AF26663C4F224
:1026C0004C034FF0663203F05FF902F0D9FEC9F80F
:1026D00000005046514603F061FC0646404659460C
:1026E00003F0C8FD054630463946B94603F0C2FD41
:1026F000294603F053FC03F025FC05460F465046DF
:10270000314603F0B7FD06462046594603F0B2FDB8
:10271000314603F07BFE4FF07E5103F03FFC03F0A7
:1027200011FC02460B462846394602F0B5FD4AF236
:102730006668C4F24C084FF06632434603F024F951
:1027400002F09EFE039908605846514603F092FD40
:10275000049C0546204649464F4603F08BFD29461A
:1027600003F01CFC014603F019FC03F0EBFB0546EB
:1027700089465846594603F07DFD064620462146C7
:1027800003F078FD314603F009FC064650465146F9
:1027900003F070FD0146304603F038FE044638462B
:1027A000394603F067FD0146204603F02FFE03F093
:1027B000C9FB02460B462846494602F06DFD4FF024
:1027C0006632434603F0E0F802F05AFE05990860CD
:1027D00000200FB0BDE8F08F80B582B001A801F0F5
:1027E0007BF918B14FF0FF3002B080BD782002F0C5
:1027F00071F918B16FF0010002B080BD782001F0CE
:10280000A3F818B16FF0020002B080BD642002F09E
:10281000E1F818B16FF0030002B080BD00F0E8FAF3
:1028200020B16FF0040002B080BD00BF01F006F8D7
:1028300000F0DAFC20B16FF0050002B080BD00BFEF
:1028400040F2731000F084F920B16FF0060002B07E
:1028500080BD00BF642000F01FFC18B16FF00700BE
:1028600002B080BD02F00CFA20B16FF0080002B097
:1028700080BD00BF012001F0B5FF002818BF6FF038
:10288000090002B080BD0000B0B584B041F218006C
:10289000C4F20200016840F6004441F020010160EA
:1028A0000168C4F2010401F020010091009901685F
:1028B000012241F0040101600168012501F00401D9
:1028C00000910099016841F00801016000684FF42F
:1028D000804100F00800009000982046FDF7E2FEDD
:1028E00020464FF400410022FDF7DCFE4FF440404B
:1028F000CDE9000502200390694620460295FDF7C8
:10290000C1FD04B0B0BD000080B540F2C80045F282
:102910000041C2F20000C4F2000148F2A0620023AC
:102920004FF4804CC0F2010280E80E00C0E9033C85
:10293000C0E90533C0E90733FDF7C0FE002808BF32
:1029400080BDBDE88040FDF783BD000080B540F24A
:102950001C1045F60001C2F20000C4F2000148F26A
:10296000A06200234FF4804CC0F2010280E80E0008
:10297000C0E9033CC0E90533C0E90733FDF79EFE1B
:10298000002808BF80BDBDE88040FDF761BD0000A4
:1029900080B586B040F270100021C2F200004CF207
:1029A0004F3C0591CDE90311CDE900114FF0804274
:1029B00040F2CF23C0E9021C01618021C0E900235D
:1029C0008161FEF701FE002818BFFDF741FD4FF4BD
:1029D0008050029040F27010C2F2000002A9FEF78F
:1029E00091FE002818BFFDF733FD40F27010C2F2CF
:1029F00000006946FEF7A8FD002818BFFDF728FD76
:102A000006B080BDB0B590B040F2B81040F20045BD
:102A10000021C2F2000040F2F313C4F20005CDE938
:102A20000811CDE90611CDE904112422C0E90213F1
:102A300001618021C0E900528161FFF7DFF80028C1
:102A400018BFFDF705FD40F2B810C2F2000008A95A
:102A5000FEF77AFD002818BFFDF7FAFC6020019010
:102A60000020CDE90200059040F2B810C2F200004B
:102A700001A90022FEF7C2FF002818BFFDF7E8FCFD
:102A800040F2B814C2F2000401A920460422FEF765
:102A9000B5FF002818BFFDF7DBFC20680021A84225
:102AA0000E9101D010B0B0BD41F21800C4F2020086
:102AB000016841F00401016000680CA900F0040005
:102AC0000B900B98C0200C9002200D900F9005F5F4
:102AD0008230FDF7D7FC10B0B0BD000080B540F2E9
:102AE000002043F60001C2F20000C4F201010023FD
:102AF0004FF00C0C4FF4E13280E80E00C0E90333D4
:102B0000C0E905C3C361FFF783F9002808BF80BD92
:102B1000BDE88040FDF79CBCFEE70000FEE700003A
:102B20007047000070470000FEF734B9704700009E
:102B300080B500F00BF840F27010C2F20000BDE862
:102B40008040FEF7B1BE0000FEE7000070470000C5
:102B5000F0B587B004464CF60220C0F6E3100DF144
:102B60000605CDF80600682004212A4602F046F842
:102B700014F040014FF0A3006FF03F018DF8060004
:102B800008BF6FF05C016FF037026FF03D0308BFC4
:102B90006FF05C0208BF6FF05C038DF8071014F44F
:102BA000C0716FF03B018DF808208DF8093008BF27
:102BB0006FF05C016FF033026FF0390308BF6FF004
:102BC0005C0208BF6FF05C038DF80A104AF2A33173
:102BD0008DF80B20ADF80D108DF80F0040F6A720F2
:102BE0000A212A468DF80C3002F008F82020A607AA
:102BF00008BF6FF027008DF8060040F6B6200121CF
:102C00002A4601F0FBFFA0060CD4C720069048F628
:102C1000B000CCF2C35005904AF6B820CAF6AA20FC
:102C20000BE000BF5D20069049F6B400C3F20D50E2
:102C300005904AF6B820C8F6B350049004AA4FF4A1
:102C40009760092101F0DAFF14F4C07F25D06FF0FE
:102C50004D016FF0740214F4807008BF6FF04F01E3
:102C600008BF6FF07F026FF049036FF0640508BF83
:102C70006FF04B03002808BF6FF06F058DF806104A
:102C80008DF807200DF1060240F6A22004218DF8F0
:102C900008308DF8095001F0B1FFE00708D1D820C5
:102CA0008DF806000DF106024FF40B60012150E093
:102CB000F8208DF806000DF106024FF40B6001219B
:102CC00001F09CFF0720FA2100F002FB3F208DF865
:102CD000100004AA4FF4A470012101F08FFF00201E
:102CE0008DF8100004AA40F24F10012101F086FF78
:102CF0004FF4A050ADF8100004AA4FF4EF70022179
:102D000001F07CFF4FF4C840ADF8100004AA4FF466
:102D1000ED70022101F072FF48F60060C9F2F9007F
:102D2000049004AA4FF4AE70042101F067FF4FF441
:102D30000060ADF8100004AA4FF4AD70022101F05C
:102D40005DFF4FF40070ADF8100004AA4FF4AC70B2
:102D5000022101F053FF6FF02600002E58BF6FF0E4
:102D600027008DF806000DF1060240F23D700121AA
:102D700001F044FF600752BF4FF08B304CF2C0208F
:102D8000CCF2C460049004AA40F69820042101F01B
:102D900035FF01F017FAE00652BF4FF0A33042F6BC
:102DA0002000C3F63000049004AA40F69E200421BF
:102DB00001F024FF01F006FA40F2B00744F00800E9
:102DC000C2F200076506B88001F0FCF9062000EAAF
:102DD000E57114F4C07F18BF063114F0140F18BF4A
:102DE0001031002E18BF04310020397007B0F0BD3B
:102DF00046F21071C0F6000140F6F6304FF48062E2
:102E0000C82300F031BF00002DE9F04F89B014460F
:102E1000DDE912A20F46002140F2B009AAF8001025
:102E2000C2F2000999F800100DF1040B8046084623
:102E300059461E4601F04AF920B14FF0FF3009B063
:102E4000BDE8F08FB9F804C01CF0140F50D09DF805
:102E50000520B6469DF80410BDF8066012049DF8E2
:102E6000095042EA016132BA9DF8083041EA124243
:102E7000BDF80A6022602A0442EA036233BA42EAD9
:102E8000134363609DF80D309DF80C60BDF80E5043
:102E90001B0443EA06632EBA43EA16461214A660E0
:102EA0009DF81160091452439DF8105001FB012157
:102EB00036041A1446EA056602FB02113214BDF804
:102EC000120002FB021100BA01F1714146EA104002
:102ED000B1F1007FE06073D8BAF80000102140F42F
:102EE00080707646AAF800005FEA4C6004D42AE0BD
:102EF00000215FEA4C6026D541F001021BF8010079
:102F00001BF8022041F0030342EA002041F00202D4
:102F10001BF802201BF80330388043EA022041F0FE
:102F2000040241F005031BF802201BF803307880EF
:102F300043EA0220B880BAF8000041F0060140F0F0
:102F40000800AAF800001CF4C07F18D03BF801006C
:102F50000BEB010200BA5388000CA8F8000018BA65
:102F60009288000CA8F8020010BA000CA8F804001F
:102F7000BAF80000063140F07000AAF800005FEADD
:102F80008C7016D00BEB01056878EC78C10709D07E
:102F9000D9F8082032B104F00700411CC4F3C20084
:102FA00090476878000704D5D9F80C1009B1A0093A
:102FB0008847FDF77DFB3060002009B0BDE8F08F49
:102FC00001F000F90020AAF800004FF0FF3009B02E
:102FD000BDE8F08F10B584B004460DF1020000F09A
:102FE00033FD40F2C001BDF802C000BFC2F20001D3
:102FF000098801F003024B0754F822204FF00C031C
:1030000048BF524203EA51038806E358C1F38110D6
:1030100048BF5B4254F82000C90548BF40424FEA10
:10302000CC3181FB02C481FB03E281FB00014FEA4A
:103030009C73800F43EA840C4FEA9E7340EA810E32
:10304000A00D8DF80400A00B8DF80500A0098DF8E7
:103050000600900D8DF80800900B8DF8090090097E
:103060008DF80A00880D8DF80C00880B8DF80D0086
:10307000880943EA82038DF80E0001AA4FF42570F7
:103080000C218DF807C08DF80B308DF80FE001F0A2
:10309000B5FD04B010BD000010B586B004464AF678
:1030A000BB70CDF6DF7005904FF2AA10CDF6DF7041
:1030B00004904FF2FE20CCF2AB40C82C039017D8FE
:1030C000E0B2C821B1FBF0F0002101388DF8041006
:1030D0008DF8050001AA40F21620022101F08EFDB4
:1030E00030B903AA40F6C1200C2101F087FD18B1C8
:1030F0004FF0FF3006B010BD40F2C400C2F2000035
:103100000480002006B010BDF0B581B040F2C001CF
:10311000C2F200010E880C2306F003014EF20934BE
:1031200050F8211003EA5603C0F2CA24720748BFC0
:103130004942C758C6F3811381FB041250F823504B
:10314000F0054FEA91704FEA925148BF6D428DF8F9
:103150000010910B40EA82008DF8011091098DF862
:1031600002108DF803006A464FF47470042101F0D8
:1031700045FDE0B9B00648BF7F42A7FB0401FA173E
:1031800002FB0411800F8A0D40EA81008DF80020B7
:103190008A0B89098DF801208DF802108DF8030043
:1031A0006A464FF47570042101F028FD20B14FF0FC
:1031B000FF3001B0F0BD00BF85FB0401800F40EA85
:1031C0008100010E8DF80010010C8DF80110010A2C
:1031D0008DF802108DF803006A464FF476700421D2
:1031E00001F00CFD01B0F0BDB0B582B0054646F26D
:1031F000DB61C0F60001C5F3C10300F00300CC5C45
:103200000A5C8DF8054046F2D8648DF80420C5F3B9
:103210008112C0F60004895C205C8DF806108DF8E0
:103220000000E05CA15C8DF801008DF8021001AA9D
:1032300040F22640032101F0E1FC50BB6A4640F217
:103240002A40032101F0DAFC18BB45F23660C0F2D7
:103250007600019044F22660C0F266006907009093
:103260001CD4A80622D4E80505D577208DF80600E1
:1032700067208DF8020001AA4FF48860032101F055
:10328000BDFC30B96A4640F23140032101F0B6FC82
:10329000B0B14FF0FF3002B0B0BD00BF37208DF8A5
:1032A000040027208DF80000A806DCD557208DF8F3
:1032B000050047208DF80100E805D6D4DBE700BF04
:1032C00040F2C000C2F200000580002002B0B0BD94
:1032D000F0B583B00446B1F5C86F4FF0FF3057D852
:1032E00014F0070254D0084602F0B0FF0021C4F2E7
:1032F000483102F0B5FE05460DF1070000F088FBED
:103300009DF80700811EC00740EA5102072A4FF0CE
:10331000FF303DD80026C4F240664FF08D41DFE813
:1033200002F01605370B3737371100BF0026C4F2FD
:10333000C0564FF08C410AE00026C4F240564FF0D0
:103340008B4104E00026C4F2C0464FF08A41284673
:1033500002F090FF07462846314602F08BFF02F04C
:1033600041FF0646384602F03DFF010A8DF808107D
:103370008DF80900300A02A98D1C8DF80A00E007BB
:103380008DF80B6006D1A00714D4600722D400206A
:1033900003B0F0BD02AA4FF4EA70022101F02EFC46
:1033A00038BB4FF4927002212A4601F027FC00BB83
:1033B000E9E700BF02AA4FF4EC70022101F01EFC05
:1033C000B8B94FF4947002212A4601F017FC80B975
:1033D000DBE700BF02AA4FF4EE70022101F00EFC01
:1033E00038B94FF4967002212A4601F007FC0028F4
:1033F000CDD04FF0FF3003B0F0BD00002DE9F04F0D
:1034000089B040F2100BC2F2000B89468046DBE91E
:1034100000010125ADF81850437D022006AC097863
:10342000CDE9004040F21C1016464FF48077C2F2FE
:1034300000001A4601230297FDF7A0FB002840F088
:103440003381C820FDF70AF80020DBE900218DF860
:1034500018000978527C40F21C10C2F200000123CF
:10346000CDE901570094FDF789FB002840F01C814D
:10347000DBE900014FF480750978427940F21C10B5
:103480000127C2F200000123CDE900470295FDF7B4
:1034900075FB002840F00881DBE900010123097871
:1034A000427D40F21C10C2F20000CDE9017500948B
:1034B000FDF764FB002840F0F780DBE900014FF4E2
:1034C00080750978827E40F21C100127C2F200004C
:1034D0000123CDE900470295FDF750FB002840F09D
:1034E000E380DBE9000101230978027940F21C1036
:1034F000C2F20000CDE901750094FDF73FFB002802
:1035000040F0D2800C20DBE900218DF8180009780A
:10351000127940F21C104FF480750127C2F20000AE
:103520000123CDE900470295FDF728FB002840F074
:10353000BB800F20FCF792FFDBF82800DBE90021BD
:10354000407A92788DF81800097840F21C10C2F287
:1035500000000123CDE901750094FDF70FFB002861
:1035600040F0A280DBF82800DBE90021007A5278E5
:103570008DF81800097840F21C104FF4807501276F
:10358000C2F200000123CDE900470295FDF7F6FAEB
:10359000002840F08980DBF82800DBE90021807AF0
:1035A000002E18BF40F0E0008DF8180009789279DD
:1035B00040F21C10C2F200000123CDE90175009415
:1035C000FDF7DCFA00286FD136B1DBF82800C07AAD
:1035D00060F01F0001E000BF1820DBE900218DF83A
:1035E00018004FF4807001230978D279CDE90130B9
:1035F00040F21C10C2F200000094FDF7BFFA002850
:1036000052D116B1C820FCF729FF4020DBE9002188
:103610008DF818000978127940F21C104FF480756B
:103620000126C2F200000123CDE900460295FDF714
:10363000A5FAC8BB7820DBE900218DF818000978CD
:10364000527940F21C10C2F200000123CDE901655D
:103650000094FDF793FA38BB3220FCF7FFFE002000
:10366000DBE900218DF81800012009785279CDE9B5
:10367000004040F21C104FF48075C2F2000001239C
:103680000295FDF77BFA78B9DBE900010123027BA3
:1036900002200978CDE9010540F21C10C2F20000B9
:1036A0000094FDF7BDF828B14FF0FF37384609B058
:1036B000BDE8F08FBDF818004AF6AB2100BA000C47
:1036C0004843C0F3C7420021002AC8E90011C8F8E6
:1036D0000810C9E900110492C9F8081048D0C00CBC
:1036E0000026C0B20590DBE900010123427B0C20DB
:1036F0000978019040F21C10C2F200004FF480776C
:1037000000940297FDF78CF80028CDD1BDF8180081
:10371000BDF81A10BDF81C2099E8A80000BA09BA33
:1037200012BA03EB204005EB214107EB2242C9E925
:103730000001C9F80820BDF82220BDF82010D8F8F3
:103740000850BDF81E0012BAD8E9003709BA05EBD7
:1037500022450136059A00BA07EB214AF1B203EB84
:1037600020409142C8E9000AC8F80850BBD303E0E2
:10377000D8E9000AD8F80850C117090441EA1041F5
:103780000004832200230027FCF734FD049E00235D
:103790003246FCF72FFDC8F800004FEAEA7000043B
:1037A00040EA1A414FEA0A4083220023FCF722FD37
:1037B00032460023FCF71EFDC8F80400E817000499
:1037C00040EA1541280483220023FCF713FD32460A
:1037D0000023FCF70FFDC8F80800D9E90005D9F867
:1037E0000840C117490141EAD06140013246002337
:1037F000FCF700FDC9F80000E817400140EAD56178
:10380000680132460023FCF7F5FCC9F80400E01714
:10381000400140EAD461600132460023FCF7EAFC33
:103820004FF480310028C4BF0021CFF6FF71084457
:10383000C9F80800384609B0BDE8F08FAC207047E1
:1038400090B0FDF7B5FA00240120CDE90B44CDE995
:10385000094406900A904FF4E0104FF4803102259D
:103860000F9006A8CDE90714CDE90D51FDF752FCE4
:1038700020B1EFF3108072B6FEE700BF0F20CDE954
:1038800001054FF48060CDE9040401A802210394EE
:10389000FDF736FB20B1EFF3108072B6FEE700BFF4
:1038A000FEF7F2FFFFF71AF9FFF7ACF8FFF72CF875
:1038B000FFF74CF8FFF76CF840F2B818C2F20008B6
:1038C00040460021FEF732FA40460421FEF72EFA68
:1038D00040F2A007C2F20007FEF77EFF0028386022
:1038E000FAD140F600454FF4FA70C4F20105FCF736
:1038F000B5FD40F20C04C2F2000400BF1420FCF736
:10390000ADFD3E4656F8040F02F06CFC323081B239
:10391000B1F5967F88BF3220D8F80010208080B2A1
:103920004863886328464FF48041FCF7B3FE28467D
:103930004FF40041FCF7AEFE301D06F1080231469F
:10394000FEF75CFEDAE70000F0B585B040F2100546
:10395000C2F2000595F8241021B10024204605B0DC
:10396000F0BD00BFA97A81B300F0FE0739402E7C7C
:10397000CC1B287D18BF4FF0FF34002F297408BFDF
:10398000002827D0687CC8B90120D5E900218DF82E
:1039900012000DF112030978527CCDE9003040F29B
:1039A0001C104FF4807CC2F200000123CDF808C047
:1039B000FDF7E4F810B99DF812006874002FCDD01F
:1039C00000F000FC0028C9D02E744FF0FF342046D0
:1039D00005B0F0BD0020D5E900218DF813000120CD
:1039E0000DF113030978527CCDE9003040F21C1030
:1039F0004FF48077C2F2000001230297FDF7BEF872
:103A00000028ABD19DF813006874204605B0F0BDC6
:103A100040F21001C2F200014A7A032A84BF4FF03B
:103A2000FF30704740F20243D200C1F20803D34096
:103A30000370C97C29B140F60401C2F21001D140E3
:103A4000017000207047000040F21001C2F2000136
:103A50004A7A032A84BF4FF0FF30704706A333F839
:103A60001230C97C0FF2180C3CF812200029038098
:103A700018BF02800020704700400020001000089E
:103A8000002000100008000440F21001C2F2000102
:103A90000A7A032A84BF4FF0FF3070470021C4F236
:103AA0000331DFE802F00603091100BF0021C4F270
:103AB000832101600020704743F23331C4F20321B7
:103AC00001600020704700BF43F23331C4F283111C
:103AD00001600020704700002DE9F04186B040F2FF
:103AE0001005C2F200058020D5E900218DF81000F4
:103AF0000978527D40F21C104FF48074012704AE07
:103B0000C2F200000123CDE900670294FDF736F808
:103B100030B14FF0FF34204606B0BDE8F08100BF61
:103B20006420FCF79BFC4FF00008D5E900018DF8FC
:103B300010800978427D40F21C10C2F2000001237F
:103B4000CDE900670294FDF719F800284FF0FF3423
:103B5000E1D14FF6FF701821E881FF208DF8161093
:103B6000D5E9002128746882AC600120C5E9058888
:103B7000C5F81C80A5F82080C5F8238085F827802B
:103B80000DF1160328730978927985F82200CDE9A2
:103B9000003040F21C104FF48077C2F20000012385
:103BA0000297FCF7EBFF28B14FF0FF34204606B038
:103BB000BDE8F0819DF81600A97AC0082872C1B14D
:103BC000687A00218DF81710F0B1D5E900010DF1E8
:103BD0001703C27901200978CDE9003040F21C10AA
:103BE0004FF48077C2F2000001230297FCF7C6FF72
:103BF00030B14FF0FF34204606B0BDE8F08100BF81
:103C00009DF81700C00868722A2000F08BFE28B1CA
:103C10004FF0FF34204606B0BDE8F081322000F0BE
:103C2000D9FE28B14FF0FF34204606B0BDE8F08140
:103C30000020FFF789FE28B14FF0FF34204606B080
:103C4000BDE8F081002000F031FD28B14FF0FF34D5
:103C5000204606B0BDE8F0810020002400F03AFFC5
:103C6000204606B0BDE8F0812DE9F04F8DB0064644
:103C700000294FF0FF3000F0D18040F21008C2F26E
:103C800000080C4698F82510002940F0C780002E47
:103C9000CDE9033200F09E804FF000090DF12205BE
:103CA000CDE905461FFA89FBA6EB0B0A98F80A0036
:103CB000BAF1100FA8BF4FF0100A002800F0A3803F
:103CC000D8F804005FFA89F11FFA8AF342895E1876
:103CD00099FA89F196424FEA11410793ADF83210F3
:103CE00000F29180D8F8002001780DF13200D27EE8
:103CF00000900220019040F21C10C2F2000001234B
:103D00004FF480770297FCF739FF40F21007C2F2B8
:103D10000007002877D1D7E9000104EB0B08027EE9
:103D200007980978019040F21C10C2F200000123AC
:103D30004FF48074CDF800800294FCF71FFF002838
:103D400061D1B87A00285ED078683B4642894FEA54
:103D50001B2196428DF832108DF8339053D81A6893
:103D600001780DF13200D27E00900220019040F2E5
:103D70001C10C2F2000001234FF480770297FCF779
:103D8000FDFE40F21001C2F20001E0BBD1E90001EA
:103D9000079C0978027E40F21C10C2F20000012349
:103DA0004FF48077009501940297FCF739FD50BBE2
:103DB000404629462246FCF757FA98BBD144069E56
:103DC0001FFA89F0059C40F21008B042C2F20008C8
:103DD000FFF468AF0498D8E9002140BAADF832008A
:103DE0004FF480700978527F02230DF13207029060
:103DF00040F21C10CDE90073C2F20000012301243F
:103E0000FCF7BCFE20B14FF0FF300DB0BDE8F08FE5
:103E1000039888F82540A8F8260000200DB0BDE8DA
:103E2000F08F00BF6FF001000DB0BDE8F08F000013
:103E300070B586B0282805D94FF0FF34204606B06B
:103E400070BD00BF40F210050446C2F20005002814
:103E500054D095F82300012828D0A87C95F822108A
:103E60003222002808BF30228DF8132039B16FF0BC
:103E70004D01002808BF6FF04F018DF81310D5E9F0
:103E800000010DF11303C27D4FF480700978029098
:103E900040F21C1001260093C2F20000012301969B
:103EA000FCF76CFE002808BF85F823602020012C59
:103EB0008DF810006ED1A87A00218DF81110D8B1BC
:103EC000E87A062106288DF8141015D0D5E90001EE
:103ED00005AB827801200978CDE9003040F21C1052
:103EE0004FF48076C2F2000001230296FCF746FEF2
:103EF00010B99DF81400E8720720C0E095F823007F
:103F000050B3A87C95F822100246002818BF012261
:103F100052008DF8122039B16FF07D01002808BFE2
:103F20006FF07F018DF81210D5E900010DF1120339
:103F3000C27D01200978CDE9003040F21C104FF419
:103F40008076C2F2000001230296FCF717FE0028DB
:103F500004BF002085F823004FF4E060D5E900217C
:103F6000ADF81000022004AB0978527DCDE9003095
:103F700040F21C104FF48076C2F20000012302963A
:103F8000FCF7FCFD002851D04FF0FF34204606B06E
:103F900070BD00BF052C23D8A87A01218DF811101F
:103FA000E0B1E87A062106288DF8151016D0D5E97B
:103FB00000010DF11503827801200978CDE9003068
:103FC00040F21C104FF48076C2F2000001230296EA
:103FD000FCF7D4FD10B99DF81500E87247204EE0BB
:103FE000142C29D8A87A02218DF81110E0B1E87AB2
:103FF000052105288DF8161016D0D5E900010DF120
:104000001603827801200978CDE9003040F21C10B7
:104010004FF48076C2F2000001230296FCF7AEFD59
:1040200010B99DF81600E872872028E000242C754E
:10403000204606B070BD00BFA87A03218DF811108C
:10404000E0B1E87A042104288DF8171016D0D5E9DC
:1040500000010DF11703827801200978CDE90030C5
:1040600040F21C104FF48076C2F200000123029649
:10407000FCF784FD10B99DF81700E872C720D5E958
:1040800000218DF811004FF480700978527D0223D1
:1040900004AE029040F21C10CDE90063C2F20000B1
:1040A00001230126FCF76AFD20B14FF0FF342046C2
:1040B00006B070BD0820A872002400202C732E7555
:1040C000FFF742FC204606B070BD00002DE9F0432A
:1040D00085B040F21007C2F200070E4697F8241090
:1040E000054600294FF0FF3060D0B97A00295DD035
:1040F000D7E900019146027B4FF4807002230978D2
:10410000CDE9013040F21C100DF11204C2F20000A2
:1041100001230094FCF784FB20B14FF0FF3005B081
:10412000BDE8F083BDF8121008BAB5EB104F07D9FF
:10413000002089F800004FF0FF3005B0BDE8F083A3
:10414000786891FA91F84288B8EB520F17D93A681B
:1041500001780120D27CCDE9004040F21C104FF4E0
:10416000807CC2F200000123CDF808C0FCF758FBA8
:104170000028D2D19DF81200C0061BD478683A6896
:1041800001784FF48070527B029040F21C10C2F212
:104190000000012300960195FCF742FB0028BCD1EA
:1041A000B8FBF5F0013889F80000002005B0BDE843
:1041B000F08300BF00F006F86FF0010005B0BDE825
:1041C000F0830000F0B585B040F21004C2F20004A4
:1041D000A07AB0B30020D4E900218DF8130009784B
:1041E000527C40F21C104FF4807601270DF113052C
:1041F000C2F200000123CDE900570296FCF7BEFC95
:10420000F8B9D4E9000101230978427940F21C1081
:10421000C2F20000CDE901760095FCF7AFFC80B951
:10422000D4E90001012302794FF480700978CDE9C7
:10423000013040F21C10C2F200000095FCF79EFC19
:1042400020B14FF0FF3005B0F0BD00BF94F824005E
:10425000002855D00C20D4E900218DF813000978EE
:10426000127940F21C104FF480760127C2F2000050
:104270000123CDE900570296FCF780FC0028E0D12D
:104280003220FCF7EBF8A07A0123C0076FF01F0083
:1042900008BF6FF03F00D4E900218DF813000978C2
:1042A000127940F21C10C2F20000CDE901760095AF
:1042B000FCF764FC0028C4D1607C4FF480760028B1
:1042C00018BF01204000D4E900218DF813000978BF
:1042D000527C40F21C100127C2F200000123CDE9FC
:1042E00000570296FCF74AFC0028AAD10020D4E926
:1042F00000218DF8130009785279CDE9005757E075
:104300000420D4E900218DF813000978127940F2D5
:104310001C104FF480760127C2F200000123CDE982
:1043200000570296FCF72AFC00288AD1A07AA17CCB
:10433000C0074FF0600008BF4020002918BF402090
:10434000D4E900218DF813000978127940F21C108D
:10435000C2F200000123CDE901760095FCF70EFCC6
:1043600000287FF46EAF3220FCF778F8607C4FF4C1
:104370008076002818BF0120D4E900218DF81300B1
:104380000978527C40F21C100127C2F20000012380
:10439000CDE900570296FCF7F1FB00287FF451AFFE
:1043A000D4E900010978427904F11000CDE9000751
:1043B00040F21C10C2F2000001230296FCF7DEFB63
:1043C00000287FF43EAF002005B0F0BD2DE9F04F8E
:1043D00091B040F21006C2F2000696F824900F4603
:1043E000B9F1000F044602D0002000F0FBF9307A4A
:1043F000032813D846F20871C0F6000131F8108086
:10440000707A03280FD900200990F07A062818D96D
:104410000020CDE90700CDE905002DE04FF00008B0
:10442000707A0328EFD89DA2F37C02EB800297A15B
:10443000002B08BF01EB800210680990F07A062873
:10444000E6D800F07F00411EB1FA81F149090891D8
:104450000621C14001F0010107910E21C14001F088
:10446000010106911E21C14001F0010105913E218B
:1044700021FA00F000F001000490B6F80EB096F8B2
:104480000AA0357C204639460022FEF7B7FF30B13E
:104490002046394600220027FEF7B0FF70BB0DA86A
:1044A0000AA90122FEF7AAFF40B10DA80AA901221C
:1044B000FEF7A4FF10B1002720E000BF706840F2B3
:1044C0001C140178042010AFC2F200044FF4807C69
:1044D000CDE9007020460D220123CDF808C0FCF77D
:1044E0009FF970680D2201784FF4807000970327C0
:1044F0000290204601230197FCF792F94FF6FF70D6
:10450000F081FF2030744FF0FF30B0600120B8F52B
:104510007A7F307308DAB8F1FA0F0BD0B8F5FA7F6A
:1045200028D1082009E000BF06D0B8F5FA6F21D1E4
:10453000182002E0002000E010208DF84000D6E9AD
:10454000000110AB827901200978CDE9003040F2FA
:104550001C104FF48074C2F2000001230294FCF797
:104560000DFB18B99DF84000C0083072B07A0028E1
:1045700000F07880099901F0FE000238C90741EA8D
:10458000500007283CD8DFE800F0050D3B153B3B09
:104590003B1D00BF00208DF84000717A814218D188
:1045A0002EE000BF08208DF840000120717A814282
:1045B0000FD125E010208DF840000220717A814251
:1045C00007D11DE018208DF840000320717A814248
:1045D00016D0D6E9000110ABC27901200978CDE9E7
:1045E000003040F21C104FF48074C2F2000001232E
:1045F0000294FCF7C3FA18B99DF84000C008707225
:10460000B07A78B3089808B1012010E0079808B193
:1046100002200CE0069808B1032008E0059808B1D4
:10462000042004E0049800280CBF06200520F17A3D
:104630008DF84000814215D0D6E9000110AB827898
:1046400001200978CDE9003040F21C104FF480744D
:10465000C2F2000001230294FCF790FA10B99DF811
:104660004000F072584600F0B5F9504600F032FABA
:104670002846FFF769F9B9F1000F02D0012000F0D8
:10468000B1F8384611B0BDE8F08F00BF020000005D
:1046900004000000080000001000000004000000FA
:1046A00008000000100000002000000070B584B079
:1046B00040F21005C2F20005A97C814202D100201F
:1046C00004B070BD0446D5E90001012302794FF41E
:1046D00080700978CDE9013040F21C100DF10F0611
:1046E000C2F200000096FCF79BF8002C44D0002892
:1046F0005FD19DF80F00D5E9002100F0DF008DF8B3
:104700000F004FF48070012309781279CDE9013050
:1047100040F21C10C2F200000096FCF72FFA0028AD
:1047200047D10320FBF79AFE95F8221095F8232035
:104730006FF07D00002908BF02208DF80F001AB12C
:1047400040F030008DF80F00D5E900014FF4807C77
:10475000C27D01200978CDE9006040F21C10C2F250
:1047600000000123CDF808C0FCF708FA08BBAC74C0
:10477000002004B070BD00BFD8B99DF80F00A97A21
:1047800000F0DF0001F0010140EA4110D5E900210D
:104790008DF80F004FF48070012309781279CDE96C
:1047A000013040F21C10C2F200000096FCF7E6F95E
:1047B00020B14FF0FF3004B070BD00BF0320FBF705
:1047C0004DFE95F8220095F82310024600281CBFE4
:1047D00001226FF07F00D20100298DF80F20AFD1A8
:1047E000B2E70000F0B585B040F21005C2F2000556
:1047F00095F82410814200F08D80002854D095F85F
:104800002500002800F08A8009B9A87AC8B10020E4
:10481000D5E900218DF8110001200DF1110309786F
:10482000527CCDE9003040F21C104FF48076C2F289
:10483000000001230296FCF7A1F910B99DF81100C0
:10484000687400200024FFF731FFE88C00F0C2F804
:1048500068688DF8104040F21C140178012704A804
:10486000C2F200044FF48076CDE9000720462322EF
:1048700001230296FCF782F90220D5E900218DF888
:1048800012000978527C0DF11200CDE90007204694
:10489000012385F824700296FCF770F9C0BB9DF8DF
:1048A0001200687434E000BF09B9A87AC8B10020CA
:1048B000D5E900218DF8130001200DF113030978CB
:1048C000527CCDE9003040F21C104FF48077C2F2E8
:1048D000000001230297FCF751F910B99DF813006D
:1048E0006874287C69688DF81000012004AA097892
:1048F000CDE9002040F21C104FF48077C2F2000096
:10490000232201230297FCF739F9002085F82400BF
:10491000FFF758FC002005B0F0BD00BF4FF0FF309E
:1049200005B0F0BD10B584B040F21004C2F200042E
:10493000A17A002944D0BC2806D30120E17A8DF861
:104940000F00814227D142E0622807D30220E17A9A
:104950008DF80F0081421ED139E000BF2A2807D30D
:104960000320E17A8DF80F00814214D12FE000BFBF
:10497000142807D30420E17A8DF80F0081420AD170
:1049800025E000BF0A2834BF06200520E17A8DF813
:104990000F0081421BD0D4E900010DF10F03827892
:1049A00001200978CDE9003040F21C104FF4807CE2
:1049B000C2F200000123CDF808C0FCF7DFF818B1FF
:1049C0004FF0FF3004B010BD9DF80F00E0720020E2
:1049D00004B010BD70B584B040F21005C2F20005FD
:1049E000A97A044600294FF0FF3070D095F82410C2
:1049F00000296CD1287D50B1601E80B2272803D8D1
:104A00002046FFF715FA61E00020FFF711FA4FF496
:104A10007A76B4F57A7F28BF3446042C98BF0424F4
:104A2000B6FBF4F0D5E9002101388DF80E00012025
:104A30000DF10E0309785278CDE9003040F21C10D8
:104A40004FF48074C2F2000001230294FCF796F840
:104A500020B14FF0FF3004B070BD00BF9DF80E00D4
:104A6000AA7A411CB6FBF1F1E9817AB3012801D899
:104A700001200FE0042801D802200BE00A2801D809
:104A8000032007E0182801D8042003E031288CBF58
:104A900006200520E97A8DF80F00814216D0D5E96D
:104AA00000010DF10F03827801200978CDE9003073
:104AB00040F21C104FF48076C2F2000001230296EF
:104AC000FCF75CF810B99DF80F00E872002004B004
:104AD00070BD00002DE9F04184B0044610F0700F65
:104AE00002D0012004E000BF002C0CBF40200020B9
:104AF00040F21008C2F200088DF80E00D8E900015B
:104B00004FF480760978427D40F21C1001270DF1A8
:104B10000E05C2F200000123CDE900570296FCF712
:104B20002DF820BB0421A20621EA141104F0100282
:104B30009DF80E0058BF023187EA12121144220775
:104B400058BF38318DF80E10D8E9002100F0BF00B1
:104B50000978927D88F80C0040F21C10C2F2000027
:104B60000123CDE900570296FCF708F840B1002078
:104B700088F80A004FF0FF34204604B0BDE8F08109
:104B800014F0F70F2ED098F8230058B398F81200BD
:104B900098F822100246002818BF012252008DF812
:104BA0000F2039B16FF07D01002808BF6FF07F0141
:104BB0008DF80F10D8E900010DF10F03C27D01201F
:104BC0000978CDE9003040F21C104FF48077C2F232
:104BD000000001230297FBF7D1FF002804BF00204B
:104BE00088F8230088F80A400024322088F814400E
:104BF000FBF734FC204604B0BDE8F081F0B585B089
:104C00000C4601464FF0FF30C2B340F21006C2F22C
:104C100000061546B27A8AB370684ABAC9B24389A7
:104C200021449942ADF8122012D83268017802204E
:104C30000DF11203D27ECDE9003040F21C104FF48A
:104C40008077C2F2000001230297FBF797FF18B1AB
:104C50004FF0FF3005B0F0BDD6E90001012309781F
:104C6000027E40F21C10C2F20000CDE9005402970F
:104C7000FBF784FF002818BF4FF0FF3005B0F0BDF0
:104C800070B588B005A802A9FFF7A0FB03283BD1A7
:104C900001A8FEF7F9FEDDE90506079C01F0BEFA62
:104CA000019D0146284601F0E5FA01F09BFA0590C6
:104CB000304601F0B3FA0146284601F0DBFA01F074
:104CC00091FA0690204601F0A9FA0146284601F023
:104CD000D1FA01F087FA079005A8FEF715FA0DF151
:104CE0000200FEF7B1FE02ABBDF802000ECB41435D
:104CF000029102FB00F15843049002A80391FEF7D1
:104D000069F9002008B070BD4FF0FF3008B070BDE9
:104D1000490050EAC12018BF04204A0D18BF40F0D6
:104D2000010040F2FF72B2EB515F08BF40F0020099
:104D3000012808BF052070472DE9F0414F1E00EB08
:104D4000C7010446D1E9000115461E4637F00602A8
:104D50000DD02A46334600F017FE7F1E04EBC70332
:104D6000D3E9002300F0BEFB37F00602F1D1022F99
:104D700025D0042F13D0062F18BFBDE8F0812A4696
:104D8000334600F001FED4E90A2300F0ABFB2A46CB
:104D9000334600F0F9FDD4E9082300F0A3FB2A46CE
:104DA000334600F0F1FDD4E9062300F09BFB2A46D0
:104DB000334600F0E9FDD4E9042300F093FB2A46D2
:104DC000334600F0E1FDD4E9022300F08BFB2A46D4
:104DD000334600F0D9FDD4E90023BDE8F04100F0EE
:104DE00081BB012201F0B9BB00F07CBB002213465D
:104DF0001046114600F032BC024A0020110701F0B3
:104E0000ACBB000001FDFFFF2DE9F04D8D4F21F0FF
:104E1000004A86B005460C46BA452ADBAAEB0700D5
:104E200028430AD08848824501DC1AD1CDB106B0AA
:104E30002846BDE8F04DFFF7D4BF844A844B28468E
:104E400000F0A2FD07460E46824A834B28462146C3
:104E500000F09AFD06B03A463346BDE8F04D00F04A
:104E600041BB0120FBF7ACFA06B0BDE8F04DFFF7FF
:104E7000BDBF7A48824542DABAF1795F0BDA28463B
:104E8000FFF746FF042808BFFFF7B6FF284606B025
:104E90002146BDE8F08D2A460B46104600F074FD11
:104EA000834602466E480E460B4606217844FFF7BD
:104EB00043FF5A46334600F067FD804669488A46FC
:104EC0005A46334604217844FFF736FF5A463346A4
:104ED00000F05AFD00223B4600F004FB02460B4660
:104EE0004046514600F0BAFB2A46234600F04CFDEE
:104EF00006B02A462346BDE8F04D00F0F3BA284636
:104F000024F0004100223D463B4600F03BFE4FF0BE
:104F1000FF3201F022FB0646024653480F460B467D
:104F200006217844FFF708FF32463B4600F02CFD8F
:104F3000CDE900014D4832463B4604217844FFF755
:104F4000FBFE32463B4600F01FFD00222B4600F0E0
:104F5000C9FA834602913046394600F06BFA804622
:104F600043480D46504517DCDDE900015A46029BD7
:104F700000F074FB42462B4600F006FD42462B46ED
:104F800000F0B0FA012201F0E8FA304A304B00F0AC
:104F9000EBFE304A304B4CE04FF0000A52460B46D5
:104FA000404600F09FFACDE9031052462B461046CA
:104FB000194600F0E9FC32463B4600F0E3FDDDE92E
:104FC000033200F04BFB06460F46DDE900015A466E
:104FD000029B00F043FB8346009101223046394694
:104FE00001F0BBFA194A1A4B00F0CCFD06460F46F9
:104FF00001224046294601F0B0FA5A46009B00F0D3
:10500000C3FC32463B4600F0AFFE06460F46012287
:105010005046294601F0A1FA0E4DDFF858802A4685
:10502000434600F0AFFD32463B4600F0ABFD2A465A
:10503000434600F0A7FD002CD8BF81F0004106B028
:10504000BDE8F08D0000F03F0000F07F075C1433F6
:1050500026A6913C182D4454FB21F93F0000E03F67
:10506000381700004E170000C2160000D8160000C6
:105070003333EF3FFB21E93F2DE9F84F04460D465E
:1050800021F0004000917349814211DC724988424D
:1050900001DC06D12CB120462946BDE8F84FFFF7C8
:1050A000A0BE6E48002DCCBF6D496E49BDE8F88F9B
:1050B0006D49814211DD6D498142D8BF4FF0FF3605
:1050C0006DDD20462946FFF723FE042808BFFFF7C1
:1050D00093FE20462946BDE8F88F6549654F25F0C7
:1050E0000045814233DD6449814219DD00263246A4
:1050F0004FF080432046294600F0F4F980468A4666
:1051000001222046294601F028FA00223B4600F001
:105110002BFE4246534600F0A1FA04460D463EE0FF
:1051200001260022BA463B462046294600F0DAF91D
:1051300080460F46002253462046294600F014FEC2
:1051400042463B4600F08AFA04460D4627E04B49AA
:1051500081421BDDDFF828A10226002253462046AB
:10516000294600F011FC00223B4600F0BBF98046C6
:105170000F46002253462046294600F0F5FD4246E0
:105180003B4600F06BFA04460D4608E00326224633
:105190002B4600203B4900F061FA04460D462246AA
:1051A0002B461046194600F0EFFB8B46824602461E
:1051B0000B4600F0E9FB07460246334888460B469B
:1051C00006217844FFF7B8FD52465B4600F0DCFB51
:1051D00082462E488B463A46434605217844FFF7DF
:1051E000ABFD3A46434600F0CFFB02460B46002E8D
:1051F000504659460CDA00F075F922462B4600F06D
:10520000C3FB01B022462B46BDE8F04F00F0BABC0C
:1052100000F068F922462B4600F0B6FB1C4A7A449F
:1052200002EBC603D3E9002300F09EFD22462B4685
:1052300000F09AFD174A7A4402EBC603D3E9002333
:1052400000F0A0FC009A002AB8BF81F00041BDE840
:10525000F88F0000000010440000F07F182D445427
:10526000FB21F93FFB21F9BF0000DC3F0000203E9D
:105270000000F33F0000F03F0000E63F00800340E5
:105280000000F83F0000F0BFDA140000981400009E
:1052900036140000FE1300002DE9F04D9446CCF1C9
:1052A000000423F000464CEA0404594F46EAD47443
:1052B0009A46884621F00042BC4206D8454240EA60
:1052C000050442EAD474BC4204D9BDE8F04D6246FC
:1052D000FFF78ABDAAF14055A5F17F6555EA0C0498
:1052E0000BD0022404EAAA744A4DDFF82CE144EA08
:1052F000D87452EA000B04D00CE0BDE8F04DFFF783
:10530000BBBE002C14BF012CBDE8F08D022C30D0A8
:10531000032C32D056EA0C0B0AD0BE4220D1BA423E
:1053200009D126F0804622F080423346114617E02C
:1053300000291ADB25E0DFF8E4B0FB44002C04BFB1
:10534000DBE90001BDE8F08D012C02BFDBE90001C3
:1053500081F00041BDE8F08D022C0AD0032C0CD066
:10536000BA4212D1B8F1000F0BDA2A482C49BDE835
:10537000F08D28462B49BDE8F08D28467146BDE8E2
:10538000F08D24482849BDE8F08D921B12153C2A67
:10539000C4BF204F244E10DCBAF1000FBEBF12F183
:1053A0003C0F00273E4608DB624600F057F921F02B
:1053B0000041FFF761FE07460E4694B1012C08BF7D
:1053C00086F000460DD0194A194B022C384631465A
:1053D00015D000F0C9FC2A46BDE8F04D114B00F095
:1053E000C3BC002213463846314600F091FA04BF90
:1053F0000220FAF7E5FF38463146BDE8F08D00F0AF
:10540000B3FC2A46BDE8F04D064B00F0BBBB0000E4
:105410000000F07F182D4454FB2109C092130000B6
:10542000FB21F9BFFB210940FB21F93F075C143345
:1054300026A6A13C2DE9F04106460F4600F0AEFB42
:10544000041E0D4618BF0120284320F00040C0F183
:105450007F6000F1E040C00F0ED0301C18BF01206B
:10546000384320F00040C0F17F6000F1E040C00F01
:1054700004BF0120FAF7A4FF20462946BDE8F081C9
:1054800021F0004201F00043A2F16052B2F5801F0A
:1054900028BFD2F17F6C0BD95FEA001C43EAC2023D
:1054A00042EB507018BF704728BF20F001007047D2
:1054B000B2F5801FBCBF184670474FEA410C1CF57F
:1054C000001F02D2084600F09CBF70B500F006FB3A
:1054D00000000089FFF7F6BF4FF00040A0F5800004
:1054E0007047000010B591EA030F48BF83F00043F6
:1054F00000F14284841A71EB030C05D2121943EBBC
:105500000C03001B61EB0C014FEA1154A4EB135C7C
:10551000DFF81CE11EEA430F18BF9EEA445F00F06B
:10552000748021EA045123EA0E0343F48013DCF172
:10553000200E32D322FA0CFE10EB0E0023FA0CFEE2
:1055400041EB0E01CCF1200E03FA0EFE10EB0E0023
:10555000CCF1200E51F10001B1F5801F32D201EBE8
:10556000045112FA0EF2BDE8104058BF7047401CBB
:1055700038BF5FEA420218BF7047002814BF20F00E
:10558000010041F100014FEA410313F5001F38BF4C
:105590007047A1F1C04100F0EFBA012A43EB0302CA
:1055A000ACF1200CDCF11F0E32BF4FF0000E23FADD
:1055B0000CF310EB030041EB0451B4EB115FD0D0BE
:1055C000A1EB045101F58011490801EB04515FEA98
:1055D00030000ED350F1000038BF12FA0EFE08D191
:1055E000BDE81040C9E7401C38BF5FEA4202CAD19B
:1055F000C3E7BDE810404FEA410313F5001F38BF71
:105600007047A1F1C04100F0B7BA9EEA445F08D0EC
:1056100011EA5E0FBDE8104004BF01F00041002018
:105620007047BDE8104070B500F058FA64FBBE3E0C
:105630000000E0FF02494FF0000000F05CBF00BF37
:105640000000F87F491058BFC1F140415B1058BFBE
:10565000C3F140438B42EFF3008070472DE9C04116
:1056600030B4DFF8A4C23CEA111418BF3CEA1314AA
:1056700000F0ED801CEA111481EA030544EAD574B8
:1056800018BF1CEA131500F0C880A4EB050404F150
:105690007F7404F500344FF0004545EAC12145EA26
:1056A000C32341EA505143EA52534FEAC0204FEA24
:1056B000C222994208BF904200F09D804FEA1365D4
:1056C0000FF24416765D4FEA134506FB05F7C7F166
:1056D000807706FB07F74FEAD737A7FB03687642C8
:1056E000A7FB06CEC8F5803838BFA8F1010807FB34
:1056F00008E6A6FB028C4FF0000EE6FB03CEDCF1C1
:10570000000CCEF1004E38BFAEF1010EA6FB0C58D6
:105710004FF00007E6FB0E87A1FB08C6A0FB07CEF3
:1057200016EB0E064FF0000545F10005E1FB07659D
:1057300015F1E04E7EBFA4F580345FEA46066D4168
:1057400016F1800745F100054FEA172747EA05677C
:105750004FEA15254FEA0666A6F1DE46B6F1805FF0
:1057600020D9384605EBC47124F0010C01EB0C1173
:10577000BCF1FE6F02D8F0BCBDE8008124425CBFE2
:1057800001F5801E9EEAC47F02D4F0BCBDE8008112
:10579000244200F13980A1F1C041F0BCBDE80041D4
:1057A00000F0EAB94FEAD02040EA41504FEAD12157
:1057B0004FEAD22242EA43524FEAD323A7FB0286A2
:1057C00007FB036605FB02661EEA0E0F58BFA6EB39
:1057D0000056B6EB00564FEA520E4EEAC37E18EB67
:1057E0000E0E56EB530EBCD518EB02085E417F1C23
:1057F00055F10005B5E74FF480154FF000074FF065
:1058000000064FF00008ACE701F1C04101F0004193
:105810004FF00000F0BCBDE800810CEA131511EA5E
:105820000C1F00D00CE013EA0C1F00F026804FF094
:10583000000081EA030101F00041F0BCBDE80081F5
:10584000F0BCBDE8004181EA030100F095B9F0BC6D
:10585000BDE8004170B500F041F900BF097EFC3E93
:1058600000F007B84FF0000081EA030101F00041A9
:10587000704781EA030100F07FB9F0BCBDE8004148
:1058800022494FF000007047FFFDFBF9F7F5F4F2F5
:10589000F0EEEDEBE9E8E6E4E3E1E0DEDDDBDAD8CB
:1058A000D7D5D4D3D1D0CFCDCCCBCAC8C7C6C5C429
:1058B000C2C1C0BFBEBDBCBBBAB9B8B7B6B5B4B340
:1058C000B2B1B0AFAEADACABAAA9A8A8A7A6A5A42B
:1058D000A3A3A2A1A09F9F9E9D9C9C9B9A999998EF
:1058E0009797969595949393929191908F8F8E8E92
:1058F0008D8C8C8B8B8A898988888787868585841F
:1059000084838382828181800000FF070000F87F0A
:1059100051EA030C17D41CF5801F58BFBCF5801F3B
:1059200000F10680994218BF704708BF9042704747
:1059300007D711F5801F58BF13F5801F19D499425E
:105940007047894270471CF5801F08D5BCF5801F41
:10595000F7D58B4218BF704708BF824270474FF49B
:10596000001C1CEB410F38BF1CEB430F01D28B42D4
:10597000704770B500F0B2F8922449004FF0005122
:105980004FF08053FFF75EBE70B5DFF848C11CEAE8
:10599000111E1EBF1CEA13159EEA0C0F95EA0C0F90
:1059A00000F06F8081EA03044EEAD47EAE4421EA1F
:1059B0004C1123EA4C1341F4801143F48013AEF1EF
:1059C0007F7EA1FB024CA0FB0365361955EB0C054D
:1059D000A1FB034C4CF10003A0FB021C16EB0C06D0
:1059E000654153F10003094218BF46F0010613F464
:1059F000007F0BD14FEA03314FEA053041EA1551E0
:105A000040EA165034036FF003020AE04FEAC32164
:105A10004FEAC52041EA555140EA5650F4026FF072
:105A2000020202EB2E4201EB025585EACE710AD04A
:105A30005FEA440C18BF24F0004450F1000041F12B
:105A4000000120EAD47040F2FE7C624500D270BDB5
:105A5000A84214BF4FF080444FF04044002E08BFCE
:105A60000024BEF1806FA8BFA1F1C041BDE8704025
:105A700080F2828001F1C04101F000414FF000004E
:105A800070470CEA13159EEA0C0F18BF95EA0C0F2D
:105A900006D081EA030E4FF000000EF0004170BD09
:105AA00000F01CF88900013E00F007B800F009B8CA
:105AB0004FEA430C5FEA5C5C08D081EA030100F026
:105AC0005BB84FEA410C5FEA5C5CF6D102494FF0EB
:105AD000000070470000FF070000F87F0EF1020E83
