:020000040800F2
:100000000058002055020008D1670008355C000840
:1000100071670008C10E0008C9D100080000000087
:1000200000000000000000000000000041C30008C4
:100030002D22000800000000116B0008E1C3000839
:100040006F0200086F0200086F0200086F020008CC
:100050006F0200086F020008312200086F020008DA
:100060006F0200086F0200083D2200086F020008BE
:100070006F0200086F0200086F0200086F0200089C
:100080006F0200086F0200086F0200086F0200088C
:100090006F0200086F0200086F0200084922000882
:1000A0006F0200086F0200086F0200086F0200086C
:1000B000EDC400086F0200086F0200086F0200081C
:1000C0006F0200086F0200086F0200086F0200084C
:1000D0006F0200086F0200086F0200086F0200083C
:1000E0006F0200086F0200086F0200086F0200082C
:1000F0006F0200086F0200086F020008C50E0008BA
:100100006F0200086F0200086F0200086F0200080B
:100110006F0200086F0200086F0200086F020008FB
:10012000910F00086F020008A50F00086520000865
:10013000752000086F0200086F0200086F020008B7
:100140006F0200086F0200086F0200086F020008CB
:100150006F0200086F020008852000086F02000887
:100160006F0200086F0200086F0200086F020008AB
:100170006F0200086F0200086F0200080000000014
:100180006F0200086F02000800F002F800F052F859
:1001900014A696E8000CB244B344DA4501D100F04D
:1001A00049F8BAE80F000FA696E83000A5EB040561
:1001B00004EB0607AAEB0704A7F101074FEA1515A0
:1001C0004FEA3414A4F10104AC4201D300F032F838
:1001D00013F0010F18BFFB1A43F0010300F001F800
:1001E000DBE71847CC240100EC240100103A24BFBF
:1001F00078C878C1FAD8520724BF30C830C144BF8C
:1002000004680C6070470000704700000023002461
:1002100000250026103A28BF78C1FBD8520728BF16
:1002200030C148BF0B6070471FB511F0B7FD1FBD4F
:1002300010B510BD00F0F9F91146FFF7F5FF0DF00C
:100240003BFE00F017FA03B4FFF7F2FF03BC00F027
:100250001BFA00000948804709480047FEE7FEE70F
:10026000FEE7FEE7FEE7FEE7FEE7FEE7FEE7FEE766
:1002700004480549054A064B70470000D9C40008E8
:10028000890100080052002000580020005400207E
:10029000005400209FED1A1AF5EE000A40EE010A04
:1002A000BDEEE00AF5EEC00A10EE100AF1EE10FA0B
:1002B00038BF401E00EE100A1349F7EE001AB8EEE0
:1002C000C00A30EEC00ADFED0F0A20EE200AFCEE75
:1002D000C00A10EE900AC0F3080000EE900A01EB8D
:1002E0008000F8EE600A90ED011A70EE600A90ED61
:1002F000000A71EEE01A21EE800A00EE810A7047D2
:1003000083F9223E00000044C01D0108DFED190AF8
:10031000B5EEC00A60EE200ABDEEE01A11EE100A3A
:10032000F1EE10FA38BF401E00EE100A1349F7EE46
:10033000001AB8EEC00A30EEC00ADFED0F0A60EE18
:10034000200ABCEEE00A10EE100AC0F3080000EE2E
:10035000100A01EB8000B8EE400A90ED011A70EE31
:10036000C00A90ED000A71EEE01A21EE800A00EE5C
:10037000810A704783F9223E00000044C01D010835
:1003800053EA020C00F069802DE9F04B4FF00006B3
:10039000002B1FBFB3FA83F503FA05F424FA05F620
:1003A0005E4012BF1643B2FA82F502FA05F4C5F1B7
:1003B00020051EBF22FA05FC44EA0C04203556EA4B
:1003C000044C4FEA144418BF641C4FF000084FF06F
:1003D0000009904271EB030C39D3002919BFB1FA1F
:1003E00081F701FA07F6B0FA80F700FA07F6C7F1CD
:1003F00020071EBF20FA07FC46EA0C062037B6FB92
:10040000F4FCA7EB0507103F07F01F0BCBF120060C
:100410002CFA06F60CFA0BFB44BFB3460026202F3D
:10042000A4BF5E464FF0000B5BEA060C08BF4FF01E
:10043000010B19EB0B0948EB0608ABFB027C06FB32
:1004400002CC0BFB03CCC01B71EB0C01C1E70B46CC
:10045000024641464846BDE8F08B13B5084318BF35
:100460004FF0FF300146AFF30080BDE81C407047FD
:1004700010B5431C02E010F8011B71B18107FAD1DD
:100480004FF0013202C88C1A8C4314EAC211F9D021
:10049000C01A0A0603D0C01E10BDC01A10BD0A043F
:1004A00001D0801E10BD0902FCD0401E10BD032AE1
:1004B00040F2308010F0030C00F0158011F8013B81
:1004C000BCF1020F624498BF11F801CB00F8013B68
:1004D00038BF11F8013BA2F1040298BF00F801CB2C
:1004E00038BF00F8013B11F0030300F06280083AC6
:1004F000C0F0088051F8043B083A51F804CBA0E85A
:100500000810F5E7121D5CBF51F8043B40F8043BAE
:10051000AFF30080D20724BF11F8013B11F801CBE3
:1005200048BF11F8012B24BF00F8013B00F801CBB4
:1005300048BF00F8012B704702F0FF0343EA032293
:1005400042EA024200F002B84FF0000200B5134642
:1005500094469646203922BFA0E80C50A0E80C50E3
:10056000B1F12001BFF4F7AF090728BFA0E80C5094
:1005700048BF0CC05DF804EB890028BF40F8042B8D
:1005800008BF704748BF20F8022B11F0804F18BFFA
:1005900000F8012B704770477047704710B500F0A6
:1005A0003FF8006810BD10B5044600F039F804604B
:1005B00010BD10B5203AC0F00B80B1E81850A0E88B
:1005C0001850B1E81850A0E81850203ABFF4F5AF21
:1005D0005FEA027C24BFB1E81850A0E8185044BF7D
:1005E00018C918C0BDE810405FEA827C24BF51F8EA
:1005F000043B40F8043B08BF7047D20728BF31F8DE
:10060000023B48BF11F8012B28BF20F8023B48BF2E
:1006100000F8012B7047000000487047B000002030
:1006200000487047B000002070477546FFF7F4FFA0
:10063000AE4605006946534620F00700854618B0CF
:1006400020B5FFF715FEBDE820404FF000064FF043
:1006500000074FF000084FF0000BAC46ACE8C009B3
:10066000ACE8C009ACE8C009ACE8C00921F007015A
:100670008D46704710B50446AFF300802046BDE8B4
:100680001040FFF7E0BD000001491820ABBEFEE7B7
:100690002600020080B582B001900198806B009026
:1006A0000098006C10F0500F3AD1FFE70099086CE9
:1006B00040F40070086400980068806810F0405FA3
:1006C0002AD1FFE70098007E30BBFFE70098006862
:1006D000C06A10F4700F07D0FFE7009800688068C8
:1006E0004005002818D4FFE700980168486820F00A
:1006F000200048600099086C20F48070086400981D
:10070000006CC004002806D4FFE70099086C40F094
:1007100001000864FFE7FFE7009801F09FFF10E089
:100720000098006CC006002804D5FFE7009801F08F
:100730009DFF05E00098806BC16C01988847FFE73A
:10074000FFE702B080BD000080B582B00190019843
:10075000806B00900099402008640099486C40F03C
:1007600004004864009801F081FF02B080BD0000E1
:1007700080B582B001900198806B0090009801F0E4
:1007800071FF02B080BD000082B0019042F20030E3
:10079000C4F2010000900099486820F4403048609D
:1007A00001984268009948681043486001980168C0
:1007B000486820F4807048600198016802694868C0
:1007C00040EA0220486001980168486820F04070C3
:1007D0004860019801688268486810434860019841
:1007E0000168886820F40060886001980168C26828
:1007F0008868104388600198806A0121C0F6007102
:10080000884219D0FFE701980168886820F070607D
:10081000886001980168826A88681043886001983E
:100820000168886820F04050886001980168C26AB9
:100830008868104388600CE001980168886820F09F
:100840007060886001980168886820F04050886076
:10085000FFE701980168886820F00200886001982D
:10086000027E0168886840EA42008860019890F83A
:100870002000C8B1FFE701980168486840F40060B3
:10088000486001980168486820F460404860019819
:100890000168426A4EF20000CFF6FF7000EB423270
:1008A00048681043486006E001980168486820F4F1
:1008B00000604860FFE701980168C86A20F4700092
:1008C000C86201980168C2690020CFF6F07000EBA1
:1008D0000252C86A1043C86201980168886820F40F
:1008E00000708860019890F830200168886840EABC
:1008F0004220886001980168886820F480608860E0
:10090000019801684269886840EA8220886002B0E4
:100910007047000080B582B08DED010A9DED010A9F
:1009200010F0A6FC02B080BD80B582B08DED010A4A
:10093000CDED000A9DED010ADDED000A10F02EFD5F
:1009400002B080BD80B582B08DED010A9DED010A37
:10095000FFF7A0FC02B080BD81B00090009820B1EC
:10096000FFE7009900200860FFE701B07047000032
:1009700081B00090009830B1FFE700990020C4F2E8
:10098000B0100860FFE701B07047000080B582B08A
:100990008DED010A9DED010A10F056FEB0EE401AF1
:1009A000B7EE000A80EE010A02B080BD80B582B0C9
:1009B0008DED010A9DED010AFFF7A8FC02B080BD94
:1009C00080B50020C4F202001021012202F0D8FDFF
:1009D00080BD000080B50020C4F20200102100227A
:1009E00002F0CEFD80BD00007047000080B540F2EF
:1009F0000040C4F202000122114602F0C1FD80BD98
:100A000080B540F20040C4F202000121002202F051
:100A1000B7FD80BD85B004900391029204990878D7
:100A2000497840EA0120ADF80600BDF9060000EE65
:100A3000100AB8EEC00A40F21000C2F2000090EDB9
:100A4000001A20EE010A039981ED000A049A9178B8
:100A5000D27841EA0221ADF80610BDF9061000EE89
:100A6000101AB8EEC00A90ED001A20EE010A0399A0
:100A700081ED010A049A1179527941EA0221ADF817
:100A80000610BDF9061000EE101AB8EEC00A90ED7F
:100A9000001A20EE010A039880ED020A0498817979
:100AA000C279007A000440EA0220084400909DEDDB
:100AB000000AB8EE400A9FED041A20EE010A0298DF
:100AC00080ED000A05B0704700401C4270470000EE
:100AD00080B582B0ADF80600BDF806000DF050FA02
:100AE00002B080BD80B582B0ADF80600BDF806004A
:100AF0000CF0C4FF02B080BD83B002900191029956
:100B00000878497840EA0120ADF80200BDF90200FA
:100B100000EE100AB8EEC00A40F21400C2F2000063
:100B200090ED001A20EE010A019981ED000A029A67
:100B30009178D27841EA0221ADF80210BDF9021095
:100B400000EE101AB8EEC00A90ED001A20EE010A6D
:100B5000019981ED010A029A1179527941EA022143
:100B6000ADF80210BDF9021000EE101AB8EEC00A7E
:100B700090ED001A20EE010A019880ED020A03B000
:100B80007047000080B582B000208DF80700FFF7A5
:100B90002BFFFFF79BFF0CF041FC38B1FFE79DF8FE
:100BA000070040F080008DF8070008E00CF06EFBB5
:100BB00001469DF8070008438DF80700FFE70CF099
:100BC000ABFE38B1FFE79DF8070040F040008DF81C
:100BD000070008E00CF0FCFD01469DF80700084303
:100BE0008DF80700FFE79DF8070002B080BD000008
:100BF00080B588B00790069105920020009004907F
:100C00000390FFF7E7FE922000F006F9122003A9F7
:100C10000191062200F0CCF8FFF7D2FE9DF80C00FF
:100C20009DF80D1040EA0120ADF80A00BDF90A0058
:100C300000EE100AB8EEC00A40F21000C2F2000046
:100C400090ED001A20EE010A069981ED000A9DF848
:100C50000E109DF80F2041EA0221ADF80A10BDF9EF
:100C60000A1000EE101AB8EEC00A90ED001A20EE3D
:100C7000010A069981ED010A9DF810109DF81120D6
:100C800041EA0221ADF80A10BDF90A1000EE101A6F
:100C9000B8EEC00A90ED001A20EE010A069880ED29
:100CA000020AFFF7ADFE00980199082200F080F8D3
:100CB000FFF79CFE9DF80C000F2844D1FFE79DF83C
:100CC0000E009DF80F1040EA0120ADF80A00BDF9B2
:100CD0000A0000EE100AB8EEC00A40F21400C2F298
:100CE000000090ED001A20EE010A079981ED000A3C
:100CF0009DF810109DF8112041EA0221ADF80A106C
:100D0000BDF90A1000EE101AB8EEC00A90ED001AF4
:100D100020EE010A079981ED010A9DF812109DF855
:100D2000132041EA0221ADF80A10BDF90A1000EEC5
:100D3000101AB8EEC00A90ED001A20EE010A0798CA
:100D400080ED020AFFE7FFF745FEA22000F064F8FD
:100D5000222003A9022200F02BF8FFF731FE9DF8B4
:100D60000C009DF80D10C00040EA5110ADF80A00CB
:100D7000BDF90A00B0F5806F07DBFFE7BDF80A0098
:100D8000A0F50060ADF80A00FFE7BDF90A0000EE2B
:100D9000100AB8EEC00AB4EE001A20EE010AB3EE53
:100DA000071A30EE010A059880ED000A08B080BDF0
:100DB00080B584B08DF80F0002918DF807209DF862
:100DC0000F0040F0800000F027F8FFE79DF80700D3
:100DD00070B1FFE7552000F01FF8029908700298E3
:100DE000013002909DF8070001388DF80700EDE70B
:100DF00004B080BD80B582B08DF8070000919DF8E9
:100E0000070040F0800000F007F8552000F004F8DB
:100E10000099087002B080BD80B582B08DF80700DF
:100E200069464FF47A70086040F68C20C2F20000E8
:100E30000DF107010DF10602012303F07DFE9DF87F
:100E4000060002B080BD000083B0029001910299BB
:100E500008784978C00040EA5110ADF80200BDF9A9
:100E60000200B0F5806F07DBFFE7BDF80200A0F5D8
:100E70000060ADF80200FFE7BDF9020000EE100AC5
:100E8000B8EEC00AB4EE001A20EE010AB3EE071A5B
:100E900030EE010A019880ED000A03B070470000AF
:100EA00080B582B08DF807008DF806109DF8070018
:100EB000FFF7B2FF9DF80600FFF7AEFF02B080BD5E
:100EC000FFE7FEE782B046F20400C4F202000068C9
:100ED0000001002859D5FFE740F25450C2F200004B
:100EE000406B006846F25941C4F20201884208D3BF
:100EF000FFE746F20C41C4F202014FF000600860C7
:100F000039E040F25450C2F20000406B006846F2F3
:100F1000B901C4F20201884209D3FFE746F2084151
:100F2000C4F202014FF000600860019021E040F23D
:100F30005450C2F20000406B006846F25901C4F2FE
:100F40000201884209D3FFE746F20C01C4F2020114
:100F50004FF000600860009008E046F20801C4F21B
:100F600002014FF0006008600090FFE700980190D8
:100F7000FFE70198FFE740F25450C2F20000016819
:100F8000086840F400700860FFE702B07047000096
:100F900080B500F00FF840F28030C2F2000001F09E
:100FA00091FD80BD80B540F24040C2F2000001F0EA
:100FB00089FD80BD80B5E2B040F68C20C2F2000011
:100FC000C06C006846F25941C4F202018842C0F088
:100FD000F380FFE746F20440C4F20200006861902B
:100FE00040F68C20C2F20000C06C006846F210018E
:100FF000C4F20201884203D1FFE720206090D6E0CE
:1010000040F68C20C2F20000C06C006846F210412D
:10101000C4F20201884203D1FFE720205F90C3E0C1
:1010200040F68C20C2F20000C06C006846F27001ED
:10103000C4F20201884203D1FFE720205E90B0E0B5
:1010400040F68C20C2F20000C06C006846F270418D
:10105000C4F20201884203D1FFE720205D909DE0A9
:1010600040F68C20C2F20000C06C006846F22801F5
:10107000C4F20201884204D1FFE74FF400605C90A3
:1010800089E040F68C20C2F20000C06C006846F295
:101090002841C4F20201884204D1FFE74FF4006006
:1010A0005B9075E040F68C20C2F20000C06C0068D6
:1010B00046F28801C4F20201884204D1FFE74FF4EE
:1010C00000605A9061E040F68C20C2F20000C06CD3
:1010D000006846F28841C4F20201884204D1FFE769
:1010E0004FF4006059904DE040F68C20C2F20000B1
:1010F000C06C006846F24001C4F20201884204D18B
:10110000FFE74FF40010589039E040F68C20C2F20F
:101110000000C06C006846F24041C4F202018842FF
:1011200004D1FFE74FF40010579025E040F68C20E3
:10113000C2F20000C06C006846F2A001C4F20201D5
:10114000884204D1FFE74FF40010569011E040F6BA
:101150008C20C2F20000C06C016846F2A042C4F2CA
:1011600002024FF00060914208BF4FF40010569009
:10117000FFE756985790FFE757985890FFE7589821
:101180005990FFE759985A90FFE75A985B90FFE70C
:101190005B985C90FFE75C985D90FFE75D985E90E0
:1011A000FFE75E985F90FFE75F986090FFE76198C8
:1011B000609908405590F7E240F68C20C2F200009A
:1011C000C06C006846F2B901C4F202018842C0F066
:1011D000F380FFE746F20040C4F20200006854903A
:1011E00040F68C20C2F20000C06C006846F210018C
:1011F000C4F20201884203D1FFE720205390D6E0D9
:1012000040F68C20C2F20000C06C006846F210412B
:10121000C4F20201884203D1FFE720205290C3E0CC
:1012200040F68C20C2F20000C06C006846F27001EB
:10123000C4F20201884203D1FFE720205190B0E0C0
:1012400040F68C20C2F20000C06C006846F270418B
:10125000C4F20201884203D1FFE7202050909DE0B4
:1012600040F68C20C2F20000C06C006846F22801F3
:10127000C4F20201884204D1FFE74FF400604F90AE
:1012800089E040F68C20C2F20000C06C006846F293
:101290002841C4F20201884204D1FFE74FF4006004
:1012A0004E9075E040F68C20C2F20000C06C0068E1
:1012B00046F28801C4F20201884204D1FFE74FF4EC
:1012C00000604D9061E040F68C20C2F20000C06CDE
:1012D000006846F28841C4F20201884204D1FFE767
:1012E0004FF400604C904DE040F68C20C2F20000BC
:1012F000C06C006846F24001C4F20201884204D189
:10130000FFE74FF400104B9039E040F68C20C2F21A
:101310000000C06C006846F24041C4F202018842FD
:1013200004D1FFE74FF400104A9025E040F68C20EE
:10133000C2F20000C06C006846F2A001C4F20201D3
:10134000884204D1FFE74FF40010499011E040F6C5
:101350008C20C2F20000C06C016846F2A042C4F2C8
:1013600002024FF00060914208BF4FF40010499014
:10137000FFE749984A90FFE74A984B90FFE74B9860
:101380004C90FFE74C984D90FFE74D984E90FFE74B
:101390004E984F90FFE74F985090FFE7509851902C
:1013A000FFE751985290FFE752985390FFE7549807
:1013B000539908404890F4E140F68C20C2F20000B6
:1013C000C06C006846F25901C4F202018842C0F0C4
:1013D000F380FFE746F20400C4F202000068479081
:1013E00040F68C20C2F20000C06C006846F210018A
:1013F000C4F20201884203D1FFE720204690D6E0E4
:1014000040F68C20C2F20000C06C006846F2104129
:10141000C4F20201884203D1FFE720204590C3E0D7
:1014200040F68C20C2F20000C06C006846F27001E9
:10143000C4F20201884203D1FFE720204490B0E0CB
:1014400040F68C20C2F20000C06C006846F2704189
:10145000C4F20201884203D1FFE7202043909DE0BF
:1014600040F68C20C2F20000C06C006846F22801F1
:10147000C4F20201884204D1FFE74FF400604290B9
:1014800089E040F68C20C2F20000C06C006846F291
:101490002841C4F20201884204D1FFE74FF4006002
:1014A000419075E040F68C20C2F20000C06C0068EC
:1014B00046F28801C4F20201884204D1FFE74FF4EA
:1014C0000060409061E040F68C20C2F20000C06CE9
:1014D000006846F28841C4F20201884204D1FFE765
:1014E0004FF400603F904DE040F68C20C2F20000C7
:1014F000C06C006846F24001C4F20201884204D187
:10150000FFE74FF400103E9039E040F68C20C2F225
:101510000000C06C006846F24041C4F202018842FB
:1015200004D1FFE74FF400103D9025E040F68C20F9
:10153000C2F20000C06C006846F2A001C4F20201D1
:10154000884204D1FFE74FF400103C9011E040F6D0
:101550008C20C2F20000C06C016846F2A042C4F2C6
:1015600002024FF00060914208BF4FF400103C901F
:10157000FFE73C983D90FFE73D983E90FFE73E989F
:101580003F90FFE73F984090FFE740984190FFE78A
:1015900041984290FFE742984390FFE74398449078
:1015A000FFE744984590FFE745984690FFE7479846
:1015B000469908403B90F1E046F20000C4F2020078
:1015C00000683A9040F68C20C2F20000C06C0068BF
:1015D00046F21001C4F20201884203D1FFE7202045
:1015E0003990D6E040F68C20C2F20000C06C006852
:1015F00046F21041C4F20201884203D1FFE72020E5
:101600003890C3E040F68C20C2F20000C06C006845
:1016100046F27001C4F20201884203D1FFE72020A4
:101620003790B0E040F68C20C2F20000C06C006839
:1016300046F27041C4F20201884203D1FFE7202044
:1016400036909DE040F68C20C2F20000C06C00682D
:1016500046F22801C4F20201884204D1FFE74FF4A8
:101660000060359089E040F68C20C2F20000C06C2A
:10167000006846F22841C4F20201884204D1FFE723
:101680004FF40060349075E040F68C20C2F2000008
:10169000C06C006846F28801C4F20201884204D19D
:1016A000FFE74FF40060339061E040F68C20C2F217
:1016B0000000C06C006846F28841C4F20201884212
:1016C00004D1FFE74FF4006032904DE040F68C20EB
:1016D000C2F20000C06C006846F24001C4F2020190
:1016E000884204D1FFE74FF40010319039E040F612
:1016F0008C20C2F20000C06C006846F24041C4F287
:101700000201884204D1FFE74FF40010309025E039
:1017100040F68C20C2F20000C06C006846F2A001C6
:10172000C4F20201884204D1FFE74FF400102F9069
:1017300011E040F68C20C2F20000C06C016846F255
:10174000A042C4F202024FF00060914208BF4FF481
:1017500000102F90FFE72F983090FFE730983190DE
:10176000FFE731983290FFE732983390FFE73398E4
:101770003490FFE734983590FFE735983690FFE7CF
:1017800036983790FFE737983890FFE738983990C8
:10179000FFE73A98399908403B90FFE73B9848901B
:1017A000FFE748985590FFE75598002800F05884C7
:1017B000FFE740F68C20C2F20000C06C006846F2E1
:1017C0005941C4F202018842C0F0EF80FFE740F6C1
:1017D0008C20C2F20000C06C006846F21001C4F216
:1017E0000201884203D1FFE720202E90D6E040F688
:1017F0008C20C2F20000C06C006846F21041C4F2B6
:101800000201884203D1FFE720202D90C3E040F67B
:101810008C20C2F20000C06C006846F27001C4F275
:101820000201884203D1FFE720202C90B0E040F66F
:101830008C20C2F20000C06C006846F27041C4F215
:101840000201884203D1FFE720202B909DE040F663
:101850008C20C2F20000C06C006846F22801C4F27D
:101860000201884204D1FFE74FF400602A9089E02A
:1018700040F68C20C2F20000C06C006846F228419D
:10188000C4F20201884204D1FFE74FF400602990BE
:1018900075E040F68C20C2F20000C06C006846F291
:1018A0008801C4F20201884204D1FFE74FF40060CE
:1018B000289061E040F68C20C2F20000C06C006805
:1018C00046F28841C4F20201884204D1FFE74FF496
:1018D000006027904DE040F68C20C2F20000C06C02
:1018E000006846F24001C4F20201884204D1FFE7D9
:1018F0004FF40010269039E040F68C20C2F2000030
:10190000C06C006846F24041C4F20201884204D132
:10191000FFE74FF40010259025E040F68C20C2F23E
:101920000000C06C006846F2A001C4F202018842C7
:1019300004D1FFE74FF40010249011E040F68C2012
:10194000C2F20000C06C016846F2A042C4F202027A
:101950004FF00060914208BF4FF400102490FFE761
:1019600024982590FFE725982690FFE72698279052
:10197000FFE727982890FFE728982990FFE7299804
:101980002A90FFE72A982B90FFE72B982C90FFE7EF
:101990002C982D90FFE72D982E90FFE72E9846F279
:1019A0000C41C4F202010860EDE240F68C20C2F264
:1019B0000000C06C006846F2B901C4F2020188421E
:1019C000C0F0F080FFE740F68C20C2F20000C06C4F
:1019D000006846F21001C4F20201884203D1FFE719
:1019E00020202390D6E040F68C20C2F20000C06C8C
:1019F000006846F21041C4F20201884203D1FFE7B9
:101A000020202290C3E040F68C20C2F20000C06C7F
:101A1000006846F27001C4F20201884203D1FFE778
:101A200020202190B0E040F68C20C2F20000C06C73
:101A3000006846F27041C4F20201884203D1FFE718
:101A4000202020909DE040F68C20C2F20000C06C67
:101A5000006846F22801C4F20201884204D1FFE77F
:101A60004FF400601F9089E040F68C20C2F2000025
:101A7000C06C006846F22841C4F20201884204D1D9
:101A8000FFE74FF400601E9075E040F68C20C2F234
:101A90000000C06C006846F28801C4F2020188426E
:101AA00004D1FFE74FF400601D9061E040F68C2008
:101AB000C2F20000C06C006846F28841C4F2020124
:101AC000884204D1FFE74FF400601C904DE040F6DF
:101AD0008C20C2F20000C06C006846F24001C4F2E3
:101AE0000201884204D1FFE74FF400101B9039E057
:101AF00040F68C20C2F20000C06C006846F2404103
:101B0000C4F20201884204D1FFE74FF400101A909A
:101B100025E040F68C20C2F20000C06C006846F25E
:101B2000A001C4F20201884204D1FFE74FF4001083
:101B3000199011E040F68C20C2F20000C06C0168E0
:101B400046F2A042C4F202024FF00060914208BF88
:101B50004FF400101990FFE719981A90FFE71A98B0
:101B60001B90FFE71B981C90FFE71C981D90FFE758
:101B70001D981E90FFE71E981F90FFE71F9820906A
:101B8000FFE720982190FFE721982290FFE7229815
:101B90002390FFE7239846F20841C4F2020108604F
:101BA0001890EEE140F68C20C2F20000C06C006894
:101BB00046F25901C4F202018842C0F0F080FFE70A
:101BC00040F68C20C2F20000C06C006846F21001A2
:101BD000C4F20201884203D1FFE720201790D6E02B
:101BE00040F68C20C2F20000C06C006846F2104142
:101BF000C4F20201884203D1FFE720201690C3E01F
:101C000040F68C20C2F20000C06C006846F2700101
:101C1000C4F20201884203D1FFE720201590B0E012
:101C200040F68C20C2F20000C06C006846F27041A1
:101C3000C4F20201884203D1FFE7202014909DE006
:101C400040F68C20C2F20000C06C006846F2280109
:101C5000C4F20201884204D1FFE74FF40060139000
:101C600089E040F68C20C2F20000C06C006846F2A9
:101C70002841C4F20201884204D1FFE74FF400601A
:101C8000129075E040F68C20C2F20000C06C006833
:101C900046F28801C4F20201884204D1FFE74FF402
:101CA0000060119061E040F68C20C2F20000C06C30
:101CB000006846F28841C4F20201884204D1FFE77D
:101CC0004FF4006010904DE040F68C20C2F200000E
:101CD000C06C006846F24001C4F20201884204D19F
:101CE000FFE74FF400100F9039E040F68C20C2F26D
:101CF0000000C06C006846F24041C4F20201884214
:101D000004D1FFE74FF400100E9025E040F68C2040
:101D1000C2F20000C06C006846F2A001C4F20201E9
:101D2000884204D1FFE74FF400100D9011E040F617
:101D30008C20C2F20000C06C016846F2A042C4F2DE
:101D400002024FF00060914208BF4FF400100D9066
:101D5000FFE70D980E90FFE70E980F90FFE70F98A2
:101D60001090FFE710981190FFE711981290FFE78D
:101D700012981390FFE713981490FFE714981590AA
:101D8000FFE715981690FFE716981790FFE717984A
:101D900046F20C01C4F2020108600C90EEE040F63D
:101DA0008C20C2F20000C06C006846F21001C4F240
:101DB0000201884203D1FFE720200B90D6E040F6D5
:101DC0008C20C2F20000C06C006846F21041C4F2E0
:101DD0000201884203D1FFE720200A90C3E040F6C9
:101DE0008C20C2F20000C06C006846F27001C4F2A0
:101DF0000201884203D1FFE720200990B0E040F6BD
:101E00008C20C2F20000C06C006846F27041C4F23F
:101E10000201884203D1FFE7202008909DE040F6B0
:101E20008C20C2F20000C06C006846F22801C4F2A7
:101E30000201884204D1FFE74FF40060079089E077
:101E400040F68C20C2F20000C06C006846F22841C7
:101E5000C4F20201884204D1FFE74FF4006006900B
:101E600075E040F68C20C2F20000C06C006846F2BB
:101E70008801C4F20201884204D1FFE74FF40060F8
:101E8000059061E040F68C20C2F20000C06C006852
:101E900046F28841C4F20201884204D1FFE74FF4C0
:101EA000006004904DE040F68C20C2F20000C06C4F
:101EB000006846F24001C4F20201884204D1FFE703
:101EC0004FF40010039039E040F68C20C2F200007D
:101ED000C06C006846F24041C4F20201884204D15D
:101EE000FFE74FF40010029025E040F68C20C2F28C
:101EF0000000C06C006846F2A001C4F202018842F2
:101F000004D1FFE74FF40010019011E040F68C205F
:101F1000C2F20000C06C016846F2A042C4F20202A4
:101F20004FF00060914208BF4FF400100190FFE7AE
:101F300001980290FFE702980390FFE7039804904E
:101F4000FFE704980590FFE705980690FFE70698DD
:101F50000790FFE707980890FFE708980990FFE7C8
:101F600009980A90FFE70A980B90FFE70B9846F252
:101F70000801C4F2020108600C90FFE70C98189069
:101F8000FFE71898FFE740F2CC20C2F2000000788B
:101F90008007002815D5FFE740F2CC21C2F20001EE
:101FA000087800F0FD000870087840F00400087020
:101FB00040F20040C4F202000122114601F0E0FAB2
:101FC000FFE740F2B910C2F2000000788007002855
:101FD00014D5FFE740F2B911C2F20001087800F011
:101FE000FD000870087840F0040008700020C4F27A
:101FF00002001021012201F0C3FAFFE740F2B810FD
:10200000C2F2000000788007002814D5FFE740F2F4
:10201000B811C2F20001087800F0FD0008700878DD
:1020200040F0040008700020C4F2020010210122D8
:1020300001F0A6FAFFE70BF0D9FD40F2CC20C2F286
:10204000000000784007002809D5FFE743F610415B
:10205000C4F20101086840F001000860FFE7FFE7F3
:1020600062B080BD80B540F2E030C2F2000000F006
:1020700029FD80BD80B540F22030C2F2000000F0A2
:1020800021FD80BD80B540F2A040C2F2000000F00A
:1020900019FD80BD82B001900198007810384AF691
:1020A000AB21CAF6AA21A0FB0110000900900099FB
:1020B00042F23060C0F60100405C0199C8650098AA
:1020C000042807D3FFE701990868042262F3090096
:1020D000886506E00199086840F2FF329043886500
:1020E000FFE70198806D02B07047000086B0059050
:1020F00000208DF813000598806A03900598806988
:1021000010BBFFE70398029003281BD80299DFE871
:1021100001F0020D0218059890F82F00C00720B1B9
:10212000FFE701208DF81300FFE70CE00598C06A77
:10213000B0F1C07F04D1FFE701208DF81300FFE765
:1021400001E000E0FFE745E005988069B0F5005F39
:1021500025D1FFE70398019003281ED80199DFE8F5
:1021600001F00206021101208DF8130016E0059817
:1021700090F82F00C00720B1FFE701208DF8130071
:10218000FFE70BE00598C06AB0F1C07F04D1FFE71C
:1021900001208DF81300FFE700E0FFE719E0039846
:1021A0000090032804D3FFE70098032804D00EE032
:1021B00001208DF813000BE0059890F82F00C00760
:1021C00020B1FFE701208DF81300FFE700E0FFE7F3
:1021D000FFE7FFE79DF8130006B0704784B0039057
:1021E00002910192009303980168086820F480200E
:1021F000086000980399096848600398806840283F
:1022000009D1FFE70198039909688860029803994A
:102210000968C86008E00298039909688860019815
:1022200003990968C860FFE704B070477047000071
:1022300080B5012000F080FF80BD000080B5102037
:1022400000F07AFF80BD000080B5202000F074FF10
:1022500080BD000072B6FFE7FEE7000080B540F2E7
:102260003C11C2F2000191ED010A9FED391A30EEE6
:10227000010A40F20C20C2F2000080ED000A8968D9
:10228000416040F21011C2F200010A8800EE102AEB
:10229000B8EE400A9FED2F2A80EE020A9FED2E1A1B
:1022A00020EE010A9FED2D3A30EE030A9FED2C3A05
:1022B00080EE030AB3EE093A30EE030A80ED2B0AF2
:1022C000498800EE101AB8EE400A80EE020A20EEAD
:1022D000010A9FED241A20EE010A80ED2C0A40F23B
:1022E0000040C4F202004FF4804101F01DF990B1AA
:1022F000FFE740F20040C4F202004FF4004101F059
:1023000013F940B1FFE740F20C21C2F200010320B3
:1023100081F8B4001AE040F20040C4F202004FF429
:10232000004101F001F940B9FFE740F20C21C2F28F
:102330000001022081F8B40007E040F20C21C2F253
:102340000001012081F8B400FFE7FFE780BD00BF76
:102350000000B44200008045333353405C8F42BFDD
:102360000AD7233BAE47C13F80B584B040F20C2072
:10237000C2F2000000900022019202760121417613
:10238000026142618260C2600260426082766430B3
:1023900042F23862C0F601029FED0C0A8DED020A8E
:1023A000DFED0B0ACDED030A04F070FB00980199F4
:1023B0009DED020ADDED030A1C3042F24462C0F6D4
:1023C000010204F063FB04B080BD00BF00401C4666
:1023D00000007A4480B582B00190FFF7C5FFC820A5
:1023E0000DF006FAFFE7FFF739FF03F0F1FD40F2C9
:1023F0000C20C2F20000407EE0B1FFE709F0B2FF1E
:1024000040F27010C2F200000188013101800088A2
:10241000C8280EDBFFE740F27011C2F20001002075
:10242000088041F20000C4F20200042101F094F897
:10243000FFE700E0FFE704F09DF905200DF0D8F973
:10244000D1E7000085B00390029100200190FFE7E2
:10245000039890F83C00012804D1FFE702208DF892
:102460001300F7E00399012081F83C00FFE7FFE744
:10247000029800680A281CD3FFE70298008800EB46
:102480004000A0F11E01072000FA01F20398016844
:10249000C8689043C86002998868098801EB4101C7
:1024A0001E3900FA01F203980168C8681043C86039
:1024B00018E00298008800EB4001072000FA01F2C2
:1024C000039801680869904308610299886809883F
:1024D00001EB410100FA01F2039801680869104319
:1024E0000861FFE70298406806281BD8FFE70298BA
:1024F000406800EB8000411F1F2000FA01F20398A2
:102500000168486B9043486302990888496801EB69
:102510008101053900FA01F203980168486B104304
:1025200048633DE0029840680C281CD8FFE70298F9
:10253000406800EB8000A0F123011F2000FA01F2A7
:1025400003980168086B90430863029908884968FA
:1025500001EB8101233900FA01F203980168086B4D
:10256000104308631BE00298406800EB8000A0F174
:1025700041011F2000FA01F203980168C86A9043E4
:10258000C86202990888496801EB8101413900FA63
:1025900001F203980168C86A1043C862FFE7FFE7C9
:1025A00042F20030C4F2010000900398006842F249
:1025B0000001C4F2010188420BD1FFE702980068D4
:1025C000122806D1FFE70099486840F4800048606F
:1025D000FFE70398006842F20001C4F2010188425B
:1025E0002ED1FFE702980068102805D0FFE7029877
:1025F0000068112824D1FFE70099486840F40000E2
:10260000486002980068102819D1FFE740F21800CE
:10261000C2F2000000684DF68361C4F21B31A0FBDA
:102620000110800C00EB800040000190FFE7019852
:1026300020B1FFE7019801380190F8E7FFE7FFE7D5
:10264000FFE70399002081F83C00FFE700208DF8A8
:102650001300FFE79DF8130005B0704781B00090AC
:1026600001B0704781B0009001B0704781B0009018
:1026700001B0704780B584B0029000208DF807004B
:10268000029820B9FFE701208DF80F0042E0029880
:10269000806A0121C0F60071884201D0FFE7FFE7A0
:1026A0000298006C50B9FFE7029800F037F80299E1
:1026B00000204864029981F83C00FFE70298006C12
:1026C000C006002817D4FFE70298006C40F0020013
:1026D00020F48850029908640298FEF755F8029990
:1026E000002048640298006C40F0010020F00200D5
:1026F0000299086403E001208DF80700FFE7FFE777
:102700000299002081F83C00FFE79DF807008DF852
:102710000F00FFE79DF80F0004B080BD80B58AB0C0
:102720000990002008900790069005900490099861
:10273000006842F20001C4F2010188425ED1FFE765
:10274000FFE70020039043F64400C4F20200016852
:1027500041F480710160006800F480700390039878
:10276000FFE7FFE70020029043F63000C4F20200CA
:10277000016841F004010160006800F0040002906B
:102780000298FFE7082004900320059000200090A5
:10279000069040F60000C4F2020004A900F0E8FC34
:1027A000009940F22030C2F20000019046F27042DF
:1027B000C4F20202026041608160C1604FF4806235
:1027C00002614FF4006242614FF4005282614FF4A3
:1027D0008072C2610162416200F004FB18B1FFE740
:1027E000FFF738FDFFE7FFE7099840F22031C2F21A
:1027F0000001816309988863FFE7FFE70AB080BDA5
:1028000080B586B004900391029200200190FFE70A
:10281000049890F83C00012804D1FFE702208DF8CD
:1028200017000BE10499012081F83C00FFE7FFE766
:10283000049800688068C007F0B9FFE70498016851
:10284000886840F00100886040F21800C2F2000081
:1028500000684DF68361C4F21B31A0FB0110800CAF
:1028600000EB40000190FFE7019820B1FFE70198DD
:1028700001380190F8E7FFE7049800688068C00518
:10288000002807D5FFE704980168886820F4807065
:102890008860FFE7049800688068C007002800F09F
:1028A000BE80FFE70498006C40F4807040F2016144
:1028B000884304990864049800684068400500282B
:1028C00009D5FFE70498006C40F4805020F40050D4
:1028D00004990864FFE70498006CC004002806D53A
:1028E000FFE70499486C20F00600486403E004996F
:1028F00000204864FFE7FFE70499002081F83C00CE
:10290000FFE742F20030C4F2010000900498816BAE
:1029100040F29560C0F60000C8630498816B40F2F5
:102920007170C0F6000008640498816B40F2497031
:10293000C0F60000C864049801686FF022000860C7
:1029400004980168486840F0806048600498016815
:10295000886840F48070886004980168806B4C310E
:10296000039A029B00F0F6FA00984068C006E8BBA4
:10297000FFE70498006842F20001C4F201018842B6
:1029800024D0FFE70498006842F20011C4F201016C
:10299000884208D1FFE742F20430C4F20100006827
:1029A000C00698B1FFE70498006842F20021C4F223
:1029B0000101884219D1FFE742F20430C4F201005C
:1029C000006800F01F000F280FD8FFE70498006888
:1029D000806810F0405F07D1FFE7049801688868BD
:1029E00040F080408860FFE7FFE717E00498006848
:1029F00042F20001C4F2010188420ED1FFE70498BF
:102A00000068806810F0405F07D1FFE70498016814
:102A1000886840F080408860FFE7FFE70AE004999B
:102A2000086C40F0100008640499486C40F0010004
:102A30004864FFE700208DF81700FFE79DF81700B6
:102A400006B080BD80B582B00090009820B9FFE745
:102A500001208DF8070011E00098407938B9FFE7B0
:102A6000009900200871009800F00CF8FFE7009929
:102A70000120487100208DF80700FFE79DF807004E
:102A800002B080BD82B001900198006843F200015D
:102A9000C4F20201884212D1FFE7FFE70020009054
:102AA00043F63000C4F20200016841F48051016035
:102AB000006800F4805000900098FFE7FFE702B044
:102AC0007047000080B586B005900020039040F26A
:102AD0001800C2F20000006848F2B511C1F64E318C
:102AE000A0FB0110800A02900598806D019001986A
:102AF0000068049004980599C96DC8400007002833
:102B00001AD5FFE70598006800684007002812D52D
:102B1000FFE705980168086820F004000860059840
:102B2000C16D08208840019988600599486D40F082
:102B300001004865FFE7FFE704980599C96DC840A3
:102B4000C007A0B1FFE705980068406900060028AB
:102B50000CD5FFE70598C16D012088400199886078
:102B60000599486D40F002004865FFE7FFE70498CB
:102B70000599C96DC8404007002814D5FFE705989E
:102B800000680068800700280CD5FFE70598C16D34
:102B900004208840019988600599486D40F0040040
:102BA0004865FFE7FFE704980599C96DC840C0066E
:102BB000002847D5FFE7059800680068000700284F
:102BC0003FD5FFE70598C16D1020884001998860C6
:102BD000059800680068400300281AD5FFE70598AB
:102BE000006800680003002809D4FFE70598006C1E
:102BF00020B1FFE70598016C8847FFE708E00598DA
:102C0000806C20B1FFE70598816C8847FFE7FFE7FC
:102C100016E0059800680068C005002807D4FFE7A3
:102C200005980168086820F008000860FFE705982B
:102C3000006C20B1FFE70598016C8847FFE7FFE7CC
:102C4000FFE7FFE704980599C96DC8408006002892
:102C500040F18D80FFE7059800680068C0060028F5
:102C600040F18480FFE70598C16D202088400199DC
:102C70008860059890F83500052834D1FFE705985D
:102C80000168086820F01600086005980168486926
:102C900020F0800048610598006C20B9FFE7059896
:102CA000806C38B1FFE705980168086820F00800DB
:102CB0000860FFE70598C16D3F2088400199886052
:102CC0000599012081F83500FFE70599002081F87A
:102CD0003400FFE70598006D20B1FFE70598016D0E
:102CE0008847FFE77BE005980068006840030028FC
:102CF0001AD5FFE70598006800680003002809D48A
:102D0000FFE70598406C20B1FFE70598416C8847C4
:102D1000FFE708E00598C06B20B1FFE70598C16B9D
:102D20008847FFE7FFE720E0059800680068C005D6
:102D3000002811D4FFE705980168086820F010000A
:102D400008600599012081F83500FFE7059900200A
:102D500081F83400FFE7FFE70598C06B20B1FFE77B
:102D60000598C16B8847FFE7FFE7FFE7FFE7059896
:102D7000406DA0B3FFE70598406DC00730B3FFE793
:102D80000599052081F8350005980168086820F04C
:102D900001000860FFE70398013003900299884220
:102DA00001D9FFE707E0FFE7059800680068C00762
:102DB0000028F0D1FFE70599012081F83500FFE7F1
:102DC0000599002081F83400FFE7FFE70598C06C03
:102DD00020B1FFE70598C16C8847FFE7FFE706B021
:102DE00080BD000080B586B004900020039000F004
:102DF000DFFB0290049820B9FFE701208DF817004F
:102E0000A3E00498406A08B1FFE7FFE704990220B5
:102E100081F83500FFE70499002081F83400FFE7CE
:102E200004980168086820F001000860FFE7049832
:102E300000680068C00790B1FFE700F0B9FB029995
:102E4000401A06280AD3FFE7049920204865049910
:102E5000032081F835008DF8170076E0E7E7049845
:102E6000006800680390039848F23F01CFF2100118
:102E700008400390049900914868D1F808C0CB68D5
:102E80000A6940EA0C00184310434A6910438A69F2
:102E90001043CA691043096A014303980843039029
:102EA0000498406A042808D1FFE70499C86A096BAE
:102EB0000143039808430390FFE7039804990968C6
:102EC00008600498006840690390039820F00700A8
:102ED00003900498416A0398084303900498406A59
:102EE00004281AD1FFE70498816A039808430390E5
:102EF0000498C06A80B1FFE70498FFF7F7F850B173
:102F0000FFE70499402048650499012081F83500C5
:102F10008DF8170019E0FFE7FFE7039804990968A7
:102F200048610498FFF7B6F801900498C16D3F20FE
:102F3000884001998860049900204865049A01211D
:102F400082F835108DF81700FFE79DF8170006B0DE
:102F500080BD000080B588B006900591049203936F
:102F600000208DF80B000698806D0190FFE7069811
:102F700090F83400012804D1FFE702208DF81F00EB
:102F800045E00699012081F83400FFE7FFE7069845
:102F900090F8350001282BD1FFE70699022081F82F
:102FA000350006990020486506980599049A039B08
:102FB000FFF714F90698C16D3F2088400199886099
:102FC00006980168086840F0160008600698006CD2
:102FD00038B1FFE706980168086840F0080008600B
:102FE000FFE706980168086840F00100086009E002
:102FF000FFE70699002081F83400FFE702208DF8F2
:103000000B00FFE79DF80B008DF81F00FFE79DF810
:103010001F0008B080BD000080B584B0039000F0B0
:10302000C7FA0290039801900198013048B1FFE778
:1030300040F27C00C2F2000001780198084401903F
:10304000FFE7FFE700F0B4FA0299401A01998842BD
:1030500001D2FFE7F6E704B080BD000080B582B082
:10306000ADF80600BDF8060010281BD1FFE740F2BE
:10307000B911C2F20001087840F00100087040F276
:10308000B811C2F20001087840F00100087040F663
:103090004D40C2F20000007818B1FFE70AF0A6FD2B
:1030A000FFE747E0BDF80600202813D1FFE740F214
:1030B000CC21C2F20001087840F00100087040F60F
:1030C0004D40C2F20000007818B1FFE70AF08EFD13
:1030D000FFE72EE0BDF80600012829D1FFE740F602
:1030E0004C41C2F20001012008700DF067FB01287D
:1030F0001DD0FFE740F22010C2F20000006840F24D
:103100001811C2F2000100910CF0C4FB0098006895
:1031100060B1FFE74EF60451CEF200014FF080504F
:103120000860BFF34F8FBFF36F8FFFE7FFE7FFE745
:10313000FFE7FFE702B080BD80B582B0ADF80600C2
:1031400043F61440C4F201000068BDF806100842BE
:103150000CD0FFE7BDF8060043F61441C4F20101AC
:103160000860BDF80600FFF779FFFFE702B080BDF9
:103170008EB00D900C9100200A90099008900B9051
:10318000FFE70B980F2800F2CC81FFE70B99012095
:1031900088400A900C9800680A990840099009989C
:1031A0000A99884240F0B881FFE70C98406800F027
:1031B0000300012807D0FFE70C98406800F00300E7
:1031C00002282FD1FFE70D98806808900B984100E6
:1031D000032000FA01F10898884308900C98C06811
:1031E0000B99490000FA01F10898084308900898E3
:1031F0000D9988600D98406808900B99012000FA9D
:1032000001F10898884308900C984068C0F30010BA
:103210000B9900FA01F108980843089008980D9955
:103220004860FFE70C98406800F00300032818D0BE
:10323000FFE70D98C06808900B984100032000FA42
:1032400001F10898884308900C9880680B99490010
:1032500000FA01F108980843089008980D99C86091
:10326000FFE70C98406800F00300022826D1FFE732
:103270000D980B996FF0030202EA51010844006AAD
:1032800008900B9800F0070081000F2000FA01F170
:103290000898884308900C9800690B9901F0070181
:1032A000890000FA01F108980843089008980D99E0
:1032B0000B9B02EA530211440862FFE70D98006875
:1032C00008900B984100032000FA01F10898884308
:1032D00008900C98406800F003000B99490000FA30
:1032E00001F108980843089008980D9908600C9817
:1032F00080798007002800F00E81FFE7FFE70020BB
:10330000079043F64400C4F20200016841F4804192
:103310000160006800F4804007900798FFE70B9871
:1033200020F0030043F60801C4F201014058089060
:103330000B9800F0030081000F2000FA01F10898BB
:10334000884308900D980021C4F20201884203D1FD
:10335000FFE7002006905EE00D9840F20041C4F2C5
:103360000201884203D1FFE70120059050E00D984B
:1033700040F60001C4F20201884203D1FFE70220B7
:10338000049042E00D9840F60041C4F202018842E8
:1033900003D1FFE70320039034E00D9841F20001D0
:1033A000C4F20201884203D1FFE70420029026E024
:1033B0000D9841F20041C4F20201884203D1FFE7B7
:1033C0000520019018E00D9841F60001C4F20201B9
:1033D000884203D1FFE7062000900AE00D9941F6EC
:1033E0000042C4F202020820914208BF0720009068
:1033F000FFE700980190FFE701980290FFE702982D
:103400000390FFE703980490FFE704980590FFE717
:1034100005980690FFE70698C0B20B9901F00301EA
:10342000890000FA01F108980843089008980B9960
:1034300021F0030143F60802C4F20102885043F66A
:103440000840C4F201000068089009990898884370
:1034500008900C988079C006002805D5FFE70999E7
:10346000089808430890FFE7089843F60841C4F21B
:103470000101086043F60C40C4F2010000680890A6
:1034800009990898884308900C988079800600284C
:1034900005D5FFE70999089808430890FFE70898C1
:1034A00043F60C41C4F20101086043F60440C4F243
:1034B00001000068089009990898884308900C98C2
:1034C00080798007002805D5FFE709990898084307
:1034D0000890FFE7089843F60441C4F20101086030
:1034E00043F60040C4F2010000680890099908986A
:1034F000884308900C988079C00728B1FFE70999A4
:10350000089808430890FFE7089843F60041C4F282
:1035100001010860FFE7FFE7FFE70B9801300B9020
:103520002FE60EB07047000082B00190ADF8021097
:1035300001980069BDF80210084204D0FFE701209D
:103540008DF8010003E000208DF80100FFE79DF8F1
:10355000010002B07047000083B00290ADF8061081
:10356000029840690090009ABDF8060002EA000146
:10357000904340EA01400299886103B0704700001F
:1035800082B00190ADF802108DF801209DF8010085
:1035900028B1FFE7BDF802000199886105E0BDF898
:1035A0000200000401998861FFE702B07047000043
:1035B00044F63020C2F200000068704780B58EB03B
:1035C0000C900C9820B9FFE701208DF8370043E1FB
:1035D0000C9890F83D0040B9FFE70C99002081F865
:1035E0003C000C9800F03CF9FFE70C99242081F88E
:1035F0003D000C980168086820F0010008600C98F4
:103600000168086840F4004008600C980168086888
:1036100020F40040086000F077FD0A900C984068A4
:1036200048F2A061C0F2010188420BD8FFE70A9975
:1036300048F28042C0F21E020020914238BF0120B1
:1036400009900AE00A9940F60012C0F23D020020FB
:10365000914238BF01200990FFE70998012804D161
:10366000FFE701208DF83700F6E00A984DF68361F8
:10367000C4F21B31A0FB0110800C0B900C98006869
:10368000406820F03F000B9908430C990968486096
:103690000C980068006A20F03F0008900C98406881
:1036A00048F2A061C0F20101884204D8FFE70B98FC
:1036B000013007900EE00B984FF49671484344F6A2
:1036C000D351C1F26201A0FB0101012000EB911076
:1036D0000790FFE70898079908430C990968086262
:1036E0000C980068C0694CF6FF71884306900C98EE
:1036F000406848F2A061C0F2010188421FD8FFE78C
:103700000A9801380C9949684900B0FBF1F0013082
:103710006FF31F30032803D8FFE7042005900BE068
:103720000A9801380C9949684900B0FBF1F0013062
:103730006FF31F300590FFE7059804904CE00C985C
:10374000806868B9FFE70A9801380C99496801EB6D
:103750004101B0FBF1F001306FF31F3003900DE039
:103760000A9801380C99496819225143B0FBF1F0CD
:103770000130042161F31F300390FFE70398000537
:1037800018B9FFE70120029023E00C98806868B91F
:10379000FFE70A9801380C99496801EB4101B0FB39
:1037A000F1F001306FF31F3001900DE00A980138FD
:1037B0000C99496819225143B0FBF1F00130042102
:1037C00061F31F300190FFE7019840F40040029040
:1037D000FFE702980490FFE70698049908430C99C4
:1037E0000968C8610C980068006820F0C0000C9B54
:1037F0001968DA691B6A1A43104308600C9800685C
:10380000806848F2FF3188430C9A1168D3681269C6
:103810001A43104388600C980068C06820F0FF00CD
:103820000C9B19685A699B691A431043C8600C982D
:103830000168086840F0010008600C9900200864E5
:103840000C9A202182F83D100C9908630C9981F89C
:103850003E008DF83700FFE79DF837000EB080BDC1
:1038600080B58AB0099000200890079006900590D6
:1038700004900998006845F20041C4F200018842B2
:1038800034D1FFE7FFE70020039043F63000C4F295
:103890000200016841F002010160006800F00200CE
:1038A00003900398FFE7C0200490122005900020A9
:1038B0000690032007900420089040F20040C4F2D4
:1038C000020004A9FFF754FCFFE70020029043F632
:1038D0004000C4F20200016841F400110160006878
:1038E00000F4001002900298FFE73EE0099800689B
:1038F00045F60001C4F20001884235D1FFE7FFE739
:103900000020019043F63000C4F20200016841F04B
:1039100002010160006800F0020001900198FFE7D9
:103920004FF4406004901220059000200690032080
:1039300007900420089040F20040C4F2020004A95D
:10394000FFF716FCFFE70020009043F64000C4F2AA
:103950000200016841F480010160006800F4800009
:1039600000900098FFE7FFE7FFE70AB080BD000086
:1039700040F27C00C2F20000027844F63021C2F22C
:1039800000010868104408607047000080B543F6E5
:103990000041C4F20201086840F400700860086841
:1039A00040F480600860086840F48070086003207C
:1039B00000F0CEF80F2000F005F800F079F80020B4
:1039C00080BD000080B58CB00B9000200490039067
:1039D000FFE70020009043F64000C4F202000168B7
:1039E00041F001010160006800F0010000900098C2
:1039F000FFE706A802A900F057FB09980490049875
:103A000020B9FFE700F080FB059004E000F07CFBAC
:103A100040000590FFE705984DF68361C4F21B3125
:103A2000A0FB01014FF0FF3000EB9140039040F606
:103A30002C30C2F200004FF08041016040F2E731CB
:103A4000C16003994160002101618160816101F0E1
:103A500039FB8DF807009DF8070028BBFFE740F60B
:103A60002C30C2F2000001F07FFB8DF807009DF8BA
:103A70000700C0B9FFE71C2000F046F80B980F289C
:103A80000CD8FFE70B991C20002200F047F80B9898
:103A900040F28001C2F20001086003E001208DF8CD
:103AA0000700FFE7FFE7FFE79DF807000CB080BDC8
:103AB00080B582B0FFE70020019043F64400C4F2D5
:103AC0000200016841F480410160006800F4804018
:103AD00001900198FFE7FFE70020009043F64000C7
:103AE000C4F20200016841F080510160006800F0FA
:103AF000805000900098FFE76FF001000F21002236
:103B000000F00CF802B080BD80B582B08DF80700DF
:103B10009DF9070009F05AFB02B080BD80B586B060
:103B20008DF81700049103920020029009F066FBC3
:103B300002909DF91700019002980499039A02F0EF
:103B400049FE0146019809F061FB06B080BD000006
:103B500080B582B00190019809F07AFB02B080BD77
:103B600080B58EB00C900C9820B9FFE701208DF83D
:103B7000370012E10C9800680B900C9890F89504AF
:103B800040B9FFE70C99002081F894040C9800F0EC
:103B900009F9FFE70C99032081F895040B98B0F11F
:103BA000A04F04D1FFE70C9900208871FFE70C9823
:103BB000006809F0FDF90C9B1868197C8DF8241039
:103BC00059689A68DB680893079206910699079AE4
:103BD000089BDDF824C0EE46CEF800C008F0DCFFFC
:103BE00040B1FFE70C99022081F8950401208DF87F
:103BF0003700D2E00C980068002109F063FA40B168
:103C0000FFE70C99022081F8950401208DF8370018
:103C1000C3E000208DF82B00FFE79DF82B000C99E6
:103C20000979884241DAFFE70C989DF82B1001EBE7
:103C3000C10100EB8101012048759DF82B000C9912
:103C400000EBC00201EB820108759DF82B000C9976
:103C500000EBC00201EB8201C8850C989DF82B1087
:103C600001EBC10100EB8101002008760C999DF861
:103C70002B2002EBC20201EB8201C8610C999DF876
:103C80002B2002EBC20201EB820108620C999DF825
:103C90002B2002EBC20201EB82014862FFE79DF894
:103CA0002B0001308DF82B00B7E700208DF82B009A
:103CB000FFE79DF82B000C99097988423EDAFFE76F
:103CC0000C989DF82B1001EBC10100EB8101002045
:103CD00081F855029DF82B100C9A01EBC10302EB01
:103CE000830282F854120C999DF82B2002EBC20239
:103CF00001EB820181F858020C999DF82B2002EB10
:103D0000C20201EB8201C1F85C020C999DF82B20E4
:103D100002EBC20201EB8201C1F860020C999DF82E
:103D20002B2002EBC20201EB8201C1F86402FFE723
:103D30009DF82B0001308DF82B00BAE70C9B18681A
:103D4000197C8DF8141059689A68DB680493039203
:103D500002910299039A049BDDF814C0EE46CEF856
:103D600000C008F0D7FF40B1FFE70C99022081F8AE
:103D7000950401208DF837000FE00C990020019088
:103D800048740C99012081F895040C98006808F09B
:103D9000ABFF01988DF83700FFE79DF837000EB0B4
:103DA00080BD000080B588B0079000200690059087
:103DB00004900390029007980068B0F1A04F3ED1A4
:103DC000FFE7FFE70020019043F63000C4F2020055
:103DD000016841F001010160006800F001000190FC
:103DE0000198FFE74FF4C05002900220039000209A
:103DF0000490032005900A2006900020C4F20200DF
:103E000002A9FFF7B5F9FFE743F63401C4F2020156
:103E1000086840F080000860FFE70020009043F64B
:103E20004400C4F20200016841F48041016000686E
:103E300000F4804000900098FFE7FFE7FFE708B03C
:103E400080BD000080B584B002900191029820B935
:103E5000FFE701208DF80F0021E1019843F60041B2
:103E6000C4F20201096801F00701884212D9FFE794
:103E7000019943F60040C4F202000170006800F0AE
:103E800007000199884204D0FFE701208DF80F0058
:103E900005E1FFE702980078800700282AD5FFE7B0
:103EA000029800784007002809D5FFE743F608018B
:103EB000C4F20201086840F4E0500860FFE702988D
:103EC00000780007002809D5FFE743F60801C4F28F
:103ED0000201086840F460400860FFE743F608010B
:103EE000C4F20201086820F0F000029A92681043C0
:103EF0000860FFE702980078C00700286ED0FFE74F
:103F000002984068012811D1FFE743F60000C4F28F
:103F10000200006800F400310020B0EB514F04D1E2
:103F2000FFE701208DF80F00B9E02CE0029840680F
:103F3000022805D0FFE702984068032811D1FFE767
:103F400043F60000C4F20200006800F00071002097
:103F5000B0EB516F04D1FFE701208DF80F009EE018
:103F600010E043F60000C4F20200006800F0020115
:103F70000020B0EB510F04D1FFE701208DF80F00B6
:103F80008DE0FFE7FFE743F60801C4F2020108688D
:103F900020F00300029A526810430860FFF708FB04
:103FA0000090FFE743F60800C4F20200006800F04A
:103FB0000C0002994968B0EB810F0ED0FFE7FFF7C4
:103FC000F7FA0099401A41F28931884204D3FFE799
:103FD00003208DF80F0062E0E4E7FFE7019843F665
:103FE0000041C4F20201096801F00701884212D2BF
:103FF000FFE7019943F60040C4F202000170006837
:1040000000F007000199884204D0FFE701208DF8F5
:104010000F0044E0FFE702980078400700280CD525
:10402000FFE743F60801C4F20201086820F4E050FB
:10403000029AD26810430860FFE7029800780007F0
:1040400000280DD5FFE743F60801C4F20201086815
:1040500020F46040029A126940EAC2000860FFE75B
:1040600000F076F843F60801C4F202010968C9B20B
:104070000A0942F21861C0F60101895CC84040F2A9
:104080001801C2F20001086040F28000C2F2000094
:104090000068FFF797FC00208DF80F00FFE79DF800
:1040A0000F0004B080BD000082B001900091019922
:1040B0000F20086043F60800C4F20200016801F016
:1040C0000301019A5160016801F0F001019A9160C9
:1040D000016801F4E051019AD160006800F4604089
:1040E000C0080199086143F60040C4F2020000686C
:1040F00000F007000099086002B0704740F2180015
:10410000C2F200000068704780B5FFF7F7FF43F682
:104110000801C4F202010968C1F3822242F2286157
:10412000C0F60101895CC84080BD000080B5FFF782
:10413000E5FF43F60801C4F20201096889B24A0B9F
:1041400042F22861C0F60101895CC84080BD0000D0
:1041500080B586B00020059004900390029043F64D
:104160000800C4F20200006800F00C000146019152
:1041700040B1FFE7019804280AD0FFE7019808281A
:104180000CD04FE042F20040C0F2F40002904FE049
:1041900041F60030C0F2B700029049E043F6040057
:1041A000C4F20200016801F03F010591006840027D
:1041B000002813D5FFE743F60400C4F202000068AC
:1041C000C0F3881041F60031C0F2B701A0FB010135
:1041D000059A0023FCF7D4F8049012E043F604009B
:1041E000C4F202000068C0F3881042F20041C0F23D
:1041F000F401A0FB0101059A0023FCF7C1F804902B
:10420000FFE743F60400C4F20200006800F4403106
:10421000022000EBD130039004980399B0FBF1F039
:10422000029005E042F20040C0F2F4000290FFE785
:10423000029806B080BD000080B586B00490049856
:1042400020B9FFE701208DF8170050E304980078AB
:10425000C007002800F0A580FFE743F60800C4F27D
:104260000200006800F00C00042813D0FFE743F6BA
:104270000800C4F20200006800F00C0008281ED1FB
:10428000FFE743F60400C4F2020000684002002881
:1042900015D5FFE743F60000C4F20200006800F401
:1042A00000310020B0EB514F08D0FFE70498406880
:1042B00020B9FFE701208DF8170018E370E0FFE751
:1042C00004984068B0F5803F09D1FFE743F600014C
:1042D000C4F20201086840F48030086020E00498CD
:1042E0004068B0F5A02F0DD1FFE743F60001C4F2FE
:1042F0000201086840F480200860086840F48030BB
:1043000008600CE043F60001C4F20201086820F4E2
:1043100080300860086820F480200860FFE7FFE72D
:10432000FFE704984068E8B1FFE7FFF741F9039021
:10433000FFE743F60000C4F20200006800F4003119
:104340000020B0EB514F0CD1FFE7FFF731F9039993
:10435000401A652804D3FFE703208DF81700C6E252
:10436000E7E71CE0FFF724F90390FFE743F60000BE
:10437000C4F20200006800F400310020B0EB514F9D
:104380000CD0FFE7FFF714F90399401A652804D30E
:10439000FFE703208DF81700A9E2E7E7FFE7FFE753
:1043A000FFE7049800788007002840F19680FFE737
:1043B00043F60800C4F20200006810F00C0F13D09E
:1043C000FFE743F60800C4F20200006800F00C00AA
:1043D00008282CD1FFE743F60400C4F2020000686D
:1043E0004002002823D4FFE743F60000C4F2020095
:1043F000006800F002010020B0EB510F09D0FFE788
:104400000498C068012804D0FFE701208DF8170048
:104410006DE243F60001C4F20201086820F0F800E2
:10442000049A126940EAC2000860FFE754E0049869
:10443000C06870B3FFE70021C4F247210120086083
:10444000FFF7B6F80390FFE743F60000C4F202005E
:10445000006800F002010020B0EB510F0CD1FFE723
:10446000FFF7A6F80399401A032804D3FFE70320B7
:104470008DF817003BE2E7E743F60001C4F20201C2
:10448000086820F0F800049A126940EAC200086047
:1044900021E00021C4F2472100200860FFF788F8DE
:1044A0000390FFE743F60000C4F20200006800F04A
:1044B00002010020B0EB510F0CD0FFE7FFF778F8B6
:1044C0000399401A032804D3FFE703208DF817004F
:1044D0000DE2E7E7FFE7FFE7FFE704980078000752
:1044E00000284BD5FFE70498406918B3FFE740F672
:1044F0008061C4F2472101200860FFF759F803905A
:10450000FFE743F67400C4F20200006800F0020105
:104510000020B0EB510F0CD1FFE7FFF749F80399EA
:10452000401A032804D3FFE703208DF81700DEE1CB
:10453000E7E722E040F68061C4F2472100200860EE
:10454000FFF736F80390FFE743F67400C4F2020069
:10455000006800F002010020B0EB510F0CD0FFE723
:10456000FFF726F80399401A032804D3FFE7032036
:104570008DF81700BBE1E7E7FFE7FFE70498007855
:104580004007002840F1CE80FFE700208DF80700AB
:1045900043F64000C4F202000068C000002815D4B1
:1045A000FFE7FFE70020009043F64000C4F202005E
:1045B000016841F080510160006800F08050009077
:1045C0000098FFE701208DF80700FFE747F20000A1
:1045D000C4F200000068C005002822D4FFE747F2BB
:1045E0000001C4F20001086840F480700860FEF722
:1045F000DFFF0390FFE747F20000C4F2000000680D
:10460000C00500280CD4FFE7FEF7D2FF0399401A3B
:10461000032804D3FFE703208DF8170067E1EAE7DA
:10462000FFE7FFE704988068012809D1FFE743F618
:104630007001C4F20201086840F0010008601FE048
:104640000498806805280DD1FFE743F67001C4F295
:104650000201086840F004000860086840F00100AA
:1046600008600CE043F67001C4F20201086820F013
:1046700001000860086820F004000860FFE7FFE719
:10468000FFE704988068F8B1FFE7FEF791FF039019
:10469000FFE743F67000C4F20200006800F0020178
:1046A0000020B0EB510F0ED1FFE7FEF781FF039919
:1046B000401A41F28931884204D3FFE703208DF884
:1046C000170014E1E5E71EE0FEF772FF0390FFE735
:1046D00043F67000C4F20200006800F002010020FE
:1046E000B0EB510F0ED0FFE7FEF762FF0399401ABF
:1046F00041F28931884204D3FFE703208DF8170087
:10470000F5E0E5E7FFE79DF80700012809D1FFE79D
:1047100043F64001C4F20201086820F080500860AE
:10472000FFE7FFE704988069002800F0DC80FFE7DE
:1047300043F60800C4F20200006800F00C000828EC
:1047400000F08580FFE70498806902285CD1FFE7CC
:104750006021C4F2472100200860FEF729FF039082
:10476000FFE743F60000C4F20200006800F00071A9
:104770000020B0EB516F0CD0FFE7FEF719FF039953
:10478000401A032804D3FFE703208DF81700AEE09A
:10479000E7E70499C869D1F820C04B6A8A6A40EA01
:1047A0000C0040EA8310D2034FF6FF739A43A2F540
:1047B00080321043C96A40EA016043F60401C4F242
:1047C000020108606021C4F2472101200860FEF761
:1047D000EFFE0390FFE743F60000C4F2020000681A
:1047E00000F000710020B0EB516F0CD1FFE7FEF735
:1047F000DFFE0399401A032804D3FFE703208DF856
:10480000170074E0E7E721E06021C4F247210020AF
:104810000860FEF7CDFE0390FFE743F60000C4F208
:104820000200006800F000710020B0EB516F0CD066
:10483000FFE7FEF7BDFE0399401A032804D3FFE704
:1048400003208DF8170052E0E7E7FFE74AE00498FD
:104850008069012804D1FFE701208DF8170046E0A8
:1048600043F60400C4F202000068029004988069D4
:10487000012831D0FFE7029800F480000499C9694B
:10488000884229D1FFE7029800F03F000499096AA5
:10489000884221D1FFE7029847F6C0710840049989
:1048A000496AB0EB811F17D1FFE7029800F440304E
:1048B0000499896AC9034FF6FF729143A1F58031CB
:1048C000884209D1FFE7029800F070600499C96A34
:1048D000B0EB016F04D0FFE701208DF8170006E070
:1048E000FFE7FFE7FFE700208DF81700FFE79DF8DF
:1048F000170006B080BD000080B584B00290029819
:1049000020B9FFE701208DF80F0071E00298406A9E
:1049100060B9FFE702984068B0F5827F01D1FFE7F8
:1049200003E002990020C861FFE705E0029900203A
:10493000086102994861FFE70299002088620298A5
:1049400090F8510040B9FFE70299002081F850002B
:10495000029800F051F8FFE70299022081F8510017
:1049600002980168086820F040000860029A0192ED
:1049700011685068D2F808C0D36800F482700CF453
:10498000044C604403F400631844136903F0020309
:104990001844536903F001031844936903F4007346
:1049A0001844D36903F038031844136A03F08003F2
:1049B0001843926A02F4005210430860029A508B26
:1049C00000F004001168526A02F0100210444860BE
:1049D00002980168C86920F40060C861029900204B
:1049E0004865029A012182F851108DF80F00FFE707
:1049F0009DF80F0004B080BD80B58CB00B900020F6
:104A00000A9009900890079006900B98006843F26E
:104A10000001C4F20101884240F08C80FFE7FFE70B
:104A20000020059043F64400C4F20200016841F4FE
:104A300080510160006800F4805005900598FFE700
:104A4000FFE70020049043F63000C4F20200016842
:104A500041F001010160006800F001000490049839
:104A6000FFE7E020069002200790002002900890C7
:104A70000320099005200A900020C4F2020006A934
:104A8000FEF776FB029940F2E030C2F2000003909C
:104A900046F25842C4F2020202604FF0C062426025
:104AA00040228260C1604FF4806202614161816195
:104AB000C1614FF4003202624162FEF793F918B10E
:104AC000FFE7FDF7C7FBFFE7FFE70B9840F2E03198
:104AD000C2F2000181640B988863FFE740F28030E6
:104AE000C2F20000019046F21041C4F202010160DE
:104AF0004FF0C061416000218160C1604FF480626D
:104B0000026141618161C1614FF4403202624162E0
:104B1000FEF768F918B1FFE7FDF79CFBFFE7FFE739
:104B20000B9840F28031C2F20001C1640B98886397
:104B3000FFE7FFE70CB080BD80B58CB0DDF838C072
:104B40000A9009910892ADF81E3001200390FEF7FB
:104B50002FFD04900A9890F851008DF817000A98DC
:104B600040680690BDF81E00ADF81C009DF81700C7
:104B7000012812D0FFE70698B0F5827F09D1FFE740
:104B80000A98806828B9FFE79DF81700042804D028
:104B9000FFE702208DF82F009BE1099838B1FFE76D
:104BA000089820B1FFE7BDF81E0020B9FFE70120FB
:104BB0008DF82F008DE1FFE70A9890F8500001284A
:104BC00004D1FFE702208DF82F0082E10A9901202D
:104BD00081F85000FFE7FFE70A9890F85100042899
:104BE00005D0FFE70A99052081F85100FFE70A99EF
:104BF0000020486508990A9A9163BDF81E100A9A28
:104C0000D187BDF81E100A9A918709990A9A1163F3
:104C1000BDF81E100A9AD186BDF81E100A9A918618
:104C20000A9908640A9948640A980068006800F0C4
:104C30004000402807D0FFE70A980168086840F064
:104C400040000860FFE70A98C068B0F5006F40F0C8
:104C50008180FFE70A98406828B1FFE7BDF81C0093
:104C600001280ED1FFE70A980168006B0088C86030
:104C70000A99086B023008630A99C88E0138C88601
:104C8000FFE7FFE70A98C18E0120019039B9FFE7DD
:104C90000A98C08F002818BF01200190FFE70198F3
:104CA000C007002855D0FFE70A9800688068800791
:104CB000002818D5FFE70A98C08EA0B1FFE7039837
:104CC000012810D1FFE70A980168006B0088C860CE
:104CD0000A99086B023008630A99C88E0138C886A1
:104CE00000200390FFE70A9800688068C007A8B119
:104CF000FFE70A98C08F88B1FFE70A980068C0688C
:104D00000A99896B08800A99886B023088630A992E
:104D1000C88F0138C88701200390FFE7FEF748FCE1
:104D20000499401A0E99884212D3FFE70E98013079
:104D300070B1FFE70A99012081F85100FFE70A9955
:104D4000002081F85000FFE703208DF82F00C0E01D
:104D500098E782E00A98406828B1FFE7BDF81C0098
:104D600001280ED1FFE70A980168006B00780873EC
:104D70000A99086B013008630A99C88E0138C88601
:104D8000FFE7FFE70A98C18E0120009039B9FFE7DD
:104D90000A98C08F002818BF01200090FFE70098F4
:104DA000C007002858D0FFE70A980068806880078D
:104DB000002818D5FFE70A98C08EA0B1FFE7039836
:104DC000012810D1FFE70A980168006B007808738A
:104DD0000A99086B013008630A99C88E0138C886A1
:104DE00000200390FFE70A9800688068C007A8B118
:104DF000FFE70A98C08F88B1FFE70A980068C0688B
:104E00000A99896B08700A99886B013088630A993E
:104E1000C88F0138C88701200390FFE7FEF7C8FB61
:104E20000499401A0E99884204D3FFE70E98013086
:104E300018B9FFE70E9870B9FFE70A99012081F8C9
:104E40005100FFE70A99002081F85000FFE7032096
:104E50008DF82F003DE095E7FFE70A980E99049A38
:104E600007F06CF968B1FFE70A9920204865FFE771
:104E70000A99002081F85000FFE701208DF82F00EB
:104E800027E00A98806870B9FFE7FFE700200290EA
:104E90000A980068C06802900A98006880680290CA
:104EA0000298FFE7FFE70A99012081F85100FFE728
:104EB0000A99002081F85000FFE70A98406D20B160
:104EC000FFE701208DF82F0003E000208DF82F0070
:104ED000FFE79DF82F000CB080BD000081B000906E
:104EE00001B0704781B0009001B0704784B002906B
:104EF000019100200090FFE7029890F83C00012803
:104F000004D1FFE702208DF80F0044E00299012050
:104F100081F83C00FFE7FFE7009820F0FF000199CF
:104F2000C96808430090009820F44070019989688E
:104F300008430090009820F4806001994968084374
:104F40000090009820F400600199096808430090DF
:104F5000009820F480500199096908430090009856
:104F600020F400500199496908430090009820F40A
:104F700080400199C9690843009000980299096826
:104F80004864FFE70299002081F83C00FFE7002019
:104F90008DF80F00FFE79DF80F0004B07047000088
:104FA00085B003900291FFE7039890F83C00012838
:104FB00004D1FFE702208DF813007EE00399012061
:104FC00081F83C00FFE7FFE70399022081F83D00EC
:104FD000039800684068019003980068806800901A
:104FE000019820F070000190029801680198084330
:104FF00001900198039909684860039800680021AE
:10500000C4F2010188423CD0FFE703980068B0F188
:10501000804F36D0FFE70398006840F20041C4F2A9
:10502000000188422DD0FFE70398006840F6000198
:10503000C4F20001884224D0FFE70398006840F6DC
:105040000041C4F2000188421BD0FFE703980068CA
:1050500040F20041C4F20101884212D0FFE70398F8
:10506000006844F20001C4F20101884209D0FFE760
:105070000398006841F60001C4F2000188420ED195
:10508000FFE7009820F080000090029841680098A7
:10509000084300900098039909688860FFE7039926
:1050A000012081F83D00FFE70399002081F83C00D2
:1050B000FFE700208DF81300FFE79DF8130005B00F
:1050C0007047000080B582B00090009820B9FFE7DB
:1050D00001208DF807003FE0009890F83D0040B9AE
:1050E000FFE70099002081F83C00009800F038F8B4
:1050F000FFE70099022081F83D00009951F8040B68
:1051000007F0FCF90099012081F84600FFE70099BB
:10511000012081F83E00009981F83F00009981F854
:105120004000009981F84100FFE7FFE70099012066
:1051300081F84200009981F84300009981F8440009
:10514000009981F84500FFE70099012081F83D00B2
:1051500000208DF80700FFE79DF8070002B080BD32
:1051600081B0009001B0704783B00190019890F831
:105170003D00012804D0FFE701208DF80B006AE014
:105180000199022081F83D0001980168C86840F04B
:105190000100C860019800680021C4F20101884242
:1051A0003CD0FFE701980068B0F1804F36D0FFE7B0
:1051B0000198006840F20041C4F2000188422DD0FD
:1051C000FFE70198006840F60001C4F20001884240
:1051D00024D0FFE70198006840F60041C4F20001C6
:1051E00088421BD0FFE70198006840F20041C4F2FA
:1051F0000101884212D0FFE70198006844F20001E3
:10520000C4F20101884209D0FFE70198006841F625
:105210000001C4F20001884212D1FFE70198006842
:10522000806800F0070000900098062807D0FFE78C
:1052300001980168086840F001000860FFE706E097
:1052400001980168086840F001000860FFE700204D
:105250008DF80B00FFE79DF80B0003B070470000CE
:1052600081B0009001B0704780B584B0039003987E
:105270000068C068029003980068006901909DF87A
:1052800004008007002824D5FFE79DF80800800768
:1052900000281DD5FFE7039801686FF00200086140
:1052A000039901200877039800688069800720B17E
:1052B000FFE70398FFF7D4FF06E0039800F066F9D4
:1052C000039800F091FAFFE7039900200877FFE7C1
:1052D000FFE79DF804004007002825D5FFE79DF86B
:1052E0000800400700281ED5FFE7039801686FF00B
:1052F0000400086103990220087703980068806918
:1053000010F4407F04D0FFE70398FFF7A9FF06E001
:10531000039800F03BF9039800F066FAFFE7039961
:1053200000200877FFE7FFE79DF80400000700284A
:1053300024D5FFE79DF80800000700281DD5FFE7EA
:10534000039801686FF0080008610399042008774A
:1053500003980068C069800720B1FFE70398FFF752
:105360007FFF06E0039800F011F9039800F03CFA83
:10537000FFE7039900200877FFE7FFE79DF80400A7
:10538000C006002825D5FFE79DF80800C0060028C4
:105390001ED5FFE7039801686FF0100008610399BC
:1053A0000820087703980068C06910F4407F04D093
:1053B000FFE70398FFF754FF06E0039800F0E6F8D4
:1053C000039800F011FAFFE7039900200877FFE740
:1053D000FFE79DF80400C00778B1FFE79DF80800DB
:1053E000C00748B1FFE7039801686FF0010008614A
:1053F000039800F0E3FAFFE7FFE79DF804000006DA
:10540000002810D5FFE79DF808000006002809D500
:10541000FFE7039801686FF0800008610398FFF7C9
:105420005DFDFFE7FFE79DF804004006002810D56A
:10543000FFE79DF808004006002809D5FFE703981C
:1054400001686FF040000861039800F0C5FAFFE7BB
:10545000FFE79DF804008006002810D5FFE79DF8BF
:1054600008008006002809D5FFE7039801686FF05F
:10547000200008610398FFF735FDFFE7FFE704B060
:1054800080BD000080B58CB00B9000200A90099080
:105490000890079006900B9800680021C4F2010163
:1054A000884223D1FFE7FFE70020059043F6300054
:1054B000C4F20200016841F010010160006800F0D0
:1054C000100005900598FFE74FF420500690022049
:1054D000079000200890099001200A9041F20000F6
:1054E000C4F2020006A9FDF743FE4DE00B980068E8
:1054F00040F20041C4F20001884244D1FFE7FFE7D7
:105500000020049043F63000C4F20200016841F02C
:1055100002010160006800F0020004900498FFE7B7
:10552000FFE70020039043F63000C4F20200016858
:1055300041F004010160006800F00400039003984A
:10554000FFE702200190069007900021009108914A
:1055500009910A9040F20040C4F2020006A90291AB
:10556000FDF706FE009A019802994FF480730693A6
:105570000790089209920A9040F60000C4F20200D7
:10558000FDF7F6FDFFE7FFE70CB080BD81B00090AE
:1055900001B0704780B586B004900391029200205C
:1055A0008DF80700FFE7049890F83C00012804D12B
:1055B000FFE702208DF8170089E00499012081F8A7
:1055C0003C00FFE7FFE7029800900C2800F2708093
:1055D0000099DFE801F0076D6D6D206D6D6D3A6D1E
:1055E0006D6D530004980068039907F07BF80498E8
:1055F0000168886940F0080088610498016888693A
:1056000020F00400886103980269049801688869A1
:105610001043886150E004980068039907F0D8F8B7
:1056200004980168886940F4006088610498016802
:10563000886920F480608861039802690498016891
:10564000886940EA0220886136E00498006803997E
:1056500007F038F904980168C86940F00800C8618B
:1056600004980168C86920F00400C86103980269C1
:1056700004980168C8691043C8611DE00498006877
:10568000039907F099F904980168C86940F400602B
:10569000C86104980168C86920F48060C8610398F3
:1056A000026904980168C86940EA0220C86103E001
:1056B00001208DF80700FFE7FFE70499002081F83B
:1056C0003C00FFE79DF807008DF81700FFE79DF805
:1056D000170006B080BD000080B582B00090009831
:1056E00020B9FFE701208DF807003FE0009890F80F
:1056F0003D0040B9FFE70099002081F83C00009888
:1057000000F038F8FFE70099022081F83D00009989
:1057100051F8040B06F0F2FE0099012081F84600D2
:10572000FFE70099012081F83E00009981F83F00D1
:10573000009981F84000009981F84100FFE7FFE7F8
:105740000099012081F84200009981F843000099F6
:1057500081F84400009981F84500FFE70099012095
:1057600081F83D0000208DF80700FFE79DF8070055
:1057700002B080BD83B00290029800680021C4F29C
:105780000101884212D1FFE7FFE70020019043F6B4
:105790004400C4F20200016841F0010101600068A8
:1057A00000F0010001900198FFE71BE002980068FB
:1057B00040F20041C4F20001884212D1FFE7FFE746
:1057C0000020009043F64000C4F20200016841F05E
:1057D00002010160006800F0020000900098FFE7FD
:1057E000FFE7FFE703B0704781B0009001B070475A
:1057F00080B58CB00A900991099828B9FFE70A98FA
:1058000090F83E0007901CE00998042805D1FFE7B6
:105810000A9890F83F00069010E00998082805D1F2
:10582000FFE70A9890F84000059004E00A9890F885
:1058300041000590FFE705980690FFE7069807905E
:10584000FFE70798012804D0FFE701208DF82F001B
:10585000AFE0099828B9FFE70A99022081F83E00D5
:105860001EE00998042806D1FFE70A99022081F872
:105870003F00049012E00998082806D1FFE70A9932
:10588000022081F84000039005E00A99022081F887
:1058900041000390FFE703980490FFE70498FFE7B7
:1058A0000A98006809990122019206F0FFFE01980A
:1058B0000A9909680022C4F20102914202900CD0B8
:1058C000FFE70A9800684FF60041CBF6FE710844E6
:1058D000B0FA80F040090290FFE70298C00738B1A3
:1058E000FFE70A980168486C40F400404864FFE70D
:1058F0000A9800680021C4F2010188423CD0FFE709
:105900000A980068B0F1804F36D0FFE70A98006827
:1059100040F20041C4F2000188422DD0FFE70A980E
:10592000006840F60001C4F20001884224D0FFE77D
:105930000A98006840F60041C4F2000188421BD07A
:10594000FFE70A98006840F20041C4F20101884272
:1059500012D0FFE70A98006844F20001C4F2010186
:10596000884209D0FFE70A98006841F60001C4F2B6
:105970000001884212D1FFE70A980068806800F0B1
:10598000070008900898062807D0FFE70A980168E2
:10599000086840F001000860FFE706E00A98016827
:1059A000086840F001000860FFE700208DF82F0034
:1059B000FFE79DF82F000CB080BD000080B582B0DD
:1059C000019001980068B0F1804F03D1FFE7FDF727
:1059D000CFFFFFE702B080BD81B0009001B07047FB
:1059E00080B582B00090009820B9FFE701208DF8C3
:1059F000070040E00098806908B1FFE700E0FFE79A
:105A0000009890F8410040B9FFE70099002081F824
:105A10004000009800F034F8FFE70099242081F856
:105A2000410000980168C86820F40050C8600098E0
:105A300007F014F800980168086920F490400861A4
:105A400000980168486920F02A00486100980168C0
:105A5000C86840F40050C860009900204864009A6B
:105A6000202182F84110009A82F842100099486380
:105A70008DF80700FFE79DF8070002B080BD000029
:105A800080B58EB00D9000200C900B900A9009907C
:105A900008900D98006841F20001C4F201018842AB
:105AA00040F08980FFE7FFE70020079043F64400BD
:105AB000C4F20200016841F010010160006800F0CA
:105AC000100007900798FFE7FFE70020069043F6D5
:105AD0003000C4F20200016841F001010160006879
