:020000040800F2
:10000000F87E002095020008618100080D75000847
:10001000FD800008010F000879220108000000009F
:10002000000000000000000000000000C1E0000827
:10003000E923000800000000418800089DE1000855
:10004000AF020008AF020008AF020008AF020008CC
:10005000AF020008AF020008ED230008AF0200085D
:10006000AF020008AF020008F9230008AF02000841
:10007000AF020008AF020008AF020008AF0200089C
:10008000AF020008AF020008AF020008AF0200088C
:10009000AF020008AF020008AF0200080524000804
:1000A000AF020008AF020008AF020008AF0200086C
:1000B000A9E20008AF020008AF020008AF02000882
:1000C000AF020008AF020008AF020008AF0200084C
:1000D000AF020008AF020008AF020008AF0200083C
:1000E000AF020008AF020008AF020008AF0200082C
:1000F000AF020008AF020008AF0200083510000888
:10010000AF020008AF020008AF020008AF0200080B
:10011000AF020008AF020008AF020008AF020008FB
:1001200001110008AF02000815110008D5210008D0
:10013000E5210008AF020008AF020008AF02000886
:10014000AF020008AF020008AF020008D18100082A
:10015000AF020008AF020008F5210008AF02000856
:10016000AF020008AF020008AF020008AF020008AB
:10017000AF020008AF020008AF0200080000000054
:10018000AF020008AF02000800F002F800F072F8B9
:1001900014A696E8000CB244B344DA4501D100F04D
:1001A00069F8BAE80F000FA696E83000A5EB040541
:1001B00004EB0607AAEB0704A7F101074FEA1515A0
:1001C0004FEA3414A4F10104AC4201D300F052F818
:1001D00013F0010F18BFFB1A43F0010300F001F800
:1001E000DBE71847C8760100E87601000A444FF0C3
:1001F000000C10F8013B13F0070408BF10F8014B86
:100200001D1108BF10F8015B641E05D010F8016BCA
:10021000641E01F8016BF9D113F0080F1EBF10F82E
:10022000014BAD1C0C1B09D16D1E58BF01F801CB51
:10023000FAD505E014F8016B01F8016B6D1EF9D5D4
:100240009142D6D37047000070470000002300247D
:1002500000250026103A28BF78C1FBD8520728BFD6
:1002600030C148BF0B6070471FB516F081FE1FBD3F
:1002700010B510BD00F0F9F91146FFF7F5FF12F0C7
:1002800005FF00F017FA03B4FFF7F2FF03BC00F01C
:100290001BFA00000948804709480047FEE7FEE7CF
:1002A000FEE7FEE7FEE7FEE7FEE7FEE7FEE7FEE726
:1002B00004480549054A064B7047000095E20008CE
:1002C00089010008F86A0020F87E0020F87A0020F2
:1002D000F87A00209FED1A1AF5EE000A40EE010AA6
:1002E000BDEEE00AF5EEC00A10EE100AF1EE10FACB
:1002F00038BF401E00EE100A1349F7EE001AB8EEA0
:10030000C00A30EEC00ADFED0F0A20EE200AFCEE34
:10031000C00A10EE900AC0F3080000EE900A01EB4C
:100320008000F8EE600A90ED011A70EE600A90ED20
:10033000000A71EEE01A21EE800A00EE810A704791
:1003400083F9223E00000044946F0108DFED190A92
:10035000B5EEC00A60EE200ABDEEE01A11EE100AFA
:10036000F1EE10FA38BF401E00EE100A1349F7EE06
:10037000001AB8EEC00A30EEC00ADFED0F0A60EED8
:10038000200ABCEEE00A10EE100AC0F3080000EEEE
:10039000100A01EB8000B8EE400A90ED011A70EEF1
:1003A000C00A90ED000A71EEE01A21EE800A00EE1C
:1003B000810A704783F9223E00000044946F0108CF
:1003C00053EA020C00F069802DE9F04B4FF0000673
:1003D000002B1FBFB3FA83F503FA05F424FA05F6E0
:1003E0005E4012BF1643B2FA82F502FA05F4C5F177
:1003F00020051EBF22FA05FC44EA0C04203556EA0B
:10040000044C4FEA144418BF641C4FF000084FF02E
:100410000009904271EB030C39D3002919BFB1FADE
:1004200081F701FA07F6B0FA80F700FA07F6C7F18C
:1004300020071EBF20FA07FC46EA0C062037B6FB51
:10044000F4FCA7EB0507103F07F01F0BCBF12006CC
:100450002CFA06F60CFA0BFB44BFB3460026202FFD
:10046000A4BF5E464FF0000B5BEA060C08BF4FF0DE
:10047000010B19EB0B0948EB0608ABFB027C06FBF2
:1004800002CC0BFB03CCC01B71EB0C01C1E70B468C
:10049000024641464846BDE8F08B13B5084318BFF5
:1004A0004FF0FF300146AFF30080BDE81C407047BD
:1004B00010B5431C02E010F8011B71B18107FAD19D
:1004C0004FF0013202C88C1A8C4314EAC211F9D0E1
:1004D000C01A0A0603D0C01E10BDC01A10BD0A04FF
:1004E00001D0801E10BD0902FCD0401E10BD032AA1
:1004F00040F2308010F0030C00F0158011F8013B41
:10050000BCF1020F624498BF11F801CB00F8013B27
:1005100038BF11F8013BA2F1040298BF00F801CBEB
:1005200038BF00F8013B11F0030300F06280083A85
:10053000C0F0088051F8043B083A51F804CBA0E819
:100540000810F5E7121D5CBF51F8043B40F8043B6E
:10055000AFF30080D20724BF11F8013B11F801CBA3
:1005600048BF11F8012B24BF00F8013B00F801CB74
:1005700048BF00F8012B704702F0FF0343EA032253
:1005800042EA024200F002B84FF0000200B5134602
:1005900094469646203922BFA0E80C50A0E80C50A3
:1005A000B1F12001BFF4F7AF090728BFA0E80C5054
:1005B00048BF0CC05DF804EB890028BF40F8042B4D
:1005C00008BF704748BF20F8022B11F0804F18BFBA
:1005D00000F8012B704770477047704710B500F066
:1005E0003FF8006810BD10B5044600F039F804600B
:1005F00010BD10B5203AC0F00B80B1E81850A0E84B
:100600001850B1E81850A0E81850203ABFF4F5AFE0
:100610005FEA027C24BFB1E81850A0E8185044BF3C
:1006200018C918C0BDE810405FEA827C24BF51F8A9
:10063000043B40F8043B08BF7047D20728BF31F89D
:10064000023B48BF11F8012B28BF20F8023B48BFEE
:1006500000F8012B70470000004870479801002007
:10066000004870479801002070477546FFF7F4FF77
:10067000AE4605006946534620F00700854618B08F
:1006800020B5FFF715FEBDE820404FF000064FF003
:1006900000074FF000084FF0000BAC46ACE8C00973
:1006A000ACE8C009ACE8C009ACE8C00921F007011A
:1006B0008D46704710B50446AFF300802046BDE874
:1006C0001040FFF7E0BD000001491820ABBEFEE777
:1006D0002600020080B582B001900198806B0090E6
:1006E0000098006C10F0500F3AD1FFE70099086CA9
:1006F00040F40070086400980068806810F0405F63
:100700002AD1FFE70098007E30BBFFE70098006821
:10071000C06A10F4700F07D0FFE700980068806887
:100720004005002818D4FFE700980168486820F0C9
:10073000200048600099086C20F4807008640098DC
:10074000006CC004002806D4FFE70099086C40F054
:1007500001000864FFE7FFE7009802F0A7FA10E045
:100760000098006CC006002804D5FFE7009802F04E
:10077000A5FA05E00098806BC16C01988847FFE7F7
:10078000FFE702B080BD000080B582B00190019803
:10079000806B00900099402008640099486C40F0FC
:1007A00004004864009802F089FA02B080BD00009D
:1007B00080B582B001900198806B0090009802F0A3
:1007C00079FA02B080BD000082B0019042F20030A0
:1007D000C4F2010000900099486820F4403048605D
:1007E0000198426800994868104348600198016880
:1007F000486820F480704860019801680269486880
:1008000040EA0220486001980168486820F0407082
:100810004860019801688268486810434860019800
:100820000168886820F40060886001980168C268E7
:100830008868104388600198806A0121C0F60071C1
:10084000884219D0FFE701980168886820F070603D
:10085000886001980168826A8868104388600198FE
:100860000168886820F04050886001980168C26A79
:100870008868104388600CE001980168886820F05F
:100880007060886001980168886820F04050886036
:10089000FFE701980168886820F0020088600198ED
:1008A000027E0168886840EA42008860019890F8FA
:1008B0002000C8B1FFE701980168486840F4006073
:1008C000486001980168486820F4604048600198D9
:1008D0000168426A4EF20000CFF6FF7000EB423230
:1008E00048681043486006E001980168486820F4B1
:1008F00000604860FFE701980168C86A20F4700052
:10090000C86201980168C2690020CFF6F07000EB60
:100910000252C86A1043C86201980168886820F4CE
:1009200000708860019890F830200168886840EA7B
:100930004220886001980168886820F4806088609F
:10094000019801684269886840EA8220886002B0A4
:100950007047000080B582B08DED010A9DED010A5F
:1009600015F070FD02B080BD80B582B08DED010A3A
:10097000CDED000A9DED010ADDED000A15F0F8FD50
:1009800002B080BD80B582B08DED010A9DED010AF7
:10099000FFF7A0FC02B080BD81B00090009820B1AC
:1009A000FFE7009900200860FFE701B070470000F2
:1009B00081B00090009830B1FFE700990020C4F2A8
:1009C000B0100860FFE701B07047000080B582B04A
:1009D0008DED010A9DED010A15F020FFB0EE401AE1
:1009E000B7EE000A80EE010A02B080BD80B582B089
:1009F0008DED010A9DED010AFFF7A8FC02B080BD54
:100A000080B50020C4F202001021012203F00AFA8E
:100A100080BD000080B50020C4F202001021002239
:100A200003F000FA80BD00007047000080B540F27E
:100A30000040C4F202000122114603F0F3F980BD28
:100A400080B540F20040C4F202000121002203F010
:100A5000E9F980BD85B00490039102920499087869
:100A6000497840EA0120ADF80600BDF9060000EE25
:100A7000100AB8EEC00A40F21000C2F2000090ED79
:100A8000001A20EE010A039981ED000A049A917878
:100A9000D27841EA0221ADF80610BDF9061000EE49
:100AA000101AB8EEC00A90ED001A20EE010A039960
:100AB00081ED010A049A1179527941EA0221ADF8D7
:100AC0000610BDF9061000EE101AB8EEC00A90ED3F
:100AD000001A20EE010A039880ED020A0498817939
:100AE000C279007A000440EA0220084400909DED9B
:100AF000000AB8EE400A9FED041A20EE010A02989F
:100B000080ED000A05B0704700401C4270470000AD
:100B100080B582B0ADF80600BDF8060012F01AFBF1
:100B200002B080BD80B582B0ADF80600BDF8060009
:100B300012F076F802B080BD83B002900191029964
:100B40000878497840EA0120ADF80200BDF90200BA
:100B500000EE100AB8EEC00A40F21400C2F2000023
:100B600090ED001A20EE010A019981ED000A029A27
:100B70009178D27841EA0221ADF80210BDF9021055
:100B800000EE101AB8EEC00A90ED001A20EE010A2D
:100B9000019981ED010A029A1179527941EA022103
:100BA000ADF80210BDF9021000EE101AB8EEC00A3E
:100BB00090ED001A20EE010A019880ED020A03B0C0
:100BC0007047000080B582B000208DF80700FFF765
:100BD0002BFFFFF79BFF11F0F3FC38B1FFE79DF807
:100BE000070040F080008DF8070008E011F020FCBD
:100BF00001469DF8070008438DF80700FFE711F054
:100C00005DFF38B1FFE79DF8070040F040008DF828
:100C1000070008E011F0AEFE01469DF8070008430A
:100C20008DF80700FFE79DF8070002B080BD0000C7
:100C300080B588B00790069105920020009004903E
:100C40000390FFF7E7FE922000F006F9122003A9B7
:100C50000191062200F0CCF8FFF7D2FE9DF80C00BF
:100C60009DF80D1040EA0120ADF80A00BDF90A0018
:100C700000EE100AB8EEC00A40F21000C2F2000006
:100C800090ED001A20EE010A069981ED000A9DF808
:100C90000E109DF80F2041EA0221ADF80A10BDF9AF
:100CA0000A1000EE101AB8EEC00A90ED001A20EEFD
:100CB000010A069981ED010A9DF810109DF8112096
:100CC00041EA0221ADF80A10BDF90A1000EE101A2F
:100CD000B8EEC00A90ED001A20EE010A069880EDE9
:100CE000020AFFF7ADFE00980199082200F080F893
:100CF000FFF79CFE9DF80C000F2844D1FFE79DF8FC
:100D00000E009DF80F1040EA0120ADF80A00BDF971
:100D10000A0000EE100AB8EEC00A40F21400C2F257
:100D2000000090ED001A20EE010A079981ED000AFB
:100D30009DF810109DF8112041EA0221ADF80A102B
:100D4000BDF90A1000EE101AB8EEC00A90ED001AB4
:100D500020EE010A079981ED010A9DF812109DF815
:100D6000132041EA0221ADF80A10BDF90A1000EE85
:100D7000101AB8EEC00A90ED001A20EE010A07988A
:100D800080ED020AFFE7FFF745FEA22000F064F8BD
:100D9000222003A9022200F02BF8FFF731FE9DF874
:100DA0000C009DF80D10C00040EA5110ADF80A008B
:100DB000BDF90A00B0F5806F07DBFFE7BDF80A0058
:100DC000A0F50060ADF80A00FFE7BDF90A0000EEEB
:100DD000100AB8EEC00AB4EE001A20EE010AB3EE13
:100DE000071A30EE010A059880ED000A08B080BDB0
:100DF00080B584B08DF80F0002918DF807209DF822
:100E00000F0040F0800000F027F8FFE79DF8070092
:100E100070B1FFE7552000F01FF8029908700298A2
:100E2000013002909DF8070001388DF80700EDE7CA
:100E300004B080BD80B582B08DF8070000919DF8A8
:100E4000070040F0800000F007F8552000F004F89B
:100E50000099087002B080BD80B582B08DF807009F
:100E600069464FF47A70086042F26430C2F20000C2
:100E70000DF107010DF10602012305F0C9FA9DF8F5
:100E8000060002B080BD000083B00290019102997B
:100E900008784978C00040EA5110ADF80200BDF969
:100EA0000200B0F5806F07DBFFE7BDF80200A0F598
:100EB0000060ADF80200FFE7BDF9020000EE100A85
:100EC000B8EEC00AB4EE001A20EE010AB3EE071A1B
:100ED00030EE010A019880ED000A03B0704700006F
:100EE00080B582B08DF807008DF806109DF80700D8
:100EF000FFF7B2FF9DF80600FFF7AEFF02B080BD1E
:100F0000FFE7FEE784B08DF80F000291ADF80620F0
:100F10009DF80F000146009123281DD80099DFE8B5
:100F200001F012131415161B1B1B1B1B1B1B1B1B79
:100F30001B1B1B1B1B1B1B1B1B1B1B1B1B1B1B1B01
:100F40001B1B1718191A08E007E006E005E004E08B
:100F500003E002E001E000E0FFE7002004B070479A
:100F60000020704780B582B041F6CC00C2F200008C
:100F7000009040F68461C2F20001002201920EF05E
:100F800083F8009840F28461C2F200010EF05EF82E
:100F9000019802B080BD000080B584B0039002913A
:100FA000039941F6CC00C2F2000001900EF04EF819
:100FB00001980DF0F1FF002004B080BD83B00290D5
:100FC00001918DF8032000208DF802009DF90200A8
:100FD00003B0704780B586B00490ADF80E100020C5
:100FE0008DF80D0041F6CC00C2F20000D0F8BC0232
:100FF00002900298D0F8140220B1FFE701208DF88A
:10100000170013E00499BDF80E2041F6CC00C2F29F
:10101000000001900EF038F801980EF03FF98DF8BD
:101020000D009DF80D008DF81700FFE79DF81700E3
:1010300006B080BD82B046F20400C4F2020000682F
:101040000001002859D5FFE741F62C60C2F20000EC
:10105000406B006846F25941C4F20201884208D34D
:10106000FFE746F20C41C4F202014FF00060086055
:1010700039E041F62C60C2F20000406B006846F295
:10108000B901C4F20201884209D3FFE746F20841E0
:10109000C4F202014FF000600860019021E041F6C7
:1010A0002C60C2F20000406B006846F25901C4F2A5
:1010B0000201884209D3FFE746F20C01C4F20201A3
:1010C0004FF000600860009008E046F20801C4F2AA
:1010D00002014FF0006008600090FFE70098019067
:1010E000FFE70198FFE741F62C60C2F200000168BB
:1010F000086840F400700860FFE702B07047000025
:1011000080B500F00FF841F65840C2F2000002F03E
:1011100001F880BD80B541F61850C2F2000001F020
:10112000F9FF80BD80B5E2B042F26430C2F2000047
:10113000C06C006846F25941C4F202018842C0F016
:10114000F380FFE746F20440C4F2020000686190B9
:1011500042F26430C2F20000C06C006846F2100136
:10116000C4F20201884203D1FFE720206090D6E05C
:1011700042F26430C2F20000C06C006846F21041D6
:10118000C4F20201884203D1FFE720205F90C3E050
:1011900042F26430C2F20000C06C006846F2700196
:1011A000C4F20201884203D1FFE720205E90B0E044
:1011B00042F26430C2F20000C06C006846F2704136
:1011C000C4F20201884203D1FFE720205D909DE038
:1011D00042F26430C2F20000C06C006846F228019E
:1011E000C4F20201884204D1FFE74FF400605C9032
:1011F00089E042F26430C2F20000C06C006846F23E
:101200002841C4F20201884204D1FFE74FF4006094
:101210005B9075E042F26430C2F20000C06C00687E
:1012200046F28801C4F20201884204D1FFE74FF47C
:1012300000605A9061E042F26430C2F20000C06C7B
:10124000006846F28841C4F20201884204D1FFE7F7
:101250004FF4006059904DE042F26430C2F2000059
:10126000C06C006846F24001C4F20201884204D119
:10127000FFE74FF40010589039E042F26430C2F2B8
:101280000000C06C006846F24041C4F2020188428E
:1012900004D1FFE74FF40010579025E042F264308C
:1012A000C2F20000C06C006846F2A001C4F2020164
:1012B000884204D1FFE74FF40010569011E042F24B
:1012C0006430C2F20000C06C016846F2A042C4F271
:1012D00002024FF00060914208BF4FF40010569098
:1012E000FFE756985790FFE757985890FFE75898B0
:1012F0005990FFE759985A90FFE75A985B90FFE79B
:101300005B985C90FFE75C985D90FFE75D985E906E
:10131000FFE75E985F90FFE75F986090FFE7619856
:10132000609908405590F7E242F26430C2F2000042
:10133000C06C006846F2B901C4F202018842C0F0F4
:10134000F380FFE746F20040C4F2020000685490C8
:1013500042F26430C2F20000C06C006846F2100134
:10136000C4F20201884203D1FFE720205390D6E067
:1013700042F26430C2F20000C06C006846F21041D4
:10138000C4F20201884203D1FFE720205290C3E05B
:1013900042F26430C2F20000C06C006846F2700194
:1013A000C4F20201884203D1FFE720205190B0E04F
:1013B00042F26430C2F20000C06C006846F2704134
:1013C000C4F20201884203D1FFE7202050909DE043
:1013D00042F26430C2F20000C06C006846F228019C
:1013E000C4F20201884204D1FFE74FF400604F903D
:1013F00089E042F26430C2F20000C06C006846F23C
:101400002841C4F20201884204D1FFE74FF4006092
:101410004E9075E042F26430C2F20000C06C006889
:1014200046F28801C4F20201884204D1FFE74FF47A
:1014300000604D9061E042F26430C2F20000C06C86
:10144000006846F28841C4F20201884204D1FFE7F5
:101450004FF400604C904DE042F26430C2F2000064
:10146000C06C006846F24001C4F20201884204D117
:10147000FFE74FF400104B9039E042F26430C2F2C3
:101480000000C06C006846F24041C4F2020188428C
:1014900004D1FFE74FF400104A9025E042F2643097
:1014A000C2F20000C06C006846F2A001C4F2020162
:1014B000884204D1FFE74FF40010499011E042F256
:1014C0006430C2F20000C06C016846F2A042C4F26F
:1014D00002024FF00060914208BF4FF400104990A3
:1014E000FFE749984A90FFE74A984B90FFE74B98EF
:1014F0004C90FFE74C984D90FFE74D984E90FFE7DA
:101500004E984F90FFE74F985090FFE750985190BA
:10151000FFE751985290FFE752985390FFE7549895
:10152000539908404890F4E142F26430C2F200005E
:10153000C06C006846F25901C4F202018842C0F052
:10154000F380FFE746F20400C4F20200006847900F
:1015500042F26430C2F20000C06C006846F2100132
:10156000C4F20201884203D1FFE720204690D6E072
:1015700042F26430C2F20000C06C006846F21041D2
:10158000C4F20201884203D1FFE720204590C3E066
:1015900042F26430C2F20000C06C006846F2700192
:1015A000C4F20201884203D1FFE720204490B0E05A
:1015B00042F26430C2F20000C06C006846F2704132
:1015C000C4F20201884203D1FFE7202043909DE04E
:1015D00042F26430C2F20000C06C006846F228019A
:1015E000C4F20201884204D1FFE74FF40060429048
:1015F00089E042F26430C2F20000C06C006846F23A
:101600002841C4F20201884204D1FFE74FF4006090
:10161000419075E042F26430C2F20000C06C006894
:1016200046F28801C4F20201884204D1FFE74FF478
:101630000060409061E042F26430C2F20000C06C91
:10164000006846F28841C4F20201884204D1FFE7F3
:101650004FF400603F904DE042F26430C2F200006F
:10166000C06C006846F24001C4F20201884204D115
:10167000FFE74FF400103E9039E042F26430C2F2CE
:101680000000C06C006846F24041C4F2020188428A
:1016900004D1FFE74FF400103D9025E042F26430A2
:1016A000C2F20000C06C006846F2A001C4F2020160
:1016B000884204D1FFE74FF400103C9011E042F261
:1016C0006430C2F20000C06C016846F2A042C4F26D
:1016D00002024FF00060914208BF4FF400103C90AE
:1016E000FFE73C983D90FFE73D983E90FFE73E982E
:1016F0003F90FFE73F984090FFE740984190FFE719
:1017000041984290FFE742984390FFE74398449006
:10171000FFE744984590FFE745984690FFE74798D4
:10172000469908403B90F1E046F20000C4F2020006
:1017300000683A9042F26430C2F20000C06C006867
:1017400046F21001C4F20201884203D1FFE72020D3
:101750003990D6E042F26430C2F20000C06C0068FA
:1017600046F21041C4F20201884203D1FFE7202073
:101770003890C3E042F26430C2F20000C06C0068EE
:1017800046F27001C4F20201884203D1FFE7202033
:101790003790B0E042F26430C2F20000C06C0068E2
:1017A00046F27041C4F20201884203D1FFE72020D3
:1017B00036909DE042F26430C2F20000C06C0068D6
:1017C00046F22801C4F20201884204D1FFE74FF437
:1017D0000060359089E042F26430C2F20000C06CD3
:1017E000006846F22841C4F20201884204D1FFE7B2
:1017F0004FF40060349075E042F26430C2F20000B1
:10180000C06C006846F28801C4F20201884204D12B
:10181000FFE74FF40060339061E042F26430C2F2BF
:101820000000C06C006846F28841C4F202018842A0
:1018300004D1FFE74FF4006032904DE042F2643093
:10184000C2F20000C06C006846F24001C4F202011E
:10185000884204D1FFE74FF40010319039E042F2A2
:101860006430C2F20000C06C006846F24041C4F22D
:101870000201884204D1FFE74FF40010309025E0C8
:1018800042F26430C2F20000C06C006846F2A0016F
:10189000C4F20201884204D1FFE74FF400102F90F8
:1018A00011E042F26430C2F20000C06C016846F2FE
:1018B000A042C4F202024FF00060914208BF4FF410
:1018C00000102F90FFE72F983090FFE7309831906D
:1018D000FFE731983290FFE732983390FFE7339873
:1018E0003490FFE734983590FFE735983690FFE75E
:1018F00036983790FFE737983890FFE73898399057
:10190000FFE73A98399908403B90FFE73B984890A9
:10191000FFE748985590FFE75598002800F0588455
:10192000FFE742F26430C2F20000C06C006846F289
:101930005941C4F202018842C0F0EF80FFE742F251
:101940006430C2F20000C06C006846F21001C4F2BC
:101950000201884203D1FFE720202E90D6E042F218
:101960006430C2F20000C06C006846F21041C4F25C
:101970000201884203D1FFE720202D90C3E042F20C
:101980006430C2F20000C06C006846F27001C4F21C
:101990000201884203D1FFE720202C90B0E042F200
:1019A0006430C2F20000C06C006846F27041C4F2BC
:1019B0000201884203D1FFE720202B909DE042F2F4
:1019C0006430C2F20000C06C006846F22801C4F224
:1019D0000201884204D1FFE74FF400602A9089E0B9
:1019E00042F26430C2F20000C06C006846F2284146
:1019F000C4F20201884204D1FFE74FF4006029904D
:101A000075E042F26430C2F20000C06C006846F239
:101A10008801C4F20201884204D1FFE74FF400605C
:101A2000289061E042F26430C2F20000C06C0068AD
:101A300046F28841C4F20201884204D1FFE74FF424
:101A4000006027904DE042F26430C2F20000C06CAA
:101A5000006846F24001C4F20201884204D1FFE767
:101A60004FF40010269039E042F26430C2F20000D8
:101A7000C06C006846F24041C4F20201884204D1C1
:101A8000FFE74FF40010259025E042F26430C2F2E7
:101A90000000C06C006846F2A001C4F20201884256
:101AA00004D1FFE74FF40010249011E042F26430BB
:101AB000C2F20000C06C016846F2A042C4F2020209
:101AC0004FF00060914208BF4FF400102490FFE7F0
:101AD00024982590FFE725982690FFE726982790E1
:101AE000FFE727982890FFE728982990FFE7299893
:101AF0002A90FFE72A982B90FFE72B982C90FFE77E
:101B00002C982D90FFE72D982E90FFE72E9846F207
:101B10000C41C4F202010860EDE242F26430C2F20C
:101B20000000C06C006846F2B901C4F202018842AC
:101B3000C0F0F080FFE742F26430C2F20000C06CF7
:101B4000006846F21001C4F20201884203D1FFE7A7
:101B500020202390D6E042F26430C2F20000C06C34
:101B6000006846F21041C4F20201884203D1FFE747
:101B700020202290C3E042F26430C2F20000C06C28
:101B8000006846F27001C4F20201884203D1FFE707
:101B900020202190B0E042F26430C2F20000C06C1C
:101BA000006846F27041C4F20201884203D1FFE7A7
:101BB000202020909DE042F26430C2F20000C06C10
:101BC000006846F22801C4F20201884204D1FFE70E
:101BD0004FF400601F9089E042F26430C2F20000CE
:101BE000C06C006846F22841C4F20201884204D168
:101BF000FFE74FF400601E9075E042F26430C2F2DD
:101C00000000C06C006846F28801C4F202018842FC
:101C100004D1FFE74FF400601D9061E042F26430B0
:101C2000C2F20000C06C006846F28841C4F20201B2
:101C3000884204D1FFE74FF400601C904DE042F26F
:101C40006430C2F20000C06C006846F24001C4F289
:101C50000201884204D1FFE74FF400101B9039E0E5
:101C600042F26430C2F20000C06C006846F24041AB
:101C7000C4F20201884204D1FFE74FF400101A9029
:101C800025E042F26430C2F20000C06C006846F207
:101C9000A001C4F20201884204D1FFE74FF4001012
:101CA000199011E042F26430C2F20000C06C016889
:101CB00046F2A042C4F202024FF00060914208BF17
:101CC0004FF400101990FFE719981A90FFE71A983F
:101CD0001B90FFE71B981C90FFE71C981D90FFE7E7
:101CE0001D981E90FFE71E981F90FFE71F982090F9
:101CF000FFE720982190FFE721982290FFE72298A4
:101D00002390FFE7239846F20841C4F202010860DD
:101D10001890EEE142F26430C2F20000C06C00683C
:101D200046F25901C4F202018842C0F0F080FFE798
:101D300042F26430C2F20000C06C006846F210014A
:101D4000C4F20201884203D1FFE720201790D6E0B9
:101D500042F26430C2F20000C06C006846F21041EA
:101D6000C4F20201884203D1FFE720201690C3E0AD
:101D700042F26430C2F20000C06C006846F27001AA
:101D8000C4F20201884203D1FFE720201590B0E0A1
:101D900042F26430C2F20000C06C006846F270414A
:101DA000C4F20201884203D1FFE7202014909DE095
:101DB00042F26430C2F20000C06C006846F22801B2
:101DC000C4F20201884204D1FFE74FF4006013908F
:101DD00089E042F26430C2F20000C06C006846F252
:101DE0002841C4F20201884204D1FFE74FF40060A9
:101DF000129075E042F26430C2F20000C06C0068DC
:101E000046F28801C4F20201884204D1FFE74FF490
:101E10000060119061E042F26430C2F20000C06CD8
:101E2000006846F28841C4F20201884204D1FFE70B
:101E30004FF4006010904DE042F26430C2F20000B6
:101E4000C06C006846F24001C4F20201884204D12D
:101E5000FFE74FF400100F9039E042F26430C2F215
:101E60000000C06C006846F24041C4F202018842A2
:101E700004D1FFE74FF400100E9025E042F26430E9
:101E8000C2F20000C06C006846F2A001C4F2020178
:101E9000884204D1FFE74FF400100D9011E042F2A8
:101EA0006430C2F20000C06C016846F2A042C4F285
:101EB00002024FF00060914208BF4FF400100D90F5
:101EC000FFE70D980E90FFE70E980F90FFE70F9831
:101ED0001090FFE710981190FFE711981290FFE71C
:101EE00012981390FFE713981490FFE71498159039
:101EF000FFE715981690FFE716981790FFE71798D9
:101F000046F20C01C4F2020108600C90EEE042F2CD
:101F10006430C2F20000C06C006846F21001C4F2E6
:101F20000201884203D1FFE720200B90D6E042F265
:101F30006430C2F20000C06C006846F21041C4F286
:101F40000201884203D1FFE720200A90C3E042F259
:101F50006430C2F20000C06C006846F27001C4F246
:101F60000201884203D1FFE720200990B0E042F24D
:101F70006430C2F20000C06C006846F27041C4F2E6
:101F80000201884203D1FFE7202008909DE042F241
:101F90006430C2F20000C06C006846F22801C4F24E
:101FA0000201884204D1FFE74FF40060079089E006
:101FB00042F26430C2F20000C06C006846F2284170
:101FC000C4F20201884204D1FFE74FF4006006909A
:101FD00075E042F26430C2F20000C06C006846F264
:101FE0008801C4F20201884204D1FFE74FF4006087
:101FF000059061E042F26430C2F20000C06C0068FB
:1020000046F28841C4F20201884204D1FFE74FF44E
:10201000006004904DE042F26430C2F20000C06CF7
:10202000006846F24001C4F20201884204D1FFE791
:102030004FF40010039039E042F26430C2F2000025
:10204000C06C006846F24041C4F20201884204D1EB
:10205000FFE74FF40010029025E042F26430C2F234
:102060000000C06C006846F2A001C4F20201884280
:1020700004D1FFE74FF40010019011E042F2643008
:10208000C2F20000C06C016846F2A042C4F2020233
:102090004FF00060914208BF4FF400100190FFE73D
:1020A00001980290FFE702980390FFE703980490DD
:1020B000FFE704980590FFE705980690FFE706986C
:1020C0000790FFE707980890FFE708980990FFE757
:1020D00009980A90FFE70A980B90FFE70B9846F2E1
:1020E0000801C4F2020108600C90FFE70C981890F8
:1020F000FFE71898FFE741F6C800C2F20000007839
:102100008007002815D5FFE741F6C801C2F200019B
:10211000087800F0FD000870087840F004000870AE
:1021200040F20040C4F202000122114601F07AFEA2
:10213000FFE741F2C560C2F2000000788007002886
:1021400014D5FFE741F2C561C2F20001087800F042
:10215000FD000870087840F0040008700020C4F208
:1021600002001021012201F05DFEFFE741F2C46090
:10217000C2F2000000788007002814D5FFE741F282
:10218000C461C2F20001087800F0FD000870087810
:1021900040F0040008700020C4F202001021012267
:1021A00001F040FEFFE710F00BFE41F6C800C2F25E
:1021B000000000784007002809D5FFE743F61041EA
:1021C000C4F20101086840F001000860FFE7FFE782
:1021D00062B080BD80B541F6B840C2F2000000F0A8
:1021E00099FF80BD80B541F6F830C2F2000000F0E2
:1021F00091FF80BD80B541F67850C2F2000000F03A
:1022000089FF80BD82B001900198007810384AF6AD
:10221000AB21CAF6AA21A0FB011000090090009989
:1022200047F60400C0F60100405C0199C8650098BB
:10223000042807D3FFE701990868042262F3090024
:10224000886506E00199086840F2FF32904388658E
:10225000FFE70198806D02B07047000086B00590DE
:1022600000208DF813000598806A03900598806916
:1022700010BBFFE70398029003281BD80299DFE800
:1022800001F0020D0218059890F82F00C00720B148
:10229000FFE701208DF81300FFE70CE00598C06A06
:1022A000B0F1C07F04D1FFE701208DF81300FFE7F4
:1022B00001E000E0FFE745E005988069B0F5005FC8
:1022C00025D1FFE70398019003281ED80199DFE884
:1022D00001F00206021101208DF8130016E00598A6
:1022E00090F82F00C00720B1FFE701208DF8130000
:1022F000FFE70BE00598C06AB0F1C07F04D1FFE7AB
:1023000001208DF81300FFE700E0FFE719E00398D4
:102310000090032804D3FFE70098032804D00EE0C0
:1023200001208DF813000BE0059890F82F00C007EE
:1023300020B1FFE701208DF81300FFE700E0FFE781
:10234000FFE7FFE79DF8130006B0704784B00390E5
:1023500002910192009303980168086820F480209C
:1023600008600098039909684860039880684028CD
:1023700009D1FFE7019803990968886002980399D9
:102380000968C86008E002980399096888600198A4
:1023900003990968C860FFE704B0704780B590B042
:1023A00041F21870C2F20000019000F114010DF129
:1023B0000E00029010F080FC019902980430183150
:1023C00010F07AFC029800218DF816108DF8171085
:1023D00080218DF818107F218DF819100C21FEF73F
:1023E000F9FD10B080BD00007047000080B50120ED
:1023F00001F0F4FA80BD000080B5102001F0EEFA83
:1024000080BD000080B5202001F0E8FA80BD00000A
:1024100072B6FFE7FEE7000083B002908DF8071068
:10242000002000909DF8070018B9FFE700200090F9
:1024300017E09DF80700012804D1FFE74FF48070F2
:1024400000900DE09DF80700022804D1FFE74FF44B
:102450000070009003E04FF440700090FFE7FFE74A
:10246000FFE743F61041C4F20201086820F440700F
:102470000860009A086810430860086820F0F800B7
:102480000860029A086840EAC20040F00200086052
:10249000086840F48030086003B0704743F600409D
:1024A000C4F202000068800500281FD5FFE743F64C
:1024B0000041C4F20201086820F400700860FFE7E0
:1024C00043F60041C4F20201086840F4006008606D
:1024D000086820F400600860FFE743F60041C4F29A
:1024E0000201086840F400700860FFE743F600400E
:1024F000C4F202000068400500281FD5FFE743F63C
:102500000041C4F20201086820F480600860FFE71F
:1025100043F60041C4F20201086840F480500860AC
:10252000086820F480500860FFE743F60041C4F2D9
:102530000201086840F480600860FFE7704700000F
:1025400082B08DF80700009143F61041C4F20201F9
:10255000086820F440700860086840F004000860D3
:102560009DF80720086840EA022040F480300860A7
:1025700002B0704782B001908DF8031043F610410D
:10258000C4F20201086820F440700860086808601E
:10259000086840F0010008609DF803000199087088
:1025A00002B0704784B003900193009243F610414B
:1025B000C4F20201086820F440700860086840F422
:1025C00040700860086840F00100086000980399B6
:1025D0000860BFF36F8F01980399486004B070479B
:1025E00082B00190ADF8021043F61041C4F202012E
:1025F000086820F440700860086840F48070086043
:10260000086840F001000860BDF8020001990880E8
:1026100002B0704782B00190009143F61041C4F2BD
:102620000201086820F440700860086840F40070F7
:102630000860086840F0010008600098019908608F
:1026400002B0704743F60C40C4F202000068C006B6
:1026500000280FD5FFE742F27051C2F20001C869AD
:1026600040F01000C86143F60C41C4F20201102092
:102670000860FFE743F60C40C4F2020000688006E1
:1026800000280FD5FFE742F27051C2F20001C8697D
:1026900040F00800C86143F60C41C4F2020120205A
:1026A0000860FFE743F60C40C4F2020000684006F1
:1026B00000280FD5FFE742F27051C2F20001C8694D
:1026C00040F00400C86143F60C41C4F2020140200E
:1026D0000860FFE743F60C40C4F202000068000601
:1026E00000280FD5FFE742F27051C2F20001C8691D
:1026F00040F00200C86143F60C41C4F202018020A0
:102700000860FFE743F60C40C4F20200006880074F
:1027100000280FD5FFE742F27051C2F20001C869EC
:1027200040F02000C86143F60C41C4F202010220CF
:102730000860FFE77047000080B584B00290002079
:10274000019042F27051C2F20001C86101F082FBB7
:102750000190FFE743F60C40C4F202000068C0039A
:10276000002815D5FFE70298013080B1FFE70298F5
:1027700040B1FFE701F06EFB0199401A02998842CF
:1027800004D9FFE703208DF80F0023E0FFE7E1E71E
:1027900043F60C40C4F202000068C00738B1FFE7FE
:1027A00043F60C41C4F2020101200860FFE743F642
:1027B0000C40C4F20200006810F0F20F06D0FFE7F0
:1027C000FFF740FF01208DF80F0003E000208DF897
:1027D0000F00FFE79DF80F0004B080BD80B584B006
:1027E00047F61020C1F6FF700068039047F61420EA
:1027F000C1F6FF700068029047F61820C1F6FF701E
:10280000006801900199039808440390039888B1E7
:10281000FFE7039840F2F001C2F20001009102319B
:10282000082205F041F8009902981231042205F0BF
:102830003BF8FFE704B080BD80B540F22421C2F22E
:10284000000191ED010A9FED401A30EE010A41F2BC
:102850001870C2F2000080ED050A8968816140F2BB
:10286000F811C2F200010A8800EE102AB8EE400A00
:102870009FED362A80EE020A9FED351A20EE010AFE
:102880009FED343A30EE030A9FED333A80EE030AAF
:10289000B3EE093A30EE030A80ED020A498800EEF1
:1028A000101AB8EE400A80EE020A20EE010A9FEDEF
:1028B0002B1A20EE010A80ED030A40F20040C4F218
:1028C00002004FF4804101F081FA88B1FFE740F245
:1028D0000040C4F202004FF4004101F077FA38B131
:1028E000FFE741F21871C2F200010320087428E0EA
:1028F00040F20040C4F202004FF4004101F066FAD9
:1029000078B9FFE741F21871C2F2000102200874A1
:1029100041F20000C4F202000821012201F082FA13
:102920000EE041F21871C2F200010120087441F278
:102930000000C4F202000821002201F073FAFFE750
:10294000FFE704F0EFFF80BD0000B44200008045C7
:10295000333353405C8F42BF0AD7233BAE47C13F5E
:1029600080B58AB005F09EFF41F21870C2F20000F7
:102970000090002201920270012180F8A41142808F
:102980008280C26102624261826142704AF2000248
:10299000C4F28C5209924FF07C5208920023C4F288
:1029A000A023079348F20003C4F23B530693059219
:1029B0000022C4F28C220492D0F844210792D0F86D
:1029C00048210892D0F84C2109926C3004AA9FED5E
:1029D0000B0A8DED020ADFED0A0ACDED030A05F0C0
:1029E000E9FE009801999DED020ADDED030A24300D
:1029F00007AA05F0DFFE0AB080BD00BF0070944654
:102A000000007A4480B582B00190FFF7A9FFC8208A
:102A100011F0D8FFFFE7FFF70FFF41F21870C2F285
:102A2000000090F8A401E0B1FFE70BF077FB40F263
:102A30005820C2F200000188013101800088C828B6
:102A40000EDBFFE740F25821C2F2000100200880AF
:102A500041F20000C4F20200042101F0CFF9FFE7C7
:102A600000E0FFE705F04CFBFFF798FC46F6F4208A
:102A7000C2F20000007848B1FFE746F6F421C2F246
:102A80000001002008700FF0F9FBFFE7052011F0AE
:102A900099FFC0E785B00390029100200190FFE705
:102AA000039890F83C00012804D1FFE702208DF83C
:102AB0001300F7E00399012081F83C00FFE7FFE7EE
:102AC000029800680A281CD3FFE70298008800EBF0
:102AD0004000A0F11E01072000FA01F203980168EE
:102AE000C8689043C86002998868098801EB410171
:102AF0001E3900FA01F203980168C8681043C860E3
:102B000018E00298008800EB4001072000FA01F26B
:102B100003980168086990430861029988680988E8
:102B200001EB410100FA01F20398016808691043C2
:102B30000861FFE70298406806281BD8FFE7029863
:102B4000406800EB8000411F1F2000FA01F203984B
:102B50000168486B9043486302990888496801EB13
:102B60008101053900FA01F203980168486B1043AE
:102B700048633DE0029840680C281CD8FFE70298A3
:102B8000406800EB8000A0F123011F2000FA01F251
:102B900003980168086B90430863029908884968A4
:102BA00001EB8101233900FA01F203980168086BF7
:102BB000104308631BE00298406800EB8000A0F11E
:102BC00041011F2000FA01F203980168C86A90438E
:102BD000C86202990888496801EB8101413900FA0D
:102BE00001F203980168C86A1043C862FFE7FFE773
:102BF00042F20030C4F2010000900398006842F2F3
:102C00000001C4F2010188420BD1FFE7029800687D
:102C1000122806D1FFE70099486840F48000486018
:102C2000FFE70398006842F20001C4F20101884204
:102C30002ED1FFE702980068102805D0FFE7029820
:102C40000068112824D1FFE70099486840F400008B
:102C5000486002980068102819D1FFE740F2380058
:102C6000C2F2000000684DF68361C4F21B31A0FB84
:102C70000110800C00EB800040000190FFE70198FC
:102C800020B1FFE7019801380190F8E7FFE7FFE77F
:102C9000FFE70399002081F83C00FFE700208DF852
:102CA0001300FFE79DF8130005B0704781B0009056
:102CB00001B0704781B0009001B0704781B00090C2
:102CC00001B0704780B584B0029000208DF80700F5
:102CD000029820B9FFE701208DF80F0042E002982A
:102CE000806A0121C0F60071884201D0FFE7FFE74A
:102CF0000298006C50B9FFE7029800F037F802998B
:102D000000204864029981F83C00FFE70298006CBB
:102D1000C006002817D4FFE70298006C40F00200BC
:102D200020F48850029908640298FDF74DFD02993D
:102D3000002048640298006C40F0010020F002007E
:102D40000299086403E001208DF80700FFE7FFE720
:102D50000299002081F83C00FFE79DF807008DF8FC
:102D60000F00FFE79DF80F0004B080BD80B58AB06A
:102D7000099000200890079006900590049009980B
:102D8000006842F20001C4F2010188425ED1FFE70F
:102D9000FFE70020039043F64400C4F202000168FC
:102DA00041F480710160006800F480700390039822
:102DB000FFE7FFE70020029043F63000C4F2020074
:102DC000016841F004010160006800F00400029015
:102DD0000298FFE70820049003200590002000904F
:102DE000069040F60000C4F2020004A900F012FEB2
:102DF000009941F6F830C2F20000019046F27042AC
:102E0000C4F20202026041608160C1604FF48062DE
:102E100002614FF4006242614FF4005282614FF44C
:102E20008072C2610162416200F004FB18B1FFE7E9
:102E3000FFF7EEFAFFE7FFE7099841F6F831C2F233
:102E40000001816309988863FFE7FFE70AB080BD4E
:102E500080B586B004900391029200200190FFE7B4
:102E6000049890F83C00012804D1FFE702208DF877
:102E700017000BE10499012081F83C00FFE7FFE710
:102E8000049800688068C007F0B9FFE704980168FB
:102E9000886840F00100886040F23800C2F200000B
:102EA00000684DF68361C4F21B31A0FB0110800C59
:102EB00000EB40000190FFE7019820B1FFE7019887
:102EC00001380190F8E7FFE7049800688068C005C2
:102ED000002807D5FFE704980168886820F480700F
:102EE0008860FFE7049800688068C007002800F049
:102EF000BE80FFE70498006C40F4807040F20161EE
:102F000088430499086404980068406840050028D4
:102F100009D5FFE70498006C40F4805020F400507D
:102F200004990864FFE70498006CC004002806D5E3
:102F3000FFE70499486C20F00600486403E0049918
:102F400000204864FFE7FFE70499002081F83C0077
:102F5000FFE742F20030C4F2010000900498816B58
:102F600040F2D560C0F60000C8630498816B40F25F
:102F7000B170C0F6000008640498816B40F289705B
:102F8000C0F60000C864049801686FF02200086071
:102F900004980168486840F08060486004980168BF
:102FA000886840F48070886004980168806B4C31B8
:102FB000039A029B00F0F6FA00984068C006E8BB4E
:102FC000FFE70498006842F20001C4F20101884260
:102FD00024D0FFE70498006842F20011C4F2010116
:102FE000884208D1FFE742F20430C4F201000068D1
:102FF000C00698B1FFE70498006842F20021C4F2CD
:103000000101884219D1FFE742F20430C4F2010005
:10301000006800F01F000F280FD8FFE70498006831
:10302000806810F0405F07D1FFE704980168886866
:1030300040F080408860FFE7FFE717E004980068F1
:1030400042F20001C4F2010188420ED1FFE7049868
:103050000068806810F0405F07D1FFE704980168BE
:10306000886840F080408860FFE7FFE70AE0049945
:10307000086C40F0100008640499486C40F00100AE
:103080004864FFE700208DF81700FFE79DF8170060
:1030900006B080BD80B582B00090009820B9FFE7EF
:1030A00001208DF8070011E00098407938B9FFE75A
:1030B000009900200871009800F00CF8FFE70099D3
:1030C0000120487100208DF80700FFE79DF80700F8
:1030D00002B080BD82B001900198006843F2000107
:1030E000C4F20201884212D1FFE7FFE700200090FE
:1030F00043F63000C4F20200016841F480510160DF
:10310000006800F4805000900098FFE7FFE702B0ED
:103110007047000080B586B005900020039040F213
:103120003800C2F20000006848F2B511C1F64E3115
:10313000A0FB0110800A02900598806D0190019813
:103140000068049004980599C96DC84000070028DC
:103150001AD5FFE70598006800684007002812D5D7
:10316000FFE705980168086820F0040008600598EA
:10317000C16D08208840019988600599486D40F02C
:1031800001004865FFE7FFE704980599C96DC8404D
:10319000C007A0B1FFE70598006840690006002855
:1031A0000CD5FFE70598C16D012088400199886022
:1031B0000599486D40F002004865FFE7FFE7049875
:1031C0000599C96DC8404007002814D5FFE7059848
:1031D00000680068800700280CD5FFE70598C16DDE
:1031E00004208840019988600599486D40F00400EA
:1031F0004865FFE7FFE704980599C96DC840C00618
:10320000002847D5FFE705980068006800070028F8
:103210003FD5FFE70598C16D10208840019988606F
:10322000059800680068400300281AD5FFE7059854
:10323000006800680003002809D4FFE70598006CC7
:1032400020B1FFE70598016C8847FFE708E0059883
:10325000806C20B1FFE70598816C8847FFE7FFE7A6
:1032600016E0059800680068C005002807D4FFE74D
:1032700005980168086820F008000860FFE70598D5
:10328000006C20B1FFE70598016C8847FFE7FFE776
:10329000FFE7FFE704980599C96DC840800600283C
:1032A00040F18D80FFE7059800680068C00600289F
:1032B00040F18480FFE70598C16D20208840019986
:1032C0008860059890F83500052834D1FFE7059807
:1032D0000168086820F016000860059801684869D0
:1032E00020F0800048610598006C20B9FFE7059840
:1032F000806C38B1FFE705980168086820F0080085
:103300000860FFE70598C16D3F20884001998860FB
:103310000599012081F83500FFE70599002081F823
:103320003400FFE70598006D20B1FFE70598016DB7
:103330008847FFE77BE005980068006840030028A5
:103340001AD5FFE70598006800680003002809D433
:10335000FFE70598406C20B1FFE70598416C88476E
:10336000FFE708E00598C06B20B1FFE70598C16B47
:103370008847FFE7FFE720E0059800680068C00580
:10338000002811D4FFE705980168086820F01000B4
:1033900008600599012081F83500FFE705990020B4
:1033A00081F83400FFE7FFE70598C06B20B1FFE725
:1033B0000598C16B8847FFE7FFE7FFE7FFE7059840
:1033C000406DA0B3FFE70598406DC00730B3FFE73D
:1033D0000599052081F8350005980168086820F0F6
:1033E00001000860FFE703980130039002998842CA
:1033F00001D9FFE707E0FFE7059800680068C0070C
:103400000028F0D1FFE70599012081F83500FFE79A
:103410000599002081F83400FFE7FFE70598C06CAC
:1034200020B1FFE70598C16C8847FFE7FFE706B0CA
:1034300080BD000080B586B004900020039000F0AD
:1034400009FD0290049820B9FFE701208DF81700CC
:10345000A3E00498406A08B1FFE7FFE7049902205F
:1034600081F83500FFE70499002081F83400FFE778
:1034700004980168086820F001000860FFE70498DC
:1034800000680068C00790B1FFE700F0E3FC029914
:10349000401A06280AD3FFE70499202048650499BA
:1034A000032081F835008DF8170076E0E7E70498EF
:1034B000006800680390039848F23F01CFF21001C2
:1034C00008400390049900914868D1F808C0CB687F
:1034D0000A6940EA0C00184310434A6910438A699C
:1034E0001043CA691043096A0143039808430390D3
:1034F0000498406A042808D1FFE70499C86A096B58
:103500000143039808430390FFE70398049909686F
:1035100008600498006840690390039820F0070051
:1035200003900498416A0398084303900498406A02
:1035300004281AD1FFE70498816A0398084303908E
:103540000498C06A80B1FFE70498FEF787FE50B187
:10355000FFE70499402048650499012081F835006F
:103560008DF8170019E0FFE7FFE703980499096851
:1035700048610498FEF746FE01900498C16D3F2013
:10358000884001998860049900204865049A0121C7
:1035900082F835108DF81700FFE79DF8170006B088
:1035A00080BD000080B588B0069005910492039319
:1035B00000208DF80B000698806D0190FFE70698BB
:1035C00090F83400012804D1FFE702208DF81F0095
:1035D00045E00699012081F83400FFE7FFE70698EF
:1035E00090F8350001282BD1FFE70699022081F8D9
:1035F000350006990020486506980599049A039BB2
:10360000FEF7A4FE0698C16D3F20884001998860AE
:1036100006980168086840F0160008600698006C7B
:1036200038B1FFE706980168086840F008000860B4
:10363000FFE706980168086840F00100086009E0AB
:10364000FFE70699002081F83400FFE702208DF89B
:103650000B00FFE79DF80B008DF81F00FFE79DF8BA
:103660001F0008B080BD000080B584B0039000F05A
:10367000F1FB0290039801900198013048B1FFE7F7
:1036800040F26810C2F200000178019808440190ED
:10369000FFE7FFE700F0DEFB0299401A019988423C
:1036A00001D2FFE7F6E704B080BD000080B586B028
:1036B0000490039101208DF80B0000200190FFE79A
:1036C00042F27050C2F20000007E012804D1FFE7F0
:1036D00002208DF817006CE042F27051C2F2000136
:1036E00001200876FFE7FFE74CF25030FFF724F89F
:1036F0008DF80B009DF80B0000284DD1FFE70399D2
:103700004FF0FF30086004980068012814D1FFE7EB
:103710000499087C4968FEF713FF4CF25030FFF71C
:103720000BF88DF80B0043F61041C4F20201086853
:1037300020F0040008602CE0049880680190FFE706
:10374000019804998A68C9681144884220D2FFE729
:1037500001980499097CFEF75FFE4CF25030FEF7A9
:10376000EBFF8DF80B0043F61041C4F2020108682C
:1037700020F0FA0008609DF80B0020B1FFE70198E7
:103780000399086004E0FFE7019801300190D7E752
:10379000FFE7FEF783FEFFE7FFE742F27051C2F258
:1037A000000100200876FFE79DF80B008DF8170058
:1037B000FFE79DF8170006B080BD000043F61041FA
:1037C000C4F20201086840F0004008600020704721
:1037D00080B588B0069005910393029201208DF880
:1037E0000700FFE742F27050C2F20000007E01289D
:1037F00004D1FFE702208DF81F0051E042F2705122
:10380000C2F2000101200876FFE7FFE74CF25030DA
:10381000FEF792FF8DF807009DF8070098BBFFE7C1
:10382000069830B9FFE705989DF80810FEF7A2FE4C
:103830001AE00698012806D1FFE70598BDF80810A0
:10384000FEF7CEFE0FE00698022805D1FFE70598A7
:103850000299FEF7DFFE05E00598029A039BFEF74A
:10386000A1FEFFE7FFE7FFE74CF25030FEF764FFF1
:103870008DF8070043F61041C4F20201086820F0F9
:1038800001000860FFE7FFE742F27051C2F2000159
:1038900000200876FFE79DF807008DF81F00FFE77E
:1038A0009DF81F0008B080BD81B000208DF8030096
:1038B00043F61040C4F202000068C00FD8B1FFE721
:1038C00043F60441C4F2020140F22310C4F26750EF
:1038D000086048F6AB10CCF6EF50086043F6104095
:1038E000C4F202000068C00F20B1FFE701208DF88C
:1038F0000300FFE7FFE79DF8030001B070470000F9
:1039000080B582B0ADF80600BDF8060010281BD1C6
:10391000FFE741F2C561C2F20001087840F0010002
:10392000087041F2C461C2F20001087840F0010061
:10393000087042F22550C2F20000007818B1FFE78B
:103940000FF03EFAFFE747E0BDF80600202813D14C
:10395000FFE741F6C801C2F20001087840F001001B
:10396000087042F22550C2F20000007818B1FFE75B
:103970000FF026FAFFE72EE0BDF80600012829D156
:10398000FFE742F22451C2F200010120087011F059
:10399000FFFF01281DD0FFE740F20820C2F200001F
:1039A000006840F20021C2F20001009111F05CF8C1
:1039B0000098006860B1FFE74EF60451CEF20001B6
:1039C0004FF080500860BFF34F8FBFF36F8FFFE75A
:1039D000FFE7FFE7FFE7FFE702B080BD80B582B0F9
:1039E000ADF8060043F61440C4F201000068BDF8CB
:1039F000061008420CD0FFE7BDF8060043F614415C
:103A0000C4F201010860BDF80600FFF779FFFFE787
:103A100002B080BD8EB00D900C9100200A900990EC
:103A200008900B90FFE70B980F2800F2CC81FFE77E
:103A30000B99012088400A900C9800680A99084068
:103A4000099009980A99884240F0B881FFE70C98DC
:103A5000406800F00300012807D0FFE70C98406899
:103A600000F0030002282FD1FFE70D98806808902E
:103A70000B984100032000FA01F108988843089050
:103A80000C98C0680B99490000FA01F108980843A6
:103A9000089008980D9988600D98406808900B99D7
:103AA000012000FA01F10898884308900C984068BA
:103AB000C0F300100B9900FA01F108980843089030
:103AC00008980D994860FFE70C98406800F00300E3
:103AD000032818D0FFE70D98C06808900B984100A4
:103AE000032000FA01F10898884308900C98806838
:103AF0000B99490000FA01F10898084308900898CA
:103B00000D99C860FFE70C98406800F00300022898
:103B100026D1FFE70D980B996FF0030202EA5101DD
:103B20000844006A08900B9800F0070081000F20FD
:103B300000FA01F10898884308900C9800690B99E5
:103B400001F00701890000FA01F108980843089084
:103B500008980D990B9B02EA530211440862FFE793
:103B60000D98006808900B984100032000FA01F1BD
:103B70000898884308900C98406800F003000B995F
:103B8000490000FA01F108980843089008980D9937
:103B900008600C9880798007002800F00E81FFE70C
:103BA000FFE70020079043F64400C4F202000168DA
:103BB00041F480410160006800F48040079007985C
:103BC000FFE70B9820F0030043F60801C4F201015F
:103BD000405808900B9800F0030081000F2000FA75
:103BE00001F10898884308900D980021C4F2020161
:103BF000884203D1FFE7002006905EE00D9840F276
:103C00000041C4F20201884203D1FFE70120059080
:103C100050E00D9840F60001C4F20201884203D141
:103C2000FFE70220049042E00D9840F60041C4F204
:103C30000201884203D1FFE70320039034E00D988E
:103C400041F20001C4F20201884203D1FFE70420DF
:103C5000029026E00D9841F20041C4F20201884230
:103C600003D1FFE70520019018E00D9841F600010F
:103C7000C4F20201884203D1FFE7062000900AE067
:103C80000D9941F60042C4F202020820914208BF99
:103C900007200090FFE700980190FFE7019802904D
:103CA000FFE702980390FFE703980490FFE704986A
:103CB0000590FFE705980690FFE70698C0B20B99BC
:103CC00001F00301890000FA01F108980843089007
:103CD00008980B9921F0030143F60802C4F201028F
:103CE000885043F60840C4F2010000680890099922
:103CF0000898884308900C988079C006002805D55C
:103D0000FFE70999089808430890FFE7089843F6E9
:103D10000841C4F20101086043F60C40C4F20100FE
:103D20000068089009990898884308900C98807951
:103D30008006002805D5FFE70999089808430890F0
:103D4000FFE7089843F60C41C4F20101086043F60E
:103D50000440C4F20100006808900999089888435B
:103D600008900C9880798007002805D5FFE709990D
:103D7000089808430890FFE7089843F60441C4F206
:103D80000101086043F60040C4F201000068089099
:103D900009990898884308900C988079C00728B141
:103DA000FFE70999089808430890FFE7089843F649
:103DB0000041C4F201010860FFE7FFE7FFE70B984D
:103DC00001300B902FE60EB07047000082B00190DA
:103DD000ADF8021001980069BDF80210084204D045
:103DE000FFE701208DF8010003E000208DF80100BD
:103DF000FFE79DF8010002B07047000083B0029019
:103E0000ADF80610029840690090009ABDF80600CF
:103E100002EA0001904340EA01400299886103B040
:103E20007047000082B00190ADF802108DF80120BB
:103E30009DF8010028B1FFE7BDF8020001998861F3
:103E400005E0BDF80200000401998861FFE702B0B7
:103E50007047000046F22830C2F200000068704748
:103E600080B58EB00C900C9820B9FFE701208DF83A
:103E7000370043E10C9890F83D0040B9FFE70C99FA
:103E8000002081F83C000C9800F03CF9FFE70C9909
:103E9000242081F83D000C980168086820F001009A
:103EA00008600C980168086840F4004008600C98AD
:103EB0000168086820F40040086001F091FD0A9054
:103EC0000C98406848F2A061C0F2010188420BD80A
:103ED000FFE70A9948F28042C0F21E020020914298
:103EE00038BF012009900AE00A9940F60012C0F29A
:103EF0003D020020914238BF01200990FFE7099858
:103F0000012804D1FFE701208DF83700F6E00A9878
:103F10004DF68361C4F21B31A0FB0110800C0B90A5
:103F20000C980068406820F03F000B9908430C99FA
:103F3000096848600C980068006A20F03F0008900B
:103F40000C98406848F2A061C0F20101884204D890
:103F5000FFE70B98013007900EE00B984FF4967135
:103F6000484344F6D351C1F26201A0FB0101012094
:103F700000EB91100790FFE70898079908430C9908
:103F8000096808620C980068C0694CF6FF718843A4
:103F900006900C98406848F2A061C0F20101884286
:103FA0001FD8FFE70A9801380C9949684900B0FB0F
:103FB000F1F001306FF31F30032803D8FFE704202E
:103FC00005900BE00A9801380C9949684900B0FB4C
:103FD000F1F001306FF31F300590FFE70598049072
:103FE0004CE00C98806868B9FFE70A9801380C9992
:103FF000496801EB4101B0FBF1F001306FF31F3074
:1040000003900DE00A9801380C9949681922514330
:10401000B0FBF1F00130042161F31F300390FFE7A2
:104020000398000518B9FFE70120029023E00C98DF
:10403000806868B9FFE70A9801380C99496801EB74
:104040004101B0FBF1F001306FF31F3001900DE042
:104050000A9801380C99496819225143B0FBF1F0D4
:104060000130042161F31F300190FFE7019840F413
:1040700000400290FFE702980490FFE70698049939
:1040800008430C990968C8610C980068006820F022
:10409000C0000C9B1968DA691B6A1A431043086058
:1040A0000C980068806848F2FF3188430C9A1168C8
:1040B000D36812691A43104388600C980068C0687E
:1040C00020F0FF000C9B19685A699B691A43104342
:1040D000C8600C980168086840F0010008600C99FD
:1040E000002008640C9A202182F83D100C99086386
:1040F0000C9981F83E008DF83700FFE79DF83700F6
:104100000EB080BD80B58AB009900020089007905D
:104110000690059004900998006845F20041C4F2A9
:104120000001884234D1FFE7FFE70020039043F607
:104130003000C4F20200016841F002010160006831
:1041400000F0020003900398FFE7C02004901220C3
:10415000059000200690032007900420089040F26C
:104160000040C4F2020004A9FFF754FCFFE700205E
:10417000029043F64000C4F20200016841F40011CD
:104180000160006800F4001002900298FFE73EE032
:104190000998006845F60001C4F20001884235D153
:1041A000FFE7FFE70020019043F63000C4F2020071
:1041B000016841F002010160006800F00200019016
:1041C0000198FFE74FF44060049012200590002012
:1041D0000690032007900420089040F20040C4F2AB
:1041E000020004A9FFF716FCFFE70020009043F649
:1041F0004000C4F20200016841F4800101600068DF
:1042000000F4800000900098FFE7FFE7FFE70AB0A6
:1042100080BD000040F26810C2F20000027846F251
:104220002831C2F20001086810440860704700009D
:1042300080B543F60041C4F20201086840F4007002
:104240000860086840F480600860086840F4807086
:104250000860032000F0CEF80F2000F005F800F011
:1042600079F8002080BD000080B58CB00B90002054
:1042700004900390FFE70020009043F64000C4F252
:104280000200016841F001010160006800F00100D6
:1042900000900098FFE706A802A901F071FB0998B9
:1042A0000490049820B9FFE701F09AFB059004E020
:1042B00001F096FB40000590FFE705984DF68361FD
:1042C000C4F21B31A0FB01014FF0FF3000EB914025
:1042D000039042F20440C2F200004FF080410160BE
:1042E00040F2E731C16003994160002101618160C2
:1042F000816102F053FB8DF807009DF8070028BB91
:10430000FFE742F20440C2F2000002F099FB8DF890
:1043100007009DF80700C0B9FFE71C2000F046F831
:104320000B980F280CD8FFE70B991C20002200F0F7
:1043300047F80B9840F26C11C2F20001086003E0EC
:1043400001208DF80700FFE7FFE7FFE79DF8070072
:104350000CB080BD80B582B0FFE70020019043F62D
:104360004400C4F20200016841F480410160006829
:1043700000F4804001900198FFE7FFE700200090E3
:1043800043F64000C4F20200016841F08051016030
:10439000006800F0805000900098FFE76FF0010087
:1043A0000F21002200F00CF802B080BD80B582B071
:1043B0008DF807009DF907000DF0DAFF02B080BD0F
:1043C00080B586B08DF8170004910392002002900A
:1043D0000DF0E6FF02909DF91700019002980499F4
:1043E000039A03F0BFFE014601980DF0E1FF06B00D
:1043F00080BD000080B582B0019001980DF0FAFFF9
:1044000002B080BD82B001908DF8031002B07047F9
:1044100082B00190ADF80210BDF802000199096860
:104420004862002002B0704784B003908DF80B10F2
:10443000ADF8082003980068406A00909DF80B00D2
:1044400048B9FFE7BDF80810009840EA0140039919
:104450000968886233E003980068816A009800EB7D
:104460001140009000208DF80700FFE79DF807003D
:104470009DF80B100139884213D2FFE703980068BA
:104480009DF8071000EB8100D0F80411009800EBB4
:1044900011400090FFE79DF8070001308DF80700FC
:1044A000E4E7BDF80810009840EA01400399096864
:1044B0009DF80B2001EB8201C1F80001FFE700200D
:1044C00004B0704780B582B001900198D0F8E00444
:1044D0000BF088FD02B080BD80B582B001908DF8F0
:1044E0000310019AD2F8E0049DF8031001EBC10318
:1044F00002EB8302126A0BF0D3FB02B080BD000016
:1045000080B582B001908DF80310019AD2F8E004D2
:104510009DF8031001EBC10302EB8302D2F8602285
:104520000BF086FC02B080BD80B582B0019001988E
:10453000D0F8E0040BF05CFD02B080BD80B584B023
:1045400003908DF80B109DF80B00000600280CD589
:10455000FFE703989DF80B1001F00F0101EBC1017B
:1045600000EB8100143001900CE003989DF80B10D3
:1045700001F00F0101EBC10100EB810000F51570A6
:104580000190FFE70398006801990DF0ADFA8DF8EE
:104590000A009DF80A0004B080BD000080B584B018
:1045A00002908DF807109DF80700000600280FD52F
:1045B000FFE702989DF8071001F00F0101EBC10120
:1045C00000EB8100143000900099012048700FE04A
:1045D00002989DF8071001F00F0101EBC10100EBFB
:1045E000810000F515700090009900204870FFE7E9
:1045F0009DF8070000F00F0000990870FFE702988F
:1046000090F89404012804D1FFE702208DF80F00F0
:1046100014E00299012081F89404FFE7FFE7029873
:10462000006800990CF050FDFFE70299002081F826
:104630009404FFE700208DF80F00FFE79DF80F00BE
:1046400004B080BD80B584B002908DF807109DF84D
:10465000070000F00F0002990979884204D9FFE7AA
:1046600001208DF80F004DE09DF80700000600289E
:104670000FD5FFE702989DF8071001F00F0101EB3D
:10468000C10100EB810014300090009901204870B6
:104690000FE002989DF8071001F00F0101EBC10136
:1046A00000EB810000F51570009000990020487023
:1046B000FFE70099002088709DF8070000F00F00C8
:1046C00000990870FFE7029890F89404012804D13B
:1046D000FFE702208DF80F0014E00299012081F815
:1046E0009404FFE7FFE70298006800990CF05CFF74
:1046F000FFE70299002081F89404FFE700208DF87D
:104700000F00FFE79DF80F0004B080BD82B001905C
:104710008DF8031001989DF8031001F00F0101EBD3
:10472000C10100EB8100D0F8680202B070470000C0
:1047300080B586B004908DF80F10ADF80C208DF880
:104740000B3000208DF80A009DF80F0000060028AD
:104750000FD5FFE704989DF80F1001F00F0101EB52
:10476000C10100EB810014300190019901204870D3
:104770000FE004989DF80F1001F00F0101EBC1014B
:1047800000EB810000F51570019001990020487040
:10479000FFE79DF80F0000F00F0001990870BDF8C9
:1047A0000C006FF3DF20019988609DF80B000199E0
:1047B00008710198407820B1FFE701990878488393
:1047C000FFE79DF80B00022804D1FFE701990020C4
:1047D0004871FFE7FFE7049890F89404012804D19A
:1047E000FFE702208DF8170015E00499012081F8F9
:1047F0009404FFE7FFE70498006801990CF036FB8A
:10480000FFE70499002081F89404FFE79DF80A006F
:104810008DF81700FFE79DF8170006B080BD000077
:1048200080B586B005908DF8131003920293059819
:104830009DF8131001F00F0101EBC10100EB8100A5
:1048400000F51570019003980199C86002980199CC
:104850000861019900204861019948709DF8130092
:1048600000F00F000199087005988079012804D1A3
:10487000FFE703980199C861FFE7059A106801995D
:1048800092790CF035FF002006B080BD80B584B071
:1048900002908DF807109DF8070000F00F000299B4
:1048A0000979884204D9FFE701208DF80F0058E00C
:1048B0009DF80700000600280FD5FFE702989DF835
:1048C000071001F00F0101EBC10100EB8100143072
:1048D00000900099012048700DE002989DF80710A3
:1048E00001EBC10100EB810000F51570009000990B
:1048F00000204870FFE70099012088709DF80700AC
:1049000000F00F0000990870FFE7029890F89404F7
:10491000012804D1FFE702208DF80F0021E0029961
:10492000012081F89404FFE7FFE7029800680099EE
:104930000CF08AFE9DF80700000740B9FFE7029AD5
:104940001068917902F29C420CF0DEFDFFE7FFE770
:104950000299002081F89404FFE700208DF80F00F1
:10496000FFE79DF80F0004B080BD000080B586B061
:1049700005908DF813100392029305989DF813107B
:1049800001F00F0101EBC10100EB81001430019037
:1049900003980199C8600298019908610199002063
:1049A00048610199012048709DF8130000F00F0044
:1049B0000199087005988079012804D1FFE70398D0
:1049C0000199C861FFE7059A1068019992790CF086
:1049D0008FFE002006B080BD80B58CB00B900B9888
:1049E00000680A900A9809900B9800680DF0B2F9D7
:1049F000002840F00B84FFE70B9800680DF016FAD2
:104A000010B9FFE700F002BC0998D0F80808C0F31D
:104A10000D200B99C1F8D4040B9800680DF006FA2C
:104A20008007002807D5FFE70B980168486900F068
:104A300002004861FFE70B9800680DF0F7F9C00627
:104A4000002862D5FFE70B980168886920F0100004
:104A500088610A98006A02900B98029901F00F0190
:104A600001EBC10100EB810000F515700890029880
:104A700000F4F0110220B0EB514F23D1FFE7BDF855
:104A8000080047F6F07108421BD0FFE70A98089922
:104A9000C968029AC2F30A120DF0D6F9029847F6D5
:104AA000F07100EA0103089AD06800EB1310D0609F
:104AB000029800EA01020899486900EB1210486167
:104AC000FFE71BE0029800F4F0110620B0EB514F15
:104AD00012D1FFE70A980B9901F29C4108220DF0D0
:104AE000B3F9029847F6F07100EA010208994869A3
:104AF00000EB1210486100E0FFE7FFE70B98016848
:104B0000886940F010008861FFE70B9800680DF09D
:104B10008DF90003002840F1A680FFE700200490F3
:104B20000B9800680DF030F90690FFE70698002812
:104B300000F09880FFE79DF81800C007002800F0FB
:104B40008A80FFE70B9800689DF810100DF056F969
:104B500005909DF81400C00760B1FFE7099804991B
:104B600000EB41110120C1F8080B0B98049903F0E8
:104B70007DFBFFE79DF81400000700280CD5FFE738
:104B80000998049900EB41110820C1F8080B0B9813
:104B9000049903F025FBFFE79DF81400C0060028E8
:104BA00008D5FFE70998049900EB41111020C1F8DE
:104BB000080BFFE79DF81400800700282DD5FFE7BC
:104BC0000A9840690006002808D5FFE70999D1F83E
:104BD000040840F48060C1F80408FFE70B980499CA
:104BE00001EBC10100EB810000F5157008900898F9
:104BF000C078012809D1FFE708990020C8700B98F8
:104C00009DF8101000F012FBFFE70998049900EBE3
:104C100041110220C1F8080BFFE79DF8140080063F
:104C2000002808D5FFE70998049900EB41112020DE
:104C3000C1F8080BFFE79DF815008006002809D58C
:104C4000FFE70998049900EB41114FF40050C1F8B7
:104C5000080BFFE7FFE7049801300490069840082E
:104C6000069063E7FFE70B9800680DF0DFF840035C
:104C7000002840F1C680FFE70B9800680DF072F83D
:104C8000069000200490FFE70698002800F0B88006
:104C9000FFE79DF81800C007002800F0AA80FFE792
:104CA0000B9800689DF810100DF080F805909DF8A5
:104CB0001400C00700283ED0FFE7049800F00F0161
:104CC000012000FA01F10391039B099AD2F83418EC
:104CD0009943C2F834180999049A01EB4211C1F8BA
:104CE00008090B98807901281FD1FFE70B980499D8
:104CF00001EBC10100EB8101CA69086A1044086236
:104D0000049888B9FFE70B98049901EBC10100EB07
:104D10008100406A40B9FFE70B99086801F29C42A4
:104D200001210CF0F1FBFFE7FFE70B989DF8101055
:104D3000FFF7D2FBFFE79DF814000007002808D515
:104D4000FFE70998049900EB41110820C1F8080910
:104D5000FFE79DF81400C006002808D5FFE7099872
:104D6000049900EB41111020C1F80809FFE79DF8F4
:104D700014004006002808D5FFE70998049900EBC5
:104D800041114020C1F80809FFE79DF81400800791
:104D9000002822D5FFE70A9804990CF077FF0B98BA
:104DA000049901EBC10100EB8100143008900898D0
:104DB000C078012809D1FFE708990020C8700B9836
:104DC0009DF8101000F024FAFFE70998049900EB11
:104DD00041110220C1F80809FFE79DF81400000600
:104DE000002805D5FFE70B98049903F023FBFFE7A4
:104DF000FFE704980130049006984008069043E7C6
:104E0000FFE70B9800680DF011F8C00F00B3FFE743
:104E10000999D1F8040820F00100C1F804080B98A2
:104E200090F8CC04012808D1FFE70B98002180F806
:104E3000CC140B98FFF7E6FA03E00B9800F0C2FBE6
:104E4000FFE70B980168486900F000404861FFE700
:104E50000B9800680CF0EAFF0005002811D5FFE769
:104E60000998D0F80808C00720B1FFE70B9800F0B8
:104E700035FCFFE70B980168486900F40060486161
:104E8000FFE70B9800680CF0D1FFC004002840F148
:104E90008680FFE70999D1F8040820F00100C1F8E5
:104EA00004080B98006810210CF0F0FE0020079019
:104EB000FFE707980B990979884231D2FFE70998F3
:104EC000079900EB41114FF67F30C1F808090999A5
:104ED000079A01EB4212D2F8001921F40011C2F82E
:104EE00000190999079A01EB4211C1F8080B0998BA
:104EF000079900EB4111D1F8000B20F40010C1F824
:104F0000000B0998079900EB4111D1F8000B40F014
:104F10000060C1F8000BFFE7079801300790C8E771
:104F20000999D1F81C0840F00110C1F81C080B9831
:104F3000C07B78B1FFE70999D1F8840840F00B00F5
:104F4000C1F884080999D1F8440840F00B00C1F871
:104F500044080FE00999D1F8140842F22B021043DB
:104F6000C1F814080999D1F8100840F00B00C1F8F5
:104F70001008FFE70999D1F8000820F4FE60C1F895
:104F800000080B9A1068917902F29C420CF0BCFA6E
:104F90000B980168486900F480504861FFE70B985E
:104FA00000680CF043FF800400281FD5FFE70B9832
:104FB00000680BF0CBFF0B9800680CF0A5FE0B9976
:104FC000C8710B980068019000F004FD014601983B
:104FD0000B9AD2790DF030F80B9800F0C9FA0B98C3
:104FE0000168486900F400504861FFE70B980068C9
:104FF0000CF01CFF000700280AD5FFE70B9800F013
:10500000EBFA0B980168486900F008004861FFE777
:105010000B9800680CF00AFF0006002825D5FFE772
:105020000A99886920F08000886101200490FFE7D8
:1050300004980B990979884216D2FFE70B980499D6
:1050400001EBC10100EB810090F85702012806D165
:10505000FFE70B989DF81010FFF770FAFFE7FFE7E6
:10506000049801300490E3E7FFE70B9800680CF028
:10507000DDFEC00200283CD5FFE701200490FFE7D9
:1050800004980B99097988422CD2FFE70998049972
:1050900000EB4110D0F8000902900B98049901EB45
:1050A000C10100EB8100007E012816D1FFE79DF8C9
:1050B0000B000006002810D5FFE70B98049901EBC0
:1050C000C10100EB81010120C8750B989DF81010FB
:1050D00041F08001FFF732FAFFE7FFE70498013063
:1050E0000490CDE70B980168486900F4801048618E
:1050F000FFE70B9800680CF099FE8002002855D558
:10510000FFE701200490FFE704980B990979884292
:1051100045D2FFE70998049900EB4110D0F8000B45
:1051200002900B98049901EBC10100EB810090F80B
:10513000580201282ED1FFE79DF80B000006002839
:1051400028D5FFE7029800F480300B99D1F8D414E9
:1051500001F0010188421DD1FFE70B98049901EB92
:10516000C10100EB8101012081F857020A99886989
:1051700040F0800088610A9840690006002808D441
:10518000FFE70999D1F8040840F40070C1F8040859
:1051900005E0FFE7FFE7049801300490B4E70B98BF
:1051A0000168486900F400104861FFE70B98006847
:1051B0000CF03CFE400000280AD5FFE70B98FFF7F3
:1051C00081F90B980168486900F080404861FFE769
:1051D0000B9800680CF02AFE4007002815D5FFE761
:1051E0000B980068406802909DF80800400700286E
:1051F00004D5FFE70B98FFF797F9FFE7029A0B98A2
:105200000168486810434860FFE7FFE70CB080BDC5
:1052100080B582B001908DF803100198D0F8E004B9
:105220009DF803100AF080FF02B080BD80B582B007
:1052300001908DF803100198D0F8E0049DF8031058
:105240000AF0AAFF02B080BD80B58EB00C900C9819
:1052500020B9FFE701208DF8370012E10C980068B3
:105260000B900C9890F8950440B9FFE70C9900203A
:1052700081F894040C9800F009F9FFE70C990320D9
:1052800081F895040B98B0F1A04F04D1FFE70C9979
:1052900000208871FFE70C9800680CF02BF90C9B3C
:1052A0001868197C8DF8241059689A68DB6808938F
:1052B000079206910699079A089BDDF824C0EE46EE
:1052C000CEF800C00BF058FE40B1FFE70C99022069
:1052D00081F8950401208DF83700D2E00C98006821
:1052E00000210CF00BFE40B1FFE70C99022081F881
:1052F000950401208DF83700C3E000208DF82B00C5
:10530000FFE79DF82B000C990979884241DAFFE705
:105310000C989DF82B1001EBC10100EB81010120DD
:1053200048759DF82B000C9900EBC00201EB82013F
:1053300008759DF82B000C9900EBC00201EB82016F
:10534000C8850C989DF82B1001EBC10100EB810181
:10535000002008760C999DF82B2002EBC20201EB8D
:105360008201C8610C999DF82B2002EBC20201EB6F
:10537000820108620C999DF82B2002EBC20201EB1E
:1053800082014862FFE79DF82B0001308DF82B0069
:10539000B7E700208DF82B00FFE79DF82B000C9954
:1053A000097988423EDAFFE70C989DF82B1001EB53
:1053B000C10100EB8101002081F855029DF82B10FE
:1053C0000C9A01EBC10302EB830282F854120C9990
:1053D0009DF82B2002EBC20201EB820181F85802FA
:1053E0000C999DF82B2002EBC20201EB8201C1F85F
:1053F0005C020C999DF82B2002EBC20201EB8201AA
:10540000C1F860020C999DF82B2002EBC20201EB5F
:105410008201C1F86402FFE79DF82B0001308DF88E
:105420002B00BAE70C9B1868197C8DF8141059688A
:105430009A68DB680493039202910299039A049B91
:10544000DDF814C0EE46CEF800C00BF005FF40B109
:10545000FFE70C99022081F8950401208DF83700B0
:105460000FE00C990020019048740C99012081F8FC
:1054700095040C9800680BF0D9FE01988DF8370060
:10548000FFE79DF837000EB080BD000080B58EB0FC
:105490000D9000200C900B900A90099008900D98A8
:1054A0000068B0F1A04F60D1FFE7FFE70020079050
:1054B00043F63000C4F20200016841F001010160CE
:1054C000006800F0010007900798FFE74FF40060C4
:1054D000089002200190099000200A900320029079
:1054E0000B900A2003900C900020C4F2020004905C
:1054F00008A90591FEF78EFADDF804C0029B039A15
:10550000049805994FF4805ECDF820E0CDF824C0D2
:105510004FF0010CCDF828C00B930C92FEF77AFAED
:10552000FFE743F63401C4F20201086840F080004E
:105530000860FFE70020069043F64400C4F2020032
:10554000016841F480410160006800F480400690E9
:105550000698FFE7FFE74320009005210022FEF7B1
:105560002FFF0098FEF722FFFFE70EB080BD00007E
:1055700080B582B0019001208DF803000198C079B8
:1055800020B9FFE700208DF803000CE00198C079F6
:10559000022804D1FFE701208DF8030002E0FCF7A8
:1055A00037FFFFE7FFE70198D0F8E0049DF803100C
:1055B0000AF0F2FE0198D0F8E0040AF06DFE02B0A5
:1055C00080BD000080B582B001900198D0F8E00461
:1055D0000AF0B0FE02B080BD80B582B001900198A3
:1055E000D0F8E0040AF0B8FE02B080BD80B584B007
:1055F00002908DF80710FFE7029890F894040128B4
:1056000004D1FFE702208DF80F0019E00299012074
:1056100081F89404FFE7FFE79DF8070002994874BA
:10562000029800689DF807100CF0D8FCFFE702997B
:10563000002081F89404FFE700208DF80F00FFE7B9
:105640009DF80F0004B080BD80B582B00190019933
:10565000D1F8E00401F29C410AF0C8FE02B080BD1E
:1056600080B584B00290029800680190FFE702982C
:1056700090F89404012804D1FFE702208DF80F0070
:1056800028E00299012081F89404FFE7FFE70198E0
:10569000C068400600280BD5FFE70298407B012830
:1056A00006D1FFE70199886B40F480308863FFE7FB
:1056B000029800680CF0A6FA029800680BF0A0FDB2
:1056C000FFE70299002081F89404FFE700208DF89D
:1056D0000F00FFE79DF80F0004B080BD80B582B0D9
:1056E00001900198D0F8E0040AF002FF01980168E7
:1056F000D1F8000E40F00100C1F8000E0198C07A08
:1057000048B1FFE74EF61051CEF20001086840F0B4
:1057100006000860FFE702B080BD000080B584B0DD
:1057200002900191029820B9FFE701208DF80F0047
:1057300021E1019843F60041C4F20201096801F039
:105740000701884212D9FFE7019943F60040C4F2ED
:1057500002000170006800F007000199884204D03F
:10576000FFE701208DF80F0005E1FFE702980078C0
:10577000800700282AD5FFE7029800784007002814
:1057800009D5FFE743F60801C4F20201086840F4B6
:10579000E0500860FFE7029800780007002809D56C
:1057A000FFE743F60801C4F20201086840F46040D4
:1057B0000860FFE743F60801C4F20201086820F020
:1057C000F000029A926810430860FFE702980078A0
:1057D000C00700286ED0FFE702984068012811D169
:1057E000FFE743F60000C4F20200006800F4003155
:1057F0000020B0EB514F04D1FFE701208DF80F00DE
:10580000B9E02CE002984068022805D0FFE7029832
:105810004068032811D1FFE743F60000C4F20200FC
:10582000006800F000710020B0EB516F04D1FFE779
:1058300001208DF80F009EE010E043F60000C4F256
:105840000200006800F002010020B0EB510F04D10B
:10585000FFE701208DF80F008DE0FFE7FFE743F63B
:105860000801C4F20201086820F00300029A52689D
:1058700010430860FEF7EEFA0090FFE743F60800D9
:10588000C4F20200006800F00C0002994968B0EB15
:10589000810F0ED0FFE7FEF7DDFA0099401A41F2C2
:1058A0008931884204D3FFE703208DF80F0062E0BE
:1058B000E4E7FFE7019843F60041C4F202010968FA
:1058C00001F00701884212D2FFE7019943F6004038
:1058D000C4F202000170006800F0070001998842DC
:1058E00004D0FFE701208DF80F0044E0FFE70298A5
:1058F0000078400700280CD5FFE743F60801C4F202
:105900000201086820F4E050029AD268104308604F
:10591000FFE702980078000700280DD5FFE743F65F
:105920000801C4F20201086820F46040029A12697A
:1059300040EAC2000860FFE700F076F843F608018D
:10594000C4F202010968C9B20A0947F2EC71C0F653
:105950000101895CC84040F23801C2F200010860D0
:1059600040F26C10C2F200000068FEF77DFC0020DF
:105970008DF80F00FFE79DF80F0004B080BD000018
:1059800082B00190009101990F20086043F6080051
:10599000C4F20200016801F00301019A516001683C
:1059A00001F0F001019A9160016801F4E051019A5F
:1059B000D160006800F46040C0080199086143F6B6
:1059C0000040C4F20200006800F00700009908607F
:1059D00002B0704740F23800C2F200000068704721
:1059E00080B5FFF7F7FF43F60801C4F2020109682A
:1059F000C1F3822247F2FC71C0F60101895CC84004
:105A000080BD000080B5FFF7E5FF43F60801C4F252
:105A10000201096889B24A0B47F2FC71C0F6010124
:105A2000895CC84080BD000080B586B0002005902C
:105A300004900390029043F60800C4F2020000684C
:105A400000F00C000146019140B1FFE701980428E5
:105A50000AD0FFE7019808280CD04FE042F200403E
:105A6000C0F2F40002904FE041F20020C0F27A0050
:105A7000029049E043F60400C4F20200016801F01C
:105A80003F01059100684002002813D5FFE743F667
:105A90000400C4F202000068C0F3881041F2002143
:105AA000C0F27A01A0FB0101059A0023FAF788FCF5
:105AB000049012E043F60400C4F202000068C0F350
:105AC000881042F20041C0F2F401A0FB0101059AE6
:105AD0000023FAF775FC0490FFE743F60400C4F2D4
