:020000040800F2
:10000000900F002055020008ED3E0008C938000896
:10001000E93E00089D0900081D4F0008000000008F
:10002000000000000000000000000000594100082E
:10003000F50B0008000000005D3F0008B14100081A
:100040006F0200086F0200086F0200086F020008CC
:100050006F0200086F0200086F0200086F020008BC
:100060006F0200086F020008F90B00086F02000819
:100070006F0200086F0200086F0200086F0200089C
:100080006F0200086F0200086F0200086F0200088C
:100090006F0200086F0200086F020008050C0008DC
:1000A0006F0200086F0200086F0200086F0200086C
:1000B0006F0200086F0200086F0200086F0200085C
:1000C0006F0200086F0200086F0200086F0200084C
:1000D0006F0200086F0200086F0200086F0200083C
:1000E0006F0200086F0200086F0200086F0200082C
:1000F0006F0200086F0200086F020008A1090008E3
:100100006F0200086F0200086F0200086F0200080B
:100110006F0200086F0200086F0200086F020008FB
:100120006D0A00086F0200087D0A00088D0A0008A9
:100130006F0200086F0200086F0200086F020008DB
:100140006F0200086F0200086F0200086F020008CB
:100150006F0200086F0200089D0A00086F02000885
:100160006F0200086F0200086F0200086F020008AB
:100170006F0200086F0200086F0200080000000014
:100180006F0200086F02000800F002F800F052F859
:1001900014A696E8000CB244B344DA4501D100F04D
:1001A00049F8BAE80F000FA696E83000A5EB040561
:1001B00004EB0607AAEB0704A7F101074FEA1515A0
:1001C0004FEA3414A4F10104AC4201D300F032F838
:1001D00013F0010F18BFFB1A43F0010300F001F800
:1001E000DBE718477C5100009C510000103A24BF07
:1001F00078C878C1FAD8520724BF30C830C144BF8C
:1002000004680C6070470000704700000023002461
:1002100000250026103A28BF78C1FBD8520728BF16
:1002200030C148BF0B6070471FB505F07EF81FBD99
:1002300010B510BD00F0D5F81146FFF7F5FF05F039
:100240003BF800F0F3F803B4FFF7F2FF03BC00F053
:10025000F7F800000948804709480047FEE7FEE735
:10026000FEE7FEE7FEE7FEE7FEE7FEE7FEE7FEE766
:1002700004480549054A064B7047000075420008CE
:100280008901000890090020900F0020900B0020A9
:10029000900B002053EA020C00F069802DE9F04B2E
:1002A0004FF00006002B1FBFB3FA83F503FA05F4E5
:1002B00024FA05F65E4012BF1643B2FA82F502FA3E
:1002C00005F4C5F120051EBF22FA05FC44EA0C0422
:1002D000203556EA044C4FEA144418BF641C4FF012
:1002E00000084FF00009904271EB030C39D300294C
:1002F00019BFB1FA81F701FA07F6B0FA80F700FAF0
:1003000007F6C7F120071EBF20FA07FC46EA0C06D5
:100310002037B6FBF4FCA7EB0507103F07F01F0BD7
:10032000CBF120062CFA06F60CFA0BFB44BFB346C1
:100330000026202FA4BF5E464FF0000B5BEA060CA0
:1003400008BF4FF0010B19EB0B0948EB0608ABFB9C
:10035000027C06FB02CC0BFB03CCC01B71EB0C0137
:10036000C1E70B46024641464846BDE8F08B13B54F
:10037000084318BF4FF0FF300146AFF30080BDE8DF
:100380001C4070474FF0000200B513469446964655
:10039000203922BFA0E80C50A0E80C50B1F1200198
:1003A000BFF4F7AF090728BFA0E80C5048BF0CC046
:1003B0005DF804EB890028BF40F8042B08BF7047A4
:1003C00048BF20F8022B11F0804F18BF00F8012B16
:1003D00070477047704770470048704738000020EA
:1003E00070477546FFF7F8FFAE460500694653466D
:1003F00020F00700854618B020B5FFF739FFBDE8AB
:1004000020404FF000064FF000074FF000084FF07B
:10041000000BAC46ACE8C009ACE8C009ACE8C009C8
:10042000ACE8C00921F007018D46704710B50446BD
:10043000AFF300802046BDE81040FFF704BF000086
:1004400001491820ABBEFEE72600020082B00190F1
:1004500042F20030C4F2010000900099486820F494
:1004600040304860019842680099486810434860ED
:1004700001980168486820F480704860019801681C
:100480000269486840EA02204860019801684868AB
:1004900020F0407048600198016882684868104305
:1004A000486001980168886820F4006088600198BD
:1004B0000168C2688868104388600198806A0121D9
:1004C000C0F60071884219D0FFE70198016888687A
:1004D00020F07060886001980168826A8868104323
:1004E000886001980168886820F040508860019811
:1004F0000168C26A8868104388600CE0019801684E
:10050000886820F07060886001980168886820F031
:1005100040508860FFE701980168886820F0020079
:1005200088600198027E0168886840EA420088601D
:10053000019890F82000C8B1FFE701980168486869
:1005400040F40060486001980168486820F4604009
:10055000486001980168426A4EF20000CFF6FF70D1
:1005600000EB423248681043486006E00198016899
:10057000486820F400604860FFE701980168C86A95
:1005800020F47000C86201980168C2690020CFF6AB
:10059000F07000EB0252C86A1043C862019801680B
:1005A000886820F400708860019890F83020016815
:1005B000886840EA4220886001980168886820F4D1
:1005C00080608860019801684269886840EA8220FA
:1005D000886002B07047000080B50020C4F20200BD
:1005E0001021012201F064F980BD000080B50020D7
:1005F000C4F202001021002201F05AF980BD00006F
:100600007047000080B540F20040C4F202000122B1
:10061000114601F04DF980BD80B540F20040C4F2B2
:1006200002000121002201F043F980BD7047000063
:1006300080B582B0ADF80600FFE7BDF80600411EA8
:10064000ADF8061028B1FFE74FF47A7000F004F817
:10065000F3E702B080BD000086B0ADF816000020C0
:10066000049003900290019000904EF21400CEF29C
:10067000000000680090BDF81600A82148430490CF
:100680004EF21800CEF2000000680390FFE74EF231
:100690001800CEF200000068029002980399884288
:1006A0001ED0FFE702980399884207D2FFE703981C
:1006B0000299411A01980844019008E000980299B3
:1006C000401A03990144019808440190FFE70298F9
:1006D000039001980499884201D3FFE701E0FFE706
:1006E000D5E706B07047000080B582B000208DF8D5
:1006F0000700FFF785FFFFF799FF04F071FC014643
:100700009DF8070008438DF8070004F031FD01460D
:100710009DF8070008438DF807009DF8070002B018
:1007200080BD000080B588B007900691059200203A
:10073000009004900390FFF759FF922000F006F913
:10074000122003A90191062200F0CCF8FFF744FF24
:100750009DF80C009DF80D1040EA0120ADF80A004C
:10076000BDF90A0000EE100AB8EEC00A40F200001F
:10077000C2F2000090ED001A20EE010A069981ED08
:10078000000A9DF80E109DF80F2041EA0221ADF8F5
:100790000A10BDF90A1000EE101AB8EEC00A90ED6A
:1007A000001A20EE010A069981ED010A9DF8101049
:1007B0009DF8112041EA0221ADF80A10BDF90A1096
:1007C00000EE101AB8EEC00A90ED001A20EE010AF1
:1007D000069880ED020AFFF71FFF00980199082292
:1007E00000F080F8FFF70EFF9DF80C000F2844D1B1
:1007F000FFE79DF80E009DF80F1040EA0120ADF8CC
:100800000A00BDF90A0000EE100AB8EEC00A40F274
:100810000400C2F2000090ED001A20EE010A0799D0
:1008200081ED000A9DF810109DF8112041EA022187
:10083000ADF80A10BDF90A1000EE101AB8EEC00AA1
:1008400090ED001A20EE010A079981ED010A9DF84A
:1008500012109DF8132041EA0221ADF80A10BDF9EB
:100860000A1000EE101AB8EEC00A90ED001A20EE41
:10087000010A079880ED020AFFE7FFF7B7FEA22002
:1008800000F064F8222003A9022200F02BF8FFF701
:10089000A3FE9DF80C009DF80D10C00040EA511019
:1008A000ADF80A00BDF90A00B0F5806F07DBFFE77D
:1008B000BDF80A00A0F50060ADF80A00FFE7BDF939
:1008C0000A0000EE100AB8EEC00AB4EE001A20EEDC
:1008D000010AB3EE071A30EE010A059880ED000A0E
:1008E00008B080BD80B584B08DF80F0002918DF8FE
:1008F00007209DF80F0040F0800000F027F8FFE788
:100900009DF8070070B1FFE7552000F01FF802992D
:1009100008700298013002909DF8070001388DF8A8
:100920000700EDE704B080BD80B582B08DF8070008
:1009300000919DF8070040F0800000F007F8552076
:1009400000F004F80099087002B080BD80B582B054
:100950008DF8070069464FF47A70086040F60C0085
:10096000C2F200000DF107010DF10602012302F0B1
:100970000DFA9DF8060002B080BD000080B582B07F
:100980008DF807008DF806109DF80700FFF7DEFFD1
:100990009DF80600FFF7DAFF02B080BDFFE7FEE733
:1009A00082B046F20400C4F2020000680001002890
:1009B00059D5FFE740F2D420C2F20000406B006836
:1009C00046F25941C4F20201884208D3FFE746F2D9
:1009D0000C41C4F202014FF00060086039E040F2BF
:1009E000D420C2F20000406B006846F2B901C4F2A4
:1009F0000201884209D3FFE746F20841C4F202012E
:100A00004FF000600860019021E040F2D420C2F273
:100A10000000406B006846F25901C4F202018842AE
:100A200009D3FFE746F20C01C4F202014FF0006067
:100A30000860009008E046F20801C4F202014FF09D
:100A4000006008600090FFE700980190FFE70198C0
:100A5000FFE740F2D420C2F200000168086840F4C9
:100A600000700860FFE702B07047000080B540F2F8
:100A70000010C2F2000000F0B3FA80BD80B540F271
:100A8000C010C2F2000000F0ABFA80BD80B540F2A9
:100A90006010C2F2000000F0A3FA80BD80B540F201
:100AA0002020C2F2000000F09BFA80BD82B00190CD
:100AB0000198007810384AF6AB21CAF6AA21A0FBAB
:100AC000011000090090009945F25830C0F600006E
:100AD000405C0199C8650098042807D3FFE7019995
:100AE0000868042262F30900886506E00199086835
:100AF00040F2FF3290438865FFE70198806D02B0B5
:100B00007047000086B0059000208DF8130005980E
:100B1000806A03900598806910BBFFE703980290F4
:100B200003281BD80299DFE801F0020D021805988E
:100B300090F82F00C00720B1FFE701208DF81300C7
:100B4000FFE70CE00598C06AB0F1C07F04D1FFE771
:100B500001208DF81300FFE701E000E0FFE745E02A
:100B600005988069B0F5005F25D1FFE703980190F3
:100B700003281ED80199DFE801F0020602110120C6
:100B80008DF8130016E0059890F82F00C00720B1EB
:100B9000FFE701208DF81300FFE70BE00598C06A1E
:100BA000B0F1C07F04D1FFE701208DF81300FFE70B
:100BB00000E0FFE719E003980090032804D3FFE763
:100BC0000098032804D00EE001208DF813000BE0FC
:100BD000059890F82F00C00720B1FFE701208DF89D
:100BE0001300FFE700E0FFE7FFE7FFE79DF81300D2
:100BF00006B070477047000080B5102000F060FC20
:100C000080BD000080B5202000F05AFC80BD0000AF
:100C100072B6FFE7FEE7000085B003900291002066
:100C20000190FFE7039890F83C00012804D1FFE70A
:100C300002208DF81300F7E00399012081F83C00B1
:100C4000FFE7FFE7029800680A281CD3FFE7029835
:100C5000008800EB4000A0F11E01072000FA01F21D
:100C600003980168C8689043C86002998868098839
:100C700001EB41011E3900FA01F203980168C868CE
:100C80001043C86018E00298008800EB400107207C
:100C900000FA01F20398016808699043086102991B
:100CA0008868098801EB410100FA01F203980168A4
:100CB000086910430861FFE70298406806281BD8BE
:100CC000FFE70298406800EB8000411F1F2000FAF8
:100CD00001F203980168486B9043486302990888C1
:100CE000496801EB8101053900FA01F203980168B6
:100CF000486B104348633DE0029840680C281CD8BC
:100D0000FFE70298406800EB8000A0F123011F205C
:100D100000FA01F203980168086B90430863029996
:100D20000888496801EB8101233900FA01F2039830
:100D30000168086B104308631BE00298406800EBF1
:100D40008000A0F141011F2000FA01F20398016820
:100D5000C86A9043C86202990888496801EB81011A
:100D6000413900FA01F203980168C86A1043C86269
:100D7000FFE7FFE742F20030C4F201000090039861
:100D8000006842F20001C4F2010188420BD1FFE782
:100D900002980068122806D1FFE70099486840F4DD
:100DA00080004860FFE70398006842F20001C4F247
:100DB000010188422ED1FFE702980068102805D073
:100DC000FFE702980068112824D1FFE700994868DE
:100DD00040F40000486002980068102819D1FFE72D
:100DE00040F20800C2F2000000684DF68361C4F2D0
:100DF0001B31A0FB0110800C00EB80004000019033
:100E0000FFE7019820B1FFE7019801380190F8E76A
:100E1000FFE7FFE7FFE70399002081F83C00FFE7C9
:100E200000208DF81300FFE79DF8130005B0704710
:100E300080B584B0029000208DF80700029820B998
:100E4000FFE701208DF80F0042E00298806A01213F
:100E5000C0F60071884201D0FFE7FFE70298006CFE
:100E600050B9FFE7029800F037F802990020486473
:100E7000029981F83C00FFE70298006CC006002848
:100E800017D4FFE70298006C40F0020020F488506D
:100E9000029908640298FFF7D9FA02990020486481
:100EA0000298006C40F0010020F0020002990864F2
:100EB00003E001208DF80700FFE7FFE7029900201B
:100EC00081F83C00FFE79DF807008DF80F00FFE771
:100ED0009DF80F0004B080BD80B588B00790002059
:100EE000069005900490039002900798006842F2E3
:100EF0000001C4F20101884230D1FFE7FFE7002082
:100F0000019043F64400C4F20200016841F480718C
:100F10000160006800F4807001900198FFE7FFE72E
:100F20000020009043F63000C4F20200016841F056
:100F300004010160006800F0040000900098FFE7E1
:100F400008200290032003900020049040F6000047
:100F5000C4F2020002A900F0CFFAFFE708B080BD9A
:100F600080B582B00090009820B9FFE701208DF88D
:100F7000070011E00098407938B9FFE70099002098
:100F80000871009800F00CF8FFE700990120487103
:100F900000208DF80700FFE79DF8070002B080BD34
:100FA00082B001900198006843F20001C4F202018E
:100FB000884212D1FFE7FFE70020009043F630009F
:100FC000C4F20200016841F480510160006800F43D
:100FD000805000900098FFE7FFE702B070470000E4
:100FE00080B586B005900020039040F20800C2F260
:100FF0000000006848F2B511C1F64E31A0FB0110A7
:10100000800A02900598806D019001980068049014
:1010100004980599C96DC840000700281AD5FFE754
:101020000598006800684007002812D5FFE705987A
:101030000168086820F0040008600598C16D082068
:101040008840019988600599486D40F00100486525
:10105000FFE7FFE704980599C96DC840C007A0B134
:10106000FFE7059800684069000600280CD5FFE7F7
:101070000598C16D01208840019988600599486DE7
:1010800040F002004865FFE7FFE704980599C96D45
:10109000C8404007002814D5FFE70598006800689D
:1010A000800700280CD5FFE70598C16D0420884013
:1010B000019988600599486D40F004004865FFE794
:1010C000FFE704980599C96DC840C006002847D5B8
:1010D000FFE7059800680068000700283FD5FFE794
:1010E0000598C16D102088400199886005980068B6
:1010F0000068400300281AD5FFE7059800680068DB
:101100000003002809D4FFE70598006C20B1FFE731
:101110000598016C8847FFE708E00598806C20B1CE
:10112000FFE70598816C8847FFE7FFE716E0059821
:1011300000680068C005002807D4FFE7059801682B
:10114000086820F008000860FFE70598006C20B1EF
:10115000FFE70598016C8847FFE7FFE7FFE7FFE738
:1011600004980599C96DC8408006002840F18D801B
:10117000FFE7059800680068C006002840F18480F9
:10118000FFE70598C16D2020884001998860059887
:1011900090F83500052834D1FFE705980168086804
:1011A00020F01600086005980168486920F080006A
:1011B00048610598006C20B9FFE70598806C38B14C
:1011C000FFE705980168086820F008000860FFE75D
:1011D0000598C16D3F2088400199886005990120DC
:1011E00081F83500FFE70599002081F83400FFE71A
:1011F0000598006D20B1FFE70598016D8847FFE76E
:101200007BE0059800680068400300281AD5FFE7D6
:101210000598006800680003002809D4FFE70598D6
:10122000406C20B1FFE70598416C8847FFE708E074
:101230000598C06B20B1FFE70598C16B8847FFE7B1
:10124000FFE720E0059800680068C005002811D479
:10125000FFE705980168086820F01000086005990C
:10126000012081F83500FFE70599002081F834005E
:10127000FFE7FFE70598C06B20B1FFE70598C16B5A
:101280008847FFE7FFE7FFE7FFE70598406DA0B35A
:10129000FFE70598406DC00730B3FFE705990520CB
:1012A00081F8350005980168086820F001000860A1
:1012B000FFE70398013003900299884201D9FFE7C4
:1012C00007E0FFE7059800680068C0070028F0D134
:1012D000FFE70599012081F83500FFE70599002017
:1012E00081F83400FFE7FFE70598C06C20B1FFE705
:1012F0000598C16C8847FFE7FFE706B080BD000096
:1013000080B586B004900020039000F0E9FA0290C6
:10131000049820B9FFE701208DF81700A3E0049896
:10132000406A08B1FFE7FFE70499022081F8350021
:10133000FFE70499002081F83400FFE70498016872
:10134000086820F001000860FFE704980068006862
:10135000C00790B1FFE700F0C3FA0299401A0628CF
:101360000AD3FFE70499202048650499032081F8F7
:1013700035008DF8170076E0E7E70498006800680C
:101380000390039848F23F01CFF210010840039008
:10139000049900914868D1F808C0CB680A6940EA0E
:1013A0000C00184310434A6910438A691043CA6904
:1013B0001043096A01430398084303900498406A64
:1013C000042808D1FFE70499C86A096B0143039810
:1013D00008430390FFE7039804990968086004989C
:1013E000006840690390039820F007000390049878
:1013F000416A0398084303900498406A04281AD16C
:10140000FFE70498816A0398084303900498C06A30
:1014100080B1FFE70498FFF775FB50B1FFE704992F
:10142000402048650499012081F835008DF81700A7
:1014300019E0FFE7FFE703980499096848610498F9
:10144000FFF734FB01900498C16D3F20884001995B
:101450008860049900204865049A012182F83510BB
:101460008DF81700FFE79DF8170006B080BD00005B
:1014700080B584B0039000F033FA02900398019095
:101480000198013048B1FFE740F20C00C2F20000C1
:101490000178019808440190FFE7FFE700F020FA87
:1014A0000299401A0199884201D2FFE7F6E704B099
:1014B00080BD000081B0ADF8020001B070470000AF
:1014C00080B582B0ADF8060043F61440C4F20100C6
:1014D0000068BDF8061008420CD0FFE7BDF8060012
:1014E00043F61441C4F201010860BDF80600FFF79D
:1014F000E1FFFFE702B080BD8EB00D900C9100209F
:101500000A90099008900B90FFE70B980F2800F2C3
:10151000CC81FFE70B99012088400A900C98006865
:101520000A990840099009980A99884240F0B881C0
:10153000FFE70C98406800F00300012807D0FFE7A0
:101540000C98406800F0030002282FD1FFE70D98A7
:10155000806808900B984100032000FA01F1089878
:10156000884308900C98C0680B99490000FA01F173
:1015700008980843089008980D9988600D9840686D
:1015800008900B99012000FA01F10898884308900F
:101590000C984068C0F300100B9900FA01F108980C
:1015A0000843089008980D994860FFE70C98406838
:1015B00000F00300032818D0FFE70D98C0680890DA
:1015C0000B984100032000FA01F108988843089025
:1015D0000C9880680B99490000FA01F108980843BB
:1015E000089008980D99C860FFE70C98406800F0D3
:1015F0000300022826D1FFE70D980B996FF0030234
:1016000002EA51010844006A08900B9800F00700B4
:1016100081000F2000FA01F10898884308900C9887
:1016200000690B9901F00701890000FA01F108989F
:101630000843089008980D990B9B02EA5302114445
:101640000862FFE70D98006808900B98410003209E
:1016500000FA01F10898884308900C98406800F05F
:1016600003000B99490000FA01F10898084308901B
:1016700008980D9908600C9880798007002800F080
:101680000E81FFE7FFE70020079043F64400C4F215
:101690000200016841F480410160006800F480406C
:1016A00007900798FFE70B9820F0030043F6080126
:1016B000C4F20101405808900B9800F0030081002B
:1016C0000F2000FA01F10898884308900D98002136
:1016D000C4F20201884203D1FFE7002006905EE0D9
:1016E0000D9840F20041C4F20201884203D1FFE7A5
:1016F0000120059050E00D9840F60001C4F202016F
:10170000884203D1FFE70220049042E00D9840F6A2
:101710000041C4F20201884203D1FFE70320039095
:1017200034E00D9841F20001C4F20201884203D175
:10173000FFE70420029026E00D9841F20041C4F238
:101740000201884203D1FFE70520019018E00D98BF
:1017500041F60001C4F20201884203D1FFE70620EE
:1017600000900AE00D9941F60042C4F202020820FE
:10177000914208BF07200090FFE700980190FFE723
:1017800001980290FFE702980390FFE70398049006
:10179000FFE704980590FFE705980690FFE7069895
:1017A000C0B20B9901F00301890000FA01F1089819
:1017B0000843089008980B9921F0030143F60802AA
:1017C000C4F20102885043F60840C4F201000068E8
:1017D000089009990898884308900C988079C00669
:1017E000002805D5FFE70999089808430890FFE706
:1017F000089843F60841C4F20101086043F60C4022
:10180000C4F201000068089009990898884308907C
:101810000C9880798006002805D5FFE7099908987B
:1018200008430890FFE7089843F60C41C4F2010111
:10183000086043F60440C4F201000068089009996A
:101840000898884308900C9880798007002805D56F
:10185000FFE70999089808430890FFE7089843F6BE
:101860000441C4F20101086043F60040C4F20100E3
:101870000068089009990898884308900C98807926
:10188000C00728B1FFE70999089808430890FFE7C7
:10189000089843F60041C4F201010860FFE7FFE742
:1018A000FFE70B9801300B902FE60EB07047000059
:1018B00082B00190ADF802108DF801209DF8010072
:1018C00028B1FFE7BDF802000199886105E0BDF885
:1018D0000200000401998861FFE702B07047000030
:1018E00040F68810C2F200000068704780B58EB0E4
:1018F0000C900C9820B9FFE701208DF8370043E1E8
:101900000C9890F83D0040B9FFE70C99002081F851
:101910003C000C9800F03CF9FFE70C99242081F87A
:101920003D000C980168086820F0010008600C98E0
:101930000168086840F4004008600C980168086875
:1019400020F40040086000F009FD0A900C984068FF
:1019500048F2A061C0F2010188420BD8FFE70A9962
:1019600048F28042C0F21E020020914238BF01209E
:1019700009900AE00A9940F60012C0F23D020020E8
:10198000914238BF01200990FFE70998012804D14E
:10199000FFE701208DF83700F6E00A984DF68361E5
:1019A000C4F21B31A0FB0110800C0B900C98006856
:1019B000406820F03F000B9908430C990968486083
:1019C0000C980068006A20F03F0008900C9840686E
:1019D00048F2A061C0F20101884204D8FFE70B98E9
:1019E000013007900EE00B984FF49671484344F68F
:1019F000D351C1F26201A0FB0101012000EB911063
:101A00000790FFE70898079908430C99096808624E
:101A10000C980068C0694CF6FF71884306900C98DA
:101A2000406848F2A061C0F2010188421FD8FFE778
:101A30000A9801380C9949684900B0FBF1F001306F
:101A40006FF31F30032803D8FFE7042005900BE055
:101A50000A9801380C9949684900B0FBF1F001304F
:101A60006FF31F300590FFE7059804904CE00C9849
:101A7000806868B9FFE70A9801380C99496801EB5A
:101A80004101B0FBF1F001306FF31F3003900DE026
:101A90000A9801380C99496819225143B0FBF1F0BA
:101AA0000130042161F31F300390FFE70398000524
:101AB00018B9FFE70120029023E00C98806868B90C
:101AC000FFE70A9801380C99496801EB4101B0FB26
:101AD000F1F001306FF31F3001900DE00A980138EA
:101AE0000C99496819225143B0FBF1F001300421EF
:101AF00061F31F300190FFE7019840F4004002902D
:101B0000FFE702980490FFE70698049908430C99B0
:101B10000968C8610C980068006820F0C0000C9B40
:101B20001968DA691B6A1A43104308600C98006848
:101B3000806848F2FF3188430C9A1168D3681269B3
:101B40001A43104388600C980068C06820F0FF00BA
:101B50000C9B19685A699B691A431043C8600C981A
:101B60000168086840F0010008600C9900200864D2
:101B70000C9A202182F83D100C9908630C9981F889
:101B80003E008DF83700FFE79DF837000EB080BDAE
:101B900080B58AB0099000200890079006900590C3
:101BA00004900998006845F20041C4F2000188429F
:101BB00034D1FFE7FFE70020039043F63000C4F282
:101BC0000200016841F002010160006800F00200BB
:101BD00003900398FFE7C020049012200590002096
:101BE0000690032007900420089040F20040C4F2C1
:101BF000020004A9FFF780FCFFE70020029043F6F3
:101C00004000C4F20200016841F400110160006864
:101C100000F4001002900298FFE73EE00998006887
:101C200045F60001C4F20001884235D1FFE7FFE725
:101C30000020019043F63000C4F20200016841F038
:101C400002010160006800F0020001900198FFE7C6
:101C50004FF440600490122005900020069003206D
:101C600007900420089040F20040C4F2020004A94A
:101C7000FFF742FCFFE70020009043F64000C4F26B
:101C80000200016841F480010160006800F48000F6
:101C900000900098FFE7FFE7FFE70AB080BD000073
:101CA00040F20C00C2F20000027840F68811C2F245
:101CB00000010868104408607047000080B543F6D2
:101CC0000041C4F20201086840F40070086008682E
:101CD00040F480600860086840F480700860032069
:101CE00000F08AF80F2000F005F800F03BF8002023
:101CF00080BD000080B582B0009040F20800C2F2C2
:101D00000000006840F20C01C2F200010A784FF4B2
:101D10007A71B1FBF2F1B0FBF1F001F009FA20B1F8
:101D2000FFE701208DF8070018E000980F280DD874
:101D3000FFE700994FF0FF30002200F043F80098D1
:101D400040F21001C2F20001086003E001208DF8AA
:101D5000070003E000208DF80700FFE79DF807006B
:101D600002B080BD82B0FFE70020019043F644003E
:101D7000C4F20200016841F480410160006800F48F
:101D8000804001900198FFE7FFE70020009043F6B4
:101D90004000C4F20200016841F080510160006817
:101DA00000F0805000900098FFE702B070470000FC
:101DB00080B582B08DF807009DF9070003F0B0F8F8
:101DC00002B080BD80B586B08DF8170004910392F3
:101DD0000020029003F0BCF802909DF917000190DA
:101DE00002980499039A02F083F80146019803F0DF
:101DF000B7F806B080BD000080B582B001900198B0
:101E000003F0D0F802B080BD80B58EB00C900C9875
:101E100020B9FFE701208DF8370012E10C98006827
:101E20000B900C9890F8950440B9FFE70C990020AE
:101E300081F894040C9800F009F9FFE70C9903204D
:101E400081F895040B98B0F1A04F04D1FFE70C99ED
:101E500000208871FFE70C98006802F053FF0C9B8C
:101E60001868197C8DF8241059689A68DB68089303
:101E7000079206910699079A089BDDF824C0EE4662
:101E8000CEF800C002F032FD40B1FFE70C9902200D
:101E900081F8950401208DF83700D2E00C98006895
:101EA000002102F0B9FF40B1FFE70C99022081F850
:101EB000950401208DF83700C3E000208DF82B0039
:101EC000FFE79DF82B000C990979884241DAFFE77A
:101ED0000C989DF82B1001EBC10100EB8101012052
:101EE00048759DF82B000C9900EBC00201EB8201B4
:101EF00008759DF82B000C9900EBC00201EB8201E4
:101F0000C8850C989DF82B1001EBC10100EB8101F5
:101F1000002008760C999DF82B2002EBC20201EB01
:101F20008201C8610C999DF82B2002EBC20201EBE3
:101F3000820108620C999DF82B2002EBC20201EB92
:101F400082014862FFE79DF82B0001308DF82B00DD
:101F5000B7E700208DF82B00FFE79DF82B000C99C8
:101F6000097988423EDAFFE70C989DF82B1001EBC7
:101F7000C10100EB8101002081F855029DF82B1072
:101F80000C9A01EBC10302EB830282F854120C9904
:101F90009DF82B2002EBC20201EB820181F858026E
:101FA0000C999DF82B2002EBC20201EB8201C1F8D3
:101FB0005C020C999DF82B2002EBC20201EB82011E
:101FC000C1F860020C999DF82B2002EBC20201EBD4
:101FD0008201C1F86402FFE79DF82B0001308DF803
:101FE0002B00BAE70C9B1868197C8DF814105968FF
:101FF0009A68DB680493039202910299039A049B06
:10200000DDF814C0EE46CEF800C002F02DFD40B160
:10201000FFE70C99022081F8950401208DF8370024
:102020000FE00C990020019048740C99012081F870
:1020300095040C98006802F001FD01988DF83700B6
:10204000FFE79DF837000EB080BD000080B588B076
:102050000790002006900590049003900290079846
:102060000068B0F1A04F3ED1FFE7FFE700200190EC
:1020700043F63000C4F20200016841F00101016042
:10208000006800F0010001900198FFE74FF4C05094
:1020900002900220039000200490032005900A2063
:1020A00006900020C4F2020002A9FFF725FAFFE71C
:1020B00043F63401C4F20201086840F08000086071
:1020C000FFE70020009043F64400C4F202000168DC
:1020D00041F480410160006800F480400090009865
:1020E000FFE7FFE7FFE708B080BD000080B584B0E0
:1020F00002900191029820B9FFE701208DF80F00AE
:1021000021E1019843F60041C4F20201096801F09F
:102110000701884212D9FFE7019943F60040C4F253
:1021200002000170006800F007000199884204D0A5
:10213000FFE701208DF80F0005E1FFE70298007826
:10214000800700282AD5FFE702980078400700287A
:1021500009D5FFE743F60801C4F20201086840F41C
:10216000E0500860FFE7029800780007002809D5D2
:10217000FFE743F60801C4F20201086840F460403A
:102180000860FFE743F60801C4F20201086820F086
:10219000F000029A926810430860FFE70298007806
:1021A000C00700286ED0FFE702984068012811D1CF
:1021B000FFE743F60000C4F20200006800F40031BB
:1021C0000020B0EB514F04D1FFE701208DF80F0044
:1021D000B9E02CE002984068022805D0FFE7029899
:1021E0004068032811D1FFE743F60000C4F2020063
:1021F000006800F000710020B0EB516F04D1FFE7E0
:1022000001208DF80F009EE010E043F60000C4F2BC
:102210000200006800F002010020B0EB510F04D171
:10222000FFE701208DF80F008DE0FFE7FFE743F6A1
:102230000801C4F20201086820F00300029A526803
:1022400010430860FFF74CFB0090FFE743F60800DF
:10225000C4F20200006800F00C0002994968B0EB7B
:10226000810F0ED0FFE7FFF73BFB0099401A41F2C8
:102270008931884204D3FFE703208DF80F0062E024
:10228000E4E7FFE7019843F60041C4F20201096860
:1022900001F00701884212D2FFE7019943F600409E
:1022A000C4F202000170006800F007000199884242
:1022B00004D0FFE701208DF80F0044E0FFE702980B
:1022C0000078400700280CD5FFE743F60801C4F268
:1022D0000201086820F4E050029AD26810430860B6
:1022E000FFE702980078000700280DD5FFE743F6C6
:1022F0000801C4F20201086820F46040029A1269E1
:1023000040EAC2000860FFE700F04CF843F608011D
:10231000C4F202010968C9B20A0945F24031C0F6A7
:102320000001895CC84040F20801C2F20001086067
:1023300040F21000C2F200000068FFF7DBFC002052
:102340008DF80F00FFE79DF80F0004B080BD00007E
:1023500040F20800C2F200000068704780B5FFF745
:10236000F7FF43F60801C4F202010968C1F38222B3
:1023700045F25031C0F60001895CC84080BD0000C4
:1023800080B5FFF7E5FF43F60801C4F202010968D2
:1023900089B24A0B45F25031C0F60001895CC84051
:1023A00080BD000080B586B00020059004900390A9
:1023B000029043F60800C4F20200006800F00C002E
:1023C0000146019140B1FFE7019804280AD0FFE7D8
:1023D000019808280CD04FE042F20040C0F2F4000F
:1023E00002904FE041F60030C0F2B700029049E0A1
:1023F00043F60400C4F20200016801F03F010591B8
:1024000000684002002813D5FFE743F60400C4F239
:1024100002000068C0F3881041F60031C0F2B70135
:10242000A0FB0101059A0023FDF734FF049012E0A0
:1024300043F60400C4F202000068C0F3881042F2C0
:102440000041C0F2F401A0FB0101059A0023FDF751
:1024500021FF0490FFE743F60400C4F20200006885
:1024600000F44031022000EBD1300390049803992E
:10247000B0FBF1F0029005E042F20040C0F2F4003F
:102480000290FFE7029806B080BD000080B586B0DC
:102490000490049820B9FFE701208DF8170050E35D
:1024A00004980078C007002800F0A580FFE743F6F5
:1024B0000800C4F20200006800F00C00042813D0E9
:1024C000FFE743F60800C4F20200006800F00C00C9
:1024D00008281ED1FFE743F60400C4F2020000689A
:1024E0004002002815D5FFE743F60000C4F20200C1
:1024F000006800F400310020B0EB514F08D0FFE736
:102500000498406820B9FFE701208DF8170018E310
:1025100070E0FFE704984068B0F5803F09D1FFE71D
:1025200043F60001C4F20201086840F480300860FC
:1025300020E004984068B0F5A02F0DD1FFE743F6E6
:102540000001C4F20201086840F4802008600868B5
:1025500040F4803008600CE043F60001C4F2020150
:10256000086820F480300860086820F48020086043
:10257000FFE7FFE7FFE704984068E8B1FFE7FFF7F0
:10258000AFF90390FFE743F60000C4F202000068D1
:1025900000F400310020B0EB514F0CD1FFE7FFF702
:1025A0009FF90399401A652804D3FFE703208DF8AB
:1025B0001700C6E2E7E71CE0FFF792F90390FFE798
:1025C00043F60000C4F20200006800F4003100206D
:1025D000B0EB514F0CD0FFE7FFF782F90399401A97
:1025E000652804D3FFE703208DF81700A9E2E7E789
:1025F000FFE7FFE7FFE7049800788007002840F135
:102600009680FFE743F60800C4F20200006810F06D
:102610000C0F13D0FFE743F60800C4F20200006875
:1026200000F00C0008282CD1FFE743F60400C4F2A8
:10263000020000684002002823D4FFE743F60000B0
:10264000C4F20200006800F002010020B0EB510F5C
:1026500009D0FFE70498C068012804D0FFE70120F3
:102660008DF817006DE243F60001C4F2020108681C
:1026700020F0F800049A126940EAC2000860FFE7FF
:1026800054E00498C06870B3FFE70021C4F247210A
:1026900001200860FFF724F90390FFE743F60000EC
:1026A000C4F20200006800F002010020B0EB510FFC
:1026B0000CD1FFE7FFF714F90399401A032804D35C
:1026C000FFE703208DF817003BE2E7E743F6000140
:1026D000C4F20201086820F0F800049A126940EA86
:1026E000C200086021E00021C4F2472100200860F8
:1026F000FFF7F6F80390FFE743F60000C4F202008C
:10270000006800F002010020B0EB510F0CD0FFE791
:10271000FFF7E6F80399401A032804D3FFE70320E4
:102720008DF817000DE2E7E7FFE7FFE7FFE7049802
:102730000078000700284BD5FFE70498406918B3DC
:10274000FFE740F68061C4F2472101200860FFF7EF
:10275000C7F80390FFE743F67400C4F20200006874
:1027600000F002010020B0EB510F0CD1FFE7FFF7A2
:10277000B7F80399401A032804D3FFE703208DF824
:102780001700DEE1E7E722E040F68061C4F247216E
:1027900000200860FFF7A4F80390FFE743F67400F9
:1027A000C4F20200006800F002010020B0EB510FFB
:1027B0000CD0FFE7FFF794F80399401A032804D3DD
:1027C000FFE703208DF81700BBE1E7E7FFE7FFE72E
:1027D000049800784007002840F1CE80FFE70020F1
:1027E0008DF8070043F64000C4F202000068C00004
:1027F000002815D4FFE7FFE70020009043F64000D3
:10280000C4F20200016841F080510160006800F0EC
:10281000805000900098FFE701208DF80700FFE747
:1028200047F20000C4F200000068C005002822D46E
:10283000FFE747F20001C4F20001086840F480702D
:102840000860FFF74DF80390FFE747F20000C4F27D
:1028500000000068C00500280CD4FFE7FFF740F82F
:102860000399401A032804D3FFE703208DF81700CB
:1028700067E1EAE7FFE7FFE704988068012809D1EC
:10288000FFE743F67001C4F20201086840F001005E
:1028900008601FE00498806805280DD1FFE743F623
:1028A0007001C4F20201086840F004000860086882
:1028B00040F0010008600CE043F67001C4F2020130
:1028C000086820F001000860086820F00400086033
:1028D000FFE7FFE7FFE704988068F8B1FFE7FEF73E
:1028E000FFFF0390FFE743F67000C4F202000068A8
:1028F00000F002010020B0EB510F0ED1FFE7FEF710
:10290000EFFF0399401A41F28931884204D3FFE76F
:1029100003208DF8170014E1E5E71EE0FEF7E0FF65
:102920000390FFE743F67000C4F20200006800F075
:1029300002010020B0EB510F0ED0FFE7FEF7D0FFF1
:102940000399401A41F28931884204D3FFE70320FA
:102950008DF81700F5E0E5E7FFE79DF8070001288F
:1029600009D1FFE743F64001C4F20201086820F0F4
:1029700080500860FFE7FFE704988069002800F0B6
:10298000DC80FFE743F60800C4F20200006800F0B4
:102990000C00082800F08580FFE704988069022871
:1029A0005CD1FFE76021C4F2472100200860FEF7F8
:1029B00097FF0390FFE743F60000C4F202000068AF
:1029C00000F000710020B0EB516F0CD0FFE7FEF774
:1029D00087FF0399401A032804D3FFE703208DF8EB
:1029E0001700AEE0E7E70499C869D1F820C04B6A48
:1029F0008A6A40EA0C0040EA8310D2034FF6FF7364
:102A00009A43A2F580321043C96A40EA016043F656
:102A10000401C4F2020108606021C4F247210120D0
:102A20000860FEF75DFF0390FFE743F60000C4F285
:102A30000200006800F000710020B0EB516F0CD173
:102A4000FFE7FEF74DFF0399401A032804D3FFE781
:102A500003208DF8170074E0E7E721E06021C4F25D
:102A6000472100200860FEF73BFF0390FFE743F695
:102A70000000C4F20200006800F000710020B0EB1A
:102A8000516F0CD0FFE7FEF72BFF0399401A032884
:102A900004D3FFE703208DF8170052E0E7E7FFE7D4
:102AA0004AE004988069012804D1FFE701208DF8ED
:102AB000170046E043F60400C4F2020000680290EA
:102AC00004988069012831D0FFE7029800F4800063
:102AD0000499C969884229D1FFE7029800F03F00B4
:102AE0000499096A884221D1FFE7029847F6C0712C
:102AF00008400499496AB0EB811F17D1FFE702989B
:102B000000F440300499896AC9034FF6FF7291437B
:102B1000A1F58031884209D1FFE7029800F070608A
:102B20000499C96AB0EB016F04D0FFE701208DF86A
:102B3000170006E0FFE7FFE7FFE700208DF817002A
:102B4000FFE79DF8170006B080BD000080B584B097
:102B50000290029820B9FFE701208DF80F0071E084
:102B60000298406A60B9FFE702984068B0F5827F3A
:102B700001D1FFE703E002990020C861FFE705E00B
:102B800002990020086102994861FFE7029900203C
:102B90008862029890F8510040B9FFE7029900203E
:102BA00081F85000029800F051F8FFE702990220E6
:102BB00081F8510002980168086820F04000086020
:102BC000029A019211685068D2F808C0D36800F4E4
:102BD00082700CF4044C604403F4006318441369DD
:102BE00003F002031844536903F001031844936986
:102BF00003F400731844D36903F038031844136ACC
:102C000003F080031843926A02F4005210430860F4
:102C1000029A508B00F004001168526A02F0100210
:102C20001044486002980168C86920F40060C861D7
:102C3000029900204865029A012182F851108DF80E
:102C40000F00FFE79DF80F0004B080BD80B58CB089
:102C50000B9000200A9009900890079006900B981E
:102C6000006843F20001C4F20101884240F08C8008
:102C7000FFE7FFE70020059043F64400C4F202009E
:102C8000016841F480510160006800F480500590B3
:102C90000598FFE7FFE70020049043F63000C4F2F8
:102CA0000200016841F001010160006800F00100CC
:102CB00004900498FFE7E02006900220079000208F
:102CC000029008900320099005200A900020C4F289
:102CD000020006A9FEF710FC029940F26010C2F251
:102CE0000000039046F25842C4F2020202604FF024
:102CF000C062426040228260C1604FF48062026123
:102D000041618161C1614FF4003202624162FEF7AC
:102D1000F7FA18B1FFE7FDF77BFFFFE7FFE70B9836
:102D200040F26011C2F2000181640B988863FFE7F2
:102D300040F20010C2F20000019046F21041C4F2CD
:102D4000020101604FF0C061416000218160C160FB
:102D50004FF48062026141618161C1614FF4403290
:102D600002624162FEF7CCFA18B1FFE7FDF750FFAF
:102D7000FFE7FFE70B9840F20011C2F20001C164C7
:102D80000B988863FFE7FFE70CB080BD80B58CB07F
:102D9000DDF838C00A9009910892ADF81E30012084
:102DA0000390FEF79DFD04900A9890F851008DF86D
:102DB00017000A9840680690BDF81E00ADF81C0088
:102DC0009DF81700012812D0FFE70698B0F5827F22
:102DD00009D1FFE70A98806828B9FFE79DF8170036
:102DE000042804D0FFE702208DF82F009BE109980A
:102DF00038B1FFE7089820B1FFE7BDF81E0020B901
:102E0000FFE701208DF82F008DE1FFE70A9890F889
:102E10005000012804D1FFE702208DF82F0082E145
:102E20000A99012081F85000FFE7FFE70A9890F81F
:102E30005100042805D0FFE70A99052081F85100C8
:102E4000FFE70A990020486508990A9A9163BDF83E
:102E50001E100A9AD187BDF81E100A9A9187099907
:102E60000A9A1163BDF81E100A9AD186BDF81E1089
:102E70000A9A91860A9908640A9948640A9800682F
:102E8000006800F04000402807D0FFE70A9801687A
:102E9000086840F040000860FFE70A98C068B0F595
:102EA000006F40F08180FFE70A98406828B1FFE793
:102EB000BDF81C0001280ED1FFE70A980168006BDD
:102EC0000088C8600A99086B023008630A99C88EA6
:102ED0000138C886FFE7FFE70A98C18E01200190FC
:102EE00039B9FFE70A98C08F002818BF0120019068
:102EF000FFE70198C007002855D0FFE70A9800684F
:102F000080688007002818D5FFE70A98C08EA0B116
:102F1000FFE70398012810D1FFE70A980168006BCA
:102F20000088C8600A99086B023008630A99C88E45
:102F30000138C88600200390FFE70A98006880687F
:102F4000C007A8B1FFE70A98C08F88B1FFE70A98C9
:102F50000068C0680A99896B08800A99886B0230FA
:102F600088630A99C88F0138C88701200390FFE75A
:102F7000FEF7B6FC0499401A0E99884212D3FFE777
:102F80000E98013070B1FFE70A99012081F85100D5
:102F9000FFE70A99002081F85000FFE703208DF831
:102FA0002F00C0E098E782E00A98406828B1FFE768
:102FB000BDF81C0001280ED1FFE70A980168006BDC
:102FC000007808730A99086B013008630A99C88E63
:102FD0000138C886FFE7FFE70A98C18E01200090FC
:102FE00039B9FFE70A98C08F002818BF0120009068
:102FF000FFE70098C007002858D0FFE70A9800684C
:1030000080688007002818D5FFE70A98C08EA0B115
:10301000FFE70398012810D1FFE70A980168006BC9
:10302000007808730A99086B013008630A99C88E02
:103030000138C88600200390FFE70A98006880687E
:10304000C007A8B1FFE70A98C08F88B1FFE70A98C8
:103050000068C0680A99896B08700A99886B01300A
:1030600088630A99C88F0138C88701200390FFE759
:10307000FEF736FC0499401A0E99884204D3FFE704
:103080000E98013018B9FFE70E9870B9FFE70A995A
:10309000012081F85100FFE70A99002081F85000D3
:1030A000FFE703208DF82F003DE095E7FFE70A9842
:1030B0000E99049A00F054FF68B1FFE70A992020A6
:1030C0004865FFE70A99002081F85000FFE70120DA
:1030D0008DF82F0027E00A98806870B9FFE7FFE7B6
:1030E000002002900A980068C06802900A98006860
:1030F000806802900298FFE7FFE70A99012081F8B3
:103100005100FFE70A99002081F85000FFE70A9874
:10311000406D20B1FFE701208DF82F0003E0002073
:103120008DF82F00FFE79DF82F000CB080BD000048
:1031300080B582B00190019801F010F802B080BD16
:1031400084B00290019100200090FFE7029890F86F
:103150003C00012804D1FFE702208DF80F0044E075
:103160000299012081F83C00FFE7FFE7009820F07A
:10317000FF000199C96808430090009820F440704E
:103180000199896808430090009820F480600199B3
:10319000496808430090009820F40060019909688C
:1031A00008430090009820F4805001990969084371
:1031B0000090009820F4005001994969084300905C
:1031C000009820F480400199C96908430090009854
:1031D000029909684864FFE70299002081F83C00E1
:1031E000FFE700208DF80F00FFE79DF80F0004B007
:1031F0007047000085B003900291FFE7039890F8B4
:103200003C00012804D1FFE702208DF813007EE086
:103210000399012081F83C00FFE7FFE703990220B2
:1032200081F83D00039800684068019003980068A9
:1032300080680090019820F0700001900298016869
:103240000198084301900198039909684860039820
:1032500000680021C4F2010188423CD0FFE70398D6
:103260000068B0F1804F36D0FFE70398006840F265
:103270000041C4F2000188422DD0FFE703980068A6
:1032800040F60001C4F20001884224D0FFE7039811
:10329000006840F60041C4F2000188421BD0FFE7FD
:1032A0000398006840F20041C4F20101884212D044
:1032B000FFE70398006844F20001C4F2010188426C
:1032C00009D0FFE70398006841F60001C4F200014D
:1032D00088420ED1FFE7009820F08000009002980D
:1032E0004168009808430090009803990968886035
:1032F000FFE70399012081F83D00FFE703990020D3
:1033000081F83C00FFE700208DF81300FFE79DF8EF
:10331000130005B07047000080B58CB00B90002002
:103320000A9009900890079006900B980068002179
:10333000C4F20101884223D1FFE7FFE70020059096
:1033400043F63000C4F20200016841F01001016050
:10335000006800F0100005900598FFE74FF420503A
:1033600006900220079000200890099001200A9002
:1033700041F20000C4F2020006A9FEF7BDF84DE0DC
:103380000B98006840F20041C4F20001884244D129
:10339000FFE7FFE70020049043F63000C4F202008C
:1033A000016841F002010160006800F00200049031
:1033B0000498FFE7FFE70020039043F63000C4F2D3
:1033C0000200016841F004010160006800F004009F
:1033D00003900398FFE702200190069007900021D8
:1033E0000091089109910A9040F20040C4F2020055
:1033F00006A90291FEF780F8009A019802994FF40D
:10340000807306930790089209920A9040F6000094
:10341000C4F20200FEF770F8FFE7FFE70CB080BDD2
:1034200080B586B004900391029200208DF80700C9
:10343000FFE7049890F83C00012804D1FFE7022040
:103440008DF8170089E00499012081F83C00FFE71E
:10345000FFE7029800900C2800F270800099DFE8E6
:1034600001F0076D6D6D206D6D6D3A6D6D6D5300E2
:1034700004980068039900F0DFFF049801688869E8
:1034800040F00800886104980168886920F0040011
:10349000886103980269049801688869104388610B
:1034A00050E004980068039901F03CF80498016822
:1034B000886940F40060886104980168886920F494
:1034C000806088610398026904980168886940EA0D
:1034D0000220886136E004980068039901F09CF8A6
:1034E00004980168C86940F00800C8610498016840
:1034F000C86920F00400C861039802690498016853
:10350000C8691043C8611DE004980068039901F080
:10351000FDF804980168C86940F40060C861049827
:103520000168C86920F48060C86103980269049842
:103530000168C86940EA0220C86103E001208DF8F3
:103540000700FFE7FFE70499002081F83C00FFE750
:103550009DF807008DF81700FFE79DF8170006B0EB
:1035600080BD000080B582B00090009820B9FFE7D0
:1035700001208DF807003FE0009890F83D0040B929
:10358000FFE70099002081F83C00009800F038F82F
:10359000FFE70099022081F83D00009951F8040BE3
:1035A00000F072FE0099012081F84600FFE70099C3
:1035B000012081F83E00009981F83F00009981F8D0
:1035C0004000009981F84100FFE7FFE700990120E2
:1035D00081F84200009981F84300009981F8440085
:1035E000009981F84500FFE70099012081F83D002E
:1035F00000208DF80700FFE79DF8070002B080BDAE
:1036000083B00290029800680021C4F20101884250
:1036100012D1FFE7FFE70020019043F64400C4F217
:103620000200016841F001010160006800F0010042
:1036300001900198FFE71BE00298006840F200410A
:10364000C4F20001884212D1FFE7FFE7002000909A
:1036500043F64000C4F20200016841F0020101603B
:10366000006800F0020000900098FFE7FFE7FFE726
:1036700003B0704780B582B00090009820B9FFE792
:1036800001208DF8070040E00098806908B1FFE74D
:1036900000E0FFE7009890F8410040B9FFE700998B
:1036A000002081F84000009800F034F8FFE700990E
:1036B000242081F8410000980168C86820F4005077
:1036C000C860009801F074F800980168086920F457
:1036D0009040086100980168486920F02A0048611C
:1036E00000980168C86840F40050C8600099002044
:1036F0004864009A202182F84110009A82F8421012
:10370000009948638DF80700FFE79DF8070002B0B5
:1037100080BD000080B58EB00D9000200C900B9005
:103720000A90099008900D98006841F20001C4F2D7
:103730000101884240F08980FFE7FFE70020079001
:1037400043F64400C4F20200016841F01001016038
:10375000006800F0100007900798FFE7FFE70020DF
:10376000069043F63000C4F20200016841F0010106
:103770000160006800F0010006900698FFE74FF432
:10378000C060089002200990002002900A90032057
:103790000B9007200C900020C4F2020008A9FDF74E
:1037A000ABFE029940F2C010C2F20000039046F254
:1037B0004042C4F2020202604FF000624260816047
:1037C000C1604FF48062026141618161C161016247
:1037D0004162FDF795FD18B1FFE7FDF719FAFFE724
:1037E000FFE70D9840F2C011C2F20001C1630D98CD
:1037F0008863FFE740F22020C2F20000019046F209
:10380000B841C4F2020101604FF000614160402103
:1038100081600021C1604FF4806202614161816179
:10382000C16101624162FDF76BFD18B1FFE7FDF771
:10383000EFF9FFE7FFE70D9840F22021C2F2000107
:1038400081630D988863FFE73CE00D98006844F2BF
:103850000041C4F20001884233D1FFE7FFE70020B6
:10386000059043F64000C4F20200016841F40031C3
:103870000160006800F4003005900598FFE7FFE75D
:103880000020049043F63000C4F20200016841F0C9
:1038900001010160006800F0010004900498FFE756
:1038A0000C2008900220099000200A9003200B9021
:1038B00007200C900020C4F2020008A9FDF71CFEAE
:1038C000FFE7FFE70EB080BDFFE7FEE780B586B0FB
:1038D00000220092059204920392029240F2B000FC
:1038E000C2F20000019042F20001C4F20101016045
:1038F0004FF48031416082600261027680F82020BE
:10390000C2620121C0F600718162C2600121C16101
:1039100080F830204161FDF78BFA18B1FFE7FDF721
:1039200077F9FFE70D20029001200390002004901A
:1039300040F2B000C2F2000002A9FDF76DF918B123
:10394000FFE7FDF765F9FFE706B080BD80B540F2FF
:10395000F800C2F2000043F20001C4F2020101606B
:10396000FDF7FEFA18B1FFE7FDF752F9FFE780BD5A
:1039700080B586B0FFE70020059043F63000C4F222
:103980000200016841F480010160006800F48000D9
:1039900005900598FFE73820009000220392114619
:1039A000FEF710FA0098FEF703FA039A3A20019006
:1039B0001146FEF707FA0198FEF7FAF9039A3B2041
:1039C00002901146FEF7FEF90298FEF7F1F9039A0C
:1039D000462004901146FEF7F5F90498FEF7E8F941
:1039E00006B080BD80B596B000201590149013905D
:1039F00012901190FFE70020109043F63000C4F2BF
:103A00000200016841F010010160006800F0100040
:103A100010901098FFE7FFE700200F9043F630006A
:103A2000C4F20200016841F080010160006800F00A
:103A300080000F900F98FFE7FFE700200E9043F6FD
:103A40003000C4F20200016841F004010160006826
:103A500000F004000E900E98FFE7FFE700200D90A5
:103A600043F63000C4F20200016841F00101016038
:103A7000006800F001000D900D98FFE7FFE70020BF
:103A80000C9043F63000C4F20200016841F00201DC
:103A90000160006800F002000C900C98FFE741F212
:103AA0000000C4F2020001900C2100910122059255
:103AB000FDF7FEFE059A0020C4F2020003901021DB
:103AC0000291FDF7F5FE059A40F20040C4F20200B3
:103AD00006901146FDF7ECFE009A019805991192A7
:103AE0001291139100210A91149111A90791FDF7E8
:103AF00003FD029B0398059A079911931292139262
:103B0000022204921492FDF7F7FC07990A983022DA
:103B100011924FF404121292139040F60000C4F276
:103B20000200FDF7E9FC049A059B0698079911939A
:103B3000129313931492FDF7DFFC059A06980799E8
:103B40000A9B4FF4405CCDF844C012931392FDF7EA
:103B5000D3FC069807990A9A4FF4404311931292A6
:103B60001392FDF7C9FC0A9A0A20089005210991D1
:103B7000FEF728F90898FEF71BF909990A9A172009
:103B80000B90FEF71FF90B98FEF712F916B080BDE7
:103B900080B582B040F28020C2F20000019045F270
:103BA0000041C4F20001016048F2A061C0F20101CD
:103BB000416000218160C1604FF480420261416137
:103BC0008161C1610162FDF791FE18B1FFE7FDF768
:103BD0001FF8FFE702B080BD80B582B040F2D4206C
:103BE000C2F20000019045F60001C4F2000101603C
:103BF00048F2A061C0F20101416000218160C16012
:103C00004FF48042026141618161C1610162FDF74F
:103C10006DFE18B1FFE7FCF7FBFFFFE702B080BDC8
:103C200080B582B040F60C00C2F20000019043F271
:103C30000001C4F2010101604FF482714160002172
:103C40008160C16002220261012242614FF4007270
:103C500082613822C2610162416281620A21C162CD
:103C6000FEF774FF18B1FFE7FCF7D2FFFFE702B0E1
:103C700080BD000080B594B0002101911391129194
:103C8000119110910F910E910D910C910B910A9140
:103C9000099108910791069105910491039140F6CD
:103CA0006400C2F2000002900022C4F2010202602D
:103CB0004160816041F28732C2600161416181618E
:103CC000FFF750FC18B1FFE7FCF7A2FFFFE7002069
:103CD0001290139040F66400C2F2000012A9FFF7A0
:103CE00089FA18B1FFE7FCF793FFFFE760200B901C
:103CF00000200C900D900E900F901090119040F6B7
:103D00006400C2F200000BA90422FFF789FB18B17E
:103D1000FFE7FCF77DFFFFE740F66400C2F200001A
:103D20000BA90822FFF77CFB18B1FFE7FCF770FF37
:103D3000FFE70020039004900590069007904FF451
:103D4000005108910A9040F66400C2F2000003A9F5
:103D5000FFF7F6F918B1FFE7FCF75AFFFFE740F667
:103D60006400C2F20000FFF7D7FA14B080BD000073
:103D700080B58AB0002100910991089107910691C0
:103D80000591049103910291019140F6AC00C2F2B9
:103D9000000040F20042C4F2000202604160816013
:103DA00041F28732C26001618161FFF7DBFB18B12C
:103DB000FFE7FCF72DFFFFE700200890099040F691
:103DC000AC00C2F2000008A9FFF714FA18B1FFE72F
:103DD000FCF71EFFFFE76020019000200290039097
:103DE000059040F6AC00C2F2000001A90822FFF7DE
:103DF00017FB18B1FFE7FCF70BFFFFE740F6AC003D
:103E0000C2F2000001A90C22FFF70AFB18B1FFE77C
:103E1000FCF7FEFEFFE740F6AC00C2F20000FFF741
:103E20007BFA0AB080BD000080B582B040F6F40095
:103E3000C2F20000019041F20001C4F201010160F0
:103E40004FF4E131416000218160C16001610C22C9
:103E500042618161C161FFF70DFC18B1FFE7FCF71A
:103E6000D7FEFFE702B080BD80B582B040F63C10BF
:103E7000C2F20000019044F20041C4F2000101606E
:103E80004FF4E131416000218160C16001610C2289
:103E900042618161C161FFF7EDFB18B1FFE7FCF7FB
:103EA000B7FEFFE702B080BD80B582B040F2283097
:103EB000C2F2000001904FF0A041016004210171A5
:103EC0000222C2710021817142728172C17201733A
:103ED0008173C173FDF798FF18B1FFE7FCF798FEF7
:103EE000FFE702B080BD0000FFE7FEE7FFE7FEE767
:103EF00088B0079006910592079800F0070004909B
:103F00000498C0F10700052803D3FFE704200190BF
:103F100004E00498C0F107000190FFE701980390C6
:103F200004980430062803D8FFE70020009003E03F
:103F3000049803380090FFE70098029006980399D0
:103F4000012202FA01F101390840029B98400599CB
:103F50009A40013A1140084308B07047704700008A
:103F600080B586B00490039102920498039B029955
:103F70006A4611600221012200F058F848B1FFE7BB
:103F80000499486D40F02000486503208DF8170023
:103F900048E040F20800C2F2000000684AF6AB2197
:103FA000CAF6AA21A0FB011000094FF2A171C1F2CB
:103FB000C601A0FB0110000C4FF47A714843019038
:103FC00004984068B0F5827F15D1FFE70498039B01
:103FD00002996A4611608021002200F027F848B15A
:103FE000FFE70499486D40F02000486503208DF8F4
:103FF000170017E012E0FFE7019808B9FFE70CE0AF
:10400000019801380190FFE7049800688068C1B208
:104010000020B0EBD11FEFD1FFE7FFE700208DF8C4
:104020001700FFE79DF8170006B080BD80B58AB085
:10403000DDF830C0089007918DF81B200593059896
:104040000190FDF74DFC024601980C99891A08442D
:104050000390FDF745FC0290039840F20801C2F27C
:1040600000010968C1F3CB3148430490FFE7089889
:104070000068806807990840401AB0FA80F040094B
:104080009DF81B1088425ED0FFE70598013000289C
:1040900058D0FFE7FDF724FC0299401A03998842A3
:1040A00004D2FFE70398002842D1FFE7089801688F
:1040B000486820F0E000486008984068B0F5827FCA
:1040C00013D1FFE708988068B0F5004F06D0FFE7EE
:1040D00008988068B0F5806F07D1FFE708980168FD
:1040E000086820F040000860FFE70898806AB0F593
:1040F000005F0FD1FFE7FFE708980168086820F428
:104100000050086008980168086840F40050086092
:10411000FFE7FFE70899012081F85100FFE70899C0
:10412000002081F85000FFE703208DF827000EE003
:10413000049818B9FFE700200390FFE704980138BE
:104140000490FFE793E700208DF82700FFE79DF834
:1041500027000AB080BD00007047000080B582B023
:10416000009000980138B0F1807F03D3FFE7012071
:10417000019019E0009801384EF21401CEF20001CE
:1041800008604FF0FF300F2100F0EAFE4EF21801F8
:10419000CEF20001002008604EF21002CEF20002C2
:1041A000072111600190FFE7019802B080BD000077
:1041B00080B5FDF775FD80BD80B594B008A83021AD
:1041C000FCF7E0F80020079006900590049003901B
:1041D000FFE70020029043F64000C4F202000168AD
:1041E00041F080510160006800F080500290029818
:1041F000FFE7FFE70020019047F20000C4F2000053
:10420000016841F480410160006800F48040019041
:104210000198FFE7012008904FF4803009900220B8
:104220000E904FF480010F9106211091A821119159
:1042300012900720139008A8FEF728F918B1FFE79D
:10424000FCF7E6FCFFE70F2003900220049000201B
:1042500005904FF4A05006904FF48050079003A8AB
:104260000521FDF743FF18B1FFE7FCF7D1FCFFE79D
:1042700014B080BD4EF68851CEF20001086840F4BB
:10428000700008607047000083B0029001910298AE
:104290000068009002980021C4F20101884225D0F4
:1042A000FFE70298B0F1804F20D0FFE7029840F27C
:1042B0000041C4F20001884218D0FFE7029840F69E
:1042C0000001C4F20001884210D0FFE7029840F6D6
:1042D0000041C4F20001884208D0FFE7029840F292
:1042E0000041C4F2010188420AD1FFE7009820F0A2
:1042F0007000009001984168009808430090FFE723
:1043000002980021C4F20101884255D0FFE70298CB
:10431000B0F1804F50D0FFE7029840F20041C4F264
:104320000001884248D0FFE7029840F60001C4F23D
:104330000001884240D0FFE7029840F60041C4F2F5
:104340000001884238D0FFE7029840F20041C4F2F1
:104350000101884230D0FFE7029844F20001C4F224
:104360000101884228D0FFE7029844F20041C4F2DC
:104370000101884220D0FFE7029844F60001C4F210
:104380000101884218D0FFE7029841F60001C4F20B
:104390000001884210D0FFE7029841F60041C4F2C4
:1043A0000001884208D0FFE7029842F20001C4F2FF
:1043B000000188420AD1FFE7009820F44070009085
:1043C0000198C168009808430090FFE7009820F02A
:1043D000800001994969084300900098029908609B
:1043E000019880680299C862019800680299886201
:1043F00002980021C4F20101884208D0FFE7029828
:1044000040F20041C4F20101884205D1FFE7019862
:10441000006902990863FFE7029901204861029848
:104420000069C00730B1FFE70299086920F0010078
:104430000861FFE703B0704785B0049003910498CA
:10444000006A01900499086A20F00100086204984B
:1044500040680090049880690290029820F07000F3
:104460000290029820F003000290039801680298DD
:1044700008430290019820F002000190039881689F
:1044800001980843019004980021C4F20101884278
:1044900008D0FFE7049840F20041C4F201018842CD
:1044A0000ED1FFE7019820F0080001900398C16841
:1044B000019808430190019820F004000190FFE763
:1044C00004980021C4F20101884208D0FFE7049853
:1044D00040F20041C4F20101884213D1FFE7009885
:1044E00020F480700090009820F4007000900398F1
:1044F0004169009808430090039881690098084337
:104500000090FFE700980499486002980499886138
:10451000039840680499486301980499086205B0BB
:104520007047000085B0049003910498006A0190E0
:104530000499086A20F0100008620498406800900E
:10454000049880690290029820F4E040029002985A
:1045500020F44070029003980168029840EA01201C
:104560000290019820F02000019003988168019842
:1045700040EA0110019004980021C4F20101884230
:1045800008D0FFE7049840F20041C4F201018842DC
:104590000FD1FFE7019820F0800001900398C168D7
:1045A000019840EA01100190019820F0400001902C
:1045B000FFE704980021C4F20101884208D0FFE718
:1045C000049840F20041C4F20101884215D1FFE78E
:1045D000009820F480600090009820F40060009023
:1045E00003984169009840EA81000090039881692E
:1045F000009840EA81000090FFE700980499486025
:104600000298049988610398406804998863019826
:104610000499086205B0704785B00490039104982E
:10462000006A01900499086A20F480700862049876
:10463000406800900498C0690290029820F07000D1
:104640000290029820F003000290039801680298FB
:1046500008430290019820F400700190039881684B
:10466000019840EA0120019004980021C4F2010160
:10467000884208D0FFE7049840F20041C4F20101EB
:1046800088420FD1FFE7019820F400600190039861
:10469000C168019840EA01200190019820F48060EF
:1046A0000190FFE704980021C4F20101884208D07C
:1046B000FFE7049840F20041C4F20101884215D19D
:1046C000FFE7009820F480500090009820F40050FC
:1046D000009003984169009840EA01100090039807
:1046E0008169009840EA01100090FFE70098049962
:1046F000486002980499C861039840680499C863A7
:1047000001980499086205B07047000085B00490D4
:1047100003910498006A01900499086A20F480507B
:1047200008620498406800900498C069029002985A
:1047300020F4E0400290029820F440700290039828
:104740000168029840EA01200290019820F400508C
:10475000019003988168019840EA01300190049823
:104760000021C4F20101884208D0FFE7049840F21A
:104770000041C4F2010188420BD1FFE7009820F408
:104780008040009003984169009840EA81100090B1
:10479000FFE700980499486002980499C86103985B
:1047A00040680499086401980499086205B070474C
:1047B00080B586B0059005980068006920F44050E7
:1047C000059A1168D26810430861059988680B69D9
:1047D0004A69C96918431043084304900598006862
:1047E000C06849F20C618843049908430599096837
:1047F000C86005980068406920F44070059A116807
:104800009269104348610598006841F20001C4F2C2
:104810000101884209D0FFE70598006841F2004194
:10482000C4F20101884204D1FFE7FDF7A9FD03901E
:1048300003E0FDF793FD0390FFE70598C069B0F52D
:10484000004F29D1FFE703981921A0FB0101059A28
:104850001368029353685A00DB0FFBF71BFD0299A4
:10486000864648F21F53C5F2EB13AEFB0320420904
:1048700010014FF0640C02FB1CEC322202EBCC0264
:10488000A2FB0332F82303EA521300EB4300C2F306
:1048900042121044886026E003981921A0FB010110
:1048A000059A1368019353689A009B0FFBF7F2FC7B
:1048B0000199844648F21F52C5F2EB12ACFB02305C
:1048C0004309642003FB10CC322000EB0C10A0FB4A
:1048D0000202F02000EA521000EB0310C2F3431270
:1048E00010448860FFE706B080BD000080B58AB044
:1048F000DDF830C0CDF814C00493039202919DF806
:1049000014108DF824100299039A049B08930792BF
:10491000069101909DF81D00012823D1FFE7019920
:10492000886B20F4803088630199C8684FF6BF72A5
:10493000CFF6BD721040C8600199C86820F44010DD
:10494000C8609DF82400012806D1FFE70199C868D6
:1049500040F48010C860FFE7019800F033F88DF84C
:1049600003001AE00199C86840F04000C86001984F
:1049700000F028F88DF803009DF8210030B9FFE71A
:104980000199886B40F48030886305E00199886B59
:1049900020F480308863FFE7FFE79DF81A000128C4
:1049A0000BD1FFE70199886840F006008860019903
:1049B000886840F020008860FFE79DF803000AB097
:1049C00080BD000083B0019000200090FFE70098B8
:1049D000013000900098B0F1706F04D9FFE7032018
:1049E0008DF80B0025E0FFE701980069C00F002853
:1049F000EDD0FFE7002000900199086940F0010028
:104A00000861FFE70098013000900098B0F1706FE6
:104A100004D9FFE703208DF80B000AE0FFE70198B7
:104A20000069C0070028EDD1FFE700208DF80B00DA
:104A3000FFE79DF80B0003B07047000082B00190C3
:104A4000019800900099D1F8000E20F00300C1F801
:104A5000000E0099D1F8040840F00200C1F80408E3
:104A6000002002B07047000080B58CB0DDF838C07F
:104A7000CDF81CC00693059204919DF81C108DF88A
:104A80002C100499059A069B0A93099208910390A9
:104A900000208DF80B00039901910090FFE700982A
:104AA0000E280CD8FFE70398009900EB8101002045
:104AB000C1F80401FFE7009801300090EFE79DF88E
:104AC0002A00B8B9FFE70199D1F8040840F00200C4
:104AD000C1F804080399886B40F4001088630399B7
:104AE000886B20F4002088630399886B20F4802071
:104AF00088630AE00399886B20F4001088630399A7
:104B0000886B40F400208863FFE701990020C1F81A
:104B1000000E9DF8250001280FD1FFE79DF8230026
:104B200028B9FFE70398002100F0E6F904E00398B4
:104B3000012100F0E1F9FFE704E00398032100F010
:104B4000DBF9FFE70398102100F020F920B1FFE71F
:104B500001208DF80B00FFE7039800F0DDF820B18D
:104B6000FFE701208DF80B00FFE701990020C1F855
:104B700010080199C1F814080199C1F81C080090A7
:104B8000FFE700989DF8201088423BD2FFE701988C
:104B9000009900EB4110D0F80009C00FB0B1FFE759
:104BA000009848B9FFE70198009900EB41114FF0D8
:104BB0000060C1F8000908E00198009900EB41117C
:104BC0004FF09040C1F80009FFE707E00198009915
:104BD00000EB41110020C1F80009FFE7019800999E
:104BE00000EB41110020C1F810090198009900EB79
:104BF00041114FF67F30C1F80809FFE700980130F6
:104C00000090BEE700200090FFE700989DF820107C
:104C100088423BD2FFE70198009900EB4110D0F8A1
:104C2000000BC00FB0B1FFE7009848B9FFE701984B
:104C3000009900EB41114FF00060C1F8000B08E053
:104C40000198009900EB41114FF09040C1F8000B22
:104C5000FFE707E00198009900EB41110020C1F83F
:104C6000000BFFE70198009900EB41110020C1F80B
:104C7000100B0198009900EB41114FF67F30C1F8FD
:104C8000080BFFE7009801300090BEE70199D1F8CA
:104C9000100820F48070C1F8100803990020886182
:104CA00003996FF0804048619DF8220030B9FFE71A
:104CB0000399886940F010008861FFE703998869CB
:104CC00043F60002C8F23C02104388619DF82600BA
:104CD00030B1FFE70399886940F008008861FFE779
:104CE0009DF82A00012808D1FFE70399886904226A
:104CF000C4F2000210438861FFE79DF80B000CB07E
:104D000080BD000081B000900099886820F001000B
:104D10008860002001B0704783B0019000200090AF
:104D2000FFE70098013000900098B0F1706F04D94F
:104D3000FFE703208DF80B0024E0FFE701980069EE
:104D4000C00F0028EDD0FFE700200090019910204F
:104D50000861FFE70098013000900098B0F1706F93
:104D600004D9FFE703208DF80B000BE0FFE7019863
:104D7000006900F010001028ECD0FFE700208DF84B
:104D80000B00FFE79DF80B0003B0704784B0029062
:104D9000019100200090FFE70098013000900098FA
:104DA000B0F1706F04D9FFE703208DF80F0026E003
:104DB000FFE702980069C00F0028EDD0FFE7002050
:104DC000009001988001203002990861FFE7009867
:104DD000013000900098B0F1706F04D9FFE7032014
:104DE0008DF80F000BE0FFE70298006900F020004B
:104DF0002028ECD0FFE700208DF80F00FFE79DF89A
:104E00000F0004B07047000081B000900098406926
:104E100000F0010001B0704780B586B004908DF8B5
:104E20000F10002002900499C86820F0C040C860AC
:104E30009DF80F00012823D1FFE70499C86840F0CE
:104E40000050C860FFE70A20FCF712FB02980A3006
:104E50000290FFE70498FFF7D7FF014600200129E1
:104E6000019007D0FFE702990020C82938BF012030
:104E70000190FFE70198C0070028E4D1FFE72AE08E
:104E80009DF80F0010BBFFE70499C86840F0804010
:104E9000C860FFE70A20FCF7EBFA02980A3002909C
:104EA000FFE70498FFF7B0FF01460020009039B1FA
:104EB000FFE702990020C82938BF01200090FFE7D2
:104EC0000098C0070028E5D1FFE703E001208DF836
:104ED00017000CE0FFE70298C82804D1FFE7012083
:104EE0008DF8170003E000208DF81700FFE79DF80C
:104EF000170006B080BD000083B002908DF8071047
:104F0000029800909DF807200099D1F800081043FE
:104F1000C1F80008002003B070470000FFE7FEE77B
:104F200081B08DF803009DF9030000280ED4FFE73F
:104F30009DF9031001F01F02012090404A094EF232
:104F40000011CEF2000141F82200FFE701B07047E6
:104F50004EF60C50CEF200000068C0F302207047FD
:104F600082B08DF8070000919DF9070000280AD44F
:104F7000FFE7009800019DF907104EF20042CEF2C3
:104F8000000288540BE0009800019DF8071001F022
:104F90000F014EF61452CEF200028854FFE702B021
:104FA0007047000083B00290029800F00700009064
:104FB0004EF60C51CEF200010868019001984FF6B0
:104FC000FF02104001900198009A40EA022000225E
:104FD000C0F2FA52104301900198086003B0704784
:104FE00080B588B000208DF81E008DF81D00FBF7FD
:104FF000FDFA80200490FBF7A9FC55200590FBF7F3
:10500000A5FC0598FBF7A2FC8DF81E00FBF7E4FA5F
:1050100096200690FBF720FBFBF7E8FA0498FBF7D5
:1050200095FC0598FBF792FC0598FBF78FFC8DF833
:105030001E00FBF7D1FA0698FBF70EFBFBF7D6FA3A
:105040007E20B621FBF79AFCFBF7C6FA5020FBF74F
:10505000EFFAFBF7CBFA0498FBF778FC0598FBF71F
:1050600075FC0598FBF772FC8DF81E00FBF7B4FA8F
:105070000698FBF7F1FAFBF7B9FA0498FBF766FC20
:105080000598FBF763FC0598FBF760FC8DF81E00A4
:10509000FBF7A2FA0698FBF7DFFA9DF81E001E2820
:1050A00004D0FFE7FF208DF81F005CE000208DF8A2
:1050B0001D00FFE79DF81D00052850DCFFE7FBF70A
:1050C00095FA9DF81D0000EB400240F21400C2F278
:1050D000000003908118805C4978FBF74FFCFBF7D8
:1050E0007BFA96200290FBF7B7FAFBF77FFA03985A
:1050F0009DF81D1001EB4101405C40F08000FBF782
:1051000025FC55200190FBF721FC0198FBF71EFCC4
:105110008DF81E00FBF760FA0298FBF79DFA0399E1
:105120009DF81E009DF81D2002EB420211444978B3
:1051300088420DD0FFE79DF81D0000EB400140F2D2
:105140001400C2F20000084480788DF81F000AE0C5
:10515000FFE79DF81D0001308DF81D00AAE7002033
:105160008DF81F00FFE79DF81F0008B080BD00000C
:1051700080B586B0002002908DF816008DF81500DD
:10518000FBF74AFA02980DF115010391FBF7CCFBEE
:10519000FBF738FA96200490FBF75EFAFBF73CFA2F
:1051A00002980399FBF7C0FBFBF72CFA0498FBF776
:1051B00053FAFBF731FA1420B621FBF7DFFBFBF7BC
:1051C00021FA5020FBF734FAFBF726FA02980399EC
:1051D000FBF7AAFBFBF716FA0498FBF73DFAFBF77F
:1051E0001BFA02980399FBF79FFBFBF70BFA049855
:1051F000FBF732FA9DF815000F2804D0FFE7FF20D7
:105200008DF8170053E000208DF81600FFE79DF899
:105210001600052847DCFFE7FBF7FEF99DF81600AE
:1052200000EB400240F22600C2F20000019081181B
:10523000805C4978FBF7A2FBFBF7E4F9962000902D
:10524000FBF70AFAFBF7E8F901989DF8161001EB55
:105250004101405C0DF11501FBF766FBFBF7D2F94C
:105260000098FBF7F9F901999DF815009DF81620B3
:1052700002EB42021144497888420DD0FFE79DF8C5
:10528000160000EB400140F22600C2F20000084484
:1052900080788DF817000AE0FFE79DF816000130CE
:1052A0008DF81600B3E700208DF81700FFE79DF892
:1052B000170006B080BD000080B582B000200190CC
:1052C000FCF7FCFCFEF778FFFEF78CFBFEF750FBCB
:1052D000FEF7A6FCFEF7A8FDFEF7C6FDFEF77CFC78
:1052E000FEF7C8FCFEF744FDFEF7DEFDFEF7EEFA22
:1052F000FEF72CFBFEF74CFCFFE7FBF7F5F908B1D6
:10530000FFE7FAE7FFE740F2A400C2F2000040F234
:105310009801C2F2000140F68412C2F20002FBF7CB
:1053200001FA0A20FCF7A4F8EDE7F1EE100A4FF6B7
:10533000FF71C0F2C03120EA0100E1EE100A7047AF
:105340000000000000000000010203040607080935
:1053500000000000010203040006101600061016EB
:10536000805300080000002038000000EC01000815
:10537000B853000838000020580F00000C02000845
:10538000E7416B3A58A08B3A0024F400010000007A
:10539000100000007D04017C000240AB03410005C9
:1053A0005308065804070F000810820911000A1557
:0853B000800B16000C18010D22
:040000050800018965
:00000001FF
